{"contracts/EventHub.sol":{"EventHub":{"abi":[{"anonymous":false,"inputs":[{"indexed":false,"internalType":"uint256","name":"eventID","type":"uint256"},{"indexed":false,"internalType":"address","name":"attendeeAddress","type":"address"}],"name":"ConfirmedAttendee","type":"event"},{"anonymous":false,"inputs":[{"indexed":false,"internalType":"uint256","name":"eventID","type":"uint256"}],"name":"DepositsPaidOut","type":"event"},{"anonymous":false,"inputs":[{"indexed":false,"internalType":"uint256","name":"eventID","type":"uint256"},{"indexed":false,"internalType":"address","name":"creatorAddress","type":"address"},{"indexed":false,"internalType":"uint256","name":"eventTimestamp","type":"uint256"},{"indexed":false,"internalType":"uint256","name":"maxCapacity","type":"uint256"},{"indexed":false,"internalType":"uint256","name":"deposit","type":"uint256"},{"indexed":false,"internalType":"string","name":"imagePath","type":"string"}],"name":"NewEventCreated","type":"event"},{"anonymous":false,"inputs":[{"indexed":false,"internalType":"uint256","name":"eventID","type":"uint256"},{"indexed":false,"internalType":"address","name":"attendeeAddress","type":"address"}],"name":"NewRSVP","type":"event"},{"inputs":[{"internalType":"uint256","name":"eventId","type":"uint256"}],"name":"confirmAllAttendees","outputs":[],"stateMutability":"nonpayable","type":"function"},{"inputs":[{"internalType":"uint256","name":"eventId","type":"uint256"},{"internalType":"address","name":"attendee","type":"address"}],"name":"confirmAttendee","outputs":[],"stateMutability":"nonpayable","type":"function"},{"inputs":[{"internalType":"string","name":"title","type":"string"},{"internalType":"string","name":"description","type":"string"},{"internalType":"uint256","name":"eventTimestamp","type":"uint256"},{"internalType":"uint256","name":"deposit","type":"uint256"},{"internalType":"uint256","name":"maxCapacity","type":"uint256"},{"internalType":"string","name":"imagePath","type":"string"}],"name":"createNewEvent","outputs":[{"internalType":"uint256","name":"","type":"uint256"}],"stateMutability":"payable","type":"function"},{"inputs":[{"internalType":"uint256","name":"eventId","type":"uint256"}],"name":"createNewRSVP","outputs":[],"stateMutability":"payable","type":"function"},{"inputs":[],"name":"getContractBalance","outputs":[{"internalType":"uint256","name":"","type":"uint256"}],"stateMutability":"view","type":"function"},{"inputs":[{"internalType":"uint256","name":"eventID","type":"uint256"}],"name":"getEvent","outputs":[{"internalType":"string","name":"title","type":"string"},{"internalType":"string","name":"imagePath","type":"string"},{"internalType":"address","name":"eventOwner","type":"address"},{"internalType":"uint256","name":"eventTimestamp","type":"uint256"},{"internalType":"uint256","name":"maxCapacity","type":"uint256"},{"internalType":"uint256","name":"deposit","type":"uint256"},{"internalType":"address[]","name":"confirmedRSVPs","type":"address[]"}],"stateMutability":"view","type":"function"},{"inputs":[{"internalType":"uint256","name":"i","type":"uint256"}],"name":"getEventId","outputs":[{"internalType":"uint256","name":"","type":"uint256"}],"stateMutability":"view","type":"function"},{"inputs":[],"name":"getEventLength","outputs":[{"internalType":"uint256","name":"","type":"uint256"}],"stateMutability":"view","type":"function"},{"inputs":[{"internalType":"uint256","name":"","type":"uint256"}],"name":"idToEvent","outputs":[{"internalType":"string","name":"title","type":"string"},{"internalType":"string","name":"description","type":"string"},{"internalType":"string","name":"imagePath","type":"string"},{"internalType":"address","name":"eventOwner","type":"address"},{"internalType":"uint256","name":"eventTimestamp","type":"uint256"},{"internalType":"uint256","name":"deposit","type":"uint256"},{"internalType":"uint256","name":"maxCapacity","type":"uint256"},{"internalType":"bool","name":"paidOut","type":"bool"}],"stateMutability":"view","type":"function"},{"inputs":[],"name":"totalEvents","outputs":[{"internalType":"uint256","name":"","type":"uint256"}],"stateMutability":"view","type":"function"},{"inputs":[{"internalType":"uint256","name":"eventId","type":"uint256"}],"name":"withdrawUnclaimedDeposits","outputs":[],"stateMutability":"nonpayable","type":"function"}],"evm":{"bytecode":{"linkReferences":{},"object":"608060405234801561001057600080fd5b50612d58806100206000396000f3fe60806040526004361061009c5760003560e01c80636f9fb98a116100645780636f9fb98a14610191578063ada06a3b146101bc578063ba870686146101d8578063c3be559b14610203578063d46bae4b14610240578063df8ef00e146102845761009c565b80630f8e16dc146100a1578063127d17ab146100d15780635c98dfa1146100fa5780636acb5dd3146101255780636d1884e01461014e575b600080fd5b6100bb60048036038101906100b69190611d5c565b6102ad565b6040516100c89190611e5a565b60405180910390f35b3480156100dd57600080fd5b506100f860048036038101906100f39190611e75565b610592565b005b34801561010657600080fd5b5061010f610b66565b60405161011c9190611e5a565b60405180910390f35b34801561013157600080fd5b5061014c60048036038101906101479190611f00565b610b73565b005b34801561015a57600080fd5b5061017560048036038101906101709190611e75565b611092565b604051610188979695949392919061209d565b60405180910390f35b34801561019d57600080fd5b506101a6611314565b6040516101b39190611e5a565b60405180910390f35b6101d660048036038101906101d19190611e75565b61131c565b005b3480156101e457600080fd5b506101ed611589565b6040516101fa9190611e5a565b60405180910390f35b34801561020f57600080fd5b5061022a60048036038101906102259190611e75565b61158f565b6040516102379190611e5a565b60405180910390f35b34801561024c57600080fd5b5061026760048036038101906102629190611e75565b6115b7565b60405161027b98979695949392919061213c565b60405180910390f35b34801561029057600080fd5b506102ab60048036038101906102a69190611e75565b6117c4565b005b60008060005490506060806040518061014001604052808e8e8080601f016020809104026020016040519081016040528093929190818152602001838380828437600081840152601f19601f8201169050808301925050505050505081526020018c8c8080601f016020809104026020016040519081016040528093929190818152602001838380828437600081840152601f19601f82011690508083019250505050505050815260200187878080601f016020809104026020016040519081016040528093929190818152602001838380828437600081840152601f19601f8201169050808301925050505050505081526020013373ffffffffffffffffffffffffffffffffffffffff1681526020018a81526020018981526020018881526020018381526020018281526020016000151581525060026000858152602001908152602001600020600082015181600001908161040b919061240a565b506020820151816001019081610421919061240a565b506040820151816002019081610437919061240a565b5060608201518160030160006101000a81548173ffffffffffffffffffffffffffffffffffffffff021916908373ffffffffffffffffffffffffffffffffffffffff1602179055506080820151816004015560a0820151816005015560c0820151816006015560e08201518160070190805190602001906104b9929190611c10565b506101008201518160080190805190602001906104d7929190611c10565b506101208201518160090160006101000a81548160ff0219169083151502179055509050507f96beefe7c0c1b00e25286e8b55a743ec392f25ea7c8cb445359df7541168266083338b8a8c8b8b6040516105379796959493929190612518565b60405180910390a1600080815480929190610551906125b1565b919050555060018390806001815401808255809150506001900390600052602060002001600090919091909150558293505050509998505050505050505050565b600060026000838152602001908152602001600020604051806101400160405290816000820180546105c39061222d565b80601f01602080910402602001604051908101604052809291908181526020018280546105ef9061222d565b801561063c5780601f106106115761010080835404028352916020019161063c565b820191906000526020600020905b81548152906001019060200180831161061f57829003601f168201915b505050505081526020016001820180546106559061222d565b80601f01602080910402602001604051908101604052809291908181526020018280546106819061222d565b80156106ce5780601f106106a3576101008083540402835291602001916106ce565b820191906000526020600020905b8154815290600101906020018083116106b157829003601f168201915b505050505081526020016002820180546106e79061222d565b80601f01602080910402602001604051908101604052809291908181526020018280546107139061222d565b80156107605780601f1061073557610100808354040283529160200191610760565b820191906000526020600020905b81548152906001019060200180831161074357829003601f168201915b505050505081526020016003820160009054906101000a900473ffffffffffffffffffffffffffffffffffffffff1673ffffffffffffffffffffffffffffffffffffffff1673ffffffffffffffffffffffffffffffffffffffff1681526020016004820154815260200160058201548152602001600682015481526020016007820180548060200260200160405190810160405280929190818152602001828054801561086257602002820191906000526020600020905b8160009054906101000a900473ffffffffffffffffffffffffffffffffffffffff1673ffffffffffffffffffffffffffffffffffffffff1681526020019060010190808311610818575b50505050508152602001600882018054806020026020016040519081016040528092919081815260200182805480156108f057602002820191906000526020600020905b8160009054906101000a900473ffffffffffffffffffffffffffffffffffffffff1673ffffffffffffffffffffffffffffffffffffffff16815260200190600101908083116108a6575b505050505081526020016009820160009054906101000a900460ff16151515158152505090508061012001511561095c576040517f08c379a000000000000000000000000000000000000000000000000000000000815260040161095390612645565b60405180910390fd5b62093a80816080015161096f9190612665565b4210156109b1576040517f08c379a00000000000000000000000000000000000000000000000000000000081526004016109a8906126e5565b60405180910390fd5b806060015173ffffffffffffffffffffffffffffffffffffffff163373ffffffffffffffffffffffffffffffffffffffff1614610a23576040517f08c379a0000000000000000000000000000000000000000000000000000000008152600401610a1a90612751565b60405180910390fd5b6000816101000151518260e0015151610a3c9190612771565b905060008260a0015182610a5091906127a5565b905060018361012001901515908115158152505060003373ffffffffffffffffffffffffffffffffffffffff1682604051610a8a90612818565b60006040518083038185875af1925050503d8060008114610ac7576040519150601f19603f3d011682016040523d82523d6000602084013e610acc565b606091505b5050905080610ae8576000846101200190151590811515815250505b80610b28576040517f08c379a0000000000000000000000000000000000000000000000000000000008152600401610b1f90612879565b60405180910390fd5b7f0308e7ef5ff7ae64ed45c37a04775b24be0bfbc4cb5f5c3e6b0aa505d006eafc85604051610b579190611e5a565b60405180910390a15050505050565b6000600180549050905090565b60006002600084815260200190815260200160002090508060040154421015610bd1576040517f08c379a0000000000000000000000000000000000000000000000000000000008152600401610bc8906128e5565b60405180910390fd5b8060030160009054906101000a900473ffffffffffffffffffffffffffffffffffffffff1673ffffffffffffffffffffffffffffffffffffffff163373ffffffffffffffffffffffffffffffffffffffff1614610c63576040517f08c379a0000000000000000000000000000000000000000000000000000000008152600401610c5a90612951565b60405180910390fd5b600080600090505b82600701805490508160ff161015610d4d578373ffffffffffffffffffffffffffffffffffffffff16836007018260ff1681548110610cad57610cac612971565b5b9060005260206000200160009054906101000a900473ffffffffffffffffffffffffffffffffffffffff1673ffffffffffffffffffffffffffffffffffffffff1603610d3a57826007018160ff1681548110610d0c57610d0b612971565b5b9060005260206000200160009054906101000a900473ffffffffffffffffffffffffffffffffffffffff1691505b8080610d45906129ad565b915050610c6b565b508273ffffffffffffffffffffffffffffffffffffffff168173ffffffffffffffffffffffffffffffffffffffff1614610dbc576040517f08c379a0000000000000000000000000000000000000000000000000000000008152600401610db390612a22565b60405180910390fd5b60005b82600801805490508160ff161015610e95578373ffffffffffffffffffffffffffffffffffffffff16836008018260ff1681548110610e0157610e00612971565b5b9060005260206000200160009054906101000a900473ffffffffffffffffffffffffffffffffffffffff1673ffffffffffffffffffffffffffffffffffffffff1603610e82576040517f08c379a0000000000000000000000000000000000000000000000000000000008152600401610e7990612a8e565b60405180910390fd5b8080610e8d906129ad565b915050610dbf565b50600015158260090160009054906101000a900460ff16151514610eee576040517f08c379a0000000000000000000000000000000000000000000000000000000008152600401610ee590612afa565b60405180910390fd5b81600801839080600181540180825580915050600190039060005260206000200160009091909190916101000a81548173ffffffffffffffffffffffffffffffffffffffff021916908373ffffffffffffffffffffffffffffffffffffffff16021790555060008373ffffffffffffffffffffffffffffffffffffffff168360050154604051610f7d90612818565b60006040518083038185875af1925050503d8060008114610fba576040519150601f19603f3d011682016040523d82523d6000602084013e610fbf565b606091505b50509050806110125782600801805480610fdc57610fdb612b1a565b5b6001900381819060005260206000200160006101000a81549073ffffffffffffffffffffffffffffffffffffffff021916905590555b80611052576040517f08c379a000000000000000000000000000000000000000000000000000000000815260040161104990612879565b60405180910390fd5b7ff51b42fda5553f12aca9bf0984b446bf9883824e148ee9e467eb21f180a05ff38585604051611083929190612b49565b60405180910390a15050505050565b606080600080600080606060026000898152602001908152602001600020600001600260008a8152602001908152602001600020600201600260008b815260200190815260200160002060030160009054906101000a900473ffffffffffffffffffffffffffffffffffffffff16600260008c815260200190815260200160002060040154600260008d815260200190815260200160002060060154600260008e815260200190815260200160002060050154600260008f81526020019081526020016000206007018680546111679061222d565b80601f01602080910402602001604051908101604052809291908181526020018280546111939061222d565b80156111e05780601f106111b5576101008083540402835291602001916111e0565b820191906000526020600020905b8154815290600101906020018083116111c357829003601f168201915b505050505096508580546111f39061222d565b80601f016020809104026020016040519081016040528092919081815260200182805461121f9061222d565b801561126c5780601f106112415761010080835404028352916020019161126c565b820191906000526020600020905b81548152906001019060200180831161124f57829003601f168201915b50505050509550808054806020026020016040519081016040528092919081815260200182805480156112f457602002820191906000526020600020905b8160009054906101000a900473ffffffffffffffffffffffffffffffffffffffff1673ffffffffffffffffffffffffffffffffffffffff16815260200190600101908083116112aa575b505050505090509650965096509650965096509650919395979092949650565b600047905090565b600060026000838152602001908152602001600020905080600501543414611379576040517f08c379a000000000000000000000000000000000000000000000000000000000815260040161137090612bbe565b60405180910390fd5b80600401544211156113c0576040517f08c379a00000000000000000000000000000000000000000000000000000000081526004016113b790612c2a565b60405180910390fd5b806006015481600701805490501061140d576040517f08c379a000000000000000000000000000000000000000000000000000000000815260040161140490612c96565b60405180910390fd5b60005b81600701805490508160ff1610156114e6573373ffffffffffffffffffffffffffffffffffffffff16826007018260ff168154811061145257611451612971565b5b9060005260206000200160009054906101000a900473ffffffffffffffffffffffffffffffffffffffff1673ffffffffffffffffffffffffffffffffffffffff16036114d3576040517f08c379a00000000000000000000000000000000000000000000000000000000081526004016114ca90612d02565b60405180910390fd5b80806114de906129ad565b915050611410565b5080600701339080600181540180825580915050600190039060005260206000200160009091909190916101000a81548173ffffffffffffffffffffffffffffffffffffffff021916908373ffffffffffffffffffffffffffffffffffffffff1602179055507f305579fda99551f5107b32b7465875a3984f12521b5df905ee46fe6efb873f92823360405161157d929190612b49565b60405180910390a15050565b60005481565b6000600182815481106115a5576115a4612971565b5b90600052602060002001549050919050565b60026020528060005260406000206000915090508060000180546115da9061222d565b80601f01602080910402602001604051908101604052809291908181526020018280546116069061222d565b80156116535780601f1061162857610100808354040283529160200191611653565b820191906000526020600020905b81548152906001019060200180831161163657829003601f168201915b5050505050908060010180546116689061222d565b80601f01602080910402602001604051908101604052809291908181526020018280546116949061222d565b80156116e15780601f106116b6576101008083540402835291602001916116e1565b820191906000526020600020905b8154815290600101906020018083116116c457829003601f168201915b5050505050908060020180546116f69061222d565b80601f01602080910402602001604051908101604052809291908181526020018280546117229061222d565b801561176f5780601f106117445761010080835404028352916020019161176f565b820191906000526020600020905b81548152906001019060200180831161175257829003601f168201915b5050505050908060030160009054906101000a900473ffffffffffffffffffffffffffffffffffffffff16908060040154908060050154908060060154908060090160009054906101000a900460ff16905088565b600060026000838152602001908152602001600020604051806101400160405290816000820180546117f59061222d565b80601f01602080910402602001604051908101604052809291908181526020018280546118219061222d565b801561186e5780601f106118435761010080835404028352916020019161186e565b820191906000526020600020905b81548152906001019060200180831161185157829003601f168201915b505050505081526020016001820180546118879061222d565b80601f01602080910402602001604051908101604052809291908181526020018280546118b39061222d565b80156119005780601f106118d557610100808354040283529160200191611900565b820191906000526020600020905b8154815290600101906020018083116118e357829003601f168201915b505050505081526020016002820180546119199061222d565b80601f01602080910402602001604051908101604052809291908181526020018280546119459061222d565b80156119925780601f1061196757610100808354040283529160200191611992565b820191906000526020600020905b81548152906001019060200180831161197557829003601f168201915b505050505081526020016003820160009054906101000a900473ffffffffffffffffffffffffffffffffffffffff1673ffffffffffffffffffffffffffffffffffffffff1673ffffffffffffffffffffffffffffffffffffffff16815260200160048201548152602001600582015481526020016006820154815260200160078201805480602002602001604051908101604052809291908181526020018280548015611a9457602002820191906000526020600020905b8160009054906101000a900473ffffffffffffffffffffffffffffffffffffffff1673ffffffffffffffffffffffffffffffffffffffff1681526020019060010190808311611a4a575b5050505050815260200160088201805480602002602001604051908101604052809291908181526020018280548015611b2257602002820191906000526020600020905b8160009054906101000a900473ffffffffffffffffffffffffffffffffffffffff1673ffffffffffffffffffffffffffffffffffffffff1681526020019060010190808311611ad8575b505050505081526020016009820160009054906101000a900460ff1615151515815250509050806060015173ffffffffffffffffffffffffffffffffffffffff163373ffffffffffffffffffffffffffffffffffffffff1614611bba576040517f08c379a0000000000000000000000000000000000000000000000000000000008152600401611bb190612951565b60405180910390fd5b60005b8160e00151518160ff161015611c0b57611bf8838360e001518360ff1681518110611beb57611bea612971565b5b6020026020010151610b73565b8080611c03906129ad565b915050611bbd565b505050565b828054828255906000526020600020908101928215611c89579160200282015b82811115611c885782518260006101000a81548173ffffffffffffffffffffffffffffffffffffffff021916908373ffffffffffffffffffffffffffffffffffffffff16021790555091602001919060010190611c30565b5b509050611c969190611c9a565b5090565b5b80821115611cb3576000816000905550600101611c9b565b5090565b600080fd5b600080fd5b600080fd5b600080fd5b600080fd5b60008083601f840112611ce657611ce5611cc1565b5b8235905067ffffffffffffffff811115611d0357611d02611cc6565b5b602083019150836001820283011115611d1f57611d1e611ccb565b5b9250929050565b6000819050919050565b611d3981611d26565b8114611d4457600080fd5b50565b600081359050611d5681611d30565b92915050565b600080600080600080600080600060c08a8c031215611d7e57611d7d611cb7565b5b60008a013567ffffffffffffffff811115611d9c57611d9b611cbc565b5b611da88c828d01611cd0565b995099505060208a013567ffffffffffffffff811115611dcb57611dca611cbc565b5b611dd78c828d01611cd0565b97509750506040611dea8c828d01611d47565b9550506060611dfb8c828d01611d47565b9450506080611e0c8c828d01611d47565b93505060a08a013567ffffffffffffffff811115611e2d57611e2c611cbc565b5b611e398c828d01611cd0565b92509250509295985092959850929598565b611e5481611d26565b82525050565b6000602082019050611e6f6000830184611e4b565b92915050565b600060208284031215611e8b57611e8a611cb7565b5b6000611e9984828501611d47565b91505092915050565b600073ffffffffffffffffffffffffffffffffffffffff82169050919050565b6000611ecd82611ea2565b9050919050565b611edd81611ec2565b8114611ee857600080fd5b50565b600081359050611efa81611ed4565b92915050565b60008060408385031215611f1757611f16611cb7565b5b6000611f2585828601611d47565b9250506020611f3685828601611eeb565b9150509250929050565b600081519050919050565b600082825260208201905092915050565b60005b83811015611f7a578082015181840152602081019050611f5f565b60008484015250505050565b6000601f19601f8301169050919050565b6000611fa282611f40565b611fac8185611f4b565b9350611fbc818560208601611f5c565b611fc581611f86565b840191505092915050565b611fd981611ec2565b82525050565b600081519050919050565b600082825260208201905092915050565b6000819050602082019050919050565b61201481611ec2565b82525050565b6000612026838361200b565b60208301905092915050565b6000602082019050919050565b600061204a82611fdf565b6120548185611fea565b935061205f83611ffb565b8060005b83811015612090578151612077888261201a565b975061208283612032565b925050600181019050612063565b5085935050505092915050565b600060e08201905081810360008301526120b7818a611f97565b905081810360208301526120cb8189611f97565b90506120da6040830188611fd0565b6120e76060830187611e4b565b6120f46080830186611e4b565b61210160a0830185611e4b565b81810360c0830152612113818461203f565b905098975050505050505050565b60008115159050919050565b61213681612121565b82525050565b6000610100820190508181036000830152612157818b611f97565b9050818103602083015261216b818a611f97565b9050818103604083015261217f8189611f97565b905061218e6060830188611fd0565b61219b6080830187611e4b565b6121a860a0830186611e4b565b6121b560c0830185611e4b565b6121c260e083018461212d565b9998505050505050505050565b7f4e487b7100000000000000000000000000000000000000000000000000000000600052604160045260246000fd5b7f4e487b7100000000000000000000000000000000000000000000000000000000600052602260045260246000fd5b6000600282049050600182168061224557607f821691505b602082108103612258576122576121fe565b5b50919050565b60008190508160005260206000209050919050565b60006020601f8301049050919050565b600082821b905092915050565b6000600883026122c07fffffffffffffffffffffffffffffffffffffffffffffffffffffffffffffffff82612283565b6122ca8683612283565b95508019841693508086168417925050509392505050565b6000819050919050565b60006123076123026122fd84611d26565b6122e2565b611d26565b9050919050565b6000819050919050565b612321836122ec565b61233561232d8261230e565b848454612290565b825550505050565b600090565b61234a61233d565b612355818484612318565b505050565b5b818110156123795761236e600082612342565b60018101905061235b565b5050565b601f8211156123be5761238f8161225e565b61239884612273565b810160208510156123a7578190505b6123bb6123b385612273565b83018261235a565b50505b505050565b600082821c905092915050565b60006123e1600019846008026123c3565b1980831691505092915050565b60006123fa83836123d0565b9150826002028217905092915050565b61241382611f40565b67ffffffffffffffff81111561242c5761242b6121cf565b5b612436825461222d565b61244182828561237d565b600060209050601f8311600181146124745760008415612462578287015190505b61246c85826123ee565b8655506124d4565b601f1984166124828661225e565b60005b828110156124aa57848901518255600182019150602085019450602081019050612485565b868310156124c757848901516124c3601f8916826123d0565b8355505b6001600288020188555050505b505050505050565b82818337600083830152505050565b60006124f78385611f4b565b93506125048385846124dc565b61250d83611f86565b840190509392505050565b600060c08201905061252d600083018a611e4b565b61253a6020830189611fd0565b6125476040830188611e4b565b6125546060830187611e4b565b6125616080830186611e4b565b81810360a08301526125748184866124eb565b905098975050505050505050565b7f4e487b7100000000000000000000000000000000000000000000000000000000600052601160045260246000fd5b60006125bc82611d26565b91507fffffffffffffffffffffffffffffffffffffffffffffffffffffffffffffffff82036125ee576125ed612582565b5b600182019050919050565b7f414c524541445920504149440000000000000000000000000000000000000000600082015250565b600061262f600c83611f4b565b915061263a826125f9565b602082019050919050565b6000602082019050818103600083015261265e81612622565b9050919050565b600061267082611d26565b915061267b83611d26565b925082820190508082111561269357612692612582565b5b92915050565b7f544f4f204541524c590000000000000000000000000000000000000000000000600082015250565b60006126cf600983611f4b565b91506126da82612699565b602082019050919050565b600060208201905081810360008301526126fe816126c2565b9050919050565b7f4d555354204245204556454e54204f574e455200000000000000000000000000600082015250565b600061273b601383611f4b565b915061274682612705565b602082019050919050565b6000602082019050818103600083015261276a8161272e565b9050919050565b600061277c82611d26565b915061278783611d26565b925082820390508181111561279f5761279e612582565b5b92915050565b60006127b082611d26565b91506127bb83611d26565b92508282026127c981611d26565b915082820484148315176127e0576127df612582565b5b5092915050565b600081905092915050565b50565b60006128026000836127e7565b915061280d826127f2565b600082019050919050565b6000612823826127f5565b9150819050919050565b7f4661696c656420746f2073656e64204574686572000000000000000000000000600082015250565b6000612863601483611f4b565b915061286e8261282d565b602082019050919050565b6000602082019050818103600083015261289281612856565b9050919050565b7f4556454e54204e4f542053544152544544000000000000000000000000000000600082015250565b60006128cf601183611f4b565b91506128da82612899565b602082019050919050565b600060208201905081810360008301526128fe816128c2565b9050919050565b7f4e4f5420415554484f52495a4544000000000000000000000000000000000000600082015250565b600061293b600e83611f4b565b915061294682612905565b602082019050919050565b6000602082019050818103600083015261296a8161292e565b9050919050565b7f4e487b7100000000000000000000000000000000000000000000000000000000600052603260045260246000fd5b600060ff82169050919050565b60006129b8826129a0565b915060ff82036129cb576129ca612582565b5b600182019050919050565b7f4e4f205253565020544f20434f4e4649524d0000000000000000000000000000600082015250565b6000612a0c601283611f4b565b9150612a17826129d6565b602082019050919050565b60006020820190508181036000830152612a3b816129ff565b9050919050565b7f414c524541445920434c41494d45440000000000000000000000000000000000600082015250565b6000612a78600f83611f4b565b9150612a8382612a42565b602082019050919050565b60006020820190508181036000830152612aa781612a6b565b9050919050565b7f414c52454144592050414944204f555400000000000000000000000000000000600082015250565b6000612ae4601083611f4b565b9150612aef82612aae565b602082019050919050565b60006020820190508181036000830152612b1381612ad7565b9050919050565b7f4e487b7100000000000000000000000000000000000000000000000000000000600052603160045260246000fd5b6000604082019050612b5e6000830185611e4b565b612b6b6020830184611fd0565b9392505050565b7f4e4f5420454e4f55474800000000000000000000000000000000000000000000600082015250565b6000612ba8600a83611f4b565b9150612bb382612b72565b602082019050919050565b60006020820190508181036000830152612bd781612b9b565b9050919050565b7f414c52454144592048415050454e454400000000000000000000000000000000600082015250565b6000612c14601083611f4b565b9150612c1f82612bde565b602082019050919050565b60006020820190508181036000830152612c4381612c07565b9050919050565b7f54686973206576656e7420686173207265616368656420636170616369747900600082015250565b6000612c80601f83611f4b565b9150612c8b82612c4a565b602082019050919050565b60006020820190508181036000830152612caf81612c73565b9050919050565b7f414c524541445920434f4e4649524d4544000000000000000000000000000000600082015250565b6000612cec601183611f4b565b9150612cf782612cb6565b602082019050919050565b60006020820190508181036000830152612d1b81612cdf565b905091905056fea26469706673582212206f80db0f5b7490209e1f6f939fe6c222062721356f16bafffad04e1e8ef8c18d64736f6c63430008130033","opcodes":"PUSH1 0x80 PUSH1 0x40 MSTORE CALLVALUE DUP1 ISZERO PUSH2 0x10 JUMPI PUSH1 0x0 DUP1 REVERT JUMPDEST POP PUSH2 0x2D58 DUP1 PUSH2 0x20 PUSH1 0x0 CODECOPY PUSH1 0x0 RETURN INVALID PUSH1 0x80 PUSH1 0x40 MSTORE PUSH1 0x4 CALLDATASIZE LT PUSH2 0x9C JUMPI PUSH1 0x0 CALLDATALOAD PUSH1 0xE0 SHR DUP1 PUSH4 0x6F9FB98A GT PUSH2 0x64 JUMPI DUP1 PUSH4 0x6F9FB98A EQ PUSH2 0x191 JUMPI DUP1 PUSH4 0xADA06A3B EQ PUSH2 0x1BC JUMPI DUP1 PUSH4 0xBA870686 EQ PUSH2 0x1D8 JUMPI DUP1 PUSH4 0xC3BE559B EQ PUSH2 0x203 JUMPI DUP1 PUSH4 0xD46BAE4B EQ PUSH2 0x240 JUMPI DUP1 PUSH4 0xDF8EF00E EQ PUSH2 0x284 JUMPI PUSH2 0x9C JUMP JUMPDEST DUP1 PUSH4 0xF8E16DC EQ PUSH2 0xA1 JUMPI DUP1 PUSH4 0x127D17AB EQ PUSH2 0xD1 JUMPI DUP1 PUSH4 0x5C98DFA1 EQ PUSH2 0xFA JUMPI DUP1 PUSH4 0x6ACB5DD3 EQ PUSH2 0x125 JUMPI DUP1 PUSH4 0x6D1884E0 EQ PUSH2 0x14E JUMPI JUMPDEST PUSH1 0x0 DUP1 REVERT JUMPDEST PUSH2 0xBB PUSH1 0x4 DUP1 CALLDATASIZE SUB DUP2 ADD SWAP1 PUSH2 0xB6 SWAP2 SWAP1 PUSH2 0x1D5C JUMP JUMPDEST PUSH2 0x2AD JUMP JUMPDEST PUSH1 0x40 MLOAD PUSH2 0xC8 SWAP2 SWAP1 PUSH2 0x1E5A JUMP JUMPDEST PUSH1 0x40 MLOAD DUP1 SWAP2 SUB SWAP1 RETURN JUMPDEST CALLVALUE DUP1 ISZERO PUSH2 0xDD JUMPI PUSH1 0x0 DUP1 REVERT JUMPDEST POP PUSH2 0xF8 PUSH1 0x4 DUP1 CALLDATASIZE SUB DUP2 ADD SWAP1 PUSH2 0xF3 SWAP2 SWAP1 PUSH2 0x1E75 JUMP JUMPDEST PUSH2 0x592 JUMP JUMPDEST STOP JUMPDEST CALLVALUE DUP1 ISZERO PUSH2 0x106 JUMPI PUSH1 0x0 DUP1 REVERT JUMPDEST POP PUSH2 0x10F PUSH2 0xB66 JUMP JUMPDEST PUSH1 0x40 MLOAD PUSH2 0x11C SWAP2 SWAP1 PUSH2 0x1E5A JUMP JUMPDEST PUSH1 0x40 MLOAD DUP1 SWAP2 SUB SWAP1 RETURN JUMPDEST CALLVALUE DUP1 ISZERO PUSH2 0x131 JUMPI PUSH1 0x0 DUP1 REVERT JUMPDEST POP PUSH2 0x14C PUSH1 0x4 DUP1 CALLDATASIZE SUB DUP2 ADD SWAP1 PUSH2 0x147 SWAP2 SWAP1 PUSH2 0x1F00 JUMP JUMPDEST PUSH2 0xB73 JUMP JUMPDEST STOP JUMPDEST CALLVALUE DUP1 ISZERO PUSH2 0x15A JUMPI PUSH1 0x0 DUP1 REVERT JUMPDEST POP PUSH2 0x175 PUSH1 0x4 DUP1 CALLDATASIZE SUB DUP2 ADD SWAP1 PUSH2 0x170 SWAP2 SWAP1 PUSH2 0x1E75 JUMP JUMPDEST PUSH2 0x1092 JUMP JUMPDEST PUSH1 0x40 MLOAD PUSH2 0x188 SWAP8 SWAP7 SWAP6 SWAP5 SWAP4 SWAP3 SWAP2 SWAP1 PUSH2 0x209D JUMP JUMPDEST PUSH1 0x40 MLOAD DUP1 SWAP2 SUB SWAP1 RETURN JUMPDEST CALLVALUE DUP1 ISZERO PUSH2 0x19D JUMPI PUSH1 0x0 DUP1 REVERT JUMPDEST POP PUSH2 0x1A6 PUSH2 0x1314 JUMP JUMPDEST PUSH1 0x40 MLOAD PUSH2 0x1B3 SWAP2 SWAP1 PUSH2 0x1E5A JUMP JUMPDEST PUSH1 0x40 MLOAD DUP1 SWAP2 SUB SWAP1 RETURN JUMPDEST PUSH2 0x1D6 PUSH1 0x4 DUP1 CALLDATASIZE SUB DUP2 ADD SWAP1 PUSH2 0x1D1 SWAP2 SWAP1 PUSH2 0x1E75 JUMP JUMPDEST PUSH2 0x131C JUMP JUMPDEST STOP JUMPDEST CALLVALUE DUP1 ISZERO PUSH2 0x1E4 JUMPI PUSH1 0x0 DUP1 REVERT JUMPDEST POP PUSH2 0x1ED PUSH2 0x1589 JUMP JUMPDEST PUSH1 0x40 MLOAD PUSH2 0x1FA SWAP2 SWAP1 PUSH2 0x1E5A JUMP JUMPDEST PUSH1 0x40 MLOAD DUP1 SWAP2 SUB SWAP1 RETURN JUMPDEST CALLVALUE DUP1 ISZERO PUSH2 0x20F JUMPI PUSH1 0x0 DUP1 REVERT JUMPDEST POP PUSH2 0x22A PUSH1 0x4 DUP1 CALLDATASIZE SUB DUP2 ADD SWAP1 PUSH2 0x225 SWAP2 SWAP1 PUSH2 0x1E75 JUMP JUMPDEST PUSH2 0x158F JUMP JUMPDEST PUSH1 0x40 MLOAD PUSH2 0x237 SWAP2 SWAP1 PUSH2 0x1E5A JUMP JUMPDEST PUSH1 0x40 MLOAD DUP1 SWAP2 SUB SWAP1 RETURN JUMPDEST CALLVALUE DUP1 ISZERO PUSH2 0x24C JUMPI PUSH1 0x0 DUP1 REVERT JUMPDEST POP PUSH2 0x267 PUSH1 0x4 DUP1 CALLDATASIZE SUB DUP2 ADD SWAP1 PUSH2 0x262 SWAP2 SWAP1 PUSH2 0x1E75 JUMP JUMPDEST PUSH2 0x15B7 JUMP JUMPDEST PUSH1 0x40 MLOAD PUSH2 0x27B SWAP9 SWAP8 SWAP7 SWAP6 SWAP5 SWAP4 SWAP3 SWAP2 SWAP1 PUSH2 0x213C JUMP JUMPDEST PUSH1 0x40 MLOAD DUP1 SWAP2 SUB SWAP1 RETURN JUMPDEST CALLVALUE DUP1 ISZERO PUSH2 0x290 JUMPI PUSH1 0x0 DUP1 REVERT JUMPDEST POP PUSH2 0x2AB PUSH1 0x4 DUP1 CALLDATASIZE SUB DUP2 ADD SWAP1 PUSH2 0x2A6 SWAP2 SWAP1 PUSH2 0x1E75 JUMP JUMPDEST PUSH2 0x17C4 JUMP JUMPDEST STOP JUMPDEST PUSH1 0x0 DUP1 PUSH1 0x0 SLOAD SWAP1 POP PUSH1 0x60 DUP1 PUSH1 0x40 MLOAD DUP1 PUSH2 0x140 ADD PUSH1 0x40 MSTORE DUP1 DUP15 DUP15 DUP1 DUP1 PUSH1 0x1F ADD PUSH1 0x20 DUP1 SWAP2 DIV MUL PUSH1 0x20 ADD PUSH1 0x40 MLOAD SWAP1 DUP2 ADD PUSH1 0x40 MSTORE DUP1 SWAP4 SWAP3 SWAP2 SWAP1 DUP2 DUP2 MSTORE PUSH1 0x20 ADD DUP4 DUP4 DUP1 DUP3 DUP5 CALLDATACOPY PUSH1 0x0 DUP2 DUP5 ADD MSTORE PUSH1 0x1F NOT PUSH1 0x1F DUP3 ADD AND SWAP1 POP DUP1 DUP4 ADD SWAP3 POP POP POP POP POP POP POP DUP2 MSTORE PUSH1 0x20 ADD DUP13 DUP13 DUP1 DUP1 PUSH1 0x1F ADD PUSH1 0x20 DUP1 SWAP2 DIV MUL PUSH1 0x20 ADD PUSH1 0x40 MLOAD SWAP1 DUP2 ADD PUSH1 0x40 MSTORE DUP1 SWAP4 SWAP3 SWAP2 SWAP1 DUP2 DUP2 MSTORE PUSH1 0x20 ADD DUP4 DUP4 DUP1 DUP3 DUP5 CALLDATACOPY PUSH1 0x0 DUP2 DUP5 ADD MSTORE PUSH1 0x1F NOT PUSH1 0x1F DUP3 ADD AND SWAP1 POP DUP1 DUP4 ADD SWAP3 POP POP POP POP POP POP POP DUP2 MSTORE PUSH1 0x20 ADD DUP8 DUP8 DUP1 DUP1 PUSH1 0x1F ADD PUSH1 0x20 DUP1 SWAP2 DIV MUL PUSH1 0x20 ADD PUSH1 0x40 MLOAD SWAP1 DUP2 ADD PUSH1 0x40 MSTORE DUP1 SWAP4 SWAP3 SWAP2 SWAP1 DUP2 DUP2 MSTORE PUSH1 0x20 ADD DUP4 DUP4 DUP1 DUP3 DUP5 CALLDATACOPY PUSH1 0x0 DUP2 DUP5 ADD MSTORE PUSH1 0x1F NOT PUSH1 0x1F DUP3 ADD AND SWAP1 POP DUP1 DUP4 ADD SWAP3 POP POP POP POP POP POP POP DUP2 MSTORE PUSH1 0x20 ADD CALLER PUSH20 0xFFFFFFFFFFFFFFFFFFFFFFFFFFFFFFFFFFFFFFFF AND DUP2 MSTORE PUSH1 0x20 ADD DUP11 DUP2 MSTORE PUSH1 0x20 ADD DUP10 DUP2 MSTORE PUSH1 0x20 ADD DUP9 DUP2 MSTORE PUSH1 0x20 ADD DUP4 DUP2 MSTORE PUSH1 0x20 ADD DUP3 DUP2 MSTORE PUSH1 0x20 ADD PUSH1 0x0 ISZERO ISZERO DUP2 MSTORE POP PUSH1 0x2 PUSH1 0x0 DUP6 DUP2 MSTORE PUSH1 0x20 ADD SWAP1 DUP2 MSTORE PUSH1 0x20 ADD PUSH1 0x0 KECCAK256 PUSH1 0x0 DUP3 ADD MLOAD DUP2 PUSH1 0x0 ADD SWAP1 DUP2 PUSH2 0x40B SWAP2 SWAP1 PUSH2 0x240A JUMP JUMPDEST POP PUSH1 0x20 DUP3 ADD MLOAD DUP2 PUSH1 0x1 ADD SWAP1 DUP2 PUSH2 0x421 SWAP2 SWAP1 PUSH2 0x240A JUMP JUMPDEST POP PUSH1 0x40 DUP3 ADD MLOAD DUP2 PUSH1 0x2 ADD SWAP1 DUP2 PUSH2 0x437 SWAP2 SWAP1 PUSH2 0x240A JUMP JUMPDEST POP PUSH1 0x60 DUP3 ADD MLOAD DUP2 PUSH1 0x3 ADD PUSH1 0x0 PUSH2 0x100 EXP DUP2 SLOAD DUP2 PUSH20 0xFFFFFFFFFFFFFFFFFFFFFFFFFFFFFFFFFFFFFFFF MUL NOT AND SWAP1 DUP4 PUSH20 0xFFFFFFFFFFFFFFFFFFFFFFFFFFFFFFFFFFFFFFFF AND MUL OR SWAP1 SSTORE POP PUSH1 0x80 DUP3 ADD MLOAD DUP2 PUSH1 0x4 ADD SSTORE PUSH1 0xA0 DUP3 ADD MLOAD DUP2 PUSH1 0x5 ADD SSTORE PUSH1 0xC0 DUP3 ADD MLOAD DUP2 PUSH1 0x6 ADD SSTORE PUSH1 0xE0 DUP3 ADD MLOAD DUP2 PUSH1 0x7 ADD SWAP1 DUP1 MLOAD SWAP1 PUSH1 0x20 ADD SWAP1 PUSH2 0x4B9 SWAP3 SWAP2 SWAP1 PUSH2 0x1C10 JUMP JUMPDEST POP PUSH2 0x100 DUP3 ADD MLOAD DUP2 PUSH1 0x8 ADD SWAP1 DUP1 MLOAD SWAP1 PUSH1 0x20 ADD SWAP1 PUSH2 0x4D7 SWAP3 SWAP2 SWAP1 PUSH2 0x1C10 JUMP JUMPDEST POP PUSH2 0x120 DUP3 ADD MLOAD DUP2 PUSH1 0x9 ADD PUSH1 0x0 PUSH2 0x100 EXP DUP2 SLOAD DUP2 PUSH1 0xFF MUL NOT AND SWAP1 DUP4 ISZERO ISZERO MUL OR SWAP1 SSTORE POP SWAP1 POP POP PUSH32 0x96BEEFE7C0C1B00E25286E8B55A743EC392F25EA7C8CB445359DF75411682660 DUP4 CALLER DUP12 DUP11 DUP13 DUP12 DUP12 PUSH1 0x40 MLOAD PUSH2 0x537 SWAP8 SWAP7 SWAP6 SWAP5 SWAP4 SWAP3 SWAP2 SWAP1 PUSH2 0x2518 JUMP JUMPDEST PUSH1 0x40 MLOAD DUP1 SWAP2 SUB SWAP1 LOG1 PUSH1 0x0 DUP1 DUP2 SLOAD DUP1 SWAP3 SWAP2 SWAP1 PUSH2 0x551 SWAP1 PUSH2 0x25B1 JUMP JUMPDEST SWAP2 SWAP1 POP SSTORE POP PUSH1 0x1 DUP4 SWAP1 DUP1 PUSH1 0x1 DUP2 SLOAD ADD DUP1 DUP3 SSTORE DUP1 SWAP2 POP POP PUSH1 0x1 SWAP1 SUB SWAP1 PUSH1 0x0 MSTORE PUSH1 0x20 PUSH1 0x0 KECCAK256 ADD PUSH1 0x0 SWAP1 SWAP2 SWAP1 SWAP2 SWAP1 SWAP2 POP SSTORE DUP3 SWAP4 POP POP POP POP SWAP10 SWAP9 POP POP POP POP POP POP POP POP POP JUMP JUMPDEST PUSH1 0x0 PUSH1 0x2 PUSH1 0x0 DUP4 DUP2 MSTORE PUSH1 0x20 ADD SWAP1 DUP2 MSTORE PUSH1 0x20 ADD PUSH1 0x0 KECCAK256 PUSH1 0x40 MLOAD DUP1 PUSH2 0x140 ADD PUSH1 0x40 MSTORE SWAP1 DUP2 PUSH1 0x0 DUP3 ADD DUP1 SLOAD PUSH2 0x5C3 SWAP1 PUSH2 0x222D JUMP JUMPDEST DUP1 PUSH1 0x1F ADD PUSH1 0x20 DUP1 SWAP2 DIV MUL PUSH1 0x20 ADD PUSH1 0x40 MLOAD SWAP1 DUP2 ADD PUSH1 0x40 MSTORE DUP1 SWAP3 SWAP2 SWAP1 DUP2 DUP2 MSTORE PUSH1 0x20 ADD DUP3 DUP1 SLOAD PUSH2 0x5EF SWAP1 PUSH2 0x222D JUMP JUMPDEST DUP1 ISZERO PUSH2 0x63C JUMPI DUP1 PUSH1 0x1F LT PUSH2 0x611 JUMPI PUSH2 0x100 DUP1 DUP4 SLOAD DIV MUL DUP4 MSTORE SWAP2 PUSH1 0x20 ADD SWAP2 PUSH2 0x63C JUMP JUMPDEST DUP3 ADD SWAP2 SWAP1 PUSH1 0x0 MSTORE PUSH1 0x20 PUSH1 0x0 KECCAK256 SWAP1 JUMPDEST DUP2 SLOAD DUP2 MSTORE SWAP1 PUSH1 0x1 ADD SWAP1 PUSH1 0x20 ADD DUP1 DUP4 GT PUSH2 0x61F JUMPI DUP3 SWAP1 SUB PUSH1 0x1F AND DUP3 ADD SWAP2 JUMPDEST POP POP POP POP POP DUP2 MSTORE PUSH1 0x20 ADD PUSH1 0x1 DUP3 ADD DUP1 SLOAD PUSH2 0x655 SWAP1 PUSH2 0x222D JUMP JUMPDEST DUP1 PUSH1 0x1F ADD PUSH1 0x20 DUP1 SWAP2 DIV MUL PUSH1 0x20 ADD PUSH1 0x40 MLOAD SWAP1 DUP2 ADD PUSH1 0x40 MSTORE DUP1 SWAP3 SWAP2 SWAP1 DUP2 DUP2 MSTORE PUSH1 0x20 ADD DUP3 DUP1 SLOAD PUSH2 0x681 SWAP1 PUSH2 0x222D JUMP JUMPDEST DUP1 ISZERO PUSH2 0x6CE JUMPI DUP1 PUSH1 0x1F LT PUSH2 0x6A3 JUMPI PUSH2 0x100 DUP1 DUP4 SLOAD DIV MUL DUP4 MSTORE SWAP2 PUSH1 0x20 ADD SWAP2 PUSH2 0x6CE JUMP JUMPDEST DUP3 ADD SWAP2 SWAP1 PUSH1 0x0 MSTORE PUSH1 0x20 PUSH1 0x0 KECCAK256 SWAP1 JUMPDEST DUP2 SLOAD DUP2 MSTORE SWAP1 PUSH1 0x1 ADD SWAP1 PUSH1 0x20 ADD DUP1 DUP4 GT PUSH2 0x6B1 JUMPI DUP3 SWAP1 SUB PUSH1 0x1F AND DUP3 ADD SWAP2 JUMPDEST POP POP POP POP POP DUP2 MSTORE PUSH1 0x20 ADD PUSH1 0x2 DUP3 ADD DUP1 SLOAD PUSH2 0x6E7 SWAP1 PUSH2 0x222D JUMP JUMPDEST DUP1 PUSH1 0x1F ADD PUSH1 0x20 DUP1 SWAP2 DIV MUL PUSH1 0x20 ADD PUSH1 0x40 MLOAD SWAP1 DUP2 ADD PUSH1 0x40 MSTORE DUP1 SWAP3 SWAP2 SWAP1 DUP2 DUP2 MSTORE PUSH1 0x20 ADD DUP3 DUP1 SLOAD PUSH2 0x713 SWAP1 PUSH2 0x222D JUMP JUMPDEST DUP1 ISZERO PUSH2 0x760 JUMPI DUP1 PUSH1 0x1F LT PUSH2 0x735 JUMPI PUSH2 0x100 DUP1 DUP4 SLOAD DIV MUL DUP4 MSTORE SWAP2 PUSH1 0x20 ADD SWAP2 PUSH2 0x760 JUMP JUMPDEST DUP3 ADD SWAP2 SWAP1 PUSH1 0x0 MSTORE PUSH1 0x20 PUSH1 0x0 KECCAK256 SWAP1 JUMPDEST DUP2 SLOAD DUP2 MSTORE SWAP1 PUSH1 0x1 ADD SWAP1 PUSH1 0x20 ADD DUP1 DUP4 GT PUSH2 0x743 JUMPI DUP3 SWAP1 SUB PUSH1 0x1F AND DUP3 ADD SWAP2 JUMPDEST POP POP POP POP POP DUP2 MSTORE PUSH1 0x20 ADD PUSH1 0x3 DUP3 ADD PUSH1 0x0 SWAP1 SLOAD SWAP1 PUSH2 0x100 EXP SWAP1 DIV PUSH20 0xFFFFFFFFFFFFFFFFFFFFFFFFFFFFFFFFFFFFFFFF AND PUSH20 0xFFFFFFFFFFFFFFFFFFFFFFFFFFFFFFFFFFFFFFFF AND PUSH20 0xFFFFFFFFFFFFFFFFFFFFFFFFFFFFFFFFFFFFFFFF AND DUP2 MSTORE PUSH1 0x20 ADD PUSH1 0x4 DUP3 ADD SLOAD DUP2 MSTORE PUSH1 0x20 ADD PUSH1 0x5 DUP3 ADD SLOAD DUP2 MSTORE PUSH1 0x20 ADD PUSH1 0x6 DUP3 ADD SLOAD DUP2 MSTORE PUSH1 0x20 ADD PUSH1 0x7 DUP3 ADD DUP1 SLOAD DUP1 PUSH1 0x20 MUL PUSH1 0x20 ADD PUSH1 0x40 MLOAD SWAP1 DUP2 ADD PUSH1 0x40 MSTORE DUP1 SWAP3 SWAP2 SWAP1 DUP2 DUP2 MSTORE PUSH1 0x20 ADD DUP3 DUP1 SLOAD DUP1 ISZERO PUSH2 0x862 JUMPI PUSH1 0x20 MUL DUP3 ADD SWAP2 SWAP1 PUSH1 0x0 MSTORE PUSH1 0x20 PUSH1 0x0 KECCAK256 SWAP1 JUMPDEST DUP2 PUSH1 0x0 SWAP1 SLOAD SWAP1 PUSH2 0x100 EXP SWAP1 DIV PUSH20 0xFFFFFFFFFFFFFFFFFFFFFFFFFFFFFFFFFFFFFFFF AND PUSH20 0xFFFFFFFFFFFFFFFFFFFFFFFFFFFFFFFFFFFFFFFF AND DUP2 MSTORE PUSH1 0x20 ADD SWAP1 PUSH1 0x1 ADD SWAP1 DUP1 DUP4 GT PUSH2 0x818 JUMPI JUMPDEST POP POP POP POP POP DUP2 MSTORE PUSH1 0x20 ADD PUSH1 0x8 DUP3 ADD DUP1 SLOAD DUP1 PUSH1 0x20 MUL PUSH1 0x20 ADD PUSH1 0x40 MLOAD SWAP1 DUP2 ADD PUSH1 0x40 MSTORE DUP1 SWAP3 SWAP2 SWAP1 DUP2 DUP2 MSTORE PUSH1 0x20 ADD DUP3 DUP1 SLOAD DUP1 ISZERO PUSH2 0x8F0 JUMPI PUSH1 0x20 MUL DUP3 ADD SWAP2 SWAP1 PUSH1 0x0 MSTORE PUSH1 0x20 PUSH1 0x0 KECCAK256 SWAP1 JUMPDEST DUP2 PUSH1 0x0 SWAP1 SLOAD SWAP1 PUSH2 0x100 EXP SWAP1 DIV PUSH20 0xFFFFFFFFFFFFFFFFFFFFFFFFFFFFFFFFFFFFFFFF AND PUSH20 0xFFFFFFFFFFFFFFFFFFFFFFFFFFFFFFFFFFFFFFFF AND DUP2 MSTORE PUSH1 0x20 ADD SWAP1 PUSH1 0x1 ADD SWAP1 DUP1 DUP4 GT PUSH2 0x8A6 JUMPI JUMPDEST POP POP POP POP POP DUP2 MSTORE PUSH1 0x20 ADD PUSH1 0x9 DUP3 ADD PUSH1 0x0 SWAP1 SLOAD SWAP1 PUSH2 0x100 EXP SWAP1 DIV PUSH1 0xFF AND ISZERO ISZERO ISZERO ISZERO DUP2 MSTORE POP POP SWAP1 POP DUP1 PUSH2 0x120 ADD MLOAD ISZERO PUSH2 0x95C JUMPI PUSH1 0x40 MLOAD PUSH32 0x8C379A000000000000000000000000000000000000000000000000000000000 DUP2 MSTORE PUSH1 0x4 ADD PUSH2 0x953 SWAP1 PUSH2 0x2645 JUMP JUMPDEST PUSH1 0x40 MLOAD DUP1 SWAP2 SUB SWAP1 REVERT JUMPDEST PUSH3 0x93A80 DUP2 PUSH1 0x80 ADD MLOAD PUSH2 0x96F SWAP2 SWAP1 PUSH2 0x2665 JUMP JUMPDEST TIMESTAMP LT ISZERO PUSH2 0x9B1 JUMPI PUSH1 0x40 MLOAD PUSH32 0x8C379A000000000000000000000000000000000000000000000000000000000 DUP2 MSTORE PUSH1 0x4 ADD PUSH2 0x9A8 SWAP1 PUSH2 0x26E5 JUMP JUMPDEST PUSH1 0x40 MLOAD DUP1 SWAP2 SUB SWAP1 REVERT JUMPDEST DUP1 PUSH1 0x60 ADD MLOAD PUSH20 0xFFFFFFFFFFFFFFFFFFFFFFFFFFFFFFFFFFFFFFFF AND CALLER PUSH20 0xFFFFFFFFFFFFFFFFFFFFFFFFFFFFFFFFFFFFFFFF AND EQ PUSH2 0xA23 JUMPI PUSH1 0x40 MLOAD PUSH32 0x8C379A000000000000000000000000000000000000000000000000000000000 DUP2 MSTORE PUSH1 0x4 ADD PUSH2 0xA1A SWAP1 PUSH2 0x2751 JUMP JUMPDEST PUSH1 0x40 MLOAD DUP1 SWAP2 SUB SWAP1 REVERT JUMPDEST PUSH1 0x0 DUP2 PUSH2 0x100 ADD MLOAD MLOAD DUP3 PUSH1 0xE0 ADD MLOAD MLOAD PUSH2 0xA3C SWAP2 SWAP1 PUSH2 0x2771 JUMP JUMPDEST SWAP1 POP PUSH1 0x0 DUP3 PUSH1 0xA0 ADD MLOAD DUP3 PUSH2 0xA50 SWAP2 SWAP1 PUSH2 0x27A5 JUMP JUMPDEST SWAP1 POP PUSH1 0x1 DUP4 PUSH2 0x120 ADD SWAP1 ISZERO ISZERO SWAP1 DUP2 ISZERO ISZERO DUP2 MSTORE POP POP PUSH1 0x0 CALLER PUSH20 0xFFFFFFFFFFFFFFFFFFFFFFFFFFFFFFFFFFFFFFFF AND DUP3 PUSH1 0x40 MLOAD PUSH2 0xA8A SWAP1 PUSH2 0x2818 JUMP JUMPDEST PUSH1 0x0 PUSH1 0x40 MLOAD DUP1 DUP4 SUB DUP2 DUP6 DUP8 GAS CALL SWAP3 POP POP POP RETURNDATASIZE DUP1 PUSH1 0x0 DUP2 EQ PUSH2 0xAC7 JUMPI PUSH1 0x40 MLOAD SWAP2 POP PUSH1 0x1F NOT PUSH1 0x3F RETURNDATASIZE ADD AND DUP3 ADD PUSH1 0x40 MSTORE RETURNDATASIZE DUP3 MSTORE RETURNDATASIZE PUSH1 0x0 PUSH1 0x20 DUP5 ADD RETURNDATACOPY PUSH2 0xACC JUMP JUMPDEST PUSH1 0x60 SWAP2 POP JUMPDEST POP POP SWAP1 POP DUP1 PUSH2 0xAE8 JUMPI PUSH1 0x0 DUP5 PUSH2 0x120 ADD SWAP1 ISZERO ISZERO SWAP1 DUP2 ISZERO ISZERO DUP2 MSTORE POP POP JUMPDEST DUP1 PUSH2 0xB28 JUMPI PUSH1 0x40 MLOAD PUSH32 0x8C379A000000000000000000000000000000000000000000000000000000000 DUP2 MSTORE PUSH1 0x4 ADD PUSH2 0xB1F SWAP1 PUSH2 0x2879 JUMP JUMPDEST PUSH1 0x40 MLOAD DUP1 SWAP2 SUB SWAP1 REVERT JUMPDEST PUSH32 0x308E7EF5FF7AE64ED45C37A04775B24BE0BFBC4CB5F5C3E6B0AA505D006EAFC DUP6 PUSH1 0x40 MLOAD PUSH2 0xB57 SWAP2 SWAP1 PUSH2 0x1E5A JUMP JUMPDEST PUSH1 0x40 MLOAD DUP1 SWAP2 SUB SWAP1 LOG1 POP POP POP POP POP JUMP JUMPDEST PUSH1 0x0 PUSH1 0x1 DUP1 SLOAD SWAP1 POP SWAP1 POP SWAP1 JUMP JUMPDEST PUSH1 0x0 PUSH1 0x2 PUSH1 0x0 DUP5 DUP2 MSTORE PUSH1 0x20 ADD SWAP1 DUP2 MSTORE PUSH1 0x20 ADD PUSH1 0x0 KECCAK256 SWAP1 POP DUP1 PUSH1 0x4 ADD SLOAD TIMESTAMP LT ISZERO PUSH2 0xBD1 JUMPI PUSH1 0x40 MLOAD PUSH32 0x8C379A000000000000000000000000000000000000000000000000000000000 DUP2 MSTORE PUSH1 0x4 ADD PUSH2 0xBC8 SWAP1 PUSH2 0x28E5 JUMP JUMPDEST PUSH1 0x40 MLOAD DUP1 SWAP2 SUB SWAP1 REVERT JUMPDEST DUP1 PUSH1 0x3 ADD PUSH1 0x0 SWAP1 SLOAD SWAP1 PUSH2 0x100 EXP SWAP1 DIV PUSH20 0xFFFFFFFFFFFFFFFFFFFFFFFFFFFFFFFFFFFFFFFF AND PUSH20 0xFFFFFFFFFFFFFFFFFFFFFFFFFFFFFFFFFFFFFFFF AND CALLER PUSH20 0xFFFFFFFFFFFFFFFFFFFFFFFFFFFFFFFFFFFFFFFF AND EQ PUSH2 0xC63 JUMPI PUSH1 0x40 MLOAD PUSH32 0x8C379A000000000000000000000000000000000000000000000000000000000 DUP2 MSTORE PUSH1 0x4 ADD PUSH2 0xC5A SWAP1 PUSH2 0x2951 JUMP JUMPDEST PUSH1 0x40 MLOAD DUP1 SWAP2 SUB SWAP1 REVERT JUMPDEST PUSH1 0x0 DUP1 PUSH1 0x0 SWAP1 POP JUMPDEST DUP3 PUSH1 0x7 ADD DUP1 SLOAD SWAP1 POP DUP2 PUSH1 0xFF AND LT ISZERO PUSH2 0xD4D JUMPI DUP4 PUSH20 0xFFFFFFFFFFFFFFFFFFFFFFFFFFFFFFFFFFFFFFFF AND DUP4 PUSH1 0x7 ADD DUP3 PUSH1 0xFF AND DUP2 SLOAD DUP2 LT PUSH2 0xCAD JUMPI PUSH2 0xCAC PUSH2 0x2971 JUMP JUMPDEST JUMPDEST SWAP1 PUSH1 0x0 MSTORE PUSH1 0x20 PUSH1 0x0 KECCAK256 ADD PUSH1 0x0 SWAP1 SLOAD SWAP1 PUSH2 0x100 EXP SWAP1 DIV PUSH20 0xFFFFFFFFFFFFFFFFFFFFFFFFFFFFFFFFFFFFFFFF AND PUSH20 0xFFFFFFFFFFFFFFFFFFFFFFFFFFFFFFFFFFFFFFFF AND SUB PUSH2 0xD3A JUMPI DUP3 PUSH1 0x7 ADD DUP2 PUSH1 0xFF AND DUP2 SLOAD DUP2 LT PUSH2 0xD0C JUMPI PUSH2 0xD0B PUSH2 0x2971 JUMP JUMPDEST JUMPDEST SWAP1 PUSH1 0x0 MSTORE PUSH1 0x20 PUSH1 0x0 KECCAK256 ADD PUSH1 0x0 SWAP1 SLOAD SWAP1 PUSH2 0x100 EXP SWAP1 DIV PUSH20 0xFFFFFFFFFFFFFFFFFFFFFFFFFFFFFFFFFFFFFFFF AND SWAP2 POP JUMPDEST DUP1 DUP1 PUSH2 0xD45 SWAP1 PUSH2 0x29AD JUMP JUMPDEST SWAP2 POP POP PUSH2 0xC6B JUMP JUMPDEST POP DUP3 PUSH20 0xFFFFFFFFFFFFFFFFFFFFFFFFFFFFFFFFFFFFFFFF AND DUP2 PUSH20 0xFFFFFFFFFFFFFFFFFFFFFFFFFFFFFFFFFFFFFFFF AND EQ PUSH2 0xDBC JUMPI PUSH1 0x40 MLOAD PUSH32 0x8C379A000000000000000000000000000000000000000000000000000000000 DUP2 MSTORE PUSH1 0x4 ADD PUSH2 0xDB3 SWAP1 PUSH2 0x2A22 JUMP JUMPDEST PUSH1 0x40 MLOAD DUP1 SWAP2 SUB SWAP1 REVERT JUMPDEST PUSH1 0x0 JUMPDEST DUP3 PUSH1 0x8 ADD DUP1 SLOAD SWAP1 POP DUP2 PUSH1 0xFF AND LT ISZERO PUSH2 0xE95 JUMPI DUP4 PUSH20 0xFFFFFFFFFFFFFFFFFFFFFFFFFFFFFFFFFFFFFFFF AND DUP4 PUSH1 0x8 ADD DUP3 PUSH1 0xFF AND DUP2 SLOAD DUP2 LT PUSH2 0xE01 JUMPI PUSH2 0xE00 PUSH2 0x2971 JUMP JUMPDEST JUMPDEST SWAP1 PUSH1 0x0 MSTORE PUSH1 0x20 PUSH1 0x0 KECCAK256 ADD PUSH1 0x0 SWAP1 SLOAD SWAP1 PUSH2 0x100 EXP SWAP1 DIV PUSH20 0xFFFFFFFFFFFFFFFFFFFFFFFFFFFFFFFFFFFFFFFF AND PUSH20 0xFFFFFFFFFFFFFFFFFFFFFFFFFFFFFFFFFFFFFFFF AND SUB PUSH2 0xE82 JUMPI PUSH1 0x40 MLOAD PUSH32 0x8C379A000000000000000000000000000000000000000000000000000000000 DUP2 MSTORE PUSH1 0x4 ADD PUSH2 0xE79 SWAP1 PUSH2 0x2A8E JUMP JUMPDEST PUSH1 0x40 MLOAD DUP1 SWAP2 SUB SWAP1 REVERT JUMPDEST DUP1 DUP1 PUSH2 0xE8D SWAP1 PUSH2 0x29AD JUMP JUMPDEST SWAP2 POP POP PUSH2 0xDBF JUMP JUMPDEST POP PUSH1 0x0 ISZERO ISZERO DUP3 PUSH1 0x9 ADD PUSH1 0x0 SWAP1 SLOAD SWAP1 PUSH2 0x100 EXP SWAP1 DIV PUSH1 0xFF AND ISZERO ISZERO EQ PUSH2 0xEEE JUMPI PUSH1 0x40 MLOAD PUSH32 0x8C379A000000000000000000000000000000000000000000000000000000000 DUP2 MSTORE PUSH1 0x4 ADD PUSH2 0xEE5 SWAP1 PUSH2 0x2AFA JUMP JUMPDEST PUSH1 0x40 MLOAD DUP1 SWAP2 SUB SWAP1 REVERT JUMPDEST DUP2 PUSH1 0x8 ADD DUP4 SWAP1 DUP1 PUSH1 0x1 DUP2 SLOAD ADD DUP1 DUP3 SSTORE DUP1 SWAP2 POP POP PUSH1 0x1 SWAP1 SUB SWAP1 PUSH1 0x0 MSTORE PUSH1 0x20 PUSH1 0x0 KECCAK256 ADD PUSH1 0x0 SWAP1 SWAP2 SWAP1 SWAP2 SWAP1 SWAP2 PUSH2 0x100 EXP DUP2 SLOAD DUP2 PUSH20 0xFFFFFFFFFFFFFFFFFFFFFFFFFFFFFFFFFFFFFFFF MUL NOT AND SWAP1 DUP4 PUSH20 0xFFFFFFFFFFFFFFFFFFFFFFFFFFFFFFFFFFFFFFFF AND MUL OR SWAP1 SSTORE POP PUSH1 0x0 DUP4 PUSH20 0xFFFFFFFFFFFFFFFFFFFFFFFFFFFFFFFFFFFFFFFF AND DUP4 PUSH1 0x5 ADD SLOAD PUSH1 0x40 MLOAD PUSH2 0xF7D SWAP1 PUSH2 0x2818 JUMP JUMPDEST PUSH1 0x0 PUSH1 0x40 MLOAD DUP1 DUP4 SUB DUP2 DUP6 DUP8 GAS CALL SWAP3 POP POP POP RETURNDATASIZE DUP1 PUSH1 0x0 DUP2 EQ PUSH2 0xFBA JUMPI PUSH1 0x40 MLOAD SWAP2 POP PUSH1 0x1F NOT PUSH1 0x3F RETURNDATASIZE ADD AND DUP3 ADD PUSH1 0x40 MSTORE RETURNDATASIZE DUP3 MSTORE RETURNDATASIZE PUSH1 0x0 PUSH1 0x20 DUP5 ADD RETURNDATACOPY PUSH2 0xFBF JUMP JUMPDEST PUSH1 0x60 SWAP2 POP JUMPDEST POP POP SWAP1 POP DUP1 PUSH2 0x1012 JUMPI DUP3 PUSH1 0x8 ADD DUP1 SLOAD DUP1 PUSH2 0xFDC JUMPI PUSH2 0xFDB PUSH2 0x2B1A JUMP JUMPDEST JUMPDEST PUSH1 0x1 SWAP1 SUB DUP2 DUP2 SWAP1 PUSH1 0x0 MSTORE PUSH1 0x20 PUSH1 0x0 KECCAK256 ADD PUSH1 0x0 PUSH2 0x100 EXP DUP2 SLOAD SWAP1 PUSH20 0xFFFFFFFFFFFFFFFFFFFFFFFFFFFFFFFFFFFFFFFF MUL NOT AND SWAP1 SSTORE SWAP1 SSTORE JUMPDEST DUP1 PUSH2 0x1052 JUMPI PUSH1 0x40 MLOAD PUSH32 0x8C379A000000000000000000000000000000000000000000000000000000000 DUP2 MSTORE PUSH1 0x4 ADD PUSH2 0x1049 SWAP1 PUSH2 0x2879 JUMP JUMPDEST PUSH1 0x40 MLOAD DUP1 SWAP2 SUB SWAP1 REVERT JUMPDEST PUSH32 0xF51B42FDA5553F12ACA9BF0984B446BF9883824E148EE9E467EB21F180A05FF3 DUP6 DUP6 PUSH1 0x40 MLOAD PUSH2 0x1083 SWAP3 SWAP2 SWAP1 PUSH2 0x2B49 JUMP JUMPDEST PUSH1 0x40 MLOAD DUP1 SWAP2 SUB SWAP1 LOG1 POP POP POP POP POP JUMP JUMPDEST PUSH1 0x60 DUP1 PUSH1 0x0 DUP1 PUSH1 0x0 DUP1 PUSH1 0x60 PUSH1 0x2 PUSH1 0x0 DUP10 DUP2 MSTORE PUSH1 0x20 ADD SWAP1 DUP2 MSTORE PUSH1 0x20 ADD PUSH1 0x0 KECCAK256 PUSH1 0x0 ADD PUSH1 0x2 PUSH1 0x0 DUP11 DUP2 MSTORE PUSH1 0x20 ADD SWAP1 DUP2 MSTORE PUSH1 0x20 ADD PUSH1 0x0 KECCAK256 PUSH1 0x2 ADD PUSH1 0x2 PUSH1 0x0 DUP12 DUP2 MSTORE PUSH1 0x20 ADD SWAP1 DUP2 MSTORE PUSH1 0x20 ADD PUSH1 0x0 KECCAK256 PUSH1 0x3 ADD PUSH1 0x0 SWAP1 SLOAD SWAP1 PUSH2 0x100 EXP SWAP1 DIV PUSH20 0xFFFFFFFFFFFFFFFFFFFFFFFFFFFFFFFFFFFFFFFF AND PUSH1 0x2 PUSH1 0x0 DUP13 DUP2 MSTORE PUSH1 0x20 ADD SWAP1 DUP2 MSTORE PUSH1 0x20 ADD PUSH1 0x0 KECCAK256 PUSH1 0x4 ADD SLOAD PUSH1 0x2 PUSH1 0x0 DUP14 DUP2 MSTORE PUSH1 0x20 ADD SWAP1 DUP2 MSTORE PUSH1 0x20 ADD PUSH1 0x0 KECCAK256 PUSH1 0x6 ADD SLOAD PUSH1 0x2 PUSH1 0x0 DUP15 DUP2 MSTORE PUSH1 0x20 ADD SWAP1 DUP2 MSTORE PUSH1 0x20 ADD PUSH1 0x0 KECCAK256 PUSH1 0x5 ADD SLOAD PUSH1 0x2 PUSH1 0x0 DUP16 DUP2 MSTORE PUSH1 0x20 ADD SWAP1 DUP2 MSTORE PUSH1 0x20 ADD PUSH1 0x0 KECCAK256 PUSH1 0x7 ADD DUP7 DUP1 SLOAD PUSH2 0x1167 SWAP1 PUSH2 0x222D JUMP JUMPDEST DUP1 PUSH1 0x1F ADD PUSH1 0x20 DUP1 SWAP2 DIV MUL PUSH1 0x20 ADD PUSH1 0x40 MLOAD SWAP1 DUP2 ADD PUSH1 0x40 MSTORE DUP1 SWAP3 SWAP2 SWAP1 DUP2 DUP2 MSTORE PUSH1 0x20 ADD DUP3 DUP1 SLOAD PUSH2 0x1193 SWAP1 PUSH2 0x222D JUMP JUMPDEST DUP1 ISZERO PUSH2 0x11E0 JUMPI DUP1 PUSH1 0x1F LT PUSH2 0x11B5 JUMPI PUSH2 0x100 DUP1 DUP4 SLOAD DIV MUL DUP4 MSTORE SWAP2 PUSH1 0x20 ADD SWAP2 PUSH2 0x11E0 JUMP JUMPDEST DUP3 ADD SWAP2 SWAP1 PUSH1 0x0 MSTORE PUSH1 0x20 PUSH1 0x0 KECCAK256 SWAP1 JUMPDEST DUP2 SLOAD DUP2 MSTORE SWAP1 PUSH1 0x1 ADD SWAP1 PUSH1 0x20 ADD DUP1 DUP4 GT PUSH2 0x11C3 JUMPI DUP3 SWAP1 SUB PUSH1 0x1F AND DUP3 ADD SWAP2 JUMPDEST POP POP POP POP POP SWAP7 POP DUP6 DUP1 SLOAD PUSH2 0x11F3 SWAP1 PUSH2 0x222D JUMP JUMPDEST DUP1 PUSH1 0x1F ADD PUSH1 0x20 DUP1 SWAP2 DIV MUL PUSH1 0x20 ADD PUSH1 0x40 MLOAD SWAP1 DUP2 ADD PUSH1 0x40 MSTORE DUP1 SWAP3 SWAP2 SWAP1 DUP2 DUP2 MSTORE PUSH1 0x20 ADD DUP3 DUP1 SLOAD PUSH2 0x121F SWAP1 PUSH2 0x222D JUMP JUMPDEST DUP1 ISZERO PUSH2 0x126C JUMPI DUP1 PUSH1 0x1F LT PUSH2 0x1241 JUMPI PUSH2 0x100 DUP1 DUP4 SLOAD DIV MUL DUP4 MSTORE SWAP2 PUSH1 0x20 ADD SWAP2 PUSH2 0x126C JUMP JUMPDEST DUP3 ADD SWAP2 SWAP1 PUSH1 0x0 MSTORE PUSH1 0x20 PUSH1 0x0 KECCAK256 SWAP1 JUMPDEST DUP2 SLOAD DUP2 MSTORE SWAP1 PUSH1 0x1 ADD SWAP1 PUSH1 0x20 ADD DUP1 DUP4 GT PUSH2 0x124F JUMPI DUP3 SWAP1 SUB PUSH1 0x1F AND DUP3 ADD SWAP2 JUMPDEST POP POP POP POP POP SWAP6 POP DUP1 DUP1 SLOAD DUP1 PUSH1 0x20 MUL PUSH1 0x20 ADD PUSH1 0x40 MLOAD SWAP1 DUP2 ADD PUSH1 0x40 MSTORE DUP1 SWAP3 SWAP2 SWAP1 DUP2 DUP2 MSTORE PUSH1 0x20 ADD DUP3 DUP1 SLOAD DUP1 ISZERO PUSH2 0x12F4 JUMPI PUSH1 0x20 MUL DUP3 ADD SWAP2 SWAP1 PUSH1 0x0 MSTORE PUSH1 0x20 PUSH1 0x0 KECCAK256 SWAP1 JUMPDEST DUP2 PUSH1 0x0 SWAP1 SLOAD SWAP1 PUSH2 0x100 EXP SWAP1 DIV PUSH20 0xFFFFFFFFFFFFFFFFFFFFFFFFFFFFFFFFFFFFFFFF AND PUSH20 0xFFFFFFFFFFFFFFFFFFFFFFFFFFFFFFFFFFFFFFFF AND DUP2 MSTORE PUSH1 0x20 ADD SWAP1 PUSH1 0x1 ADD SWAP1 DUP1 DUP4 GT PUSH2 0x12AA JUMPI JUMPDEST POP POP POP POP POP SWAP1 POP SWAP7 POP SWAP7 POP SWAP7 POP SWAP7 POP SWAP7 POP SWAP7 POP SWAP7 POP SWAP2 SWAP4 SWAP6 SWAP8 SWAP1 SWAP3 SWAP5 SWAP7 POP JUMP JUMPDEST PUSH1 0x0 SELFBALANCE SWAP1 POP SWAP1 JUMP JUMPDEST PUSH1 0x0 PUSH1 0x2 PUSH1 0x0 DUP4 DUP2 MSTORE PUSH1 0x20 ADD SWAP1 DUP2 MSTORE PUSH1 0x20 ADD PUSH1 0x0 KECCAK256 SWAP1 POP DUP1 PUSH1 0x5 ADD SLOAD CALLVALUE EQ PUSH2 0x1379 JUMPI PUSH1 0x40 MLOAD PUSH32 0x8C379A000000000000000000000000000000000000000000000000000000000 DUP2 MSTORE PUSH1 0x4 ADD PUSH2 0x1370 SWAP1 PUSH2 0x2BBE JUMP JUMPDEST PUSH1 0x40 MLOAD DUP1 SWAP2 SUB SWAP1 REVERT JUMPDEST DUP1 PUSH1 0x4 ADD SLOAD TIMESTAMP GT ISZERO PUSH2 0x13C0 JUMPI PUSH1 0x40 MLOAD PUSH32 0x8C379A000000000000000000000000000000000000000000000000000000000 DUP2 MSTORE PUSH1 0x4 ADD PUSH2 0x13B7 SWAP1 PUSH2 0x2C2A JUMP JUMPDEST PUSH1 0x40 MLOAD DUP1 SWAP2 SUB SWAP1 REVERT JUMPDEST DUP1 PUSH1 0x6 ADD SLOAD DUP2 PUSH1 0x7 ADD DUP1 SLOAD SWAP1 POP LT PUSH2 0x140D JUMPI PUSH1 0x40 MLOAD PUSH32 0x8C379A000000000000000000000000000000000000000000000000000000000 DUP2 MSTORE PUSH1 0x4 ADD PUSH2 0x1404 SWAP1 PUSH2 0x2C96 JUMP JUMPDEST PUSH1 0x40 MLOAD DUP1 SWAP2 SUB SWAP1 REVERT JUMPDEST PUSH1 0x0 JUMPDEST DUP2 PUSH1 0x7 ADD DUP1 SLOAD SWAP1 POP DUP2 PUSH1 0xFF AND LT ISZERO PUSH2 0x14E6 JUMPI CALLER PUSH20 0xFFFFFFFFFFFFFFFFFFFFFFFFFFFFFFFFFFFFFFFF AND DUP3 PUSH1 0x7 ADD DUP3 PUSH1 0xFF AND DUP2 SLOAD DUP2 LT PUSH2 0x1452 JUMPI PUSH2 0x1451 PUSH2 0x2971 JUMP JUMPDEST JUMPDEST SWAP1 PUSH1 0x0 MSTORE PUSH1 0x20 PUSH1 0x0 KECCAK256 ADD PUSH1 0x0 SWAP1 SLOAD SWAP1 PUSH2 0x100 EXP SWAP1 DIV PUSH20 0xFFFFFFFFFFFFFFFFFFFFFFFFFFFFFFFFFFFFFFFF AND PUSH20 0xFFFFFFFFFFFFFFFFFFFFFFFFFFFFFFFFFFFFFFFF AND SUB PUSH2 0x14D3 JUMPI PUSH1 0x40 MLOAD PUSH32 0x8C379A000000000000000000000000000000000000000000000000000000000 DUP2 MSTORE PUSH1 0x4 ADD PUSH2 0x14CA SWAP1 PUSH2 0x2D02 JUMP JUMPDEST PUSH1 0x40 MLOAD DUP1 SWAP2 SUB SWAP1 REVERT JUMPDEST DUP1 DUP1 PUSH2 0x14DE SWAP1 PUSH2 0x29AD JUMP JUMPDEST SWAP2 POP POP PUSH2 0x1410 JUMP JUMPDEST POP DUP1 PUSH1 0x7 ADD CALLER SWAP1 DUP1 PUSH1 0x1 DUP2 SLOAD ADD DUP1 DUP3 SSTORE DUP1 SWAP2 POP POP PUSH1 0x1 SWAP1 SUB SWAP1 PUSH1 0x0 MSTORE PUSH1 0x20 PUSH1 0x0 KECCAK256 ADD PUSH1 0x0 SWAP1 SWAP2 SWAP1 SWAP2 SWAP1 SWAP2 PUSH2 0x100 EXP DUP2 SLOAD DUP2 PUSH20 0xFFFFFFFFFFFFFFFFFFFFFFFFFFFFFFFFFFFFFFFF MUL NOT AND SWAP1 DUP4 PUSH20 0xFFFFFFFFFFFFFFFFFFFFFFFFFFFFFFFFFFFFFFFF AND MUL OR SWAP1 SSTORE POP PUSH32 0x305579FDA99551F5107B32B7465875A3984F12521B5DF905EE46FE6EFB873F92 DUP3 CALLER PUSH1 0x40 MLOAD PUSH2 0x157D SWAP3 SWAP2 SWAP1 PUSH2 0x2B49 JUMP JUMPDEST PUSH1 0x40 MLOAD DUP1 SWAP2 SUB SWAP1 LOG1 POP POP JUMP JUMPDEST PUSH1 0x0 SLOAD DUP2 JUMP JUMPDEST PUSH1 0x0 PUSH1 0x1 DUP3 DUP2 SLOAD DUP2 LT PUSH2 0x15A5 JUMPI PUSH2 0x15A4 PUSH2 0x2971 JUMP JUMPDEST JUMPDEST SWAP1 PUSH1 0x0 MSTORE PUSH1 0x20 PUSH1 0x0 KECCAK256 ADD SLOAD SWAP1 POP SWAP2 SWAP1 POP JUMP JUMPDEST PUSH1 0x2 PUSH1 0x20 MSTORE DUP1 PUSH1 0x0 MSTORE PUSH1 0x40 PUSH1 0x0 KECCAK256 PUSH1 0x0 SWAP2 POP SWAP1 POP DUP1 PUSH1 0x0 ADD DUP1 SLOAD PUSH2 0x15DA SWAP1 PUSH2 0x222D JUMP JUMPDEST DUP1 PUSH1 0x1F ADD PUSH1 0x20 DUP1 SWAP2 DIV MUL PUSH1 0x20 ADD PUSH1 0x40 MLOAD SWAP1 DUP2 ADD PUSH1 0x40 MSTORE DUP1 SWAP3 SWAP2 SWAP1 DUP2 DUP2 MSTORE PUSH1 0x20 ADD DUP3 DUP1 SLOAD PUSH2 0x1606 SWAP1 PUSH2 0x222D JUMP JUMPDEST DUP1 ISZERO PUSH2 0x1653 JUMPI DUP1 PUSH1 0x1F LT PUSH2 0x1628 JUMPI PUSH2 0x100 DUP1 DUP4 SLOAD DIV MUL DUP4 MSTORE SWAP2 PUSH1 0x20 ADD SWAP2 PUSH2 0x1653 JUMP JUMPDEST DUP3 ADD SWAP2 SWAP1 PUSH1 0x0 MSTORE PUSH1 0x20 PUSH1 0x0 KECCAK256 SWAP1 JUMPDEST DUP2 SLOAD DUP2 MSTORE SWAP1 PUSH1 0x1 ADD SWAP1 PUSH1 0x20 ADD DUP1 DUP4 GT PUSH2 0x1636 JUMPI DUP3 SWAP1 SUB PUSH1 0x1F AND DUP3 ADD SWAP2 JUMPDEST POP POP POP POP POP SWAP1 DUP1 PUSH1 0x1 ADD DUP1 SLOAD PUSH2 0x1668 SWAP1 PUSH2 0x222D JUMP JUMPDEST DUP1 PUSH1 0x1F ADD PUSH1 0x20 DUP1 SWAP2 DIV MUL PUSH1 0x20 ADD PUSH1 0x40 MLOAD SWAP1 DUP2 ADD PUSH1 0x40 MSTORE DUP1 SWAP3 SWAP2 SWAP1 DUP2 DUP2 MSTORE PUSH1 0x20 ADD DUP3 DUP1 SLOAD PUSH2 0x1694 SWAP1 PUSH2 0x222D JUMP JUMPDEST DUP1 ISZERO PUSH2 0x16E1 JUMPI DUP1 PUSH1 0x1F LT PUSH2 0x16B6 JUMPI PUSH2 0x100 DUP1 DUP4 SLOAD DIV MUL DUP4 MSTORE SWAP2 PUSH1 0x20 ADD SWAP2 PUSH2 0x16E1 JUMP JUMPDEST DUP3 ADD SWAP2 SWAP1 PUSH1 0x0 MSTORE PUSH1 0x20 PUSH1 0x0 KECCAK256 SWAP1 JUMPDEST DUP2 SLOAD DUP2 MSTORE SWAP1 PUSH1 0x1 ADD SWAP1 PUSH1 0x20 ADD DUP1 DUP4 GT PUSH2 0x16C4 JUMPI DUP3 SWAP1 SUB PUSH1 0x1F AND DUP3 ADD SWAP2 JUMPDEST POP POP POP POP POP SWAP1 DUP1 PUSH1 0x2 ADD DUP1 SLOAD PUSH2 0x16F6 SWAP1 PUSH2 0x222D JUMP JUMPDEST DUP1 PUSH1 0x1F ADD PUSH1 0x20 DUP1 SWAP2 DIV MUL PUSH1 0x20 ADD PUSH1 0x40 MLOAD SWAP1 DUP2 ADD PUSH1 0x40 MSTORE DUP1 SWAP3 SWAP2 SWAP1 DUP2 DUP2 MSTORE PUSH1 0x20 ADD DUP3 DUP1 SLOAD PUSH2 0x1722 SWAP1 PUSH2 0x222D JUMP JUMPDEST DUP1 ISZERO PUSH2 0x176F JUMPI DUP1 PUSH1 0x1F LT PUSH2 0x1744 JUMPI PUSH2 0x100 DUP1 DUP4 SLOAD DIV MUL DUP4 MSTORE SWAP2 PUSH1 0x20 ADD SWAP2 PUSH2 0x176F JUMP JUMPDEST DUP3 ADD SWAP2 SWAP1 PUSH1 0x0 MSTORE PUSH1 0x20 PUSH1 0x0 KECCAK256 SWAP1 JUMPDEST DUP2 SLOAD DUP2 MSTORE SWAP1 PUSH1 0x1 ADD SWAP1 PUSH1 0x20 ADD DUP1 DUP4 GT PUSH2 0x1752 JUMPI DUP3 SWAP1 SUB PUSH1 0x1F AND DUP3 ADD SWAP2 JUMPDEST POP POP POP POP POP SWAP1 DUP1 PUSH1 0x3 ADD PUSH1 0x0 SWAP1 SLOAD SWAP1 PUSH2 0x100 EXP SWAP1 DIV PUSH20 0xFFFFFFFFFFFFFFFFFFFFFFFFFFFFFFFFFFFFFFFF AND SWAP1 DUP1 PUSH1 0x4 ADD SLOAD SWAP1 DUP1 PUSH1 0x5 ADD SLOAD SWAP1 DUP1 PUSH1 0x6 ADD SLOAD SWAP1 DUP1 PUSH1 0x9 ADD PUSH1 0x0 SWAP1 SLOAD SWAP1 PUSH2 0x100 EXP SWAP1 DIV PUSH1 0xFF AND SWAP1 POP DUP9 JUMP JUMPDEST PUSH1 0x0 PUSH1 0x2 PUSH1 0x0 DUP4 DUP2 MSTORE PUSH1 0x20 ADD SWAP1 DUP2 MSTORE PUSH1 0x20 ADD PUSH1 0x0 KECCAK256 PUSH1 0x40 MLOAD DUP1 PUSH2 0x140 ADD PUSH1 0x40 MSTORE SWAP1 DUP2 PUSH1 0x0 DUP3 ADD DUP1 SLOAD PUSH2 0x17F5 SWAP1 PUSH2 0x222D JUMP JUMPDEST DUP1 PUSH1 0x1F ADD PUSH1 0x20 DUP1 SWAP2 DIV MUL PUSH1 0x20 ADD PUSH1 0x40 MLOAD SWAP1 DUP2 ADD PUSH1 0x40 MSTORE DUP1 SWAP3 SWAP2 SWAP1 DUP2 DUP2 MSTORE PUSH1 0x20 ADD DUP3 DUP1 SLOAD PUSH2 0x1821 SWAP1 PUSH2 0x222D JUMP JUMPDEST DUP1 ISZERO PUSH2 0x186E JUMPI DUP1 PUSH1 0x1F LT PUSH2 0x1843 JUMPI PUSH2 0x100 DUP1 DUP4 SLOAD DIV MUL DUP4 MSTORE SWAP2 PUSH1 0x20 ADD SWAP2 PUSH2 0x186E JUMP JUMPDEST DUP3 ADD SWAP2 SWAP1 PUSH1 0x0 MSTORE PUSH1 0x20 PUSH1 0x0 KECCAK256 SWAP1 JUMPDEST DUP2 SLOAD DUP2 MSTORE SWAP1 PUSH1 0x1 ADD SWAP1 PUSH1 0x20 ADD DUP1 DUP4 GT PUSH2 0x1851 JUMPI DUP3 SWAP1 SUB PUSH1 0x1F AND DUP3 ADD SWAP2 JUMPDEST POP POP POP POP POP DUP2 MSTORE PUSH1 0x20 ADD PUSH1 0x1 DUP3 ADD DUP1 SLOAD PUSH2 0x1887 SWAP1 PUSH2 0x222D JUMP JUMPDEST DUP1 PUSH1 0x1F ADD PUSH1 0x20 DUP1 SWAP2 DIV MUL PUSH1 0x20 ADD PUSH1 0x40 MLOAD SWAP1 DUP2 ADD PUSH1 0x40 MSTORE DUP1 SWAP3 SWAP2 SWAP1 DUP2 DUP2 MSTORE PUSH1 0x20 ADD DUP3 DUP1 SLOAD PUSH2 0x18B3 SWAP1 PUSH2 0x222D JUMP JUMPDEST DUP1 ISZERO PUSH2 0x1900 JUMPI DUP1 PUSH1 0x1F LT PUSH2 0x18D5 JUMPI PUSH2 0x100 DUP1 DUP4 SLOAD DIV MUL DUP4 MSTORE SWAP2 PUSH1 0x20 ADD SWAP2 PUSH2 0x1900 JUMP JUMPDEST DUP3 ADD SWAP2 SWAP1 PUSH1 0x0 MSTORE PUSH1 0x20 PUSH1 0x0 KECCAK256 SWAP1 JUMPDEST DUP2 SLOAD DUP2 MSTORE SWAP1 PUSH1 0x1 ADD SWAP1 PUSH1 0x20 ADD DUP1 DUP4 GT PUSH2 0x18E3 JUMPI DUP3 SWAP1 SUB PUSH1 0x1F AND DUP3 ADD SWAP2 JUMPDEST POP POP POP POP POP DUP2 MSTORE PUSH1 0x20 ADD PUSH1 0x2 DUP3 ADD DUP1 SLOAD PUSH2 0x1919 SWAP1 PUSH2 0x222D JUMP JUMPDEST DUP1 PUSH1 0x1F ADD PUSH1 0x20 DUP1 SWAP2 DIV MUL PUSH1 0x20 ADD PUSH1 0x40 MLOAD SWAP1 DUP2 ADD PUSH1 0x40 MSTORE DUP1 SWAP3 SWAP2 SWAP1 DUP2 DUP2 MSTORE PUSH1 0x20 ADD DUP3 DUP1 SLOAD PUSH2 0x1945 SWAP1 PUSH2 0x222D JUMP JUMPDEST DUP1 ISZERO PUSH2 0x1992 JUMPI DUP1 PUSH1 0x1F LT PUSH2 0x1967 JUMPI PUSH2 0x100 DUP1 DUP4 SLOAD DIV MUL DUP4 MSTORE SWAP2 PUSH1 0x20 ADD SWAP2 PUSH2 0x1992 JUMP JUMPDEST DUP3 ADD SWAP2 SWAP1 PUSH1 0x0 MSTORE PUSH1 0x20 PUSH1 0x0 KECCAK256 SWAP1 JUMPDEST DUP2 SLOAD DUP2 MSTORE SWAP1 PUSH1 0x1 ADD SWAP1 PUSH1 0x20 ADD DUP1 DUP4 GT PUSH2 0x1975 JUMPI DUP3 SWAP1 SUB PUSH1 0x1F AND DUP3 ADD SWAP2 JUMPDEST POP POP POP POP POP DUP2 MSTORE PUSH1 0x20 ADD PUSH1 0x3 DUP3 ADD PUSH1 0x0 SWAP1 SLOAD SWAP1 PUSH2 0x100 EXP SWAP1 DIV PUSH20 0xFFFFFFFFFFFFFFFFFFFFFFFFFFFFFFFFFFFFFFFF AND PUSH20 0xFFFFFFFFFFFFFFFFFFFFFFFFFFFFFFFFFFFFFFFF AND PUSH20 0xFFFFFFFFFFFFFFFFFFFFFFFFFFFFFFFFFFFFFFFF AND DUP2 MSTORE PUSH1 0x20 ADD PUSH1 0x4 DUP3 ADD SLOAD DUP2 MSTORE PUSH1 0x20 ADD PUSH1 0x5 DUP3 ADD SLOAD DUP2 MSTORE PUSH1 0x20 ADD PUSH1 0x6 DUP3 ADD SLOAD DUP2 MSTORE PUSH1 0x20 ADD PUSH1 0x7 DUP3 ADD DUP1 SLOAD DUP1 PUSH1 0x20 MUL PUSH1 0x20 ADD PUSH1 0x40 MLOAD SWAP1 DUP2 ADD PUSH1 0x40 MSTORE DUP1 SWAP3 SWAP2 SWAP1 DUP2 DUP2 MSTORE PUSH1 0x20 ADD DUP3 DUP1 SLOAD DUP1 ISZERO PUSH2 0x1A94 JUMPI PUSH1 0x20 MUL DUP3 ADD SWAP2 SWAP1 PUSH1 0x0 MSTORE PUSH1 0x20 PUSH1 0x0 KECCAK256 SWAP1 JUMPDEST DUP2 PUSH1 0x0 SWAP1 SLOAD SWAP1 PUSH2 0x100 EXP SWAP1 DIV PUSH20 0xFFFFFFFFFFFFFFFFFFFFFFFFFFFFFFFFFFFFFFFF AND PUSH20 0xFFFFFFFFFFFFFFFFFFFFFFFFFFFFFFFFFFFFFFFF AND DUP2 MSTORE PUSH1 0x20 ADD SWAP1 PUSH1 0x1 ADD SWAP1 DUP1 DUP4 GT PUSH2 0x1A4A JUMPI JUMPDEST POP POP POP POP POP DUP2 MSTORE PUSH1 0x20 ADD PUSH1 0x8 DUP3 ADD DUP1 SLOAD DUP1 PUSH1 0x20 MUL PUSH1 0x20 ADD PUSH1 0x40 MLOAD SWAP1 DUP2 ADD PUSH1 0x40 MSTORE DUP1 SWAP3 SWAP2 SWAP1 DUP2 DUP2 MSTORE PUSH1 0x20 ADD DUP3 DUP1 SLOAD DUP1 ISZERO PUSH2 0x1B22 JUMPI PUSH1 0x20 MUL DUP3 ADD SWAP2 SWAP1 PUSH1 0x0 MSTORE PUSH1 0x20 PUSH1 0x0 KECCAK256 SWAP1 JUMPDEST DUP2 PUSH1 0x0 SWAP1 SLOAD SWAP1 PUSH2 0x100 EXP SWAP1 DIV PUSH20 0xFFFFFFFFFFFFFFFFFFFFFFFFFFFFFFFFFFFFFFFF AND PUSH20 0xFFFFFFFFFFFFFFFFFFFFFFFFFFFFFFFFFFFFFFFF AND DUP2 MSTORE PUSH1 0x20 ADD SWAP1 PUSH1 0x1 ADD SWAP1 DUP1 DUP4 GT PUSH2 0x1AD8 JUMPI JUMPDEST POP POP POP POP POP DUP2 MSTORE PUSH1 0x20 ADD PUSH1 0x9 DUP3 ADD PUSH1 0x0 SWAP1 SLOAD SWAP1 PUSH2 0x100 EXP SWAP1 DIV PUSH1 0xFF AND ISZERO ISZERO ISZERO ISZERO DUP2 MSTORE POP POP SWAP1 POP DUP1 PUSH1 0x60 ADD MLOAD PUSH20 0xFFFFFFFFFFFFFFFFFFFFFFFFFFFFFFFFFFFFFFFF AND CALLER PUSH20 0xFFFFFFFFFFFFFFFFFFFFFFFFFFFFFFFFFFFFFFFF AND EQ PUSH2 0x1BBA JUMPI PUSH1 0x40 MLOAD PUSH32 0x8C379A000000000000000000000000000000000000000000000000000000000 DUP2 MSTORE PUSH1 0x4 ADD PUSH2 0x1BB1 SWAP1 PUSH2 0x2951 JUMP JUMPDEST PUSH1 0x40 MLOAD DUP1 SWAP2 SUB SWAP1 REVERT JUMPDEST PUSH1 0x0 JUMPDEST DUP2 PUSH1 0xE0 ADD MLOAD MLOAD DUP2 PUSH1 0xFF AND LT ISZERO PUSH2 0x1C0B JUMPI PUSH2 0x1BF8 DUP4 DUP4 PUSH1 0xE0 ADD MLOAD DUP4 PUSH1 0xFF AND DUP2 MLOAD DUP2 LT PUSH2 0x1BEB JUMPI PUSH2 0x1BEA PUSH2 0x2971 JUMP JUMPDEST JUMPDEST PUSH1 0x20 MUL PUSH1 0x20 ADD ADD MLOAD PUSH2 0xB73 JUMP JUMPDEST DUP1 DUP1 PUSH2 0x1C03 SWAP1 PUSH2 0x29AD JUMP JUMPDEST SWAP2 POP POP PUSH2 0x1BBD JUMP JUMPDEST POP POP POP JUMP JUMPDEST DUP3 DUP1 SLOAD DUP3 DUP3 SSTORE SWAP1 PUSH1 0x0 MSTORE PUSH1 0x20 PUSH1 0x0 KECCAK256 SWAP1 DUP2 ADD SWAP3 DUP3 ISZERO PUSH2 0x1C89 JUMPI SWAP2 PUSH1 0x20 MUL DUP3 ADD JUMPDEST DUP3 DUP2 GT ISZERO PUSH2 0x1C88 JUMPI DUP3 MLOAD DUP3 PUSH1 0x0 PUSH2 0x100 EXP DUP2 SLOAD DUP2 PUSH20 0xFFFFFFFFFFFFFFFFFFFFFFFFFFFFFFFFFFFFFFFF MUL NOT AND SWAP1 DUP4 PUSH20 0xFFFFFFFFFFFFFFFFFFFFFFFFFFFFFFFFFFFFFFFF AND MUL OR SWAP1 SSTORE POP SWAP2 PUSH1 0x20 ADD SWAP2 SWAP1 PUSH1 0x1 ADD SWAP1 PUSH2 0x1C30 JUMP JUMPDEST JUMPDEST POP SWAP1 POP PUSH2 0x1C96 SWAP2 SWAP1 PUSH2 0x1C9A JUMP JUMPDEST POP SWAP1 JUMP JUMPDEST JUMPDEST DUP1 DUP3 GT ISZERO PUSH2 0x1CB3 JUMPI PUSH1 0x0 DUP2 PUSH1 0x0 SWAP1 SSTORE POP PUSH1 0x1 ADD PUSH2 0x1C9B JUMP JUMPDEST POP SWAP1 JUMP JUMPDEST PUSH1 0x0 DUP1 REVERT JUMPDEST PUSH1 0x0 DUP1 REVERT JUMPDEST PUSH1 0x0 DUP1 REVERT JUMPDEST PUSH1 0x0 DUP1 REVERT JUMPDEST PUSH1 0x0 DUP1 REVERT JUMPDEST PUSH1 0x0 DUP1 DUP4 PUSH1 0x1F DUP5 ADD SLT PUSH2 0x1CE6 JUMPI PUSH2 0x1CE5 PUSH2 0x1CC1 JUMP JUMPDEST JUMPDEST DUP3 CALLDATALOAD SWAP1 POP PUSH8 0xFFFFFFFFFFFFFFFF DUP2 GT ISZERO PUSH2 0x1D03 JUMPI PUSH2 0x1D02 PUSH2 0x1CC6 JUMP JUMPDEST JUMPDEST PUSH1 0x20 DUP4 ADD SWAP2 POP DUP4 PUSH1 0x1 DUP3 MUL DUP4 ADD GT ISZERO PUSH2 0x1D1F JUMPI PUSH2 0x1D1E PUSH2 0x1CCB JUMP JUMPDEST JUMPDEST SWAP3 POP SWAP3 SWAP1 POP JUMP JUMPDEST PUSH1 0x0 DUP2 SWAP1 POP SWAP2 SWAP1 POP JUMP JUMPDEST PUSH2 0x1D39 DUP2 PUSH2 0x1D26 JUMP JUMPDEST DUP2 EQ PUSH2 0x1D44 JUMPI PUSH1 0x0 DUP1 REVERT JUMPDEST POP JUMP JUMPDEST PUSH1 0x0 DUP2 CALLDATALOAD SWAP1 POP PUSH2 0x1D56 DUP2 PUSH2 0x1D30 JUMP JUMPDEST SWAP3 SWAP2 POP POP JUMP JUMPDEST PUSH1 0x0 DUP1 PUSH1 0x0 DUP1 PUSH1 0x0 DUP1 PUSH1 0x0 DUP1 PUSH1 0x0 PUSH1 0xC0 DUP11 DUP13 SUB SLT ISZERO PUSH2 0x1D7E JUMPI PUSH2 0x1D7D PUSH2 0x1CB7 JUMP JUMPDEST JUMPDEST PUSH1 0x0 DUP11 ADD CALLDATALOAD PUSH8 0xFFFFFFFFFFFFFFFF DUP2 GT ISZERO PUSH2 0x1D9C JUMPI PUSH2 0x1D9B PUSH2 0x1CBC JUMP JUMPDEST JUMPDEST PUSH2 0x1DA8 DUP13 DUP3 DUP14 ADD PUSH2 0x1CD0 JUMP JUMPDEST SWAP10 POP SWAP10 POP POP PUSH1 0x20 DUP11 ADD CALLDATALOAD PUSH8 0xFFFFFFFFFFFFFFFF DUP2 GT ISZERO PUSH2 0x1DCB JUMPI PUSH2 0x1DCA PUSH2 0x1CBC JUMP JUMPDEST JUMPDEST PUSH2 0x1DD7 DUP13 DUP3 DUP14 ADD PUSH2 0x1CD0 JUMP JUMPDEST SWAP8 POP SWAP8 POP POP PUSH1 0x40 PUSH2 0x1DEA DUP13 DUP3 DUP14 ADD PUSH2 0x1D47 JUMP JUMPDEST SWAP6 POP POP PUSH1 0x60 PUSH2 0x1DFB DUP13 DUP3 DUP14 ADD PUSH2 0x1D47 JUMP JUMPDEST SWAP5 POP POP PUSH1 0x80 PUSH2 0x1E0C DUP13 DUP3 DUP14 ADD PUSH2 0x1D47 JUMP JUMPDEST SWAP4 POP POP PUSH1 0xA0 DUP11 ADD CALLDATALOAD PUSH8 0xFFFFFFFFFFFFFFFF DUP2 GT ISZERO PUSH2 0x1E2D JUMPI PUSH2 0x1E2C PUSH2 0x1CBC JUMP JUMPDEST JUMPDEST PUSH2 0x1E39 DUP13 DUP3 DUP14 ADD PUSH2 0x1CD0 JUMP JUMPDEST SWAP3 POP SWAP3 POP POP SWAP3 SWAP6 SWAP9 POP SWAP3 SWAP6 SWAP9 POP SWAP3 SWAP6 SWAP9 JUMP JUMPDEST PUSH2 0x1E54 DUP2 PUSH2 0x1D26 JUMP JUMPDEST DUP3 MSTORE POP POP JUMP JUMPDEST PUSH1 0x0 PUSH1 0x20 DUP3 ADD SWAP1 POP PUSH2 0x1E6F PUSH1 0x0 DUP4 ADD DUP5 PUSH2 0x1E4B JUMP JUMPDEST SWAP3 SWAP2 POP POP JUMP JUMPDEST PUSH1 0x0 PUSH1 0x20 DUP3 DUP5 SUB SLT ISZERO PUSH2 0x1E8B JUMPI PUSH2 0x1E8A PUSH2 0x1CB7 JUMP JUMPDEST JUMPDEST PUSH1 0x0 PUSH2 0x1E99 DUP5 DUP3 DUP6 ADD PUSH2 0x1D47 JUMP JUMPDEST SWAP2 POP POP SWAP3 SWAP2 POP POP JUMP JUMPDEST PUSH1 0x0 PUSH20 0xFFFFFFFFFFFFFFFFFFFFFFFFFFFFFFFFFFFFFFFF DUP3 AND SWAP1 POP SWAP2 SWAP1 POP JUMP JUMPDEST PUSH1 0x0 PUSH2 0x1ECD DUP3 PUSH2 0x1EA2 JUMP JUMPDEST SWAP1 POP SWAP2 SWAP1 POP JUMP JUMPDEST PUSH2 0x1EDD DUP2 PUSH2 0x1EC2 JUMP JUMPDEST DUP2 EQ PUSH2 0x1EE8 JUMPI PUSH1 0x0 DUP1 REVERT JUMPDEST POP JUMP JUMPDEST PUSH1 0x0 DUP2 CALLDATALOAD SWAP1 POP PUSH2 0x1EFA DUP2 PUSH2 0x1ED4 JUMP JUMPDEST SWAP3 SWAP2 POP POP JUMP JUMPDEST PUSH1 0x0 DUP1 PUSH1 0x40 DUP4 DUP6 SUB SLT ISZERO PUSH2 0x1F17 JUMPI PUSH2 0x1F16 PUSH2 0x1CB7 JUMP JUMPDEST JUMPDEST PUSH1 0x0 PUSH2 0x1F25 DUP6 DUP3 DUP7 ADD PUSH2 0x1D47 JUMP JUMPDEST SWAP3 POP POP PUSH1 0x20 PUSH2 0x1F36 DUP6 DUP3 DUP7 ADD PUSH2 0x1EEB JUMP JUMPDEST SWAP2 POP POP SWAP3 POP SWAP3 SWAP1 POP JUMP JUMPDEST PUSH1 0x0 DUP2 MLOAD SWAP1 POP SWAP2 SWAP1 POP JUMP JUMPDEST PUSH1 0x0 DUP3 DUP3 MSTORE PUSH1 0x20 DUP3 ADD SWAP1 POP SWAP3 SWAP2 POP POP JUMP JUMPDEST PUSH1 0x0 JUMPDEST DUP4 DUP2 LT ISZERO PUSH2 0x1F7A JUMPI DUP1 DUP3 ADD MLOAD DUP2 DUP5 ADD MSTORE PUSH1 0x20 DUP2 ADD SWAP1 POP PUSH2 0x1F5F JUMP JUMPDEST PUSH1 0x0 DUP5 DUP5 ADD MSTORE POP POP POP POP JUMP JUMPDEST PUSH1 0x0 PUSH1 0x1F NOT PUSH1 0x1F DUP4 ADD AND SWAP1 POP SWAP2 SWAP1 POP JUMP JUMPDEST PUSH1 0x0 PUSH2 0x1FA2 DUP3 PUSH2 0x1F40 JUMP JUMPDEST PUSH2 0x1FAC DUP2 DUP6 PUSH2 0x1F4B JUMP JUMPDEST SWAP4 POP PUSH2 0x1FBC DUP2 DUP6 PUSH1 0x20 DUP7 ADD PUSH2 0x1F5C JUMP JUMPDEST PUSH2 0x1FC5 DUP2 PUSH2 0x1F86 JUMP JUMPDEST DUP5 ADD SWAP2 POP POP SWAP3 SWAP2 POP POP JUMP JUMPDEST PUSH2 0x1FD9 DUP2 PUSH2 0x1EC2 JUMP JUMPDEST DUP3 MSTORE POP POP JUMP JUMPDEST PUSH1 0x0 DUP2 MLOAD SWAP1 POP SWAP2 SWAP1 POP JUMP JUMPDEST PUSH1 0x0 DUP3 DUP3 MSTORE PUSH1 0x20 DUP3 ADD SWAP1 POP SWAP3 SWAP2 POP POP JUMP JUMPDEST PUSH1 0x0 DUP2 SWAP1 POP PUSH1 0x20 DUP3 ADD SWAP1 POP SWAP2 SWAP1 POP JUMP JUMPDEST PUSH2 0x2014 DUP2 PUSH2 0x1EC2 JUMP JUMPDEST DUP3 MSTORE POP POP JUMP JUMPDEST PUSH1 0x0 PUSH2 0x2026 DUP4 DUP4 PUSH2 0x200B JUMP JUMPDEST PUSH1 0x20 DUP4 ADD SWAP1 POP SWAP3 SWAP2 POP POP JUMP JUMPDEST PUSH1 0x0 PUSH1 0x20 DUP3 ADD SWAP1 POP SWAP2 SWAP1 POP JUMP JUMPDEST PUSH1 0x0 PUSH2 0x204A DUP3 PUSH2 0x1FDF JUMP JUMPDEST PUSH2 0x2054 DUP2 DUP6 PUSH2 0x1FEA JUMP JUMPDEST SWAP4 POP PUSH2 0x205F DUP4 PUSH2 0x1FFB JUMP JUMPDEST DUP1 PUSH1 0x0 JUMPDEST DUP4 DUP2 LT ISZERO PUSH2 0x2090 JUMPI DUP2 MLOAD PUSH2 0x2077 DUP9 DUP3 PUSH2 0x201A JUMP JUMPDEST SWAP8 POP PUSH2 0x2082 DUP4 PUSH2 0x2032 JUMP JUMPDEST SWAP3 POP POP PUSH1 0x1 DUP2 ADD SWAP1 POP PUSH2 0x2063 JUMP JUMPDEST POP DUP6 SWAP4 POP POP POP POP SWAP3 SWAP2 POP POP JUMP JUMPDEST PUSH1 0x0 PUSH1 0xE0 DUP3 ADD SWAP1 POP DUP2 DUP2 SUB PUSH1 0x0 DUP4 ADD MSTORE PUSH2 0x20B7 DUP2 DUP11 PUSH2 0x1F97 JUMP JUMPDEST SWAP1 POP DUP2 DUP2 SUB PUSH1 0x20 DUP4 ADD MSTORE PUSH2 0x20CB DUP2 DUP10 PUSH2 0x1F97 JUMP JUMPDEST SWAP1 POP PUSH2 0x20DA PUSH1 0x40 DUP4 ADD DUP9 PUSH2 0x1FD0 JUMP JUMPDEST PUSH2 0x20E7 PUSH1 0x60 DUP4 ADD DUP8 PUSH2 0x1E4B JUMP JUMPDEST PUSH2 0x20F4 PUSH1 0x80 DUP4 ADD DUP7 PUSH2 0x1E4B JUMP JUMPDEST PUSH2 0x2101 PUSH1 0xA0 DUP4 ADD DUP6 PUSH2 0x1E4B JUMP JUMPDEST DUP2 DUP2 SUB PUSH1 0xC0 DUP4 ADD MSTORE PUSH2 0x2113 DUP2 DUP5 PUSH2 0x203F JUMP JUMPDEST SWAP1 POP SWAP9 SWAP8 POP POP POP POP POP POP POP POP JUMP JUMPDEST PUSH1 0x0 DUP2 ISZERO ISZERO SWAP1 POP SWAP2 SWAP1 POP JUMP JUMPDEST PUSH2 0x2136 DUP2 PUSH2 0x2121 JUMP JUMPDEST DUP3 MSTORE POP POP JUMP JUMPDEST PUSH1 0x0 PUSH2 0x100 DUP3 ADD SWAP1 POP DUP2 DUP2 SUB PUSH1 0x0 DUP4 ADD MSTORE PUSH2 0x2157 DUP2 DUP12 PUSH2 0x1F97 JUMP JUMPDEST SWAP1 POP DUP2 DUP2 SUB PUSH1 0x20 DUP4 ADD MSTORE PUSH2 0x216B DUP2 DUP11 PUSH2 0x1F97 JUMP JUMPDEST SWAP1 POP DUP2 DUP2 SUB PUSH1 0x40 DUP4 ADD MSTORE PUSH2 0x217F DUP2 DUP10 PUSH2 0x1F97 JUMP JUMPDEST SWAP1 POP PUSH2 0x218E PUSH1 0x60 DUP4 ADD DUP9 PUSH2 0x1FD0 JUMP JUMPDEST PUSH2 0x219B PUSH1 0x80 DUP4 ADD DUP8 PUSH2 0x1E4B JUMP JUMPDEST PUSH2 0x21A8 PUSH1 0xA0 DUP4 ADD DUP7 PUSH2 0x1E4B JUMP JUMPDEST PUSH2 0x21B5 PUSH1 0xC0 DUP4 ADD DUP6 PUSH2 0x1E4B JUMP JUMPDEST PUSH2 0x21C2 PUSH1 0xE0 DUP4 ADD DUP5 PUSH2 0x212D JUMP JUMPDEST SWAP10 SWAP9 POP POP POP POP POP POP POP POP POP JUMP JUMPDEST PUSH32 0x4E487B7100000000000000000000000000000000000000000000000000000000 PUSH1 0x0 MSTORE PUSH1 0x41 PUSH1 0x4 MSTORE PUSH1 0x24 PUSH1 0x0 REVERT JUMPDEST PUSH32 0x4E487B7100000000000000000000000000000000000000000000000000000000 PUSH1 0x0 MSTORE PUSH1 0x22 PUSH1 0x4 MSTORE PUSH1 0x24 PUSH1 0x0 REVERT JUMPDEST PUSH1 0x0 PUSH1 0x2 DUP3 DIV SWAP1 POP PUSH1 0x1 DUP3 AND DUP1 PUSH2 0x2245 JUMPI PUSH1 0x7F DUP3 AND SWAP2 POP JUMPDEST PUSH1 0x20 DUP3 LT DUP2 SUB PUSH2 0x2258 JUMPI PUSH2 0x2257 PUSH2 0x21FE JUMP JUMPDEST JUMPDEST POP SWAP2 SWAP1 POP JUMP JUMPDEST PUSH1 0x0 DUP2 SWAP1 POP DUP2 PUSH1 0x0 MSTORE PUSH1 0x20 PUSH1 0x0 KECCAK256 SWAP1 POP SWAP2 SWAP1 POP JUMP JUMPDEST PUSH1 0x0 PUSH1 0x20 PUSH1 0x1F DUP4 ADD DIV SWAP1 POP SWAP2 SWAP1 POP JUMP JUMPDEST PUSH1 0x0 DUP3 DUP3 SHL SWAP1 POP SWAP3 SWAP2 POP POP JUMP JUMPDEST PUSH1 0x0 PUSH1 0x8 DUP4 MUL PUSH2 0x22C0 PUSH32 0xFFFFFFFFFFFFFFFFFFFFFFFFFFFFFFFFFFFFFFFFFFFFFFFFFFFFFFFFFFFFFFFF DUP3 PUSH2 0x2283 JUMP JUMPDEST PUSH2 0x22CA DUP7 DUP4 PUSH2 0x2283 JUMP JUMPDEST SWAP6 POP DUP1 NOT DUP5 AND SWAP4 POP DUP1 DUP7 AND DUP5 OR SWAP3 POP POP POP SWAP4 SWAP3 POP POP POP JUMP JUMPDEST PUSH1 0x0 DUP2 SWAP1 POP SWAP2 SWAP1 POP JUMP JUMPDEST PUSH1 0x0 PUSH2 0x2307 PUSH2 0x2302 PUSH2 0x22FD DUP5 PUSH2 0x1D26 JUMP JUMPDEST PUSH2 0x22E2 JUMP JUMPDEST PUSH2 0x1D26 JUMP JUMPDEST SWAP1 POP SWAP2 SWAP1 POP JUMP JUMPDEST PUSH1 0x0 DUP2 SWAP1 POP SWAP2 SWAP1 POP JUMP JUMPDEST PUSH2 0x2321 DUP4 PUSH2 0x22EC JUMP JUMPDEST PUSH2 0x2335 PUSH2 0x232D DUP3 PUSH2 0x230E JUMP JUMPDEST DUP5 DUP5 SLOAD PUSH2 0x2290 JUMP JUMPDEST DUP3 SSTORE POP POP POP POP JUMP JUMPDEST PUSH1 0x0 SWAP1 JUMP JUMPDEST PUSH2 0x234A PUSH2 0x233D JUMP JUMPDEST PUSH2 0x2355 DUP2 DUP5 DUP5 PUSH2 0x2318 JUMP JUMPDEST POP POP POP JUMP JUMPDEST JUMPDEST DUP2 DUP2 LT ISZERO PUSH2 0x2379 JUMPI PUSH2 0x236E PUSH1 0x0 DUP3 PUSH2 0x2342 JUMP JUMPDEST PUSH1 0x1 DUP2 ADD SWAP1 POP PUSH2 0x235B JUMP JUMPDEST POP POP JUMP JUMPDEST PUSH1 0x1F DUP3 GT ISZERO PUSH2 0x23BE JUMPI PUSH2 0x238F DUP2 PUSH2 0x225E JUMP JUMPDEST PUSH2 0x2398 DUP5 PUSH2 0x2273 JUMP JUMPDEST DUP2 ADD PUSH1 0x20 DUP6 LT ISZERO PUSH2 0x23A7 JUMPI DUP2 SWAP1 POP JUMPDEST PUSH2 0x23BB PUSH2 0x23B3 DUP6 PUSH2 0x2273 JUMP JUMPDEST DUP4 ADD DUP3 PUSH2 0x235A JUMP JUMPDEST POP POP JUMPDEST POP POP POP JUMP JUMPDEST PUSH1 0x0 DUP3 DUP3 SHR SWAP1 POP SWAP3 SWAP2 POP POP JUMP JUMPDEST PUSH1 0x0 PUSH2 0x23E1 PUSH1 0x0 NOT DUP5 PUSH1 0x8 MUL PUSH2 0x23C3 JUMP JUMPDEST NOT DUP1 DUP4 AND SWAP2 POP POP SWAP3 SWAP2 POP POP JUMP JUMPDEST PUSH1 0x0 PUSH2 0x23FA DUP4 DUP4 PUSH2 0x23D0 JUMP JUMPDEST SWAP2 POP DUP3 PUSH1 0x2 MUL DUP3 OR SWAP1 POP SWAP3 SWAP2 POP POP JUMP JUMPDEST PUSH2 0x2413 DUP3 PUSH2 0x1F40 JUMP JUMPDEST PUSH8 0xFFFFFFFFFFFFFFFF DUP2 GT ISZERO PUSH2 0x242C JUMPI PUSH2 0x242B PUSH2 0x21CF JUMP JUMPDEST JUMPDEST PUSH2 0x2436 DUP3 SLOAD PUSH2 0x222D JUMP JUMPDEST PUSH2 0x2441 DUP3 DUP3 DUP6 PUSH2 0x237D JUMP JUMPDEST PUSH1 0x0 PUSH1 0x20 SWAP1 POP PUSH1 0x1F DUP4 GT PUSH1 0x1 DUP2 EQ PUSH2 0x2474 JUMPI PUSH1 0x0 DUP5 ISZERO PUSH2 0x2462 JUMPI DUP3 DUP8 ADD MLOAD SWAP1 POP JUMPDEST PUSH2 0x246C DUP6 DUP3 PUSH2 0x23EE JUMP JUMPDEST DUP7 SSTORE POP PUSH2 0x24D4 JUMP JUMPDEST PUSH1 0x1F NOT DUP5 AND PUSH2 0x2482 DUP7 PUSH2 0x225E JUMP JUMPDEST PUSH1 0x0 JUMPDEST DUP3 DUP2 LT ISZERO PUSH2 0x24AA JUMPI DUP5 DUP10 ADD MLOAD DUP3 SSTORE PUSH1 0x1 DUP3 ADD SWAP2 POP PUSH1 0x20 DUP6 ADD SWAP5 POP PUSH1 0x20 DUP2 ADD SWAP1 POP PUSH2 0x2485 JUMP JUMPDEST DUP7 DUP4 LT ISZERO PUSH2 0x24C7 JUMPI DUP5 DUP10 ADD MLOAD PUSH2 0x24C3 PUSH1 0x1F DUP10 AND DUP3 PUSH2 0x23D0 JUMP JUMPDEST DUP4 SSTORE POP JUMPDEST PUSH1 0x1 PUSH1 0x2 DUP9 MUL ADD DUP9 SSTORE POP POP POP JUMPDEST POP POP POP POP POP POP JUMP JUMPDEST DUP3 DUP2 DUP4 CALLDATACOPY PUSH1 0x0 DUP4 DUP4 ADD MSTORE POP POP POP JUMP JUMPDEST PUSH1 0x0 PUSH2 0x24F7 DUP4 DUP6 PUSH2 0x1F4B JUMP JUMPDEST SWAP4 POP PUSH2 0x2504 DUP4 DUP6 DUP5 PUSH2 0x24DC JUMP JUMPDEST PUSH2 0x250D DUP4 PUSH2 0x1F86 JUMP JUMPDEST DUP5 ADD SWAP1 POP SWAP4 SWAP3 POP POP POP JUMP JUMPDEST PUSH1 0x0 PUSH1 0xC0 DUP3 ADD SWAP1 POP PUSH2 0x252D PUSH1 0x0 DUP4 ADD DUP11 PUSH2 0x1E4B JUMP JUMPDEST PUSH2 0x253A PUSH1 0x20 DUP4 ADD DUP10 PUSH2 0x1FD0 JUMP JUMPDEST PUSH2 0x2547 PUSH1 0x40 DUP4 ADD DUP9 PUSH2 0x1E4B JUMP JUMPDEST PUSH2 0x2554 PUSH1 0x60 DUP4 ADD DUP8 PUSH2 0x1E4B JUMP JUMPDEST PUSH2 0x2561 PUSH1 0x80 DUP4 ADD DUP7 PUSH2 0x1E4B JUMP JUMPDEST DUP2 DUP2 SUB PUSH1 0xA0 DUP4 ADD MSTORE PUSH2 0x2574 DUP2 DUP5 DUP7 PUSH2 0x24EB JUMP JUMPDEST SWAP1 POP SWAP9 SWAP8 POP POP POP POP POP POP POP POP JUMP JUMPDEST PUSH32 0x4E487B7100000000000000000000000000000000000000000000000000000000 PUSH1 0x0 MSTORE PUSH1 0x11 PUSH1 0x4 MSTORE PUSH1 0x24 PUSH1 0x0 REVERT JUMPDEST PUSH1 0x0 PUSH2 0x25BC DUP3 PUSH2 0x1D26 JUMP JUMPDEST SWAP2 POP PUSH32 0xFFFFFFFFFFFFFFFFFFFFFFFFFFFFFFFFFFFFFFFFFFFFFFFFFFFFFFFFFFFFFFFF DUP3 SUB PUSH2 0x25EE JUMPI PUSH2 0x25ED PUSH2 0x2582 JUMP JUMPDEST JUMPDEST PUSH1 0x1 DUP3 ADD SWAP1 POP SWAP2 SWAP1 POP JUMP JUMPDEST PUSH32 0x414C524541445920504149440000000000000000000000000000000000000000 PUSH1 0x0 DUP3 ADD MSTORE POP JUMP JUMPDEST PUSH1 0x0 PUSH2 0x262F PUSH1 0xC DUP4 PUSH2 0x1F4B JUMP JUMPDEST SWAP2 POP PUSH2 0x263A DUP3 PUSH2 0x25F9 JUMP JUMPDEST PUSH1 0x20 DUP3 ADD SWAP1 POP SWAP2 SWAP1 POP JUMP JUMPDEST PUSH1 0x0 PUSH1 0x20 DUP3 ADD SWAP1 POP DUP2 DUP2 SUB PUSH1 0x0 DUP4 ADD MSTORE PUSH2 0x265E DUP2 PUSH2 0x2622 JUMP JUMPDEST SWAP1 POP SWAP2 SWAP1 POP JUMP JUMPDEST PUSH1 0x0 PUSH2 0x2670 DUP3 PUSH2 0x1D26 JUMP JUMPDEST SWAP2 POP PUSH2 0x267B DUP4 PUSH2 0x1D26 JUMP JUMPDEST SWAP3 POP DUP3 DUP3 ADD SWAP1 POP DUP1 DUP3 GT ISZERO PUSH2 0x2693 JUMPI PUSH2 0x2692 PUSH2 0x2582 JUMP JUMPDEST JUMPDEST SWAP3 SWAP2 POP POP JUMP JUMPDEST PUSH32 0x544F4F204541524C590000000000000000000000000000000000000000000000 PUSH1 0x0 DUP3 ADD MSTORE POP JUMP JUMPDEST PUSH1 0x0 PUSH2 0x26CF PUSH1 0x9 DUP4 PUSH2 0x1F4B JUMP JUMPDEST SWAP2 POP PUSH2 0x26DA DUP3 PUSH2 0x2699 JUMP JUMPDEST PUSH1 0x20 DUP3 ADD SWAP1 POP SWAP2 SWAP1 POP JUMP JUMPDEST PUSH1 0x0 PUSH1 0x20 DUP3 ADD SWAP1 POP DUP2 DUP2 SUB PUSH1 0x0 DUP4 ADD MSTORE PUSH2 0x26FE DUP2 PUSH2 0x26C2 JUMP JUMPDEST SWAP1 POP SWAP2 SWAP1 POP JUMP JUMPDEST PUSH32 0x4D555354204245204556454E54204F574E455200000000000000000000000000 PUSH1 0x0 DUP3 ADD MSTORE POP JUMP JUMPDEST PUSH1 0x0 PUSH2 0x273B PUSH1 0x13 DUP4 PUSH2 0x1F4B JUMP JUMPDEST SWAP2 POP PUSH2 0x2746 DUP3 PUSH2 0x2705 JUMP JUMPDEST PUSH1 0x20 DUP3 ADD SWAP1 POP SWAP2 SWAP1 POP JUMP JUMPDEST PUSH1 0x0 PUSH1 0x20 DUP3 ADD SWAP1 POP DUP2 DUP2 SUB PUSH1 0x0 DUP4 ADD MSTORE PUSH2 0x276A DUP2 PUSH2 0x272E JUMP JUMPDEST SWAP1 POP SWAP2 SWAP1 POP JUMP JUMPDEST PUSH1 0x0 PUSH2 0x277C DUP3 PUSH2 0x1D26 JUMP JUMPDEST SWAP2 POP PUSH2 0x2787 DUP4 PUSH2 0x1D26 JUMP JUMPDEST SWAP3 POP DUP3 DUP3 SUB SWAP1 POP DUP2 DUP2 GT ISZERO PUSH2 0x279F JUMPI PUSH2 0x279E PUSH2 0x2582 JUMP JUMPDEST JUMPDEST SWAP3 SWAP2 POP POP JUMP JUMPDEST PUSH1 0x0 PUSH2 0x27B0 DUP3 PUSH2 0x1D26 JUMP JUMPDEST SWAP2 POP PUSH2 0x27BB DUP4 PUSH2 0x1D26 JUMP JUMPDEST SWAP3 POP DUP3 DUP3 MUL PUSH2 0x27C9 DUP2 PUSH2 0x1D26 JUMP JUMPDEST SWAP2 POP DUP3 DUP3 DIV DUP5 EQ DUP4 ISZERO OR PUSH2 0x27E0 JUMPI PUSH2 0x27DF PUSH2 0x2582 JUMP JUMPDEST JUMPDEST POP SWAP3 SWAP2 POP POP JUMP JUMPDEST PUSH1 0x0 DUP2 SWAP1 POP SWAP3 SWAP2 POP POP JUMP JUMPDEST POP JUMP JUMPDEST PUSH1 0x0 PUSH2 0x2802 PUSH1 0x0 DUP4 PUSH2 0x27E7 JUMP JUMPDEST SWAP2 POP PUSH2 0x280D DUP3 PUSH2 0x27F2 JUMP JUMPDEST PUSH1 0x0 DUP3 ADD SWAP1 POP SWAP2 SWAP1 POP JUMP JUMPDEST PUSH1 0x0 PUSH2 0x2823 DUP3 PUSH2 0x27F5 JUMP JUMPDEST SWAP2 POP DUP2 SWAP1 POP SWAP2 SWAP1 POP JUMP JUMPDEST PUSH32 0x4661696C656420746F2073656E64204574686572000000000000000000000000 PUSH1 0x0 DUP3 ADD MSTORE POP JUMP JUMPDEST PUSH1 0x0 PUSH2 0x2863 PUSH1 0x14 DUP4 PUSH2 0x1F4B JUMP JUMPDEST SWAP2 POP PUSH2 0x286E DUP3 PUSH2 0x282D JUMP JUMPDEST PUSH1 0x20 DUP3 ADD SWAP1 POP SWAP2 SWAP1 POP JUMP JUMPDEST PUSH1 0x0 PUSH1 0x20 DUP3 ADD SWAP1 POP DUP2 DUP2 SUB PUSH1 0x0 DUP4 ADD MSTORE PUSH2 0x2892 DUP2 PUSH2 0x2856 JUMP JUMPDEST SWAP1 POP SWAP2 SWAP1 POP JUMP JUMPDEST PUSH32 0x4556454E54204E4F542053544152544544000000000000000000000000000000 PUSH1 0x0 DUP3 ADD MSTORE POP JUMP JUMPDEST PUSH1 0x0 PUSH2 0x28CF PUSH1 0x11 DUP4 PUSH2 0x1F4B JUMP JUMPDEST SWAP2 POP PUSH2 0x28DA DUP3 PUSH2 0x2899 JUMP JUMPDEST PUSH1 0x20 DUP3 ADD SWAP1 POP SWAP2 SWAP1 POP JUMP JUMPDEST PUSH1 0x0 PUSH1 0x20 DUP3 ADD SWAP1 POP DUP2 DUP2 SUB PUSH1 0x0 DUP4 ADD MSTORE PUSH2 0x28FE DUP2 PUSH2 0x28C2 JUMP JUMPDEST SWAP1 POP SWAP2 SWAP1 POP JUMP JUMPDEST PUSH32 0x4E4F5420415554484F52495A4544000000000000000000000000000000000000 PUSH1 0x0 DUP3 ADD MSTORE POP JUMP JUMPDEST PUSH1 0x0 PUSH2 0x293B PUSH1 0xE DUP4 PUSH2 0x1F4B JUMP JUMPDEST SWAP2 POP PUSH2 0x2946 DUP3 PUSH2 0x2905 JUMP JUMPDEST PUSH1 0x20 DUP3 ADD SWAP1 POP SWAP2 SWAP1 POP JUMP JUMPDEST PUSH1 0x0 PUSH1 0x20 DUP3 ADD SWAP1 POP DUP2 DUP2 SUB PUSH1 0x0 DUP4 ADD MSTORE PUSH2 0x296A DUP2 PUSH2 0x292E JUMP JUMPDEST SWAP1 POP SWAP2 SWAP1 POP JUMP JUMPDEST PUSH32 0x4E487B7100000000000000000000000000000000000000000000000000000000 PUSH1 0x0 MSTORE PUSH1 0x32 PUSH1 0x4 MSTORE PUSH1 0x24 PUSH1 0x0 REVERT JUMPDEST PUSH1 0x0 PUSH1 0xFF DUP3 AND SWAP1 POP SWAP2 SWAP1 POP JUMP JUMPDEST PUSH1 0x0 PUSH2 0x29B8 DUP3 PUSH2 0x29A0 JUMP JUMPDEST SWAP2 POP PUSH1 0xFF DUP3 SUB PUSH2 0x29CB JUMPI PUSH2 0x29CA PUSH2 0x2582 JUMP JUMPDEST JUMPDEST PUSH1 0x1 DUP3 ADD SWAP1 POP SWAP2 SWAP1 POP JUMP JUMPDEST PUSH32 0x4E4F205253565020544F20434F4E4649524D0000000000000000000000000000 PUSH1 0x0 DUP3 ADD MSTORE POP JUMP JUMPDEST PUSH1 0x0 PUSH2 0x2A0C PUSH1 0x12 DUP4 PUSH2 0x1F4B JUMP JUMPDEST SWAP2 POP PUSH2 0x2A17 DUP3 PUSH2 0x29D6 JUMP JUMPDEST PUSH1 0x20 DUP3 ADD SWAP1 POP SWAP2 SWAP1 POP JUMP JUMPDEST PUSH1 0x0 PUSH1 0x20 DUP3 ADD SWAP1 POP DUP2 DUP2 SUB PUSH1 0x0 DUP4 ADD MSTORE PUSH2 0x2A3B DUP2 PUSH2 0x29FF JUMP JUMPDEST SWAP1 POP SWAP2 SWAP1 POP JUMP JUMPDEST PUSH32 0x414C524541445920434C41494D45440000000000000000000000000000000000 PUSH1 0x0 DUP3 ADD MSTORE POP JUMP JUMPDEST PUSH1 0x0 PUSH2 0x2A78 PUSH1 0xF DUP4 PUSH2 0x1F4B JUMP JUMPDEST SWAP2 POP PUSH2 0x2A83 DUP3 PUSH2 0x2A42 JUMP JUMPDEST PUSH1 0x20 DUP3 ADD SWAP1 POP SWAP2 SWAP1 POP JUMP JUMPDEST PUSH1 0x0 PUSH1 0x20 DUP3 ADD SWAP1 POP DUP2 DUP2 SUB PUSH1 0x0 DUP4 ADD MSTORE PUSH2 0x2AA7 DUP2 PUSH2 0x2A6B JUMP JUMPDEST SWAP1 POP SWAP2 SWAP1 POP JUMP JUMPDEST PUSH32 0x414C52454144592050414944204F555400000000000000000000000000000000 PUSH1 0x0 DUP3 ADD MSTORE POP JUMP JUMPDEST PUSH1 0x0 PUSH2 0x2AE4 PUSH1 0x10 DUP4 PUSH2 0x1F4B JUMP JUMPDEST SWAP2 POP PUSH2 0x2AEF DUP3 PUSH2 0x2AAE JUMP JUMPDEST PUSH1 0x20 DUP3 ADD SWAP1 POP SWAP2 SWAP1 POP JUMP JUMPDEST PUSH1 0x0 PUSH1 0x20 DUP3 ADD SWAP1 POP DUP2 DUP2 SUB PUSH1 0x0 DUP4 ADD MSTORE PUSH2 0x2B13 DUP2 PUSH2 0x2AD7 JUMP JUMPDEST SWAP1 POP SWAP2 SWAP1 POP JUMP JUMPDEST PUSH32 0x4E487B7100000000000000000000000000000000000000000000000000000000 PUSH1 0x0 MSTORE PUSH1 0x31 PUSH1 0x4 MSTORE PUSH1 0x24 PUSH1 0x0 REVERT JUMPDEST PUSH1 0x0 PUSH1 0x40 DUP3 ADD SWAP1 POP PUSH2 0x2B5E PUSH1 0x0 DUP4 ADD DUP6 PUSH2 0x1E4B JUMP JUMPDEST PUSH2 0x2B6B PUSH1 0x20 DUP4 ADD DUP5 PUSH2 0x1FD0 JUMP JUMPDEST SWAP4 SWAP3 POP POP POP JUMP JUMPDEST PUSH32 0x4E4F5420454E4F55474800000000000000000000000000000000000000000000 PUSH1 0x0 DUP3 ADD MSTORE POP JUMP JUMPDEST PUSH1 0x0 PUSH2 0x2BA8 PUSH1 0xA DUP4 PUSH2 0x1F4B JUMP JUMPDEST SWAP2 POP PUSH2 0x2BB3 DUP3 PUSH2 0x2B72 JUMP JUMPDEST PUSH1 0x20 DUP3 ADD SWAP1 POP SWAP2 SWAP1 POP JUMP JUMPDEST PUSH1 0x0 PUSH1 0x20 DUP3 ADD SWAP1 POP DUP2 DUP2 SUB PUSH1 0x0 DUP4 ADD MSTORE PUSH2 0x2BD7 DUP2 PUSH2 0x2B9B JUMP JUMPDEST SWAP1 POP SWAP2 SWAP1 POP JUMP JUMPDEST PUSH32 0x414C52454144592048415050454E454400000000000000000000000000000000 PUSH1 0x0 DUP3 ADD MSTORE POP JUMP JUMPDEST PUSH1 0x0 PUSH2 0x2C14 PUSH1 0x10 DUP4 PUSH2 0x1F4B JUMP JUMPDEST SWAP2 POP PUSH2 0x2C1F DUP3 PUSH2 0x2BDE JUMP JUMPDEST PUSH1 0x20 DUP3 ADD SWAP1 POP SWAP2 SWAP1 POP JUMP JUMPDEST PUSH1 0x0 PUSH1 0x20 DUP3 ADD SWAP1 POP DUP2 DUP2 SUB PUSH1 0x0 DUP4 ADD MSTORE PUSH2 0x2C43 DUP2 PUSH2 0x2C07 JUMP JUMPDEST SWAP1 POP SWAP2 SWAP1 POP JUMP JUMPDEST PUSH32 0x54686973206576656E7420686173207265616368656420636170616369747900 PUSH1 0x0 DUP3 ADD MSTORE POP JUMP JUMPDEST PUSH1 0x0 PUSH2 0x2C80 PUSH1 0x1F DUP4 PUSH2 0x1F4B JUMP JUMPDEST SWAP2 POP PUSH2 0x2C8B DUP3 PUSH2 0x2C4A JUMP JUMPDEST PUSH1 0x20 DUP3 ADD SWAP1 POP SWAP2 SWAP1 POP JUMP JUMPDEST PUSH1 0x0 PUSH1 0x20 DUP3 ADD SWAP1 POP DUP2 DUP2 SUB PUSH1 0x0 DUP4 ADD MSTORE PUSH2 0x2CAF DUP2 PUSH2 0x2C73 JUMP JUMPDEST SWAP1 POP SWAP2 SWAP1 POP JUMP JUMPDEST PUSH32 0x414C524541445920434F4E4649524D4544000000000000000000000000000000 PUSH1 0x0 DUP3 ADD MSTORE POP JUMP JUMPDEST PUSH1 0x0 PUSH2 0x2CEC PUSH1 0x11 DUP4 PUSH2 0x1F4B JUMP JUMPDEST SWAP2 POP PUSH2 0x2CF7 DUP3 PUSH2 0x2CB6 JUMP JUMPDEST PUSH1 0x20 DUP3 ADD SWAP1 POP SWAP2 SWAP1 POP JUMP JUMPDEST PUSH1 0x0 PUSH1 0x20 DUP3 ADD SWAP1 POP DUP2 DUP2 SUB PUSH1 0x0 DUP4 ADD MSTORE PUSH2 0x2D1B DUP2 PUSH2 0x2CDF JUMP JUMPDEST SWAP1 POP SWAP2 SWAP1 POP JUMP INVALID LOG2 PUSH5 0x6970667358 0x22 SLT KECCAK256 PUSH16 0x80DB0F5B7490209E1F6F939FE6C22206 0x27 0x21 CALLDATALOAD PUSH16 0x16BAFFFAD04E1E8EF8C18D64736F6C63 NUMBER STOP ADDMOD SGT STOP CALLER "},"methodIdentifiers":{"confirmAllAttendees(uint256)":"df8ef00e","confirmAttendee(uint256,address)":"6acb5dd3","createNewEvent(string,string,uint256,uint256,uint256,string)":"0f8e16dc","createNewRSVP(uint256)":"ada06a3b","getContractBalance()":"6f9fb98a","getEvent(uint256)":"6d1884e0","getEventId(uint256)":"c3be559b","getEventLength()":"5c98dfa1","idToEvent(uint256)":"d46bae4b","totalEvents()":"ba870686","withdrawUnclaimedDeposits(uint256)":"127d17ab"}}}}}