{"contracts/EventHub.sol":{"EventHub":{"abi":[{"anonymous":false,"inputs":[{"indexed":false,"internalType":"uint256","name":"eventID","type":"uint256"},{"indexed":false,"internalType":"address","name":"attendeeAddress","type":"address"}],"name":"ConfirmedAttendee","type":"event"},{"anonymous":false,"inputs":[{"indexed":false,"internalType":"uint256","name":"eventID","type":"uint256"}],"name":"DepositsPaidOut","type":"event"},{"anonymous":false,"inputs":[{"indexed":false,"internalType":"uint256","name":"eventID","type":"uint256"},{"indexed":false,"internalType":"address","name":"creatorAddress","type":"address"},{"indexed":false,"internalType":"uint256","name":"eventTimestamp","type":"uint256"},{"indexed":false,"internalType":"uint256","name":"maxCapacity","type":"uint256"},{"indexed":false,"internalType":"uint256","name":"deposit","type":"uint256"},{"indexed":false,"internalType":"string","name":"imagePath","type":"string"}],"name":"NewEventCreated","type":"event"},{"anonymous":false,"inputs":[{"indexed":false,"internalType":"uint256","name":"eventID","type":"uint256"},{"indexed":false,"internalType":"address","name":"attendeeAddress","type":"address"}],"name":"NewRSVP","type":"event"},{"anonymous":false,"inputs":[{"indexed":false,"internalType":"string[]","name":"phones","type":"string[]"}],"name":"Phones","type":"event"},{"inputs":[],"name":"confirmAllAttendees","outputs":[],"stateMutability":"nonpayable","type":"function"},{"inputs":[{"internalType":"uint256","name":"eventId","type":"uint256"},{"internalType":"address","name":"attendee","type":"address"}],"name":"confirmAttendee","outputs":[],"stateMutability":"nonpayable","type":"function"},{"inputs":[{"internalType":"string","name":"title","type":"string"},{"internalType":"uint256","name":"eventTimestamp","type":"uint256"},{"internalType":"uint256","name":"deposit","type":"uint256"},{"internalType":"uint256","name":"maxCapacity","type":"uint256"},{"internalType":"string","name":"imagePath","type":"string"},{"internalType":"string","name":"phone","type":"string"}],"name":"createNewEvent","outputs":[{"internalType":"uint256","name":"","type":"uint256"}],"stateMutability":"payable","type":"function"},{"inputs":[{"internalType":"uint256","name":"eventId","type":"uint256"}],"name":"createNewRSVP","outputs":[],"stateMutability":"payable","type":"function"},{"inputs":[],"name":"getContractBalance","outputs":[{"internalType":"uint256","name":"","type":"uint256"}],"stateMutability":"view","type":"function"},{"inputs":[{"internalType":"uint256","name":"eventID","type":"uint256"}],"name":"getEvent","outputs":[{"internalType":"string","name":"title","type":"string"},{"internalType":"string","name":"imagePath","type":"string"},{"internalType":"address","name":"eventOwner","type":"address"},{"internalType":"uint256","name":"eventTimestamp","type":"uint256"},{"internalType":"uint256","name":"maxCapacity","type":"uint256"},{"internalType":"uint256","name":"deposit","type":"uint256"},{"internalType":"address[]","name":"confirmedRSVPs","type":"address[]"}],"stateMutability":"view","type":"function"},{"inputs":[{"internalType":"uint256","name":"i","type":"uint256"}],"name":"getEventId","outputs":[{"internalType":"uint256","name":"","type":"uint256"}],"stateMutability":"view","type":"function"},{"inputs":[],"name":"getEventLength","outputs":[{"internalType":"uint256","name":"","type":"uint256"}],"stateMutability":"view","type":"function"},{"inputs":[{"internalType":"uint256","name":"","type":"uint256"}],"name":"idToEvent","outputs":[{"internalType":"string","name":"title","type":"string"},{"internalType":"string","name":"imagePath","type":"string"},{"internalType":"address","name":"eventOwner","type":"address"},{"internalType":"uint256","name":"eventTimestamp","type":"uint256"},{"internalType":"uint256","name":"deposit","type":"uint256"},{"internalType":"uint256","name":"maxCapacity","type":"uint256"},{"internalType":"bool","name":"paidOut","type":"bool"},{"internalType":"string","name":"phone","type":"string"}],"stateMutability":"view","type":"function"},{"inputs":[],"name":"totalEvents","outputs":[{"internalType":"uint256","name":"","type":"uint256"}],"stateMutability":"view","type":"function"},{"inputs":[{"internalType":"uint256","name":"eventId","type":"uint256"}],"name":"withdrawUnclaimedDeposits","outputs":[],"stateMutability":"nonpayable","type":"function"}],"evm":{"bytecode":{"linkReferences":{},"object":"608060405234801561001057600080fd5b50612a5d806100206000396000f3fe60806040526004361061009c5760003560e01c80636d1884e0116100645780636d1884e0146101655780636f9fb98a146101a8578063ada06a3b146101d3578063ba870686146101ef578063c3be559b1461021a578063d46bae4b146102575761009c565b8063127d17ab146100a1578063289b9b8b146100ca5780634bbbeb49146100fa5780635c98dfa1146101115780636acb5dd31461013c575b600080fd5b3480156100ad57600080fd5b506100c860048036038101906100c39190611a7e565b61029b565b005b6100e460048036038101906100df9190611b10565b61086c565b6040516100f19190611c0e565b60405180910390f35b34801561010657600080fd5b5061010f610b51565b005b34801561011d57600080fd5b50610126610dda565b6040516101339190611c0e565b60405180910390f35b34801561014857600080fd5b50610163600480360381019061015e9190611c87565b610de7565b005b34801561017157600080fd5b5061018c60048036038101906101879190611a7e565b611118565b60405161019f9796959493929190611e24565b60405180910390f35b3480156101b457600080fd5b506101bd61139a565b6040516101ca9190611c0e565b60405180910390f35b6101ed60048036038101906101e89190611a7e565b6113a2565b005b3480156101fb57600080fd5b5061020461160f565b6040516102119190611c0e565b60405180910390f35b34801561022657600080fd5b50610241600480360381019061023c9190611a7e565b611615565b60405161024e9190611c0e565b60405180910390f35b34801561026357600080fd5b5061027e60048036038101906102799190611a7e565b61163d565b604051610292989796959493929190611ec3565b60405180910390f35b600060026000838152602001908152602001600020604051806101400160405290816000820180546102cc90611f85565b80601f01602080910402602001604051908101604052809291908181526020018280546102f890611f85565b80156103455780601f1061031a57610100808354040283529160200191610345565b820191906000526020600020905b81548152906001019060200180831161032857829003601f168201915b5050505050815260200160018201805461035e90611f85565b80601f016020809104026020016040519081016040528092919081815260200182805461038a90611f85565b80156103d75780601f106103ac576101008083540402835291602001916103d7565b820191906000526020600020905b8154815290600101906020018083116103ba57829003601f168201915b505050505081526020016002820160009054906101000a900473ffffffffffffffffffffffffffffffffffffffff1673ffffffffffffffffffffffffffffffffffffffff1673ffffffffffffffffffffffffffffffffffffffff168152602001600382015481526020016004820154815260200160058201548152602001600682018054806020026020016040519081016040528092919081815260200182805480156104d957602002820191906000526020600020905b8160009054906101000a900473ffffffffffffffffffffffffffffffffffffffff1673ffffffffffffffffffffffffffffffffffffffff168152602001906001019080831161048f575b505050505081526020016007820180548060200260200160405190810160405280929190818152602001828054801561056757602002820191906000526020600020905b8160009054906101000a900473ffffffffffffffffffffffffffffffffffffffff1673ffffffffffffffffffffffffffffffffffffffff168152602001906001019080831161051d575b505050505081526020016008820160009054906101000a900460ff1615151515815260200160098201805461059b90611f85565b80601f01602080910402602001604051908101604052809291908181526020018280546105c790611f85565b80156106145780601f106105e957610100808354040283529160200191610614565b820191906000526020600020905b8154815290600101906020018083116105f757829003601f168201915b505050505081525050905080610100015115610665576040517f08c379a000000000000000000000000000000000000000000000000000000000815260040161065c90612002565b60405180910390fd5b607881606001516106769190612051565b4210156106b8576040517f08c379a00000000000000000000000000000000000000000000000000000000081526004016106af906120d1565b60405180910390fd5b806040015173ffffffffffffffffffffffffffffffffffffffff163373ffffffffffffffffffffffffffffffffffffffff161461072a576040517f08c379a00000000000000000000000000000000000000000000000000000000081526004016107219061213d565b60405180910390fd5b60008160e00151518260c0015151610742919061215d565b905060008260800151826107569190612191565b905060018361010001901515908115158152505060003373ffffffffffffffffffffffffffffffffffffffff168260405161079090612204565b60006040518083038185875af1925050503d80600081146107cd576040519150601f19603f3d011682016040523d82523d6000602084013e6107d2565b606091505b50509050806107ee576000846101000190151590811515815250505b8061082e576040517f08c379a000000000000000000000000000000000000000000000000000000000815260040161082590612265565b60405180910390fd5b7f0308e7ef5ff7ae64ed45c37a04775b24be0bfbc4cb5f5c3e6b0aa505d006eafc8560405161085d9190611c0e565b60405180910390a15050505050565b60008060005490506060806040518061014001604052808e8e8080601f016020809104026020016040519081016040528093929190818152602001838380828437600081840152601f19601f82011690508083019250505050505050815260200189898080601f016020809104026020016040519081016040528093929190818152602001838380828437600081840152601f19601f8201169050808301925050505050505081526020013373ffffffffffffffffffffffffffffffffffffffff1681526020018c81526020018b81526020018a815260200183815260200182815260200160001515815260200187878080601f016020809104026020016040519081016040528093929190818152602001838380828437600081840152601f19601f820116905080830192505050505050508152506002600085815260200190815260200160002060008201518160000190816109ca9190612460565b5060208201518160010190816109e09190612460565b5060408201518160020160006101000a81548173ffffffffffffffffffffffffffffffffffffffff021916908373ffffffffffffffffffffffffffffffffffffffff160217905550606082015181600301556080820151816004015560a0820151816005015560c0820151816006019080519060200190610a62929190611997565b5060e0820151816007019080519060200190610a7f929190611997565b506101008201518160080160006101000a81548160ff021916908315150217905550610120820151816009019081610ab79190612460565b509050507f96beefe7c0c1b00e25286e8b55a743ec392f25ea7c8cb445359df7541168266083338d8c8e8d8d604051610af6979695949392919061256e565b60405180910390a1600080815480929190610b10906125d8565b919050555060018390806001815401808255809150506001900390600052602060002001600090919091909150558293505050509998505050505050505050565b606060005b600054811015610d9f5760006002600060018481548110610b7a57610b79612620565b5b90600052602060002001548152602001908152602001600020905060788160030154610ba69190612051565b4210610d8b578060080160009054906101000a900460ff16610d8a5760005b81600601805490508160ff161015610d8857610c4260018481548110610bee57610bed612620565b5b9060005260206000200154836006018360ff1681548110610c1257610c11612620565b5b9060005260206000200160009054906101000a900473ffffffffffffffffffffffffffffffffffffffff16610de7565b610cd884836009018054610c5590611f85565b80601f0160208091040260200160405190810160405280929190818152602001828054610c8190611f85565b8015610cce5780601f10610ca357610100808354040283529160200191610cce565b820191906000526020600020905b815481529060010190602001808311610cb157829003601f168201915b505050505061184a565b610d7557610d7284836009018054610cef90611f85565b80601f0160208091040260200160405190810160405280929190818152602001828054610d1b90611f85565b8015610d685780601f10610d3d57610100808354040283529160200191610d68565b820191906000526020600020905b815481529060010190602001808311610d4b57829003601f168201915b50505050506118b3565b93505b8080610d809061265c565b915050610bc5565b505b5b508080610d97906125d8565b915050610b56565b507ffc36d7cc461f11f4f552bda21b5f2e9a7551db8011f5df2dfdcb1675b930b8da81604051610dcf9190612791565b60405180910390a150565b6000600180549050905090565b6000600260008481526020019081526020016000209050600080600090505b82600601805490508160ff161015610ee8578373ffffffffffffffffffffffffffffffffffffffff16836006018260ff1681548110610e4857610e47612620565b5b9060005260206000200160009054906101000a900473ffffffffffffffffffffffffffffffffffffffff1673ffffffffffffffffffffffffffffffffffffffff1603610ed557826006018160ff1681548110610ea757610ea6612620565b5b9060005260206000200160009054906101000a900473ffffffffffffffffffffffffffffffffffffffff1691505b8080610ee09061265c565b915050610e06565b508273ffffffffffffffffffffffffffffffffffffffff168173ffffffffffffffffffffffffffffffffffffffff1614610f57576040517f08c379a0000000000000000000000000000000000000000000000000000000008152600401610f4e906127ff565b60405180910390fd5b81600701839080600181540180825580915050600190039060005260206000200160009091909190916101000a81548173ffffffffffffffffffffffffffffffffffffffff021916908373ffffffffffffffffffffffffffffffffffffffff16021790555060008373ffffffffffffffffffffffffffffffffffffffff168360040154604051610fe690612204565b60006040518083038185875af1925050503d8060008114611023576040519150601f19603f3d011682016040523d82523d6000602084013e611028565b606091505b505090508061107b57826007018054806110455761104461281f565b5b6001900381819060005260206000200160006101000a81549073ffffffffffffffffffffffffffffffffffffffff021916905590555b806110bb576040517f08c379a00000000000000000000000000000000000000000000000000000000081526004016110b290612265565b60405180910390fd5b60018360080160006101000a81548160ff0219169083151502179055507ff51b42fda5553f12aca9bf0984b446bf9883824e148ee9e467eb21f180a05ff3858560405161110992919061284e565b60405180910390a15050505050565b606080600080600080606060026000898152602001908152602001600020600001600260008a8152602001908152602001600020600101600260008b815260200190815260200160002060020160009054906101000a900473ffffffffffffffffffffffffffffffffffffffff16600260008c815260200190815260200160002060030154600260008d815260200190815260200160002060050154600260008e815260200190815260200160002060040154600260008f81526020019081526020016000206006018680546111ed90611f85565b80601f016020809104026020016040519081016040528092919081815260200182805461121990611f85565b80156112665780601f1061123b57610100808354040283529160200191611266565b820191906000526020600020905b81548152906001019060200180831161124957829003601f168201915b5050505050965085805461127990611f85565b80601f01602080910402602001604051908101604052809291908181526020018280546112a590611f85565b80156112f25780601f106112c7576101008083540402835291602001916112f2565b820191906000526020600020905b8154815290600101906020018083116112d557829003601f168201915b505050505095508080548060200260200160405190810160405280929190818152602001828054801561137a57602002820191906000526020600020905b8160009054906101000a900473ffffffffffffffffffffffffffffffffffffffff1673ffffffffffffffffffffffffffffffffffffffff1681526020019060010190808311611330575b505050505090509650965096509650965096509650919395979092949650565b600047905090565b6000600260008381526020019081526020016000209050806004015434146113ff576040517f08c379a00000000000000000000000000000000000000000000000000000000081526004016113f6906128c3565b60405180910390fd5b8060030154421115611446576040517f08c379a000000000000000000000000000000000000000000000000000000000815260040161143d9061292f565b60405180910390fd5b8060050154816006018054905010611493576040517f08c379a000000000000000000000000000000000000000000000000000000000815260040161148a9061299b565b60405180910390fd5b60005b81600601805490508160ff16101561156c573373ffffffffffffffffffffffffffffffffffffffff16826006018260ff16815481106114d8576114d7612620565b5b9060005260206000200160009054906101000a900473ffffffffffffffffffffffffffffffffffffffff1673ffffffffffffffffffffffffffffffffffffffff1603611559576040517f08c379a000000000000000000000000000000000000000000000000000000000815260040161155090612a07565b60405180910390fd5b80806115649061265c565b915050611496565b5080600601339080600181540180825580915050600190039060005260206000200160009091909190916101000a81548173ffffffffffffffffffffffffffffffffffffffff021916908373ffffffffffffffffffffffffffffffffffffffff1602179055507f305579fda99551f5107b32b7465875a3984f12521b5df905ee46fe6efb873f92823360405161160392919061284e565b60405180910390a15050565b60005481565b60006001828154811061162b5761162a612620565b5b90600052602060002001549050919050565b600260205280600052604060002060009150905080600001805461166090611f85565b80601f016020809104026020016040519081016040528092919081815260200182805461168c90611f85565b80156116d95780601f106116ae576101008083540402835291602001916116d9565b820191906000526020600020905b8154815290600101906020018083116116bc57829003601f168201915b5050505050908060010180546116ee90611f85565b80601f016020809104026020016040519081016040528092919081815260200182805461171a90611f85565b80156117675780601f1061173c57610100808354040283529160200191611767565b820191906000526020600020905b81548152906001019060200180831161174a57829003601f168201915b5050505050908060020160009054906101000a900473ffffffffffffffffffffffffffffffffffffffff16908060030154908060040154908060050154908060080160009054906101000a900460ff16908060090180546117c790611f85565b80601f01602080910402602001604051908101604052809291908181526020018280546117f390611f85565b80156118405780601f1061181557610100808354040283529160200191611840565b820191906000526020600020905b81548152906001019060200180831161182357829003601f168201915b5050505050905088565b600080600090505b83518110156118a757828051906020012084828151811061187657611875612620565b5b602002602001015180519060200120036118945760019150506118ad565b808061189f906125d8565b915050611852565b50600090505b92915050565b60606000600184516118c59190612051565b67ffffffffffffffff8111156118de576118dd612285565b5b60405190808252806020026020018201604052801561191157816020015b60608152602001906001900390816118fc5790505b50905060005b845181101561196c5784818151811061193357611932612620565b5b602002602001015182828151811061194e5761194d612620565b5b60200260200101819052508080611964906125d8565b915050611917565b50828185518151811061198257611981612620565b5b60200260200101819052508091505092915050565b828054828255906000526020600020908101928215611a10579160200282015b82811115611a0f5782518260006101000a81548173ffffffffffffffffffffffffffffffffffffffff021916908373ffffffffffffffffffffffffffffffffffffffff160217905550916020019190600101906119b7565b5b509050611a1d9190611a21565b5090565b5b80821115611a3a576000816000905550600101611a22565b5090565b600080fd5b600080fd5b6000819050919050565b611a5b81611a48565b8114611a6657600080fd5b50565b600081359050611a7881611a52565b92915050565b600060208284031215611a9457611a93611a3e565b5b6000611aa284828501611a69565b91505092915050565b600080fd5b600080fd5b600080fd5b60008083601f840112611ad057611acf611aab565b5b8235905067ffffffffffffffff811115611aed57611aec611ab0565b5b602083019150836001820283011115611b0957611b08611ab5565b5b9250929050565b600080600080600080600080600060c08a8c031215611b3257611b31611a3e565b5b60008a013567ffffffffffffffff811115611b5057611b4f611a43565b5b611b5c8c828d01611aba565b99509950506020611b6f8c828d01611a69565b9750506040611b808c828d01611a69565b9650506060611b918c828d01611a69565b95505060808a013567ffffffffffffffff811115611bb257611bb1611a43565b5b611bbe8c828d01611aba565b945094505060a08a013567ffffffffffffffff811115611be157611be0611a43565b5b611bed8c828d01611aba565b92509250509295985092959850929598565b611c0881611a48565b82525050565b6000602082019050611c236000830184611bff565b92915050565b600073ffffffffffffffffffffffffffffffffffffffff82169050919050565b6000611c5482611c29565b9050919050565b611c6481611c49565b8114611c6f57600080fd5b50565b600081359050611c8181611c5b565b92915050565b60008060408385031215611c9e57611c9d611a3e565b5b6000611cac85828601611a69565b9250506020611cbd85828601611c72565b9150509250929050565b600081519050919050565b600082825260208201905092915050565b60005b83811015611d01578082015181840152602081019050611ce6565b60008484015250505050565b6000601f19601f8301169050919050565b6000611d2982611cc7565b611d338185611cd2565b9350611d43818560208601611ce3565b611d4c81611d0d565b840191505092915050565b611d6081611c49565b82525050565b600081519050919050565b600082825260208201905092915050565b6000819050602082019050919050565b611d9b81611c49565b82525050565b6000611dad8383611d92565b60208301905092915050565b6000602082019050919050565b6000611dd182611d66565b611ddb8185611d71565b9350611de683611d82565b8060005b83811015611e17578151611dfe8882611da1565b9750611e0983611db9565b925050600181019050611dea565b5085935050505092915050565b600060e0820190508181036000830152611e3e818a611d1e565b90508181036020830152611e528189611d1e565b9050611e616040830188611d57565b611e6e6060830187611bff565b611e7b6080830186611bff565b611e8860a0830185611bff565b81810360c0830152611e9a8184611dc6565b905098975050505050505050565b60008115159050919050565b611ebd81611ea8565b82525050565b6000610100820190508181036000830152611ede818b611d1e565b90508181036020830152611ef2818a611d1e565b9050611f016040830189611d57565b611f0e6060830188611bff565b611f1b6080830187611bff565b611f2860a0830186611bff565b611f3560c0830185611eb4565b81810360e0830152611f478184611d1e565b90509998505050505050505050565b7f4e487b7100000000000000000000000000000000000000000000000000000000600052602260045260246000fd5b60006002820490506001821680611f9d57607f821691505b602082108103611fb057611faf611f56565b5b50919050565b7f414c524541445920504149440000000000000000000000000000000000000000600082015250565b6000611fec600c83611cd2565b9150611ff782611fb6565b602082019050919050565b6000602082019050818103600083015261201b81611fdf565b9050919050565b7f4e487b7100000000000000000000000000000000000000000000000000000000600052601160045260246000fd5b600061205c82611a48565b915061206783611a48565b925082820190508082111561207f5761207e612022565b5b92915050565b7f544f4f204541524c590000000000000000000000000000000000000000000000600082015250565b60006120bb600983611cd2565b91506120c682612085565b602082019050919050565b600060208201905081810360008301526120ea816120ae565b9050919050565b7f4d555354204245204556454e54204f574e455200000000000000000000000000600082015250565b6000612127601383611cd2565b9150612132826120f1565b602082019050919050565b600060208201905081810360008301526121568161211a565b9050919050565b600061216882611a48565b915061217383611a48565b925082820390508181111561218b5761218a612022565b5b92915050565b600061219c82611a48565b91506121a783611a48565b92508282026121b581611a48565b915082820484148315176121cc576121cb612022565b5b5092915050565b600081905092915050565b50565b60006121ee6000836121d3565b91506121f9826121de565b600082019050919050565b600061220f826121e1565b9150819050919050565b7f4661696c656420746f2073656e64204574686572000000000000000000000000600082015250565b600061224f601483611cd2565b915061225a82612219565b602082019050919050565b6000602082019050818103600083015261227e81612242565b9050919050565b7f4e487b7100000000000000000000000000000000000000000000000000000000600052604160045260246000fd5b60008190508160005260206000209050919050565b60006020601f8301049050919050565b600082821b905092915050565b6000600883026123167fffffffffffffffffffffffffffffffffffffffffffffffffffffffffffffffff826122d9565b61232086836122d9565b95508019841693508086168417925050509392505050565b6000819050919050565b600061235d61235861235384611a48565b612338565b611a48565b9050919050565b6000819050919050565b61237783612342565b61238b61238382612364565b8484546122e6565b825550505050565b600090565b6123a0612393565b6123ab81848461236e565b505050565b5b818110156123cf576123c4600082612398565b6001810190506123b1565b5050565b601f821115612414576123e5816122b4565b6123ee846122c9565b810160208510156123fd578190505b612411612409856122c9565b8301826123b0565b50505b505050565b600082821c905092915050565b600061243760001984600802612419565b1980831691505092915050565b60006124508383612426565b9150826002028217905092915050565b61246982611cc7565b67ffffffffffffffff81111561248257612481612285565b5b61248c8254611f85565b6124978282856123d3565b600060209050601f8311600181146124ca57600084156124b8578287015190505b6124c28582612444565b86555061252a565b601f1984166124d8866122b4565b60005b82811015612500578489015182556001820191506020850194506020810190506124db565b8683101561251d5784890151612519601f891682612426565b8355505b6001600288020188555050505b505050505050565b82818337600083830152505050565b600061254d8385611cd2565b935061255a838584612532565b61256383611d0d565b840190509392505050565b600060c082019050612583600083018a611bff565b6125906020830189611d57565b61259d6040830188611bff565b6125aa6060830187611bff565b6125b76080830186611bff565b81810360a08301526125ca818486612541565b905098975050505050505050565b60006125e382611a48565b91507fffffffffffffffffffffffffffffffffffffffffffffffffffffffffffffffff820361261557612614612022565b5b600182019050919050565b7f4e487b7100000000000000000000000000000000000000000000000000000000600052603260045260246000fd5b600060ff82169050919050565b60006126678261264f565b915060ff820361267a57612679612022565b5b600182019050919050565b600081519050919050565b600082825260208201905092915050565b6000819050602082019050919050565b600082825260208201905092915050565b60006126cd82611cc7565b6126d781856126b1565b93506126e7818560208601611ce3565b6126f081611d0d565b840191505092915050565b600061270783836126c2565b905092915050565b6000602082019050919050565b600061272782612685565b6127318185612690565b935083602082028501612743856126a1565b8060005b8581101561277f578484038952815161276085826126fb565b945061276b8361270f565b925060208a01995050600181019050612747565b50829750879550505050505092915050565b600060208201905081810360008301526127ab818461271c565b905092915050565b7f4e4f205253565020544f20434f4e4649524d0000000000000000000000000000600082015250565b60006127e9601283611cd2565b91506127f4826127b3565b602082019050919050565b60006020820190508181036000830152612818816127dc565b9050919050565b7f4e487b7100000000000000000000000000000000000000000000000000000000600052603160045260246000fd5b60006040820190506128636000830185611bff565b6128706020830184611d57565b9392505050565b7f4e4f5420454e4f55474800000000000000000000000000000000000000000000600082015250565b60006128ad600a83611cd2565b91506128b882612877565b602082019050919050565b600060208201905081810360008301526128dc816128a0565b9050919050565b7f414c52454144592048415050454e454400000000000000000000000000000000600082015250565b6000612919601083611cd2565b9150612924826128e3565b602082019050919050565b600060208201905081810360008301526129488161290c565b9050919050565b7f54686973206576656e7420686173207265616368656420636170616369747900600082015250565b6000612985601f83611cd2565b91506129908261294f565b602082019050919050565b600060208201905081810360008301526129b481612978565b9050919050565b7f414c524541445920434f4e4649524d4544000000000000000000000000000000600082015250565b60006129f1601183611cd2565b91506129fc826129bb565b602082019050919050565b60006020820190508181036000830152612a20816129e4565b905091905056fea2646970667358221220f109a3871b3099cf98ce0ad4eef28274fda24cbfac5df9bfee48c55fb166e13564736f6c63430008130033","opcodes":"PUSH1 0x80 PUSH1 0x40 MSTORE CALLVALUE DUP1 ISZERO PUSH2 0x10 JUMPI PUSH1 0x0 DUP1 REVERT JUMPDEST POP PUSH2 0x2A5D DUP1 PUSH2 0x20 PUSH1 0x0 CODECOPY PUSH1 0x0 RETURN INVALID PUSH1 0x80 PUSH1 0x40 MSTORE PUSH1 0x4 CALLDATASIZE LT PUSH2 0x9C JUMPI PUSH1 0x0 CALLDATALOAD PUSH1 0xE0 SHR DUP1 PUSH4 0x6D1884E0 GT PUSH2 0x64 JUMPI DUP1 PUSH4 0x6D1884E0 EQ PUSH2 0x165 JUMPI DUP1 PUSH4 0x6F9FB98A EQ PUSH2 0x1A8 JUMPI DUP1 PUSH4 0xADA06A3B EQ PUSH2 0x1D3 JUMPI DUP1 PUSH4 0xBA870686 EQ PUSH2 0x1EF JUMPI DUP1 PUSH4 0xC3BE559B EQ PUSH2 0x21A JUMPI DUP1 PUSH4 0xD46BAE4B EQ PUSH2 0x257 JUMPI PUSH2 0x9C JUMP JUMPDEST DUP1 PUSH4 0x127D17AB EQ PUSH2 0xA1 JUMPI DUP1 PUSH4 0x289B9B8B EQ PUSH2 0xCA JUMPI DUP1 PUSH4 0x4BBBEB49 EQ PUSH2 0xFA JUMPI DUP1 PUSH4 0x5C98DFA1 EQ PUSH2 0x111 JUMPI DUP1 PUSH4 0x6ACB5DD3 EQ PUSH2 0x13C JUMPI JUMPDEST PUSH1 0x0 DUP1 REVERT JUMPDEST CALLVALUE DUP1 ISZERO PUSH2 0xAD JUMPI PUSH1 0x0 DUP1 REVERT JUMPDEST POP PUSH2 0xC8 PUSH1 0x4 DUP1 CALLDATASIZE SUB DUP2 ADD SWAP1 PUSH2 0xC3 SWAP2 SWAP1 PUSH2 0x1A7E JUMP JUMPDEST PUSH2 0x29B JUMP JUMPDEST STOP JUMPDEST PUSH2 0xE4 PUSH1 0x4 DUP1 CALLDATASIZE SUB DUP2 ADD SWAP1 PUSH2 0xDF SWAP2 SWAP1 PUSH2 0x1B10 JUMP JUMPDEST PUSH2 0x86C JUMP JUMPDEST PUSH1 0x40 MLOAD PUSH2 0xF1 SWAP2 SWAP1 PUSH2 0x1C0E JUMP JUMPDEST PUSH1 0x40 MLOAD DUP1 SWAP2 SUB SWAP1 RETURN JUMPDEST CALLVALUE DUP1 ISZERO PUSH2 0x106 JUMPI PUSH1 0x0 DUP1 REVERT JUMPDEST POP PUSH2 0x10F PUSH2 0xB51 JUMP JUMPDEST STOP JUMPDEST CALLVALUE DUP1 ISZERO PUSH2 0x11D JUMPI PUSH1 0x0 DUP1 REVERT JUMPDEST POP PUSH2 0x126 PUSH2 0xDDA JUMP JUMPDEST PUSH1 0x40 MLOAD PUSH2 0x133 SWAP2 SWAP1 PUSH2 0x1C0E JUMP JUMPDEST PUSH1 0x40 MLOAD DUP1 SWAP2 SUB SWAP1 RETURN JUMPDEST CALLVALUE DUP1 ISZERO PUSH2 0x148 JUMPI PUSH1 0x0 DUP1 REVERT JUMPDEST POP PUSH2 0x163 PUSH1 0x4 DUP1 CALLDATASIZE SUB DUP2 ADD SWAP1 PUSH2 0x15E SWAP2 SWAP1 PUSH2 0x1C87 JUMP JUMPDEST PUSH2 0xDE7 JUMP JUMPDEST STOP JUMPDEST CALLVALUE DUP1 ISZERO PUSH2 0x171 JUMPI PUSH1 0x0 DUP1 REVERT JUMPDEST POP PUSH2 0x18C PUSH1 0x4 DUP1 CALLDATASIZE SUB DUP2 ADD SWAP1 PUSH2 0x187 SWAP2 SWAP1 PUSH2 0x1A7E JUMP JUMPDEST PUSH2 0x1118 JUMP JUMPDEST PUSH1 0x40 MLOAD PUSH2 0x19F SWAP8 SWAP7 SWAP6 SWAP5 SWAP4 SWAP3 SWAP2 SWAP1 PUSH2 0x1E24 JUMP JUMPDEST PUSH1 0x40 MLOAD DUP1 SWAP2 SUB SWAP1 RETURN JUMPDEST CALLVALUE DUP1 ISZERO PUSH2 0x1B4 JUMPI PUSH1 0x0 DUP1 REVERT JUMPDEST POP PUSH2 0x1BD PUSH2 0x139A JUMP JUMPDEST PUSH1 0x40 MLOAD PUSH2 0x1CA SWAP2 SWAP1 PUSH2 0x1C0E JUMP JUMPDEST PUSH1 0x40 MLOAD DUP1 SWAP2 SUB SWAP1 RETURN JUMPDEST PUSH2 0x1ED PUSH1 0x4 DUP1 CALLDATASIZE SUB DUP2 ADD SWAP1 PUSH2 0x1E8 SWAP2 SWAP1 PUSH2 0x1A7E JUMP JUMPDEST PUSH2 0x13A2 JUMP JUMPDEST STOP JUMPDEST CALLVALUE DUP1 ISZERO PUSH2 0x1FB JUMPI PUSH1 0x0 DUP1 REVERT JUMPDEST POP PUSH2 0x204 PUSH2 0x160F JUMP JUMPDEST PUSH1 0x40 MLOAD PUSH2 0x211 SWAP2 SWAP1 PUSH2 0x1C0E JUMP JUMPDEST PUSH1 0x40 MLOAD DUP1 SWAP2 SUB SWAP1 RETURN JUMPDEST CALLVALUE DUP1 ISZERO PUSH2 0x226 JUMPI PUSH1 0x0 DUP1 REVERT JUMPDEST POP PUSH2 0x241 PUSH1 0x4 DUP1 CALLDATASIZE SUB DUP2 ADD SWAP1 PUSH2 0x23C SWAP2 SWAP1 PUSH2 0x1A7E JUMP JUMPDEST PUSH2 0x1615 JUMP JUMPDEST PUSH1 0x40 MLOAD PUSH2 0x24E SWAP2 SWAP1 PUSH2 0x1C0E JUMP JUMPDEST PUSH1 0x40 MLOAD DUP1 SWAP2 SUB SWAP1 RETURN JUMPDEST CALLVALUE DUP1 ISZERO PUSH2 0x263 JUMPI PUSH1 0x0 DUP1 REVERT JUMPDEST POP PUSH2 0x27E PUSH1 0x4 DUP1 CALLDATASIZE SUB DUP2 ADD SWAP1 PUSH2 0x279 SWAP2 SWAP1 PUSH2 0x1A7E JUMP JUMPDEST PUSH2 0x163D JUMP JUMPDEST PUSH1 0x40 MLOAD PUSH2 0x292 SWAP9 SWAP8 SWAP7 SWAP6 SWAP5 SWAP4 SWAP3 SWAP2 SWAP1 PUSH2 0x1EC3 JUMP JUMPDEST PUSH1 0x40 MLOAD DUP1 SWAP2 SUB SWAP1 RETURN JUMPDEST PUSH1 0x0 PUSH1 0x2 PUSH1 0x0 DUP4 DUP2 MSTORE PUSH1 0x20 ADD SWAP1 DUP2 MSTORE PUSH1 0x20 ADD PUSH1 0x0 KECCAK256 PUSH1 0x40 MLOAD DUP1 PUSH2 0x140 ADD PUSH1 0x40 MSTORE SWAP1 DUP2 PUSH1 0x0 DUP3 ADD DUP1 SLOAD PUSH2 0x2CC SWAP1 PUSH2 0x1F85 JUMP JUMPDEST DUP1 PUSH1 0x1F ADD PUSH1 0x20 DUP1 SWAP2 DIV MUL PUSH1 0x20 ADD PUSH1 0x40 MLOAD SWAP1 DUP2 ADD PUSH1 0x40 MSTORE DUP1 SWAP3 SWAP2 SWAP1 DUP2 DUP2 MSTORE PUSH1 0x20 ADD DUP3 DUP1 SLOAD PUSH2 0x2F8 SWAP1 PUSH2 0x1F85 JUMP JUMPDEST DUP1 ISZERO PUSH2 0x345 JUMPI DUP1 PUSH1 0x1F LT PUSH2 0x31A JUMPI PUSH2 0x100 DUP1 DUP4 SLOAD DIV MUL DUP4 MSTORE SWAP2 PUSH1 0x20 ADD SWAP2 PUSH2 0x345 JUMP JUMPDEST DUP3 ADD SWAP2 SWAP1 PUSH1 0x0 MSTORE PUSH1 0x20 PUSH1 0x0 KECCAK256 SWAP1 JUMPDEST DUP2 SLOAD DUP2 MSTORE SWAP1 PUSH1 0x1 ADD SWAP1 PUSH1 0x20 ADD DUP1 DUP4 GT PUSH2 0x328 JUMPI DUP3 SWAP1 SUB PUSH1 0x1F AND DUP3 ADD SWAP2 JUMPDEST POP POP POP POP POP DUP2 MSTORE PUSH1 0x20 ADD PUSH1 0x1 DUP3 ADD DUP1 SLOAD PUSH2 0x35E SWAP1 PUSH2 0x1F85 JUMP JUMPDEST DUP1 PUSH1 0x1F ADD PUSH1 0x20 DUP1 SWAP2 DIV MUL PUSH1 0x20 ADD PUSH1 0x40 MLOAD SWAP1 DUP2 ADD PUSH1 0x40 MSTORE DUP1 SWAP3 SWAP2 SWAP1 DUP2 DUP2 MSTORE PUSH1 0x20 ADD DUP3 DUP1 SLOAD PUSH2 0x38A SWAP1 PUSH2 0x1F85 JUMP JUMPDEST DUP1 ISZERO PUSH2 0x3D7 JUMPI DUP1 PUSH1 0x1F LT PUSH2 0x3AC JUMPI PUSH2 0x100 DUP1 DUP4 SLOAD DIV MUL DUP4 MSTORE SWAP2 PUSH1 0x20 ADD SWAP2 PUSH2 0x3D7 JUMP JUMPDEST DUP3 ADD SWAP2 SWAP1 PUSH1 0x0 MSTORE PUSH1 0x20 PUSH1 0x0 KECCAK256 SWAP1 JUMPDEST DUP2 SLOAD DUP2 MSTORE SWAP1 PUSH1 0x1 ADD SWAP1 PUSH1 0x20 ADD DUP1 DUP4 GT PUSH2 0x3BA JUMPI DUP3 SWAP1 SUB PUSH1 0x1F AND DUP3 ADD SWAP2 JUMPDEST POP POP POP POP POP DUP2 MSTORE PUSH1 0x20 ADD PUSH1 0x2 DUP3 ADD PUSH1 0x0 SWAP1 SLOAD SWAP1 PUSH2 0x100 EXP SWAP1 DIV PUSH20 0xFFFFFFFFFFFFFFFFFFFFFFFFFFFFFFFFFFFFFFFF AND PUSH20 0xFFFFFFFFFFFFFFFFFFFFFFFFFFFFFFFFFFFFFFFF AND PUSH20 0xFFFFFFFFFFFFFFFFFFFFFFFFFFFFFFFFFFFFFFFF AND DUP2 MSTORE PUSH1 0x20 ADD PUSH1 0x3 DUP3 ADD SLOAD DUP2 MSTORE PUSH1 0x20 ADD PUSH1 0x4 DUP3 ADD SLOAD DUP2 MSTORE PUSH1 0x20 ADD PUSH1 0x5 DUP3 ADD SLOAD DUP2 MSTORE PUSH1 0x20 ADD PUSH1 0x6 DUP3 ADD DUP1 SLOAD DUP1 PUSH1 0x20 MUL PUSH1 0x20 ADD PUSH1 0x40 MLOAD SWAP1 DUP2 ADD PUSH1 0x40 MSTORE DUP1 SWAP3 SWAP2 SWAP1 DUP2 DUP2 MSTORE PUSH1 0x20 ADD DUP3 DUP1 SLOAD DUP1 ISZERO PUSH2 0x4D9 JUMPI PUSH1 0x20 MUL DUP3 ADD SWAP2 SWAP1 PUSH1 0x0 MSTORE PUSH1 0x20 PUSH1 0x0 KECCAK256 SWAP1 JUMPDEST DUP2 PUSH1 0x0 SWAP1 SLOAD SWAP1 PUSH2 0x100 EXP SWAP1 DIV PUSH20 0xFFFFFFFFFFFFFFFFFFFFFFFFFFFFFFFFFFFFFFFF AND PUSH20 0xFFFFFFFFFFFFFFFFFFFFFFFFFFFFFFFFFFFFFFFF AND DUP2 MSTORE PUSH1 0x20 ADD SWAP1 PUSH1 0x1 ADD SWAP1 DUP1 DUP4 GT PUSH2 0x48F JUMPI JUMPDEST POP POP POP POP POP DUP2 MSTORE PUSH1 0x20 ADD PUSH1 0x7 DUP3 ADD DUP1 SLOAD DUP1 PUSH1 0x20 MUL PUSH1 0x20 ADD PUSH1 0x40 MLOAD SWAP1 DUP2 ADD PUSH1 0x40 MSTORE DUP1 SWAP3 SWAP2 SWAP1 DUP2 DUP2 MSTORE PUSH1 0x20 ADD DUP3 DUP1 SLOAD DUP1 ISZERO PUSH2 0x567 JUMPI PUSH1 0x20 MUL DUP3 ADD SWAP2 SWAP1 PUSH1 0x0 MSTORE PUSH1 0x20 PUSH1 0x0 KECCAK256 SWAP1 JUMPDEST DUP2 PUSH1 0x0 SWAP1 SLOAD SWAP1 PUSH2 0x100 EXP SWAP1 DIV PUSH20 0xFFFFFFFFFFFFFFFFFFFFFFFFFFFFFFFFFFFFFFFF AND PUSH20 0xFFFFFFFFFFFFFFFFFFFFFFFFFFFFFFFFFFFFFFFF AND DUP2 MSTORE PUSH1 0x20 ADD SWAP1 PUSH1 0x1 ADD SWAP1 DUP1 DUP4 GT PUSH2 0x51D JUMPI JUMPDEST POP POP POP POP POP DUP2 MSTORE PUSH1 0x20 ADD PUSH1 0x8 DUP3 ADD PUSH1 0x0 SWAP1 SLOAD SWAP1 PUSH2 0x100 EXP SWAP1 DIV PUSH1 0xFF AND ISZERO ISZERO ISZERO ISZERO DUP2 MSTORE PUSH1 0x20 ADD PUSH1 0x9 DUP3 ADD DUP1 SLOAD PUSH2 0x59B SWAP1 PUSH2 0x1F85 JUMP JUMPDEST DUP1 PUSH1 0x1F ADD PUSH1 0x20 DUP1 SWAP2 DIV MUL PUSH1 0x20 ADD PUSH1 0x40 MLOAD SWAP1 DUP2 ADD PUSH1 0x40 MSTORE DUP1 SWAP3 SWAP2 SWAP1 DUP2 DUP2 MSTORE PUSH1 0x20 ADD DUP3 DUP1 SLOAD PUSH2 0x5C7 SWAP1 PUSH2 0x1F85 JUMP JUMPDEST DUP1 ISZERO PUSH2 0x614 JUMPI DUP1 PUSH1 0x1F LT PUSH2 0x5E9 JUMPI PUSH2 0x100 DUP1 DUP4 SLOAD DIV MUL DUP4 MSTORE SWAP2 PUSH1 0x20 ADD SWAP2 PUSH2 0x614 JUMP JUMPDEST DUP3 ADD SWAP2 SWAP1 PUSH1 0x0 MSTORE PUSH1 0x20 PUSH1 0x0 KECCAK256 SWAP1 JUMPDEST DUP2 SLOAD DUP2 MSTORE SWAP1 PUSH1 0x1 ADD SWAP1 PUSH1 0x20 ADD DUP1 DUP4 GT PUSH2 0x5F7 JUMPI DUP3 SWAP1 SUB PUSH1 0x1F AND DUP3 ADD SWAP2 JUMPDEST POP POP POP POP POP DUP2 MSTORE POP POP SWAP1 POP DUP1 PUSH2 0x100 ADD MLOAD ISZERO PUSH2 0x665 JUMPI PUSH1 0x40 MLOAD PUSH32 0x8C379A000000000000000000000000000000000000000000000000000000000 DUP2 MSTORE PUSH1 0x4 ADD PUSH2 0x65C SWAP1 PUSH2 0x2002 JUMP JUMPDEST PUSH1 0x40 MLOAD DUP1 SWAP2 SUB SWAP1 REVERT JUMPDEST PUSH1 0x78 DUP2 PUSH1 0x60 ADD MLOAD PUSH2 0x676 SWAP2 SWAP1 PUSH2 0x2051 JUMP JUMPDEST TIMESTAMP LT ISZERO PUSH2 0x6B8 JUMPI PUSH1 0x40 MLOAD PUSH32 0x8C379A000000000000000000000000000000000000000000000000000000000 DUP2 MSTORE PUSH1 0x4 ADD PUSH2 0x6AF SWAP1 PUSH2 0x20D1 JUMP JUMPDEST PUSH1 0x40 MLOAD DUP1 SWAP2 SUB SWAP1 REVERT JUMPDEST DUP1 PUSH1 0x40 ADD MLOAD PUSH20 0xFFFFFFFFFFFFFFFFFFFFFFFFFFFFFFFFFFFFFFFF AND CALLER PUSH20 0xFFFFFFFFFFFFFFFFFFFFFFFFFFFFFFFFFFFFFFFF AND EQ PUSH2 0x72A JUMPI PUSH1 0x40 MLOAD PUSH32 0x8C379A000000000000000000000000000000000000000000000000000000000 DUP2 MSTORE PUSH1 0x4 ADD PUSH2 0x721 SWAP1 PUSH2 0x213D JUMP JUMPDEST PUSH1 0x40 MLOAD DUP1 SWAP2 SUB SWAP1 REVERT JUMPDEST PUSH1 0x0 DUP2 PUSH1 0xE0 ADD MLOAD MLOAD DUP3 PUSH1 0xC0 ADD MLOAD MLOAD PUSH2 0x742 SWAP2 SWAP1 PUSH2 0x215D JUMP JUMPDEST SWAP1 POP PUSH1 0x0 DUP3 PUSH1 0x80 ADD MLOAD DUP3 PUSH2 0x756 SWAP2 SWAP1 PUSH2 0x2191 JUMP JUMPDEST SWAP1 POP PUSH1 0x1 DUP4 PUSH2 0x100 ADD SWAP1 ISZERO ISZERO SWAP1 DUP2 ISZERO ISZERO DUP2 MSTORE POP POP PUSH1 0x0 CALLER PUSH20 0xFFFFFFFFFFFFFFFFFFFFFFFFFFFFFFFFFFFFFFFF AND DUP3 PUSH1 0x40 MLOAD PUSH2 0x790 SWAP1 PUSH2 0x2204 JUMP JUMPDEST PUSH1 0x0 PUSH1 0x40 MLOAD DUP1 DUP4 SUB DUP2 DUP6 DUP8 GAS CALL SWAP3 POP POP POP RETURNDATASIZE DUP1 PUSH1 0x0 DUP2 EQ PUSH2 0x7CD JUMPI PUSH1 0x40 MLOAD SWAP2 POP PUSH1 0x1F NOT PUSH1 0x3F RETURNDATASIZE ADD AND DUP3 ADD PUSH1 0x40 MSTORE RETURNDATASIZE DUP3 MSTORE RETURNDATASIZE PUSH1 0x0 PUSH1 0x20 DUP5 ADD RETURNDATACOPY PUSH2 0x7D2 JUMP JUMPDEST PUSH1 0x60 SWAP2 POP JUMPDEST POP POP SWAP1 POP DUP1 PUSH2 0x7EE JUMPI PUSH1 0x0 DUP5 PUSH2 0x100 ADD SWAP1 ISZERO ISZERO SWAP1 DUP2 ISZERO ISZERO DUP2 MSTORE POP POP JUMPDEST DUP1 PUSH2 0x82E JUMPI PUSH1 0x40 MLOAD PUSH32 0x8C379A000000000000000000000000000000000000000000000000000000000 DUP2 MSTORE PUSH1 0x4 ADD PUSH2 0x825 SWAP1 PUSH2 0x2265 JUMP JUMPDEST PUSH1 0x40 MLOAD DUP1 SWAP2 SUB SWAP1 REVERT JUMPDEST PUSH32 0x308E7EF5FF7AE64ED45C37A04775B24BE0BFBC4CB5F5C3E6B0AA505D006EAFC DUP6 PUSH1 0x40 MLOAD PUSH2 0x85D SWAP2 SWAP1 PUSH2 0x1C0E JUMP JUMPDEST PUSH1 0x40 MLOAD DUP1 SWAP2 SUB SWAP1 LOG1 POP POP POP POP POP JUMP JUMPDEST PUSH1 0x0 DUP1 PUSH1 0x0 SLOAD SWAP1 POP PUSH1 0x60 DUP1 PUSH1 0x40 MLOAD DUP1 PUSH2 0x140 ADD PUSH1 0x40 MSTORE DUP1 DUP15 DUP15 DUP1 DUP1 PUSH1 0x1F ADD PUSH1 0x20 DUP1 SWAP2 DIV MUL PUSH1 0x20 ADD PUSH1 0x40 MLOAD SWAP1 DUP2 ADD PUSH1 0x40 MSTORE DUP1 SWAP4 SWAP3 SWAP2 SWAP1 DUP2 DUP2 MSTORE PUSH1 0x20 ADD DUP4 DUP4 DUP1 DUP3 DUP5 CALLDATACOPY PUSH1 0x0 DUP2 DUP5 ADD MSTORE PUSH1 0x1F NOT PUSH1 0x1F DUP3 ADD AND SWAP1 POP DUP1 DUP4 ADD SWAP3 POP POP POP POP POP POP POP DUP2 MSTORE PUSH1 0x20 ADD DUP10 DUP10 DUP1 DUP1 PUSH1 0x1F ADD PUSH1 0x20 DUP1 SWAP2 DIV MUL PUSH1 0x20 ADD PUSH1 0x40 MLOAD SWAP1 DUP2 ADD PUSH1 0x40 MSTORE DUP1 SWAP4 SWAP3 SWAP2 SWAP1 DUP2 DUP2 MSTORE PUSH1 0x20 ADD DUP4 DUP4 DUP1 DUP3 DUP5 CALLDATACOPY PUSH1 0x0 DUP2 DUP5 ADD MSTORE PUSH1 0x1F NOT PUSH1 0x1F DUP3 ADD AND SWAP1 POP DUP1 DUP4 ADD SWAP3 POP POP POP POP POP POP POP DUP2 MSTORE PUSH1 0x20 ADD CALLER PUSH20 0xFFFFFFFFFFFFFFFFFFFFFFFFFFFFFFFFFFFFFFFF AND DUP2 MSTORE PUSH1 0x20 ADD DUP13 DUP2 MSTORE PUSH1 0x20 ADD DUP12 DUP2 MSTORE PUSH1 0x20 ADD DUP11 DUP2 MSTORE PUSH1 0x20 ADD DUP4 DUP2 MSTORE PUSH1 0x20 ADD DUP3 DUP2 MSTORE PUSH1 0x20 ADD PUSH1 0x0 ISZERO ISZERO DUP2 MSTORE PUSH1 0x20 ADD DUP8 DUP8 DUP1 DUP1 PUSH1 0x1F ADD PUSH1 0x20 DUP1 SWAP2 DIV MUL PUSH1 0x20 ADD PUSH1 0x40 MLOAD SWAP1 DUP2 ADD PUSH1 0x40 MSTORE DUP1 SWAP4 SWAP3 SWAP2 SWAP1 DUP2 DUP2 MSTORE PUSH1 0x20 ADD DUP4 DUP4 DUP1 DUP3 DUP5 CALLDATACOPY PUSH1 0x0 DUP2 DUP5 ADD MSTORE PUSH1 0x1F NOT PUSH1 0x1F DUP3 ADD AND SWAP1 POP DUP1 DUP4 ADD SWAP3 POP POP POP POP POP POP POP DUP2 MSTORE POP PUSH1 0x2 PUSH1 0x0 DUP6 DUP2 MSTORE PUSH1 0x20 ADD SWAP1 DUP2 MSTORE PUSH1 0x20 ADD PUSH1 0x0 KECCAK256 PUSH1 0x0 DUP3 ADD MLOAD DUP2 PUSH1 0x0 ADD SWAP1 DUP2 PUSH2 0x9CA SWAP2 SWAP1 PUSH2 0x2460 JUMP JUMPDEST POP PUSH1 0x20 DUP3 ADD MLOAD DUP2 PUSH1 0x1 ADD SWAP1 DUP2 PUSH2 0x9E0 SWAP2 SWAP1 PUSH2 0x2460 JUMP JUMPDEST POP PUSH1 0x40 DUP3 ADD MLOAD DUP2 PUSH1 0x2 ADD PUSH1 0x0 PUSH2 0x100 EXP DUP2 SLOAD DUP2 PUSH20 0xFFFFFFFFFFFFFFFFFFFFFFFFFFFFFFFFFFFFFFFF MUL NOT AND SWAP1 DUP4 PUSH20 0xFFFFFFFFFFFFFFFFFFFFFFFFFFFFFFFFFFFFFFFF AND MUL OR SWAP1 SSTORE POP PUSH1 0x60 DUP3 ADD MLOAD DUP2 PUSH1 0x3 ADD SSTORE PUSH1 0x80 DUP3 ADD MLOAD DUP2 PUSH1 0x4 ADD SSTORE PUSH1 0xA0 DUP3 ADD MLOAD DUP2 PUSH1 0x5 ADD SSTORE PUSH1 0xC0 DUP3 ADD MLOAD DUP2 PUSH1 0x6 ADD SWAP1 DUP1 MLOAD SWAP1 PUSH1 0x20 ADD SWAP1 PUSH2 0xA62 SWAP3 SWAP2 SWAP1 PUSH2 0x1997 JUMP JUMPDEST POP PUSH1 0xE0 DUP3 ADD MLOAD DUP2 PUSH1 0x7 ADD SWAP1 DUP1 MLOAD SWAP1 PUSH1 0x20 ADD SWAP1 PUSH2 0xA7F SWAP3 SWAP2 SWAP1 PUSH2 0x1997 JUMP JUMPDEST POP PUSH2 0x100 DUP3 ADD MLOAD DUP2 PUSH1 0x8 ADD PUSH1 0x0 PUSH2 0x100 EXP DUP2 SLOAD DUP2 PUSH1 0xFF MUL NOT AND SWAP1 DUP4 ISZERO ISZERO MUL OR SWAP1 SSTORE POP PUSH2 0x120 DUP3 ADD MLOAD DUP2 PUSH1 0x9 ADD SWAP1 DUP2 PUSH2 0xAB7 SWAP2 SWAP1 PUSH2 0x2460 JUMP JUMPDEST POP SWAP1 POP POP PUSH32 0x96BEEFE7C0C1B00E25286E8B55A743EC392F25EA7C8CB445359DF75411682660 DUP4 CALLER DUP14 DUP13 DUP15 DUP14 DUP14 PUSH1 0x40 MLOAD PUSH2 0xAF6 SWAP8 SWAP7 SWAP6 SWAP5 SWAP4 SWAP3 SWAP2 SWAP1 PUSH2 0x256E JUMP JUMPDEST PUSH1 0x40 MLOAD DUP1 SWAP2 SUB SWAP1 LOG1 PUSH1 0x0 DUP1 DUP2 SLOAD DUP1 SWAP3 SWAP2 SWAP1 PUSH2 0xB10 SWAP1 PUSH2 0x25D8 JUMP JUMPDEST SWAP2 SWAP1 POP SSTORE POP PUSH1 0x1 DUP4 SWAP1 DUP1 PUSH1 0x1 DUP2 SLOAD ADD DUP1 DUP3 SSTORE DUP1 SWAP2 POP POP PUSH1 0x1 SWAP1 SUB SWAP1 PUSH1 0x0 MSTORE PUSH1 0x20 PUSH1 0x0 KECCAK256 ADD PUSH1 0x0 SWAP1 SWAP2 SWAP1 SWAP2 SWAP1 SWAP2 POP SSTORE DUP3 SWAP4 POP POP POP POP SWAP10 SWAP9 POP POP POP POP POP POP POP POP POP JUMP JUMPDEST PUSH1 0x60 PUSH1 0x0 JUMPDEST PUSH1 0x0 SLOAD DUP2 LT ISZERO PUSH2 0xD9F JUMPI PUSH1 0x0 PUSH1 0x2 PUSH1 0x0 PUSH1 0x1 DUP5 DUP2 SLOAD DUP2 LT PUSH2 0xB7A JUMPI PUSH2 0xB79 PUSH2 0x2620 JUMP JUMPDEST JUMPDEST SWAP1 PUSH1 0x0 MSTORE PUSH1 0x20 PUSH1 0x0 KECCAK256 ADD SLOAD DUP2 MSTORE PUSH1 0x20 ADD SWAP1 DUP2 MSTORE PUSH1 0x20 ADD PUSH1 0x0 KECCAK256 SWAP1 POP PUSH1 0x78 DUP2 PUSH1 0x3 ADD SLOAD PUSH2 0xBA6 SWAP2 SWAP1 PUSH2 0x2051 JUMP JUMPDEST TIMESTAMP LT PUSH2 0xD8B JUMPI DUP1 PUSH1 0x8 ADD PUSH1 0x0 SWAP1 SLOAD SWAP1 PUSH2 0x100 EXP SWAP1 DIV PUSH1 0xFF AND PUSH2 0xD8A JUMPI PUSH1 0x0 JUMPDEST DUP2 PUSH1 0x6 ADD DUP1 SLOAD SWAP1 POP DUP2 PUSH1 0xFF AND LT ISZERO PUSH2 0xD88 JUMPI PUSH2 0xC42 PUSH1 0x1 DUP5 DUP2 SLOAD DUP2 LT PUSH2 0xBEE JUMPI PUSH2 0xBED PUSH2 0x2620 JUMP JUMPDEST JUMPDEST SWAP1 PUSH1 0x0 MSTORE PUSH1 0x20 PUSH1 0x0 KECCAK256 ADD SLOAD DUP4 PUSH1 0x6 ADD DUP4 PUSH1 0xFF AND DUP2 SLOAD DUP2 LT PUSH2 0xC12 JUMPI PUSH2 0xC11 PUSH2 0x2620 JUMP JUMPDEST JUMPDEST SWAP1 PUSH1 0x0 MSTORE PUSH1 0x20 PUSH1 0x0 KECCAK256 ADD PUSH1 0x0 SWAP1 SLOAD SWAP1 PUSH2 0x100 EXP SWAP1 DIV PUSH20 0xFFFFFFFFFFFFFFFFFFFFFFFFFFFFFFFFFFFFFFFF AND PUSH2 0xDE7 JUMP JUMPDEST PUSH2 0xCD8 DUP5 DUP4 PUSH1 0x9 ADD DUP1 SLOAD PUSH2 0xC55 SWAP1 PUSH2 0x1F85 JUMP JUMPDEST DUP1 PUSH1 0x1F ADD PUSH1 0x20 DUP1 SWAP2 DIV MUL PUSH1 0x20 ADD PUSH1 0x40 MLOAD SWAP1 DUP2 ADD PUSH1 0x40 MSTORE DUP1 SWAP3 SWAP2 SWAP1 DUP2 DUP2 MSTORE PUSH1 0x20 ADD DUP3 DUP1 SLOAD PUSH2 0xC81 SWAP1 PUSH2 0x1F85 JUMP JUMPDEST DUP1 ISZERO PUSH2 0xCCE JUMPI DUP1 PUSH1 0x1F LT PUSH2 0xCA3 JUMPI PUSH2 0x100 DUP1 DUP4 SLOAD DIV MUL DUP4 MSTORE SWAP2 PUSH1 0x20 ADD SWAP2 PUSH2 0xCCE JUMP JUMPDEST DUP3 ADD SWAP2 SWAP1 PUSH1 0x0 MSTORE PUSH1 0x20 PUSH1 0x0 KECCAK256 SWAP1 JUMPDEST DUP2 SLOAD DUP2 MSTORE SWAP1 PUSH1 0x1 ADD SWAP1 PUSH1 0x20 ADD DUP1 DUP4 GT PUSH2 0xCB1 JUMPI DUP3 SWAP1 SUB PUSH1 0x1F AND DUP3 ADD SWAP2 JUMPDEST POP POP POP POP POP PUSH2 0x184A JUMP JUMPDEST PUSH2 0xD75 JUMPI PUSH2 0xD72 DUP5 DUP4 PUSH1 0x9 ADD DUP1 SLOAD PUSH2 0xCEF SWAP1 PUSH2 0x1F85 JUMP JUMPDEST DUP1 PUSH1 0x1F ADD PUSH1 0x20 DUP1 SWAP2 DIV MUL PUSH1 0x20 ADD PUSH1 0x40 MLOAD SWAP1 DUP2 ADD PUSH1 0x40 MSTORE DUP1 SWAP3 SWAP2 SWAP1 DUP2 DUP2 MSTORE PUSH1 0x20 ADD DUP3 DUP1 SLOAD PUSH2 0xD1B SWAP1 PUSH2 0x1F85 JUMP JUMPDEST DUP1 ISZERO PUSH2 0xD68 JUMPI DUP1 PUSH1 0x1F LT PUSH2 0xD3D JUMPI PUSH2 0x100 DUP1 DUP4 SLOAD DIV MUL DUP4 MSTORE SWAP2 PUSH1 0x20 ADD SWAP2 PUSH2 0xD68 JUMP JUMPDEST DUP3 ADD SWAP2 SWAP1 PUSH1 0x0 MSTORE PUSH1 0x20 PUSH1 0x0 KECCAK256 SWAP1 JUMPDEST DUP2 SLOAD DUP2 MSTORE SWAP1 PUSH1 0x1 ADD SWAP1 PUSH1 0x20 ADD DUP1 DUP4 GT PUSH2 0xD4B JUMPI DUP3 SWAP1 SUB PUSH1 0x1F AND DUP3 ADD SWAP2 JUMPDEST POP POP POP POP POP PUSH2 0x18B3 JUMP JUMPDEST SWAP4 POP JUMPDEST DUP1 DUP1 PUSH2 0xD80 SWAP1 PUSH2 0x265C JUMP JUMPDEST SWAP2 POP POP PUSH2 0xBC5 JUMP JUMPDEST POP JUMPDEST JUMPDEST POP DUP1 DUP1 PUSH2 0xD97 SWAP1 PUSH2 0x25D8 JUMP JUMPDEST SWAP2 POP POP PUSH2 0xB56 JUMP JUMPDEST POP PUSH32 0xFC36D7CC461F11F4F552BDA21B5F2E9A7551DB8011F5DF2DFDCB1675B930B8DA DUP2 PUSH1 0x40 MLOAD PUSH2 0xDCF SWAP2 SWAP1 PUSH2 0x2791 JUMP JUMPDEST PUSH1 0x40 MLOAD DUP1 SWAP2 SUB SWAP1 LOG1 POP JUMP JUMPDEST PUSH1 0x0 PUSH1 0x1 DUP1 SLOAD SWAP1 POP SWAP1 POP SWAP1 JUMP JUMPDEST PUSH1 0x0 PUSH1 0x2 PUSH1 0x0 DUP5 DUP2 MSTORE PUSH1 0x20 ADD SWAP1 DUP2 MSTORE PUSH1 0x20 ADD PUSH1 0x0 KECCAK256 SWAP1 POP PUSH1 0x0 DUP1 PUSH1 0x0 SWAP1 POP JUMPDEST DUP3 PUSH1 0x6 ADD DUP1 SLOAD SWAP1 POP DUP2 PUSH1 0xFF AND LT ISZERO PUSH2 0xEE8 JUMPI DUP4 PUSH20 0xFFFFFFFFFFFFFFFFFFFFFFFFFFFFFFFFFFFFFFFF AND DUP4 PUSH1 0x6 ADD DUP3 PUSH1 0xFF AND DUP2 SLOAD DUP2 LT PUSH2 0xE48 JUMPI PUSH2 0xE47 PUSH2 0x2620 JUMP JUMPDEST JUMPDEST SWAP1 PUSH1 0x0 MSTORE PUSH1 0x20 PUSH1 0x0 KECCAK256 ADD PUSH1 0x0 SWAP1 SLOAD SWAP1 PUSH2 0x100 EXP SWAP1 DIV PUSH20 0xFFFFFFFFFFFFFFFFFFFFFFFFFFFFFFFFFFFFFFFF AND PUSH20 0xFFFFFFFFFFFFFFFFFFFFFFFFFFFFFFFFFFFFFFFF AND SUB PUSH2 0xED5 JUMPI DUP3 PUSH1 0x6 ADD DUP2 PUSH1 0xFF AND DUP2 SLOAD DUP2 LT PUSH2 0xEA7 JUMPI PUSH2 0xEA6 PUSH2 0x2620 JUMP JUMPDEST JUMPDEST SWAP1 PUSH1 0x0 MSTORE PUSH1 0x20 PUSH1 0x0 KECCAK256 ADD PUSH1 0x0 SWAP1 SLOAD SWAP1 PUSH2 0x100 EXP SWAP1 DIV PUSH20 0xFFFFFFFFFFFFFFFFFFFFFFFFFFFFFFFFFFFFFFFF AND SWAP2 POP JUMPDEST DUP1 DUP1 PUSH2 0xEE0 SWAP1 PUSH2 0x265C JUMP JUMPDEST SWAP2 POP POP PUSH2 0xE06 JUMP JUMPDEST POP DUP3 PUSH20 0xFFFFFFFFFFFFFFFFFFFFFFFFFFFFFFFFFFFFFFFF AND DUP2 PUSH20 0xFFFFFFFFFFFFFFFFFFFFFFFFFFFFFFFFFFFFFFFF AND EQ PUSH2 0xF57 JUMPI PUSH1 0x40 MLOAD PUSH32 0x8C379A000000000000000000000000000000000000000000000000000000000 DUP2 MSTORE PUSH1 0x4 ADD PUSH2 0xF4E SWAP1 PUSH2 0x27FF JUMP JUMPDEST PUSH1 0x40 MLOAD DUP1 SWAP2 SUB SWAP1 REVERT JUMPDEST DUP2 PUSH1 0x7 ADD DUP4 SWAP1 DUP1 PUSH1 0x1 DUP2 SLOAD ADD DUP1 DUP3 SSTORE DUP1 SWAP2 POP POP PUSH1 0x1 SWAP1 SUB SWAP1 PUSH1 0x0 MSTORE PUSH1 0x20 PUSH1 0x0 KECCAK256 ADD PUSH1 0x0 SWAP1 SWAP2 SWAP1 SWAP2 SWAP1 SWAP2 PUSH2 0x100 EXP DUP2 SLOAD DUP2 PUSH20 0xFFFFFFFFFFFFFFFFFFFFFFFFFFFFFFFFFFFFFFFF MUL NOT AND SWAP1 DUP4 PUSH20 0xFFFFFFFFFFFFFFFFFFFFFFFFFFFFFFFFFFFFFFFF AND MUL OR SWAP1 SSTORE POP PUSH1 0x0 DUP4 PUSH20 0xFFFFFFFFFFFFFFFFFFFFFFFFFFFFFFFFFFFFFFFF AND DUP4 PUSH1 0x4 ADD SLOAD PUSH1 0x40 MLOAD PUSH2 0xFE6 SWAP1 PUSH2 0x2204 JUMP JUMPDEST PUSH1 0x0 PUSH1 0x40 MLOAD DUP1 DUP4 SUB DUP2 DUP6 DUP8 GAS CALL SWAP3 POP POP POP RETURNDATASIZE DUP1 PUSH1 0x0 DUP2 EQ PUSH2 0x1023 JUMPI PUSH1 0x40 MLOAD SWAP2 POP PUSH1 0x1F NOT PUSH1 0x3F RETURNDATASIZE ADD AND DUP3 ADD PUSH1 0x40 MSTORE RETURNDATASIZE DUP3 MSTORE RETURNDATASIZE PUSH1 0x0 PUSH1 0x20 DUP5 ADD RETURNDATACOPY PUSH2 0x1028 JUMP JUMPDEST PUSH1 0x60 SWAP2 POP JUMPDEST POP POP SWAP1 POP DUP1 PUSH2 0x107B JUMPI DUP3 PUSH1 0x7 ADD DUP1 SLOAD DUP1 PUSH2 0x1045 JUMPI PUSH2 0x1044 PUSH2 0x281F JUMP JUMPDEST JUMPDEST PUSH1 0x1 SWAP1 SUB DUP2 DUP2 SWAP1 PUSH1 0x0 MSTORE PUSH1 0x20 PUSH1 0x0 KECCAK256 ADD PUSH1 0x0 PUSH2 0x100 EXP DUP2 SLOAD SWAP1 PUSH20 0xFFFFFFFFFFFFFFFFFFFFFFFFFFFFFFFFFFFFFFFF MUL NOT AND SWAP1 SSTORE SWAP1 SSTORE JUMPDEST DUP1 PUSH2 0x10BB JUMPI PUSH1 0x40 MLOAD PUSH32 0x8C379A000000000000000000000000000000000000000000000000000000000 DUP2 MSTORE PUSH1 0x4 ADD PUSH2 0x10B2 SWAP1 PUSH2 0x2265 JUMP JUMPDEST PUSH1 0x40 MLOAD DUP1 SWAP2 SUB SWAP1 REVERT JUMPDEST PUSH1 0x1 DUP4 PUSH1 0x8 ADD PUSH1 0x0 PUSH2 0x100 EXP DUP2 SLOAD DUP2 PUSH1 0xFF MUL NOT AND SWAP1 DUP4 ISZERO ISZERO MUL OR SWAP1 SSTORE POP PUSH32 0xF51B42FDA5553F12ACA9BF0984B446BF9883824E148EE9E467EB21F180A05FF3 DUP6 DUP6 PUSH1 0x40 MLOAD PUSH2 0x1109 SWAP3 SWAP2 SWAP1 PUSH2 0x284E JUMP JUMPDEST PUSH1 0x40 MLOAD DUP1 SWAP2 SUB SWAP1 LOG1 POP POP POP POP POP JUMP JUMPDEST PUSH1 0x60 DUP1 PUSH1 0x0 DUP1 PUSH1 0x0 DUP1 PUSH1 0x60 PUSH1 0x2 PUSH1 0x0 DUP10 DUP2 MSTORE PUSH1 0x20 ADD SWAP1 DUP2 MSTORE PUSH1 0x20 ADD PUSH1 0x0 KECCAK256 PUSH1 0x0 ADD PUSH1 0x2 PUSH1 0x0 DUP11 DUP2 MSTORE PUSH1 0x20 ADD SWAP1 DUP2 MSTORE PUSH1 0x20 ADD PUSH1 0x0 KECCAK256 PUSH1 0x1 ADD PUSH1 0x2 PUSH1 0x0 DUP12 DUP2 MSTORE PUSH1 0x20 ADD SWAP1 DUP2 MSTORE PUSH1 0x20 ADD PUSH1 0x0 KECCAK256 PUSH1 0x2 ADD PUSH1 0x0 SWAP1 SLOAD SWAP1 PUSH2 0x100 EXP SWAP1 DIV PUSH20 0xFFFFFFFFFFFFFFFFFFFFFFFFFFFFFFFFFFFFFFFF AND PUSH1 0x2 PUSH1 0x0 DUP13 DUP2 MSTORE PUSH1 0x20 ADD SWAP1 DUP2 MSTORE PUSH1 0x20 ADD PUSH1 0x0 KECCAK256 PUSH1 0x3 ADD SLOAD PUSH1 0x2 PUSH1 0x0 DUP14 DUP2 MSTORE PUSH1 0x20 ADD SWAP1 DUP2 MSTORE PUSH1 0x20 ADD PUSH1 0x0 KECCAK256 PUSH1 0x5 ADD SLOAD PUSH1 0x2 PUSH1 0x0 DUP15 DUP2 MSTORE PUSH1 0x20 ADD SWAP1 DUP2 MSTORE PUSH1 0x20 ADD PUSH1 0x0 KECCAK256 PUSH1 0x4 ADD SLOAD PUSH1 0x2 PUSH1 0x0 DUP16 DUP2 MSTORE PUSH1 0x20 ADD SWAP1 DUP2 MSTORE PUSH1 0x20 ADD PUSH1 0x0 KECCAK256 PUSH1 0x6 ADD DUP7 DUP1 SLOAD PUSH2 0x11ED SWAP1 PUSH2 0x1F85 JUMP JUMPDEST DUP1 PUSH1 0x1F ADD PUSH1 0x20 DUP1 SWAP2 DIV MUL PUSH1 0x20 ADD PUSH1 0x40 MLOAD SWAP1 DUP2 ADD PUSH1 0x40 MSTORE DUP1 SWAP3 SWAP2 SWAP1 DUP2 DUP2 MSTORE PUSH1 0x20 ADD DUP3 DUP1 SLOAD PUSH2 0x1219 SWAP1 PUSH2 0x1F85 JUMP JUMPDEST DUP1 ISZERO PUSH2 0x1266 JUMPI DUP1 PUSH1 0x1F LT PUSH2 0x123B JUMPI PUSH2 0x100 DUP1 DUP4 SLOAD DIV MUL DUP4 MSTORE SWAP2 PUSH1 0x20 ADD SWAP2 PUSH2 0x1266 JUMP JUMPDEST DUP3 ADD SWAP2 SWAP1 PUSH1 0x0 MSTORE PUSH1 0x20 PUSH1 0x0 KECCAK256 SWAP1 JUMPDEST DUP2 SLOAD DUP2 MSTORE SWAP1 PUSH1 0x1 ADD SWAP1 PUSH1 0x20 ADD DUP1 DUP4 GT PUSH2 0x1249 JUMPI DUP3 SWAP1 SUB PUSH1 0x1F AND DUP3 ADD SWAP2 JUMPDEST POP POP POP POP POP SWAP7 POP DUP6 DUP1 SLOAD PUSH2 0x1279 SWAP1 PUSH2 0x1F85 JUMP JUMPDEST DUP1 PUSH1 0x1F ADD PUSH1 0x20 DUP1 SWAP2 DIV MUL PUSH1 0x20 ADD PUSH1 0x40 MLOAD SWAP1 DUP2 ADD PUSH1 0x40 MSTORE DUP1 SWAP3 SWAP2 SWAP1 DUP2 DUP2 MSTORE PUSH1 0x20 ADD DUP3 DUP1 SLOAD PUSH2 0x12A5 SWAP1 PUSH2 0x1F85 JUMP JUMPDEST DUP1 ISZERO PUSH2 0x12F2 JUMPI DUP1 PUSH1 0x1F LT PUSH2 0x12C7 JUMPI PUSH2 0x100 DUP1 DUP4 SLOAD DIV MUL DUP4 MSTORE SWAP2 PUSH1 0x20 ADD SWAP2 PUSH2 0x12F2 JUMP JUMPDEST DUP3 ADD SWAP2 SWAP1 PUSH1 0x0 MSTORE PUSH1 0x20 PUSH1 0x0 KECCAK256 SWAP1 JUMPDEST DUP2 SLOAD DUP2 MSTORE SWAP1 PUSH1 0x1 ADD SWAP1 PUSH1 0x20 ADD DUP1 DUP4 GT PUSH2 0x12D5 JUMPI DUP3 SWAP1 SUB PUSH1 0x1F AND DUP3 ADD SWAP2 JUMPDEST POP POP POP POP POP SWAP6 POP DUP1 DUP1 SLOAD DUP1 PUSH1 0x20 MUL PUSH1 0x20 ADD PUSH1 0x40 MLOAD SWAP1 DUP2 ADD PUSH1 0x40 MSTORE DUP1 SWAP3 SWAP2 SWAP1 DUP2 DUP2 MSTORE PUSH1 0x20 ADD DUP3 DUP1 SLOAD DUP1 ISZERO PUSH2 0x137A JUMPI PUSH1 0x20 MUL DUP3 ADD SWAP2 SWAP1 PUSH1 0x0 MSTORE PUSH1 0x20 PUSH1 0x0 KECCAK256 SWAP1 JUMPDEST DUP2 PUSH1 0x0 SWAP1 SLOAD SWAP1 PUSH2 0x100 EXP SWAP1 DIV PUSH20 0xFFFFFFFFFFFFFFFFFFFFFFFFFFFFFFFFFFFFFFFF AND PUSH20 0xFFFFFFFFFFFFFFFFFFFFFFFFFFFFFFFFFFFFFFFF AND DUP2 MSTORE PUSH1 0x20 ADD SWAP1 PUSH1 0x1 ADD SWAP1 DUP1 DUP4 GT PUSH2 0x1330 JUMPI JUMPDEST POP POP POP POP POP SWAP1 POP SWAP7 POP SWAP7 POP SWAP7 POP SWAP7 POP SWAP7 POP SWAP7 POP SWAP7 POP SWAP2 SWAP4 SWAP6 SWAP8 SWAP1 SWAP3 SWAP5 SWAP7 POP JUMP JUMPDEST PUSH1 0x0 SELFBALANCE SWAP1 POP SWAP1 JUMP JUMPDEST PUSH1 0x0 PUSH1 0x2 PUSH1 0x0 DUP4 DUP2 MSTORE PUSH1 0x20 ADD SWAP1 DUP2 MSTORE PUSH1 0x20 ADD PUSH1 0x0 KECCAK256 SWAP1 POP DUP1 PUSH1 0x4 ADD SLOAD CALLVALUE EQ PUSH2 0x13FF JUMPI PUSH1 0x40 MLOAD PUSH32 0x8C379A000000000000000000000000000000000000000000000000000000000 DUP2 MSTORE PUSH1 0x4 ADD PUSH2 0x13F6 SWAP1 PUSH2 0x28C3 JUMP JUMPDEST PUSH1 0x40 MLOAD DUP1 SWAP2 SUB SWAP1 REVERT JUMPDEST DUP1 PUSH1 0x3 ADD SLOAD TIMESTAMP GT ISZERO PUSH2 0x1446 JUMPI PUSH1 0x40 MLOAD PUSH32 0x8C379A000000000000000000000000000000000000000000000000000000000 DUP2 MSTORE PUSH1 0x4 ADD PUSH2 0x143D SWAP1 PUSH2 0x292F JUMP JUMPDEST PUSH1 0x40 MLOAD DUP1 SWAP2 SUB SWAP1 REVERT JUMPDEST DUP1 PUSH1 0x5 ADD SLOAD DUP2 PUSH1 0x6 ADD DUP1 SLOAD SWAP1 POP LT PUSH2 0x1493 JUMPI PUSH1 0x40 MLOAD PUSH32 0x8C379A000000000000000000000000000000000000000000000000000000000 DUP2 MSTORE PUSH1 0x4 ADD PUSH2 0x148A SWAP1 PUSH2 0x299B JUMP JUMPDEST PUSH1 0x40 MLOAD DUP1 SWAP2 SUB SWAP1 REVERT JUMPDEST PUSH1 0x0 JUMPDEST DUP2 PUSH1 0x6 ADD DUP1 SLOAD SWAP1 POP DUP2 PUSH1 0xFF AND LT ISZERO PUSH2 0x156C JUMPI CALLER PUSH20 0xFFFFFFFFFFFFFFFFFFFFFFFFFFFFFFFFFFFFFFFF AND DUP3 PUSH1 0x6 ADD DUP3 PUSH1 0xFF AND DUP2 SLOAD DUP2 LT PUSH2 0x14D8 JUMPI PUSH2 0x14D7 PUSH2 0x2620 JUMP JUMPDEST JUMPDEST SWAP1 PUSH1 0x0 MSTORE PUSH1 0x20 PUSH1 0x0 KECCAK256 ADD PUSH1 0x0 SWAP1 SLOAD SWAP1 PUSH2 0x100 EXP SWAP1 DIV PUSH20 0xFFFFFFFFFFFFFFFFFFFFFFFFFFFFFFFFFFFFFFFF AND PUSH20 0xFFFFFFFFFFFFFFFFFFFFFFFFFFFFFFFFFFFFFFFF AND SUB PUSH2 0x1559 JUMPI PUSH1 0x40 MLOAD PUSH32 0x8C379A000000000000000000000000000000000000000000000000000000000 DUP2 MSTORE PUSH1 0x4 ADD PUSH2 0x1550 SWAP1 PUSH2 0x2A07 JUMP JUMPDEST PUSH1 0x40 MLOAD DUP1 SWAP2 SUB SWAP1 REVERT JUMPDEST DUP1 DUP1 PUSH2 0x1564 SWAP1 PUSH2 0x265C JUMP JUMPDEST SWAP2 POP POP PUSH2 0x1496 JUMP JUMPDEST POP DUP1 PUSH1 0x6 ADD CALLER SWAP1 DUP1 PUSH1 0x1 DUP2 SLOAD ADD DUP1 DUP3 SSTORE DUP1 SWAP2 POP POP PUSH1 0x1 SWAP1 SUB SWAP1 PUSH1 0x0 MSTORE PUSH1 0x20 PUSH1 0x0 KECCAK256 ADD PUSH1 0x0 SWAP1 SWAP2 SWAP1 SWAP2 SWAP1 SWAP2 PUSH2 0x100 EXP DUP2 SLOAD DUP2 PUSH20 0xFFFFFFFFFFFFFFFFFFFFFFFFFFFFFFFFFFFFFFFF MUL NOT AND SWAP1 DUP4 PUSH20 0xFFFFFFFFFFFFFFFFFFFFFFFFFFFFFFFFFFFFFFFF AND MUL OR SWAP1 SSTORE POP PUSH32 0x305579FDA99551F5107B32B7465875A3984F12521B5DF905EE46FE6EFB873F92 DUP3 CALLER PUSH1 0x40 MLOAD PUSH2 0x1603 SWAP3 SWAP2 SWAP1 PUSH2 0x284E JUMP JUMPDEST PUSH1 0x40 MLOAD DUP1 SWAP2 SUB SWAP1 LOG1 POP POP JUMP JUMPDEST PUSH1 0x0 SLOAD DUP2 JUMP JUMPDEST PUSH1 0x0 PUSH1 0x1 DUP3 DUP2 SLOAD DUP2 LT PUSH2 0x162B JUMPI PUSH2 0x162A PUSH2 0x2620 JUMP JUMPDEST JUMPDEST SWAP1 PUSH1 0x0 MSTORE PUSH1 0x20 PUSH1 0x0 KECCAK256 ADD SLOAD SWAP1 POP SWAP2 SWAP1 POP JUMP JUMPDEST PUSH1 0x2 PUSH1 0x20 MSTORE DUP1 PUSH1 0x0 MSTORE PUSH1 0x40 PUSH1 0x0 KECCAK256 PUSH1 0x0 SWAP2 POP SWAP1 POP DUP1 PUSH1 0x0 ADD DUP1 SLOAD PUSH2 0x1660 SWAP1 PUSH2 0x1F85 JUMP JUMPDEST DUP1 PUSH1 0x1F ADD PUSH1 0x20 DUP1 SWAP2 DIV MUL PUSH1 0x20 ADD PUSH1 0x40 MLOAD SWAP1 DUP2 ADD PUSH1 0x40 MSTORE DUP1 SWAP3 SWAP2 SWAP1 DUP2 DUP2 MSTORE PUSH1 0x20 ADD DUP3 DUP1 SLOAD PUSH2 0x168C SWAP1 PUSH2 0x1F85 JUMP JUMPDEST DUP1 ISZERO PUSH2 0x16D9 JUMPI DUP1 PUSH1 0x1F LT PUSH2 0x16AE JUMPI PUSH2 0x100 DUP1 DUP4 SLOAD DIV MUL DUP4 MSTORE SWAP2 PUSH1 0x20 ADD SWAP2 PUSH2 0x16D9 JUMP JUMPDEST DUP3 ADD SWAP2 SWAP1 PUSH1 0x0 MSTORE PUSH1 0x20 PUSH1 0x0 KECCAK256 SWAP1 JUMPDEST DUP2 SLOAD DUP2 MSTORE SWAP1 PUSH1 0x1 ADD SWAP1 PUSH1 0x20 ADD DUP1 DUP4 GT PUSH2 0x16BC JUMPI DUP3 SWAP1 SUB PUSH1 0x1F AND DUP3 ADD SWAP2 JUMPDEST POP POP POP POP POP SWAP1 DUP1 PUSH1 0x1 ADD DUP1 SLOAD PUSH2 0x16EE SWAP1 PUSH2 0x1F85 JUMP JUMPDEST DUP1 PUSH1 0x1F ADD PUSH1 0x20 DUP1 SWAP2 DIV MUL PUSH1 0x20 ADD PUSH1 0x40 MLOAD SWAP1 DUP2 ADD PUSH1 0x40 MSTORE DUP1 SWAP3 SWAP2 SWAP1 DUP2 DUP2 MSTORE PUSH1 0x20 ADD DUP3 DUP1 SLOAD PUSH2 0x171A SWAP1 PUSH2 0x1F85 JUMP JUMPDEST DUP1 ISZERO PUSH2 0x1767 JUMPI DUP1 PUSH1 0x1F LT PUSH2 0x173C JUMPI PUSH2 0x100 DUP1 DUP4 SLOAD DIV MUL DUP4 MSTORE SWAP2 PUSH1 0x20 ADD SWAP2 PUSH2 0x1767 JUMP JUMPDEST DUP3 ADD SWAP2 SWAP1 PUSH1 0x0 MSTORE PUSH1 0x20 PUSH1 0x0 KECCAK256 SWAP1 JUMPDEST DUP2 SLOAD DUP2 MSTORE SWAP1 PUSH1 0x1 ADD SWAP1 PUSH1 0x20 ADD DUP1 DUP4 GT PUSH2 0x174A JUMPI DUP3 SWAP1 SUB PUSH1 0x1F AND DUP3 ADD SWAP2 JUMPDEST POP POP POP POP POP SWAP1 DUP1 PUSH1 0x2 ADD PUSH1 0x0 SWAP1 SLOAD SWAP1 PUSH2 0x100 EXP SWAP1 DIV PUSH20 0xFFFFFFFFFFFFFFFFFFFFFFFFFFFFFFFFFFFFFFFF AND SWAP1 DUP1 PUSH1 0x3 ADD SLOAD SWAP1 DUP1 PUSH1 0x4 ADD SLOAD SWAP1 DUP1 PUSH1 0x5 ADD SLOAD SWAP1 DUP1 PUSH1 0x8 ADD PUSH1 0x0 SWAP1 SLOAD SWAP1 PUSH2 0x100 EXP SWAP1 DIV PUSH1 0xFF AND SWAP1 DUP1 PUSH1 0x9 ADD DUP1 SLOAD PUSH2 0x17C7 SWAP1 PUSH2 0x1F85 JUMP JUMPDEST DUP1 PUSH1 0x1F ADD PUSH1 0x20 DUP1 SWAP2 DIV MUL PUSH1 0x20 ADD PUSH1 0x40 MLOAD SWAP1 DUP2 ADD PUSH1 0x40 MSTORE DUP1 SWAP3 SWAP2 SWAP1 DUP2 DUP2 MSTORE PUSH1 0x20 ADD DUP3 DUP1 SLOAD PUSH2 0x17F3 SWAP1 PUSH2 0x1F85 JUMP JUMPDEST DUP1 ISZERO PUSH2 0x1840 JUMPI DUP1 PUSH1 0x1F LT PUSH2 0x1815 JUMPI PUSH2 0x100 DUP1 DUP4 SLOAD DIV MUL DUP4 MSTORE SWAP2 PUSH1 0x20 ADD SWAP2 PUSH2 0x1840 JUMP JUMPDEST DUP3 ADD SWAP2 SWAP1 PUSH1 0x0 MSTORE PUSH1 0x20 PUSH1 0x0 KECCAK256 SWAP1 JUMPDEST DUP2 SLOAD DUP2 MSTORE SWAP1 PUSH1 0x1 ADD SWAP1 PUSH1 0x20 ADD DUP1 DUP4 GT PUSH2 0x1823 JUMPI DUP3 SWAP1 SUB PUSH1 0x1F AND DUP3 ADD SWAP2 JUMPDEST POP POP POP POP POP SWAP1 POP DUP9 JUMP JUMPDEST PUSH1 0x0 DUP1 PUSH1 0x0 SWAP1 POP JUMPDEST DUP4 MLOAD DUP2 LT ISZERO PUSH2 0x18A7 JUMPI DUP3 DUP1 MLOAD SWAP1 PUSH1 0x20 ADD KECCAK256 DUP5 DUP3 DUP2 MLOAD DUP2 LT PUSH2 0x1876 JUMPI PUSH2 0x1875 PUSH2 0x2620 JUMP JUMPDEST JUMPDEST PUSH1 0x20 MUL PUSH1 0x20 ADD ADD MLOAD DUP1 MLOAD SWAP1 PUSH1 0x20 ADD KECCAK256 SUB PUSH2 0x1894 JUMPI PUSH1 0x1 SWAP2 POP POP PUSH2 0x18AD JUMP JUMPDEST DUP1 DUP1 PUSH2 0x189F SWAP1 PUSH2 0x25D8 JUMP JUMPDEST SWAP2 POP POP PUSH2 0x1852 JUMP JUMPDEST POP PUSH1 0x0 SWAP1 POP JUMPDEST SWAP3 SWAP2 POP POP JUMP JUMPDEST PUSH1 0x60 PUSH1 0x0 PUSH1 0x1 DUP5 MLOAD PUSH2 0x18C5 SWAP2 SWAP1 PUSH2 0x2051 JUMP JUMPDEST PUSH8 0xFFFFFFFFFFFFFFFF DUP2 GT ISZERO PUSH2 0x18DE JUMPI PUSH2 0x18DD PUSH2 0x2285 JUMP JUMPDEST JUMPDEST PUSH1 0x40 MLOAD SWAP1 DUP1 DUP3 MSTORE DUP1 PUSH1 0x20 MUL PUSH1 0x20 ADD DUP3 ADD PUSH1 0x40 MSTORE DUP1 ISZERO PUSH2 0x1911 JUMPI DUP2 PUSH1 0x20 ADD JUMPDEST PUSH1 0x60 DUP2 MSTORE PUSH1 0x20 ADD SWAP1 PUSH1 0x1 SWAP1 SUB SWAP1 DUP2 PUSH2 0x18FC JUMPI SWAP1 POP JUMPDEST POP SWAP1 POP PUSH1 0x0 JUMPDEST DUP5 MLOAD DUP2 LT ISZERO PUSH2 0x196C JUMPI DUP5 DUP2 DUP2 MLOAD DUP2 LT PUSH2 0x1933 JUMPI PUSH2 0x1932 PUSH2 0x2620 JUMP JUMPDEST JUMPDEST PUSH1 0x20 MUL PUSH1 0x20 ADD ADD MLOAD DUP3 DUP3 DUP2 MLOAD DUP2 LT PUSH2 0x194E JUMPI PUSH2 0x194D PUSH2 0x2620 JUMP JUMPDEST JUMPDEST PUSH1 0x20 MUL PUSH1 0x20 ADD ADD DUP2 SWAP1 MSTORE POP DUP1 DUP1 PUSH2 0x1964 SWAP1 PUSH2 0x25D8 JUMP JUMPDEST SWAP2 POP POP PUSH2 0x1917 JUMP JUMPDEST POP DUP3 DUP2 DUP6 MLOAD DUP2 MLOAD DUP2 LT PUSH2 0x1982 JUMPI PUSH2 0x1981 PUSH2 0x2620 JUMP JUMPDEST JUMPDEST PUSH1 0x20 MUL PUSH1 0x20 ADD ADD DUP2 SWAP1 MSTORE POP DUP1 SWAP2 POP POP SWAP3 SWAP2 POP POP JUMP JUMPDEST DUP3 DUP1 SLOAD DUP3 DUP3 SSTORE SWAP1 PUSH1 0x0 MSTORE PUSH1 0x20 PUSH1 0x0 KECCAK256 SWAP1 DUP2 ADD SWAP3 DUP3 ISZERO PUSH2 0x1A10 JUMPI SWAP2 PUSH1 0x20 MUL DUP3 ADD JUMPDEST DUP3 DUP2 GT ISZERO PUSH2 0x1A0F JUMPI DUP3 MLOAD DUP3 PUSH1 0x0 PUSH2 0x100 EXP DUP2 SLOAD DUP2 PUSH20 0xFFFFFFFFFFFFFFFFFFFFFFFFFFFFFFFFFFFFFFFF MUL NOT AND SWAP1 DUP4 PUSH20 0xFFFFFFFFFFFFFFFFFFFFFFFFFFFFFFFFFFFFFFFF AND MUL OR SWAP1 SSTORE POP SWAP2 PUSH1 0x20 ADD SWAP2 SWAP1 PUSH1 0x1 ADD SWAP1 PUSH2 0x19B7 JUMP JUMPDEST JUMPDEST POP SWAP1 POP PUSH2 0x1A1D SWAP2 SWAP1 PUSH2 0x1A21 JUMP JUMPDEST POP SWAP1 JUMP JUMPDEST JUMPDEST DUP1 DUP3 GT ISZERO PUSH2 0x1A3A JUMPI PUSH1 0x0 DUP2 PUSH1 0x0 SWAP1 SSTORE POP PUSH1 0x1 ADD PUSH2 0x1A22 JUMP JUMPDEST POP SWAP1 JUMP JUMPDEST PUSH1 0x0 DUP1 REVERT JUMPDEST PUSH1 0x0 DUP1 REVERT JUMPDEST PUSH1 0x0 DUP2 SWAP1 POP SWAP2 SWAP1 POP JUMP JUMPDEST PUSH2 0x1A5B DUP2 PUSH2 0x1A48 JUMP JUMPDEST DUP2 EQ PUSH2 0x1A66 JUMPI PUSH1 0x0 DUP1 REVERT JUMPDEST POP JUMP JUMPDEST PUSH1 0x0 DUP2 CALLDATALOAD SWAP1 POP PUSH2 0x1A78 DUP2 PUSH2 0x1A52 JUMP JUMPDEST SWAP3 SWAP2 POP POP JUMP JUMPDEST PUSH1 0x0 PUSH1 0x20 DUP3 DUP5 SUB SLT ISZERO PUSH2 0x1A94 JUMPI PUSH2 0x1A93 PUSH2 0x1A3E JUMP JUMPDEST JUMPDEST PUSH1 0x0 PUSH2 0x1AA2 DUP5 DUP3 DUP6 ADD PUSH2 0x1A69 JUMP JUMPDEST SWAP2 POP POP SWAP3 SWAP2 POP POP JUMP JUMPDEST PUSH1 0x0 DUP1 REVERT JUMPDEST PUSH1 0x0 DUP1 REVERT JUMPDEST PUSH1 0x0 DUP1 REVERT JUMPDEST PUSH1 0x0 DUP1 DUP4 PUSH1 0x1F DUP5 ADD SLT PUSH2 0x1AD0 JUMPI PUSH2 0x1ACF PUSH2 0x1AAB JUMP JUMPDEST JUMPDEST DUP3 CALLDATALOAD SWAP1 POP PUSH8 0xFFFFFFFFFFFFFFFF DUP2 GT ISZERO PUSH2 0x1AED JUMPI PUSH2 0x1AEC PUSH2 0x1AB0 JUMP JUMPDEST JUMPDEST PUSH1 0x20 DUP4 ADD SWAP2 POP DUP4 PUSH1 0x1 DUP3 MUL DUP4 ADD GT ISZERO PUSH2 0x1B09 JUMPI PUSH2 0x1B08 PUSH2 0x1AB5 JUMP JUMPDEST JUMPDEST SWAP3 POP SWAP3 SWAP1 POP JUMP JUMPDEST PUSH1 0x0 DUP1 PUSH1 0x0 DUP1 PUSH1 0x0 DUP1 PUSH1 0x0 DUP1 PUSH1 0x0 PUSH1 0xC0 DUP11 DUP13 SUB SLT ISZERO PUSH2 0x1B32 JUMPI PUSH2 0x1B31 PUSH2 0x1A3E JUMP JUMPDEST JUMPDEST PUSH1 0x0 DUP11 ADD CALLDATALOAD PUSH8 0xFFFFFFFFFFFFFFFF DUP2 GT ISZERO PUSH2 0x1B50 JUMPI PUSH2 0x1B4F PUSH2 0x1A43 JUMP JUMPDEST JUMPDEST PUSH2 0x1B5C DUP13 DUP3 DUP14 ADD PUSH2 0x1ABA JUMP JUMPDEST SWAP10 POP SWAP10 POP POP PUSH1 0x20 PUSH2 0x1B6F DUP13 DUP3 DUP14 ADD PUSH2 0x1A69 JUMP JUMPDEST SWAP8 POP POP PUSH1 0x40 PUSH2 0x1B80 DUP13 DUP3 DUP14 ADD PUSH2 0x1A69 JUMP JUMPDEST SWAP7 POP POP PUSH1 0x60 PUSH2 0x1B91 DUP13 DUP3 DUP14 ADD PUSH2 0x1A69 JUMP JUMPDEST SWAP6 POP POP PUSH1 0x80 DUP11 ADD CALLDATALOAD PUSH8 0xFFFFFFFFFFFFFFFF DUP2 GT ISZERO PUSH2 0x1BB2 JUMPI PUSH2 0x1BB1 PUSH2 0x1A43 JUMP JUMPDEST JUMPDEST PUSH2 0x1BBE DUP13 DUP3 DUP14 ADD PUSH2 0x1ABA JUMP JUMPDEST SWAP5 POP SWAP5 POP POP PUSH1 0xA0 DUP11 ADD CALLDATALOAD PUSH8 0xFFFFFFFFFFFFFFFF DUP2 GT ISZERO PUSH2 0x1BE1 JUMPI PUSH2 0x1BE0 PUSH2 0x1A43 JUMP JUMPDEST JUMPDEST PUSH2 0x1BED DUP13 DUP3 DUP14 ADD PUSH2 0x1ABA JUMP JUMPDEST SWAP3 POP SWAP3 POP POP SWAP3 SWAP6 SWAP9 POP SWAP3 SWAP6 SWAP9 POP SWAP3 SWAP6 SWAP9 JUMP JUMPDEST PUSH2 0x1C08 DUP2 PUSH2 0x1A48 JUMP JUMPDEST DUP3 MSTORE POP POP JUMP JUMPDEST PUSH1 0x0 PUSH1 0x20 DUP3 ADD SWAP1 POP PUSH2 0x1C23 PUSH1 0x0 DUP4 ADD DUP5 PUSH2 0x1BFF JUMP JUMPDEST SWAP3 SWAP2 POP POP JUMP JUMPDEST PUSH1 0x0 PUSH20 0xFFFFFFFFFFFFFFFFFFFFFFFFFFFFFFFFFFFFFFFF DUP3 AND SWAP1 POP SWAP2 SWAP1 POP JUMP JUMPDEST PUSH1 0x0 PUSH2 0x1C54 DUP3 PUSH2 0x1C29 JUMP JUMPDEST SWAP1 POP SWAP2 SWAP1 POP JUMP JUMPDEST PUSH2 0x1C64 DUP2 PUSH2 0x1C49 JUMP JUMPDEST DUP2 EQ PUSH2 0x1C6F JUMPI PUSH1 0x0 DUP1 REVERT JUMPDEST POP JUMP JUMPDEST PUSH1 0x0 DUP2 CALLDATALOAD SWAP1 POP PUSH2 0x1C81 DUP2 PUSH2 0x1C5B JUMP JUMPDEST SWAP3 SWAP2 POP POP JUMP JUMPDEST PUSH1 0x0 DUP1 PUSH1 0x40 DUP4 DUP6 SUB SLT ISZERO PUSH2 0x1C9E JUMPI PUSH2 0x1C9D PUSH2 0x1A3E JUMP JUMPDEST JUMPDEST PUSH1 0x0 PUSH2 0x1CAC DUP6 DUP3 DUP7 ADD PUSH2 0x1A69 JUMP JUMPDEST SWAP3 POP POP PUSH1 0x20 PUSH2 0x1CBD DUP6 DUP3 DUP7 ADD PUSH2 0x1C72 JUMP JUMPDEST SWAP2 POP POP SWAP3 POP SWAP3 SWAP1 POP JUMP JUMPDEST PUSH1 0x0 DUP2 MLOAD SWAP1 POP SWAP2 SWAP1 POP JUMP JUMPDEST PUSH1 0x0 DUP3 DUP3 MSTORE PUSH1 0x20 DUP3 ADD SWAP1 POP SWAP3 SWAP2 POP POP JUMP JUMPDEST PUSH1 0x0 JUMPDEST DUP4 DUP2 LT ISZERO PUSH2 0x1D01 JUMPI DUP1 DUP3 ADD MLOAD DUP2 DUP5 ADD MSTORE PUSH1 0x20 DUP2 ADD SWAP1 POP PUSH2 0x1CE6 JUMP JUMPDEST PUSH1 0x0 DUP5 DUP5 ADD MSTORE POP POP POP POP JUMP JUMPDEST PUSH1 0x0 PUSH1 0x1F NOT PUSH1 0x1F DUP4 ADD AND SWAP1 POP SWAP2 SWAP1 POP JUMP JUMPDEST PUSH1 0x0 PUSH2 0x1D29 DUP3 PUSH2 0x1CC7 JUMP JUMPDEST PUSH2 0x1D33 DUP2 DUP6 PUSH2 0x1CD2 JUMP JUMPDEST SWAP4 POP PUSH2 0x1D43 DUP2 DUP6 PUSH1 0x20 DUP7 ADD PUSH2 0x1CE3 JUMP JUMPDEST PUSH2 0x1D4C DUP2 PUSH2 0x1D0D JUMP JUMPDEST DUP5 ADD SWAP2 POP POP SWAP3 SWAP2 POP POP JUMP JUMPDEST PUSH2 0x1D60 DUP2 PUSH2 0x1C49 JUMP JUMPDEST DUP3 MSTORE POP POP JUMP JUMPDEST PUSH1 0x0 DUP2 MLOAD SWAP1 POP SWAP2 SWAP1 POP JUMP JUMPDEST PUSH1 0x0 DUP3 DUP3 MSTORE PUSH1 0x20 DUP3 ADD SWAP1 POP SWAP3 SWAP2 POP POP JUMP JUMPDEST PUSH1 0x0 DUP2 SWAP1 POP PUSH1 0x20 DUP3 ADD SWAP1 POP SWAP2 SWAP1 POP JUMP JUMPDEST PUSH2 0x1D9B DUP2 PUSH2 0x1C49 JUMP JUMPDEST DUP3 MSTORE POP POP JUMP JUMPDEST PUSH1 0x0 PUSH2 0x1DAD DUP4 DUP4 PUSH2 0x1D92 JUMP JUMPDEST PUSH1 0x20 DUP4 ADD SWAP1 POP SWAP3 SWAP2 POP POP JUMP JUMPDEST PUSH1 0x0 PUSH1 0x20 DUP3 ADD SWAP1 POP SWAP2 SWAP1 POP JUMP JUMPDEST PUSH1 0x0 PUSH2 0x1DD1 DUP3 PUSH2 0x1D66 JUMP JUMPDEST PUSH2 0x1DDB DUP2 DUP6 PUSH2 0x1D71 JUMP JUMPDEST SWAP4 POP PUSH2 0x1DE6 DUP4 PUSH2 0x1D82 JUMP JUMPDEST DUP1 PUSH1 0x0 JUMPDEST DUP4 DUP2 LT ISZERO PUSH2 0x1E17 JUMPI DUP2 MLOAD PUSH2 0x1DFE DUP9 DUP3 PUSH2 0x1DA1 JUMP JUMPDEST SWAP8 POP PUSH2 0x1E09 DUP4 PUSH2 0x1DB9 JUMP JUMPDEST SWAP3 POP POP PUSH1 0x1 DUP2 ADD SWAP1 POP PUSH2 0x1DEA JUMP JUMPDEST POP DUP6 SWAP4 POP POP POP POP SWAP3 SWAP2 POP POP JUMP JUMPDEST PUSH1 0x0 PUSH1 0xE0 DUP3 ADD SWAP1 POP DUP2 DUP2 SUB PUSH1 0x0 DUP4 ADD MSTORE PUSH2 0x1E3E DUP2 DUP11 PUSH2 0x1D1E JUMP JUMPDEST SWAP1 POP DUP2 DUP2 SUB PUSH1 0x20 DUP4 ADD MSTORE PUSH2 0x1E52 DUP2 DUP10 PUSH2 0x1D1E JUMP JUMPDEST SWAP1 POP PUSH2 0x1E61 PUSH1 0x40 DUP4 ADD DUP9 PUSH2 0x1D57 JUMP JUMPDEST PUSH2 0x1E6E PUSH1 0x60 DUP4 ADD DUP8 PUSH2 0x1BFF JUMP JUMPDEST PUSH2 0x1E7B PUSH1 0x80 DUP4 ADD DUP7 PUSH2 0x1BFF JUMP JUMPDEST PUSH2 0x1E88 PUSH1 0xA0 DUP4 ADD DUP6 PUSH2 0x1BFF JUMP JUMPDEST DUP2 DUP2 SUB PUSH1 0xC0 DUP4 ADD MSTORE PUSH2 0x1E9A DUP2 DUP5 PUSH2 0x1DC6 JUMP JUMPDEST SWAP1 POP SWAP9 SWAP8 POP POP POP POP POP POP POP POP JUMP JUMPDEST PUSH1 0x0 DUP2 ISZERO ISZERO SWAP1 POP SWAP2 SWAP1 POP JUMP JUMPDEST PUSH2 0x1EBD DUP2 PUSH2 0x1EA8 JUMP JUMPDEST DUP3 MSTORE POP POP JUMP JUMPDEST PUSH1 0x0 PUSH2 0x100 DUP3 ADD SWAP1 POP DUP2 DUP2 SUB PUSH1 0x0 DUP4 ADD MSTORE PUSH2 0x1EDE DUP2 DUP12 PUSH2 0x1D1E JUMP JUMPDEST SWAP1 POP DUP2 DUP2 SUB PUSH1 0x20 DUP4 ADD MSTORE PUSH2 0x1EF2 DUP2 DUP11 PUSH2 0x1D1E JUMP JUMPDEST SWAP1 POP PUSH2 0x1F01 PUSH1 0x40 DUP4 ADD DUP10 PUSH2 0x1D57 JUMP JUMPDEST PUSH2 0x1F0E PUSH1 0x60 DUP4 ADD DUP9 PUSH2 0x1BFF JUMP JUMPDEST PUSH2 0x1F1B PUSH1 0x80 DUP4 ADD DUP8 PUSH2 0x1BFF JUMP JUMPDEST PUSH2 0x1F28 PUSH1 0xA0 DUP4 ADD DUP7 PUSH2 0x1BFF JUMP JUMPDEST PUSH2 0x1F35 PUSH1 0xC0 DUP4 ADD DUP6 PUSH2 0x1EB4 JUMP JUMPDEST DUP2 DUP2 SUB PUSH1 0xE0 DUP4 ADD MSTORE PUSH2 0x1F47 DUP2 DUP5 PUSH2 0x1D1E JUMP JUMPDEST SWAP1 POP SWAP10 SWAP9 POP POP POP POP POP POP POP POP POP JUMP JUMPDEST PUSH32 0x4E487B7100000000000000000000000000000000000000000000000000000000 PUSH1 0x0 MSTORE PUSH1 0x22 PUSH1 0x4 MSTORE PUSH1 0x24 PUSH1 0x0 REVERT JUMPDEST PUSH1 0x0 PUSH1 0x2 DUP3 DIV SWAP1 POP PUSH1 0x1 DUP3 AND DUP1 PUSH2 0x1F9D JUMPI PUSH1 0x7F DUP3 AND SWAP2 POP JUMPDEST PUSH1 0x20 DUP3 LT DUP2 SUB PUSH2 0x1FB0 JUMPI PUSH2 0x1FAF PUSH2 0x1F56 JUMP JUMPDEST JUMPDEST POP SWAP2 SWAP1 POP JUMP JUMPDEST PUSH32 0x414C524541445920504149440000000000000000000000000000000000000000 PUSH1 0x0 DUP3 ADD MSTORE POP JUMP JUMPDEST PUSH1 0x0 PUSH2 0x1FEC PUSH1 0xC DUP4 PUSH2 0x1CD2 JUMP JUMPDEST SWAP2 POP PUSH2 0x1FF7 DUP3 PUSH2 0x1FB6 JUMP JUMPDEST PUSH1 0x20 DUP3 ADD SWAP1 POP SWAP2 SWAP1 POP JUMP JUMPDEST PUSH1 0x0 PUSH1 0x20 DUP3 ADD SWAP1 POP DUP2 DUP2 SUB PUSH1 0x0 DUP4 ADD MSTORE PUSH2 0x201B DUP2 PUSH2 0x1FDF JUMP JUMPDEST SWAP1 POP SWAP2 SWAP1 POP JUMP JUMPDEST PUSH32 0x4E487B7100000000000000000000000000000000000000000000000000000000 PUSH1 0x0 MSTORE PUSH1 0x11 PUSH1 0x4 MSTORE PUSH1 0x24 PUSH1 0x0 REVERT JUMPDEST PUSH1 0x0 PUSH2 0x205C DUP3 PUSH2 0x1A48 JUMP JUMPDEST SWAP2 POP PUSH2 0x2067 DUP4 PUSH2 0x1A48 JUMP JUMPDEST SWAP3 POP DUP3 DUP3 ADD SWAP1 POP DUP1 DUP3 GT ISZERO PUSH2 0x207F JUMPI PUSH2 0x207E PUSH2 0x2022 JUMP JUMPDEST JUMPDEST SWAP3 SWAP2 POP POP JUMP JUMPDEST PUSH32 0x544F4F204541524C590000000000000000000000000000000000000000000000 PUSH1 0x0 DUP3 ADD MSTORE POP JUMP JUMPDEST PUSH1 0x0 PUSH2 0x20BB PUSH1 0x9 DUP4 PUSH2 0x1CD2 JUMP JUMPDEST SWAP2 POP PUSH2 0x20C6 DUP3 PUSH2 0x2085 JUMP JUMPDEST PUSH1 0x20 DUP3 ADD SWAP1 POP SWAP2 SWAP1 POP JUMP JUMPDEST PUSH1 0x0 PUSH1 0x20 DUP3 ADD SWAP1 POP DUP2 DUP2 SUB PUSH1 0x0 DUP4 ADD MSTORE PUSH2 0x20EA DUP2 PUSH2 0x20AE JUMP JUMPDEST SWAP1 POP SWAP2 SWAP1 POP JUMP JUMPDEST PUSH32 0x4D555354204245204556454E54204F574E455200000000000000000000000000 PUSH1 0x0 DUP3 ADD MSTORE POP JUMP JUMPDEST PUSH1 0x0 PUSH2 0x2127 PUSH1 0x13 DUP4 PUSH2 0x1CD2 JUMP JUMPDEST SWAP2 POP PUSH2 0x2132 DUP3 PUSH2 0x20F1 JUMP JUMPDEST PUSH1 0x20 DUP3 ADD SWAP1 POP SWAP2 SWAP1 POP JUMP JUMPDEST PUSH1 0x0 PUSH1 0x20 DUP3 ADD SWAP1 POP DUP2 DUP2 SUB PUSH1 0x0 DUP4 ADD MSTORE PUSH2 0x2156 DUP2 PUSH2 0x211A JUMP JUMPDEST SWAP1 POP SWAP2 SWAP1 POP JUMP JUMPDEST PUSH1 0x0 PUSH2 0x2168 DUP3 PUSH2 0x1A48 JUMP JUMPDEST SWAP2 POP PUSH2 0x2173 DUP4 PUSH2 0x1A48 JUMP JUMPDEST SWAP3 POP DUP3 DUP3 SUB SWAP1 POP DUP2 DUP2 GT ISZERO PUSH2 0x218B JUMPI PUSH2 0x218A PUSH2 0x2022 JUMP JUMPDEST JUMPDEST SWAP3 SWAP2 POP POP JUMP JUMPDEST PUSH1 0x0 PUSH2 0x219C DUP3 PUSH2 0x1A48 JUMP JUMPDEST SWAP2 POP PUSH2 0x21A7 DUP4 PUSH2 0x1A48 JUMP JUMPDEST SWAP3 POP DUP3 DUP3 MUL PUSH2 0x21B5 DUP2 PUSH2 0x1A48 JUMP JUMPDEST SWAP2 POP DUP3 DUP3 DIV DUP5 EQ DUP4 ISZERO OR PUSH2 0x21CC JUMPI PUSH2 0x21CB PUSH2 0x2022 JUMP JUMPDEST JUMPDEST POP SWAP3 SWAP2 POP POP JUMP JUMPDEST PUSH1 0x0 DUP2 SWAP1 POP SWAP3 SWAP2 POP POP JUMP JUMPDEST POP JUMP JUMPDEST PUSH1 0x0 PUSH2 0x21EE PUSH1 0x0 DUP4 PUSH2 0x21D3 JUMP JUMPDEST SWAP2 POP PUSH2 0x21F9 DUP3 PUSH2 0x21DE JUMP JUMPDEST PUSH1 0x0 DUP3 ADD SWAP1 POP SWAP2 SWAP1 POP JUMP JUMPDEST PUSH1 0x0 PUSH2 0x220F DUP3 PUSH2 0x21E1 JUMP JUMPDEST SWAP2 POP DUP2 SWAP1 POP SWAP2 SWAP1 POP JUMP JUMPDEST PUSH32 0x4661696C656420746F2073656E64204574686572000000000000000000000000 PUSH1 0x0 DUP3 ADD MSTORE POP JUMP JUMPDEST PUSH1 0x0 PUSH2 0x224F PUSH1 0x14 DUP4 PUSH2 0x1CD2 JUMP JUMPDEST SWAP2 POP PUSH2 0x225A DUP3 PUSH2 0x2219 JUMP JUMPDEST PUSH1 0x20 DUP3 ADD SWAP1 POP SWAP2 SWAP1 POP JUMP JUMPDEST PUSH1 0x0 PUSH1 0x20 DUP3 ADD SWAP1 POP DUP2 DUP2 SUB PUSH1 0x0 DUP4 ADD MSTORE PUSH2 0x227E DUP2 PUSH2 0x2242 JUMP JUMPDEST SWAP1 POP SWAP2 SWAP1 POP JUMP JUMPDEST PUSH32 0x4E487B7100000000000000000000000000000000000000000000000000000000 PUSH1 0x0 MSTORE PUSH1 0x41 PUSH1 0x4 MSTORE PUSH1 0x24 PUSH1 0x0 REVERT JUMPDEST PUSH1 0x0 DUP2 SWAP1 POP DUP2 PUSH1 0x0 MSTORE PUSH1 0x20 PUSH1 0x0 KECCAK256 SWAP1 POP SWAP2 SWAP1 POP JUMP JUMPDEST PUSH1 0x0 PUSH1 0x20 PUSH1 0x1F DUP4 ADD DIV SWAP1 POP SWAP2 SWAP1 POP JUMP JUMPDEST PUSH1 0x0 DUP3 DUP3 SHL SWAP1 POP SWAP3 SWAP2 POP POP JUMP JUMPDEST PUSH1 0x0 PUSH1 0x8 DUP4 MUL PUSH2 0x2316 PUSH32 0xFFFFFFFFFFFFFFFFFFFFFFFFFFFFFFFFFFFFFFFFFFFFFFFFFFFFFFFFFFFFFFFF DUP3 PUSH2 0x22D9 JUMP JUMPDEST PUSH2 0x2320 DUP7 DUP4 PUSH2 0x22D9 JUMP JUMPDEST SWAP6 POP DUP1 NOT DUP5 AND SWAP4 POP DUP1 DUP7 AND DUP5 OR SWAP3 POP POP POP SWAP4 SWAP3 POP POP POP JUMP JUMPDEST PUSH1 0x0 DUP2 SWAP1 POP SWAP2 SWAP1 POP JUMP JUMPDEST PUSH1 0x0 PUSH2 0x235D PUSH2 0x2358 PUSH2 0x2353 DUP5 PUSH2 0x1A48 JUMP JUMPDEST PUSH2 0x2338 JUMP JUMPDEST PUSH2 0x1A48 JUMP JUMPDEST SWAP1 POP SWAP2 SWAP1 POP JUMP JUMPDEST PUSH1 0x0 DUP2 SWAP1 POP SWAP2 SWAP1 POP JUMP JUMPDEST PUSH2 0x2377 DUP4 PUSH2 0x2342 JUMP JUMPDEST PUSH2 0x238B PUSH2 0x2383 DUP3 PUSH2 0x2364 JUMP JUMPDEST DUP5 DUP5 SLOAD PUSH2 0x22E6 JUMP JUMPDEST DUP3 SSTORE POP POP POP POP JUMP JUMPDEST PUSH1 0x0 SWAP1 JUMP JUMPDEST PUSH2 0x23A0 PUSH2 0x2393 JUMP JUMPDEST PUSH2 0x23AB DUP2 DUP5 DUP5 PUSH2 0x236E JUMP JUMPDEST POP POP POP JUMP JUMPDEST JUMPDEST DUP2 DUP2 LT ISZERO PUSH2 0x23CF JUMPI PUSH2 0x23C4 PUSH1 0x0 DUP3 PUSH2 0x2398 JUMP JUMPDEST PUSH1 0x1 DUP2 ADD SWAP1 POP PUSH2 0x23B1 JUMP JUMPDEST POP POP JUMP JUMPDEST PUSH1 0x1F DUP3 GT ISZERO PUSH2 0x2414 JUMPI PUSH2 0x23E5 DUP2 PUSH2 0x22B4 JUMP JUMPDEST PUSH2 0x23EE DUP5 PUSH2 0x22C9 JUMP JUMPDEST DUP2 ADD PUSH1 0x20 DUP6 LT ISZERO PUSH2 0x23FD JUMPI DUP2 SWAP1 POP JUMPDEST PUSH2 0x2411 PUSH2 0x2409 DUP6 PUSH2 0x22C9 JUMP JUMPDEST DUP4 ADD DUP3 PUSH2 0x23B0 JUMP JUMPDEST POP POP JUMPDEST POP POP POP JUMP JUMPDEST PUSH1 0x0 DUP3 DUP3 SHR SWAP1 POP SWAP3 SWAP2 POP POP JUMP JUMPDEST PUSH1 0x0 PUSH2 0x2437 PUSH1 0x0 NOT DUP5 PUSH1 0x8 MUL PUSH2 0x2419 JUMP JUMPDEST NOT DUP1 DUP4 AND SWAP2 POP POP SWAP3 SWAP2 POP POP JUMP JUMPDEST PUSH1 0x0 PUSH2 0x2450 DUP4 DUP4 PUSH2 0x2426 JUMP JUMPDEST SWAP2 POP DUP3 PUSH1 0x2 MUL DUP3 OR SWAP1 POP SWAP3 SWAP2 POP POP JUMP JUMPDEST PUSH2 0x2469 DUP3 PUSH2 0x1CC7 JUMP JUMPDEST PUSH8 0xFFFFFFFFFFFFFFFF DUP2 GT ISZERO PUSH2 0x2482 JUMPI PUSH2 0x2481 PUSH2 0x2285 JUMP JUMPDEST JUMPDEST PUSH2 0x248C DUP3 SLOAD PUSH2 0x1F85 JUMP JUMPDEST PUSH2 0x2497 DUP3 DUP3 DUP6 PUSH2 0x23D3 JUMP JUMPDEST PUSH1 0x0 PUSH1 0x20 SWAP1 POP PUSH1 0x1F DUP4 GT PUSH1 0x1 DUP2 EQ PUSH2 0x24CA JUMPI PUSH1 0x0 DUP5 ISZERO PUSH2 0x24B8 JUMPI DUP3 DUP8 ADD MLOAD SWAP1 POP JUMPDEST PUSH2 0x24C2 DUP6 DUP3 PUSH2 0x2444 JUMP JUMPDEST DUP7 SSTORE POP PUSH2 0x252A JUMP JUMPDEST PUSH1 0x1F NOT DUP5 AND PUSH2 0x24D8 DUP7 PUSH2 0x22B4 JUMP JUMPDEST PUSH1 0x0 JUMPDEST DUP3 DUP2 LT ISZERO PUSH2 0x2500 JUMPI DUP5 DUP10 ADD MLOAD DUP3 SSTORE PUSH1 0x1 DUP3 ADD SWAP2 POP PUSH1 0x20 DUP6 ADD SWAP5 POP PUSH1 0x20 DUP2 ADD SWAP1 POP PUSH2 0x24DB JUMP JUMPDEST DUP7 DUP4 LT ISZERO PUSH2 0x251D JUMPI DUP5 DUP10 ADD MLOAD PUSH2 0x2519 PUSH1 0x1F DUP10 AND DUP3 PUSH2 0x2426 JUMP JUMPDEST DUP4 SSTORE POP JUMPDEST PUSH1 0x1 PUSH1 0x2 DUP9 MUL ADD DUP9 SSTORE POP POP POP JUMPDEST POP POP POP POP POP POP JUMP JUMPDEST DUP3 DUP2 DUP4 CALLDATACOPY PUSH1 0x0 DUP4 DUP4 ADD MSTORE POP POP POP JUMP JUMPDEST PUSH1 0x0 PUSH2 0x254D DUP4 DUP6 PUSH2 0x1CD2 JUMP JUMPDEST SWAP4 POP PUSH2 0x255A DUP4 DUP6 DUP5 PUSH2 0x2532 JUMP JUMPDEST PUSH2 0x2563 DUP4 PUSH2 0x1D0D JUMP JUMPDEST DUP5 ADD SWAP1 POP SWAP4 SWAP3 POP POP POP JUMP JUMPDEST PUSH1 0x0 PUSH1 0xC0 DUP3 ADD SWAP1 POP PUSH2 0x2583 PUSH1 0x0 DUP4 ADD DUP11 PUSH2 0x1BFF JUMP JUMPDEST PUSH2 0x2590 PUSH1 0x20 DUP4 ADD DUP10 PUSH2 0x1D57 JUMP JUMPDEST PUSH2 0x259D PUSH1 0x40 DUP4 ADD DUP9 PUSH2 0x1BFF JUMP JUMPDEST PUSH2 0x25AA PUSH1 0x60 DUP4 ADD DUP8 PUSH2 0x1BFF JUMP JUMPDEST PUSH2 0x25B7 PUSH1 0x80 DUP4 ADD DUP7 PUSH2 0x1BFF JUMP JUMPDEST DUP2 DUP2 SUB PUSH1 0xA0 DUP4 ADD MSTORE PUSH2 0x25CA DUP2 DUP5 DUP7 PUSH2 0x2541 JUMP JUMPDEST SWAP1 POP SWAP9 SWAP8 POP POP POP POP POP POP POP POP JUMP JUMPDEST PUSH1 0x0 PUSH2 0x25E3 DUP3 PUSH2 0x1A48 JUMP JUMPDEST SWAP2 POP PUSH32 0xFFFFFFFFFFFFFFFFFFFFFFFFFFFFFFFFFFFFFFFFFFFFFFFFFFFFFFFFFFFFFFFF DUP3 SUB PUSH2 0x2615 JUMPI PUSH2 0x2614 PUSH2 0x2022 JUMP JUMPDEST JUMPDEST PUSH1 0x1 DUP3 ADD SWAP1 POP SWAP2 SWAP1 POP JUMP JUMPDEST PUSH32 0x4E487B7100000000000000000000000000000000000000000000000000000000 PUSH1 0x0 MSTORE PUSH1 0x32 PUSH1 0x4 MSTORE PUSH1 0x24 PUSH1 0x0 REVERT JUMPDEST PUSH1 0x0 PUSH1 0xFF DUP3 AND SWAP1 POP SWAP2 SWAP1 POP JUMP JUMPDEST PUSH1 0x0 PUSH2 0x2667 DUP3 PUSH2 0x264F JUMP JUMPDEST SWAP2 POP PUSH1 0xFF DUP3 SUB PUSH2 0x267A JUMPI PUSH2 0x2679 PUSH2 0x2022 JUMP JUMPDEST JUMPDEST PUSH1 0x1 DUP3 ADD SWAP1 POP SWAP2 SWAP1 POP JUMP JUMPDEST PUSH1 0x0 DUP2 MLOAD SWAP1 POP SWAP2 SWAP1 POP JUMP JUMPDEST PUSH1 0x0 DUP3 DUP3 MSTORE PUSH1 0x20 DUP3 ADD SWAP1 POP SWAP3 SWAP2 POP POP JUMP JUMPDEST PUSH1 0x0 DUP2 SWAP1 POP PUSH1 0x20 DUP3 ADD SWAP1 POP SWAP2 SWAP1 POP JUMP JUMPDEST PUSH1 0x0 DUP3 DUP3 MSTORE PUSH1 0x20 DUP3 ADD SWAP1 POP SWAP3 SWAP2 POP POP JUMP JUMPDEST PUSH1 0x0 PUSH2 0x26CD DUP3 PUSH2 0x1CC7 JUMP JUMPDEST PUSH2 0x26D7 DUP2 DUP6 PUSH2 0x26B1 JUMP JUMPDEST SWAP4 POP PUSH2 0x26E7 DUP2 DUP6 PUSH1 0x20 DUP7 ADD PUSH2 0x1CE3 JUMP JUMPDEST PUSH2 0x26F0 DUP2 PUSH2 0x1D0D JUMP JUMPDEST DUP5 ADD SWAP2 POP POP SWAP3 SWAP2 POP POP JUMP JUMPDEST PUSH1 0x0 PUSH2 0x2707 DUP4 DUP4 PUSH2 0x26C2 JUMP JUMPDEST SWAP1 POP SWAP3 SWAP2 POP POP JUMP JUMPDEST PUSH1 0x0 PUSH1 0x20 DUP3 ADD SWAP1 POP SWAP2 SWAP1 POP JUMP JUMPDEST PUSH1 0x0 PUSH2 0x2727 DUP3 PUSH2 0x2685 JUMP JUMPDEST PUSH2 0x2731 DUP2 DUP6 PUSH2 0x2690 JUMP JUMPDEST SWAP4 POP DUP4 PUSH1 0x20 DUP3 MUL DUP6 ADD PUSH2 0x2743 DUP6 PUSH2 0x26A1 JUMP JUMPDEST DUP1 PUSH1 0x0 JUMPDEST DUP6 DUP2 LT ISZERO PUSH2 0x277F JUMPI DUP5 DUP5 SUB DUP10 MSTORE DUP2 MLOAD PUSH2 0x2760 DUP6 DUP3 PUSH2 0x26FB JUMP JUMPDEST SWAP5 POP PUSH2 0x276B DUP4 PUSH2 0x270F JUMP JUMPDEST SWAP3 POP PUSH1 0x20 DUP11 ADD SWAP10 POP POP PUSH1 0x1 DUP2 ADD SWAP1 POP PUSH2 0x2747 JUMP JUMPDEST POP DUP3 SWAP8 POP DUP8 SWAP6 POP POP POP POP POP POP SWAP3 SWAP2 POP POP JUMP JUMPDEST PUSH1 0x0 PUSH1 0x20 DUP3 ADD SWAP1 POP DUP2 DUP2 SUB PUSH1 0x0 DUP4 ADD MSTORE PUSH2 0x27AB DUP2 DUP5 PUSH2 0x271C JUMP JUMPDEST SWAP1 POP SWAP3 SWAP2 POP POP JUMP JUMPDEST PUSH32 0x4E4F205253565020544F20434F4E4649524D0000000000000000000000000000 PUSH1 0x0 DUP3 ADD MSTORE POP JUMP JUMPDEST PUSH1 0x0 PUSH2 0x27E9 PUSH1 0x12 DUP4 PUSH2 0x1CD2 JUMP JUMPDEST SWAP2 POP PUSH2 0x27F4 DUP3 PUSH2 0x27B3 JUMP JUMPDEST PUSH1 0x20 DUP3 ADD SWAP1 POP SWAP2 SWAP1 POP JUMP JUMPDEST PUSH1 0x0 PUSH1 0x20 DUP3 ADD SWAP1 POP DUP2 DUP2 SUB PUSH1 0x0 DUP4 ADD MSTORE PUSH2 0x2818 DUP2 PUSH2 0x27DC JUMP JUMPDEST SWAP1 POP SWAP2 SWAP1 POP JUMP JUMPDEST PUSH32 0x4E487B7100000000000000000000000000000000000000000000000000000000 PUSH1 0x0 MSTORE PUSH1 0x31 PUSH1 0x4 MSTORE PUSH1 0x24 PUSH1 0x0 REVERT JUMPDEST PUSH1 0x0 PUSH1 0x40 DUP3 ADD SWAP1 POP PUSH2 0x2863 PUSH1 0x0 DUP4 ADD DUP6 PUSH2 0x1BFF JUMP JUMPDEST PUSH2 0x2870 PUSH1 0x20 DUP4 ADD DUP5 PUSH2 0x1D57 JUMP JUMPDEST SWAP4 SWAP3 POP POP POP JUMP JUMPDEST PUSH32 0x4E4F5420454E4F55474800000000000000000000000000000000000000000000 PUSH1 0x0 DUP3 ADD MSTORE POP JUMP JUMPDEST PUSH1 0x0 PUSH2 0x28AD PUSH1 0xA DUP4 PUSH2 0x1CD2 JUMP JUMPDEST SWAP2 POP PUSH2 0x28B8 DUP3 PUSH2 0x2877 JUMP JUMPDEST PUSH1 0x20 DUP3 ADD SWAP1 POP SWAP2 SWAP1 POP JUMP JUMPDEST PUSH1 0x0 PUSH1 0x20 DUP3 ADD SWAP1 POP DUP2 DUP2 SUB PUSH1 0x0 DUP4 ADD MSTORE PUSH2 0x28DC DUP2 PUSH2 0x28A0 JUMP JUMPDEST SWAP1 POP SWAP2 SWAP1 POP JUMP JUMPDEST PUSH32 0x414C52454144592048415050454E454400000000000000000000000000000000 PUSH1 0x0 DUP3 ADD MSTORE POP JUMP JUMPDEST PUSH1 0x0 PUSH2 0x2919 PUSH1 0x10 DUP4 PUSH2 0x1CD2 JUMP JUMPDEST SWAP2 POP PUSH2 0x2924 DUP3 PUSH2 0x28E3 JUMP JUMPDEST PUSH1 0x20 DUP3 ADD SWAP1 POP SWAP2 SWAP1 POP JUMP JUMPDEST PUSH1 0x0 PUSH1 0x20 DUP3 ADD SWAP1 POP DUP2 DUP2 SUB PUSH1 0x0 DUP4 ADD MSTORE PUSH2 0x2948 DUP2 PUSH2 0x290C JUMP JUMPDEST SWAP1 POP SWAP2 SWAP1 POP JUMP JUMPDEST PUSH32 0x54686973206576656E7420686173207265616368656420636170616369747900 PUSH1 0x0 DUP3 ADD MSTORE POP JUMP JUMPDEST PUSH1 0x0 PUSH2 0x2985 PUSH1 0x1F DUP4 PUSH2 0x1CD2 JUMP JUMPDEST SWAP2 POP PUSH2 0x2990 DUP3 PUSH2 0x294F JUMP JUMPDEST PUSH1 0x20 DUP3 ADD SWAP1 POP SWAP2 SWAP1 POP JUMP JUMPDEST PUSH1 0x0 PUSH1 0x20 DUP3 ADD SWAP1 POP DUP2 DUP2 SUB PUSH1 0x0 DUP4 ADD MSTORE PUSH2 0x29B4 DUP2 PUSH2 0x2978 JUMP JUMPDEST SWAP1 POP SWAP2 SWAP1 POP JUMP JUMPDEST PUSH32 0x414C524541445920434F4E4649524D4544000000000000000000000000000000 PUSH1 0x0 DUP3 ADD MSTORE POP JUMP JUMPDEST PUSH1 0x0 PUSH2 0x29F1 PUSH1 0x11 DUP4 PUSH2 0x1CD2 JUMP JUMPDEST SWAP2 POP PUSH2 0x29FC DUP3 PUSH2 0x29BB JUMP JUMPDEST PUSH1 0x20 DUP3 ADD SWAP1 POP SWAP2 SWAP1 POP JUMP JUMPDEST PUSH1 0x0 PUSH1 0x20 DUP3 ADD SWAP1 POP DUP2 DUP2 SUB PUSH1 0x0 DUP4 ADD MSTORE PUSH2 0x2A20 DUP2 PUSH2 0x29E4 JUMP JUMPDEST SWAP1 POP SWAP2 SWAP1 POP JUMP INVALID LOG2 PUSH5 0x6970667358 0x22 SLT KECCAK256 CALL MULMOD LOG3 DUP8 SHL ADDRESS SWAP10 0xCF SWAP9 0xCE EXP 0xD4 0xEE CALLCODE DUP3 PUSH21 0xFDA24CBFAC5DF9BFEE48C55FB166E13564736F6C63 NUMBER STOP ADDMOD SGT STOP CALLER "},"methodIdentifiers":{"confirmAllAttendees()":"4bbbeb49","confirmAttendee(uint256,address)":"6acb5dd3","createNewEvent(string,uint256,uint256,uint256,string,string)":"289b9b8b","createNewRSVP(uint256)":"ada06a3b","getContractBalance()":"6f9fb98a","getEvent(uint256)":"6d1884e0","getEventId(uint256)":"c3be559b","getEventLength()":"5c98dfa1","idToEvent(uint256)":"d46bae4b","totalEvents()":"ba870686","withdrawUnclaimedDeposits(uint256)":"127d17ab"}}}}}