{"contracts/EventHub.sol":{"EventHub":{"abi":[{"anonymous":false,"inputs":[{"indexed":false,"internalType":"uint256","name":"eventID","type":"uint256"},{"indexed":false,"internalType":"address","name":"attendeeAddress","type":"address"}],"name":"ConfirmedAttendee","type":"event"},{"anonymous":false,"inputs":[{"indexed":false,"internalType":"uint256","name":"eventID","type":"uint256"}],"name":"DepositsPaidOut","type":"event"},{"anonymous":false,"inputs":[{"indexed":false,"internalType":"uint256","name":"eventID","type":"uint256"},{"indexed":false,"internalType":"address","name":"creatorAddress","type":"address"},{"indexed":false,"internalType":"uint256","name":"eventTimestamp","type":"uint256"},{"indexed":false,"internalType":"uint256","name":"maxCapacity","type":"uint256"},{"indexed":false,"internalType":"uint256","name":"deposit","type":"uint256"},{"indexed":false,"internalType":"string","name":"imagePath","type":"string"}],"name":"NewEventCreated","type":"event"},{"anonymous":false,"inputs":[{"indexed":false,"internalType":"uint256","name":"eventID","type":"uint256"},{"indexed":false,"internalType":"address","name":"attendeeAddress","type":"address"}],"name":"NewRSVP","type":"event"},{"anonymous":false,"inputs":[{"indexed":false,"internalType":"string[]","name":"phones","type":"string[]"}],"name":"Phones","type":"event"},{"inputs":[],"name":"confirmAllAttendees","outputs":[],"stateMutability":"nonpayable","type":"function"},{"inputs":[{"internalType":"uint256","name":"eventId","type":"uint256"},{"internalType":"address","name":"attendee","type":"address"}],"name":"confirmAttendee","outputs":[],"stateMutability":"nonpayable","type":"function"},{"inputs":[{"internalType":"string","name":"title","type":"string"},{"internalType":"uint256","name":"eventTimestamp","type":"uint256"},{"internalType":"uint256","name":"deposit","type":"uint256"},{"internalType":"uint256","name":"maxCapacity","type":"uint256"},{"internalType":"string","name":"imagePath","type":"string"},{"internalType":"string","name":"phone","type":"string"}],"name":"createNewEvent","outputs":[{"internalType":"uint256","name":"","type":"uint256"}],"stateMutability":"payable","type":"function"},{"inputs":[{"internalType":"uint256","name":"eventId","type":"uint256"}],"name":"createNewRSVP","outputs":[],"stateMutability":"payable","type":"function"},{"inputs":[],"name":"getContractBalance","outputs":[{"internalType":"uint256","name":"","type":"uint256"}],"stateMutability":"view","type":"function"},{"inputs":[{"internalType":"uint256","name":"eventID","type":"uint256"}],"name":"getEvent","outputs":[{"internalType":"string","name":"title","type":"string"},{"internalType":"string","name":"imagePath","type":"string"},{"internalType":"address","name":"eventOwner","type":"address"},{"internalType":"uint256","name":"eventTimestamp","type":"uint256"},{"internalType":"uint256","name":"maxCapacity","type":"uint256"},{"internalType":"uint256","name":"deposit","type":"uint256"},{"internalType":"address[]","name":"confirmedRSVPs","type":"address[]"}],"stateMutability":"view","type":"function"},{"inputs":[{"internalType":"uint256","name":"i","type":"uint256"}],"name":"getEventId","outputs":[{"internalType":"uint256","name":"","type":"uint256"}],"stateMutability":"view","type":"function"},{"inputs":[],"name":"getEventLength","outputs":[{"internalType":"uint256","name":"","type":"uint256"}],"stateMutability":"view","type":"function"},{"inputs":[{"internalType":"uint256","name":"","type":"uint256"}],"name":"idToEvent","outputs":[{"internalType":"string","name":"title","type":"string"},{"internalType":"string","name":"imagePath","type":"string"},{"internalType":"address","name":"eventOwner","type":"address"},{"internalType":"uint256","name":"eventTimestamp","type":"uint256"},{"internalType":"uint256","name":"deposit","type":"uint256"},{"internalType":"uint256","name":"maxCapacity","type":"uint256"},{"internalType":"bool","name":"paidOut","type":"bool"},{"internalType":"string","name":"phone","type":"string"}],"stateMutability":"view","type":"function"},{"inputs":[],"name":"totalEvents","outputs":[{"internalType":"uint256","name":"","type":"uint256"}],"stateMutability":"view","type":"function"},{"inputs":[{"internalType":"uint256","name":"eventId","type":"uint256"}],"name":"withdrawUnclaimedDeposits","outputs":[],"stateMutability":"nonpayable","type":"function"}],"evm":{"bytecode":{"linkReferences":{},"object":"608060405234801561001057600080fd5b50612e3f806100206000396000f3fe60806040526004361061009c5760003560e01c80636d1884e0116100645780636d1884e0146101655780636f9fb98a146101a8578063ada06a3b146101d3578063ba870686146101ef578063c3be559b1461021a578063d46bae4b146102575761009c565b8063127d17ab146100a1578063289b9b8b146100ca5780634bbbeb49146100fa5780635c98dfa1146101115780636acb5dd31461013c575b600080fd5b3480156100ad57600080fd5b506100c860048036038101906100c39190611c65565b61029b565b005b6100e460048036038101906100df9190611cf7565b61086c565b6040516100f19190611df5565b60405180910390f35b34801561010657600080fd5b5061010f610b51565b005b34801561011d57600080fd5b50610126610da0565b6040516101339190611df5565b60405180910390f35b34801561014857600080fd5b50610163600480360381019061015e9190611e6e565b610dad565b005b34801561017157600080fd5b5061018c60048036038101906101879190611c65565b6110de565b60405161019f979695949392919061200b565b60405180910390f35b3480156101b457600080fd5b506101bd611360565b6040516101ca9190611df5565b60405180910390f35b6101ed60048036038101906101e89190611c65565b611368565b005b3480156101fb57600080fd5b506102046115d5565b6040516102119190611df5565b60405180910390f35b34801561022657600080fd5b50610241600480360381019061023c9190611c65565b6115db565b60405161024e9190611df5565b60405180910390f35b34801561026357600080fd5b5061027e60048036038101906102799190611c65565b611603565b6040516102929897969594939291906120aa565b60405180910390f35b600060026000838152602001908152602001600020604051806101400160405290816000820180546102cc9061216c565b80601f01602080910402602001604051908101604052809291908181526020018280546102f89061216c565b80156103455780601f1061031a57610100808354040283529160200191610345565b820191906000526020600020905b81548152906001019060200180831161032857829003601f168201915b5050505050815260200160018201805461035e9061216c565b80601f016020809104026020016040519081016040528092919081815260200182805461038a9061216c565b80156103d75780601f106103ac576101008083540402835291602001916103d7565b820191906000526020600020905b8154815290600101906020018083116103ba57829003601f168201915b505050505081526020016002820160009054906101000a900473ffffffffffffffffffffffffffffffffffffffff1673ffffffffffffffffffffffffffffffffffffffff1673ffffffffffffffffffffffffffffffffffffffff168152602001600382015481526020016004820154815260200160058201548152602001600682018054806020026020016040519081016040528092919081815260200182805480156104d957602002820191906000526020600020905b8160009054906101000a900473ffffffffffffffffffffffffffffffffffffffff1673ffffffffffffffffffffffffffffffffffffffff168152602001906001019080831161048f575b505050505081526020016007820180548060200260200160405190810160405280929190818152602001828054801561056757602002820191906000526020600020905b8160009054906101000a900473ffffffffffffffffffffffffffffffffffffffff1673ffffffffffffffffffffffffffffffffffffffff168152602001906001019080831161051d575b505050505081526020016008820160009054906101000a900460ff1615151515815260200160098201805461059b9061216c565b80601f01602080910402602001604051908101604052809291908181526020018280546105c79061216c565b80156106145780601f106105e957610100808354040283529160200191610614565b820191906000526020600020905b8154815290600101906020018083116105f757829003601f168201915b505050505081525050905080610100015115610665576040517f08c379a000000000000000000000000000000000000000000000000000000000815260040161065c906121e9565b60405180910390fd5b607881606001516106769190612238565b4210156106b8576040517f08c379a00000000000000000000000000000000000000000000000000000000081526004016106af906122b8565b60405180910390fd5b806040015173ffffffffffffffffffffffffffffffffffffffff163373ffffffffffffffffffffffffffffffffffffffff161461072a576040517f08c379a000000000000000000000000000000000000000000000000000000000815260040161072190612324565b60405180910390fd5b60008160e00151518260c00151516107429190612344565b905060008260800151826107569190612378565b905060018361010001901515908115158152505060003373ffffffffffffffffffffffffffffffffffffffff1682604051610790906123eb565b60006040518083038185875af1925050503d80600081146107cd576040519150601f19603f3d011682016040523d82523d6000602084013e6107d2565b606091505b50509050806107ee576000846101000190151590811515815250505b8061082e576040517f08c379a00000000000000000000000000000000000000000000000000000000081526004016108259061244c565b60405180910390fd5b7f0308e7ef5ff7ae64ed45c37a04775b24be0bfbc4cb5f5c3e6b0aa505d006eafc8560405161085d9190611df5565b60405180910390a15050505050565b60008060005490506060806040518061014001604052808e8e8080601f016020809104026020016040519081016040528093929190818152602001838380828437600081840152601f19601f82011690508083019250505050505050815260200189898080601f016020809104026020016040519081016040528093929190818152602001838380828437600081840152601f19601f8201169050808301925050505050505081526020013373ffffffffffffffffffffffffffffffffffffffff1681526020018c81526020018b81526020018a815260200183815260200182815260200160001515815260200187878080601f016020809104026020016040519081016040528093929190818152602001838380828437600081840152601f19601f820116905080830192505050505050508152506002600085815260200190815260200160002060008201518160000190816109ca9190612647565b5060208201518160010190816109e09190612647565b5060408201518160020160006101000a81548173ffffffffffffffffffffffffffffffffffffffff021916908373ffffffffffffffffffffffffffffffffffffffff160217905550606082015181600301556080820151816004015560a0820151816005015560c0820151816006019080519060200190610a62929190611b7e565b5060e0820151816007019080519060200190610a7f929190611b7e565b506101008201518160080160006101000a81548160ff021916908315150217905550610120820151816009019081610ab79190612647565b509050507f96beefe7c0c1b00e25286e8b55a743ec392f25ea7c8cb445359df7541168266083338d8c8e8d8d604051610af69796959493929190612755565b60405180910390a1600080815480929190610b10906127bf565b919050555060018390806001815401808255809150506001900390600052602060002001600090919091909150558293505050509998505050505050505050565b606060005b600054811015610d655760006002600060018481548110610b7a57610b79612807565b5b90600052602060002001548152602001908152602001600020905060788160030154610ba69190612238565b4210610d51578060080160009054906101000a900460ff16610d505760005b81600601805490508160ff161015610d4e57610c4260018481548110610bee57610bed612807565b5b9060005260206000200154836006018360ff1681548110610c1257610c11612807565b5b9060005260206000200160009054906101000a900473ffffffffffffffffffffffffffffffffffffffff16610dad565b610cd884836009018054610c559061216c565b80601f0160208091040260200160405190810160405280929190818152602001828054610c819061216c565b8015610cce5780601f10610ca357610100808354040283529160200191610cce565b820191906000526020600020905b815481529060010190602001808311610cb157829003601f168201915b5050505050611810565b610d3b5760008260060180549050905060008360000184600901610cfb84611879565b610d088760050154611879565b604051602001610d1b9493929190612941565b6040516020818303038152906040529050610d368682611a9a565b955050505b8080610d46906129ad565b915050610bc5565b505b5b508080610d5d906127bf565b915050610b56565b507ffc36d7cc461f11f4f552bda21b5f2e9a7551db8011f5df2dfdcb1675b930b8da81604051610d959190612ae2565b60405180910390a150565b6000600180549050905090565b6000600260008481526020019081526020016000209050600080600090505b82600601805490508160ff161015610eae578373ffffffffffffffffffffffffffffffffffffffff16836006018260ff1681548110610e0e57610e0d612807565b5b9060005260206000200160009054906101000a900473ffffffffffffffffffffffffffffffffffffffff1673ffffffffffffffffffffffffffffffffffffffff1603610e9b57826006018160ff1681548110610e6d57610e6c612807565b5b9060005260206000200160009054906101000a900473ffffffffffffffffffffffffffffffffffffffff1691505b8080610ea6906129ad565b915050610dcc565b508273ffffffffffffffffffffffffffffffffffffffff168173ffffffffffffffffffffffffffffffffffffffff1614610f1d576040517f08c379a0000000000000000000000000000000000000000000000000000000008152600401610f1490612b50565b60405180910390fd5b81600701839080600181540180825580915050600190039060005260206000200160009091909190916101000a81548173ffffffffffffffffffffffffffffffffffffffff021916908373ffffffffffffffffffffffffffffffffffffffff16021790555060008373ffffffffffffffffffffffffffffffffffffffff168360040154604051610fac906123eb565b60006040518083038185875af1925050503d8060008114610fe9576040519150601f19603f3d011682016040523d82523d6000602084013e610fee565b606091505b5050905080611041578260070180548061100b5761100a612b70565b5b6001900381819060005260206000200160006101000a81549073ffffffffffffffffffffffffffffffffffffffff021916905590555b80611081576040517f08c379a00000000000000000000000000000000000000000000000000000000081526004016110789061244c565b60405180910390fd5b60018360080160006101000a81548160ff0219169083151502179055507ff51b42fda5553f12aca9bf0984b446bf9883824e148ee9e467eb21f180a05ff385856040516110cf929190612b9f565b60405180910390a15050505050565b606080600080600080606060026000898152602001908152602001600020600001600260008a8152602001908152602001600020600101600260008b815260200190815260200160002060020160009054906101000a900473ffffffffffffffffffffffffffffffffffffffff16600260008c815260200190815260200160002060030154600260008d815260200190815260200160002060050154600260008e815260200190815260200160002060040154600260008f81526020019081526020016000206006018680546111b39061216c565b80601f01602080910402602001604051908101604052809291908181526020018280546111df9061216c565b801561122c5780601f106112015761010080835404028352916020019161122c565b820191906000526020600020905b81548152906001019060200180831161120f57829003601f168201915b5050505050965085805461123f9061216c565b80601f016020809104026020016040519081016040528092919081815260200182805461126b9061216c565b80156112b85780601f1061128d576101008083540402835291602001916112b8565b820191906000526020600020905b81548152906001019060200180831161129b57829003601f168201915b505050505095508080548060200260200160405190810160405280929190818152602001828054801561134057602002820191906000526020600020905b8160009054906101000a900473ffffffffffffffffffffffffffffffffffffffff1673ffffffffffffffffffffffffffffffffffffffff16815260200190600101908083116112f6575b505050505090509650965096509650965096509650919395979092949650565b600047905090565b6000600260008381526020019081526020016000209050806004015434146113c5576040517f08c379a00000000000000000000000000000000000000000000000000000000081526004016113bc90612c14565b60405180910390fd5b806003015442111561140c576040517f08c379a000000000000000000000000000000000000000000000000000000000815260040161140390612c80565b60405180910390fd5b8060050154816006018054905010611459576040517f08c379a000000000000000000000000000000000000000000000000000000000815260040161145090612cec565b60405180910390fd5b60005b81600601805490508160ff161015611532573373ffffffffffffffffffffffffffffffffffffffff16826006018260ff168154811061149e5761149d612807565b5b9060005260206000200160009054906101000a900473ffffffffffffffffffffffffffffffffffffffff1673ffffffffffffffffffffffffffffffffffffffff160361151f576040517f08c379a000000000000000000000000000000000000000000000000000000000815260040161151690612d58565b60405180910390fd5b808061152a906129ad565b91505061145c565b5080600601339080600181540180825580915050600190039060005260206000200160009091909190916101000a81548173ffffffffffffffffffffffffffffffffffffffff021916908373ffffffffffffffffffffffffffffffffffffffff1602179055507f305579fda99551f5107b32b7465875a3984f12521b5df905ee46fe6efb873f9282336040516115c9929190612b9f565b60405180910390a15050565b60005481565b6000600182815481106115f1576115f0612807565b5b90600052602060002001549050919050565b60026020528060005260406000206000915090508060000180546116269061216c565b80601f01602080910402602001604051908101604052809291908181526020018280546116529061216c565b801561169f5780601f106116745761010080835404028352916020019161169f565b820191906000526020600020905b81548152906001019060200180831161168257829003601f168201915b5050505050908060010180546116b49061216c565b80601f01602080910402602001604051908101604052809291908181526020018280546116e09061216c565b801561172d5780601f106117025761010080835404028352916020019161172d565b820191906000526020600020905b81548152906001019060200180831161171057829003601f168201915b5050505050908060020160009054906101000a900473ffffffffffffffffffffffffffffffffffffffff16908060030154908060040154908060050154908060080160009054906101000a900460ff169080600901805461178d9061216c565b80601f01602080910402602001604051908101604052809291908181526020018280546117b99061216c565b80156118065780601f106117db57610100808354040283529160200191611806565b820191906000526020600020905b8154815290600101906020018083116117e957829003601f168201915b5050505050905088565b600080600090505b835181101561186d57828051906020012084828151811061183c5761183b612807565b5b6020026020010151805190602001200361185a576001915050611873565b8080611865906127bf565b915050611818565b50600090505b92915050565b6060600082036118c0576040518060400160405280600181526020017f30000000000000000000000000000000000000000000000000000000000000008152509050611a95565b60006064905060008167ffffffffffffffff8111156118e2576118e161246c565b5b6040519080825280601f01601f1916602001820160405280156119145781602001600182028036833780820191505090505b50905060005b600085146119a6576000600a866119319190612da7565b9050600a866119409190612dd8565b955080603061194f9190612238565b60f81b83838061195e906127bf565b94508151811061197157611970612807565b5b60200101907effffffffffffffffffffffffffffffffffffffffffffffffffffffffffffff1916908160001a9053505061191a565b60008167ffffffffffffffff8111156119c2576119c161246c565b5b6040519080825280601f01601f1916602001820160405280156119f45781602001600182028036833780820191505090505b50905060005b82811015611a8c578360018285611a119190612344565b611a1b9190612344565b81518110611a2c57611a2b612807565b5b602001015160f81c60f81b828281518110611a4a57611a49612807565b5b60200101907effffffffffffffffffffffffffffffffffffffffffffffffffffffffffffff1916908160001a9053508080611a84906127bf565b9150506119fa565b50809450505050505b919050565b6060600060018451611aac9190612238565b67ffffffffffffffff811115611ac557611ac461246c565b5b604051908082528060200260200182016040528015611af857816020015b6060815260200190600190039081611ae35790505b50905060005b8451811015611b5357848181518110611b1a57611b19612807565b5b6020026020010151828281518110611b3557611b34612807565b5b60200260200101819052508080611b4b906127bf565b915050611afe565b508281855181518110611b6957611b68612807565b5b60200260200101819052508091505092915050565b828054828255906000526020600020908101928215611bf7579160200282015b82811115611bf65782518260006101000a81548173ffffffffffffffffffffffffffffffffffffffff021916908373ffffffffffffffffffffffffffffffffffffffff16021790555091602001919060010190611b9e565b5b509050611c049190611c08565b5090565b5b80821115611c21576000816000905550600101611c09565b5090565b600080fd5b600080fd5b6000819050919050565b611c4281611c2f565b8114611c4d57600080fd5b50565b600081359050611c5f81611c39565b92915050565b600060208284031215611c7b57611c7a611c25565b5b6000611c8984828501611c50565b91505092915050565b600080fd5b600080fd5b600080fd5b60008083601f840112611cb757611cb6611c92565b5b8235905067ffffffffffffffff811115611cd457611cd3611c97565b5b602083019150836001820283011115611cf057611cef611c9c565b5b9250929050565b600080600080600080600080600060c08a8c031215611d1957611d18611c25565b5b60008a013567ffffffffffffffff811115611d3757611d36611c2a565b5b611d438c828d01611ca1565b99509950506020611d568c828d01611c50565b9750506040611d678c828d01611c50565b9650506060611d788c828d01611c50565b95505060808a013567ffffffffffffffff811115611d9957611d98611c2a565b5b611da58c828d01611ca1565b945094505060a08a013567ffffffffffffffff811115611dc857611dc7611c2a565b5b611dd48c828d01611ca1565b92509250509295985092959850929598565b611def81611c2f565b82525050565b6000602082019050611e0a6000830184611de6565b92915050565b600073ffffffffffffffffffffffffffffffffffffffff82169050919050565b6000611e3b82611e10565b9050919050565b611e4b81611e30565b8114611e5657600080fd5b50565b600081359050611e6881611e42565b92915050565b60008060408385031215611e8557611e84611c25565b5b6000611e9385828601611c50565b9250506020611ea485828601611e59565b9150509250929050565b600081519050919050565b600082825260208201905092915050565b60005b83811015611ee8578082015181840152602081019050611ecd565b60008484015250505050565b6000601f19601f8301169050919050565b6000611f1082611eae565b611f1a8185611eb9565b9350611f2a818560208601611eca565b611f3381611ef4565b840191505092915050565b611f4781611e30565b82525050565b600081519050919050565b600082825260208201905092915050565b6000819050602082019050919050565b611f8281611e30565b82525050565b6000611f948383611f79565b60208301905092915050565b6000602082019050919050565b6000611fb882611f4d565b611fc28185611f58565b9350611fcd83611f69565b8060005b83811015611ffe578151611fe58882611f88565b9750611ff083611fa0565b925050600181019050611fd1565b5085935050505092915050565b600060e0820190508181036000830152612025818a611f05565b905081810360208301526120398189611f05565b90506120486040830188611f3e565b6120556060830187611de6565b6120626080830186611de6565b61206f60a0830185611de6565b81810360c08301526120818184611fad565b905098975050505050505050565b60008115159050919050565b6120a48161208f565b82525050565b60006101008201905081810360008301526120c5818b611f05565b905081810360208301526120d9818a611f05565b90506120e86040830189611f3e565b6120f56060830188611de6565b6121026080830187611de6565b61210f60a0830186611de6565b61211c60c083018561209b565b81810360e083015261212e8184611f05565b90509998505050505050505050565b7f4e487b7100000000000000000000000000000000000000000000000000000000600052602260045260246000fd5b6000600282049050600182168061218457607f821691505b6020821081036121975761219661213d565b5b50919050565b7f414c524541445920504149440000000000000000000000000000000000000000600082015250565b60006121d3600c83611eb9565b91506121de8261219d565b602082019050919050565b60006020820190508181036000830152612202816121c6565b9050919050565b7f4e487b7100000000000000000000000000000000000000000000000000000000600052601160045260246000fd5b600061224382611c2f565b915061224e83611c2f565b925082820190508082111561226657612265612209565b5b92915050565b7f544f4f204541524c590000000000000000000000000000000000000000000000600082015250565b60006122a2600983611eb9565b91506122ad8261226c565b602082019050919050565b600060208201905081810360008301526122d181612295565b9050919050565b7f4d555354204245204556454e54204f574e455200000000000000000000000000600082015250565b600061230e601383611eb9565b9150612319826122d8565b602082019050919050565b6000602082019050818103600083015261233d81612301565b9050919050565b600061234f82611c2f565b915061235a83611c2f565b925082820390508181111561237257612371612209565b5b92915050565b600061238382611c2f565b915061238e83611c2f565b925082820261239c81611c2f565b915082820484148315176123b3576123b2612209565b5b5092915050565b600081905092915050565b50565b60006123d56000836123ba565b91506123e0826123c5565b600082019050919050565b60006123f6826123c8565b9150819050919050565b7f4661696c656420746f2073656e64204574686572000000000000000000000000600082015250565b6000612436601483611eb9565b915061244182612400565b602082019050919050565b6000602082019050818103600083015261246581612429565b9050919050565b7f4e487b7100000000000000000000000000000000000000000000000000000000600052604160045260246000fd5b60008190508160005260206000209050919050565b60006020601f8301049050919050565b600082821b905092915050565b6000600883026124fd7fffffffffffffffffffffffffffffffffffffffffffffffffffffffffffffffff826124c0565b61250786836124c0565b95508019841693508086168417925050509392505050565b6000819050919050565b600061254461253f61253a84611c2f565b61251f565b611c2f565b9050919050565b6000819050919050565b61255e83612529565b61257261256a8261254b565b8484546124cd565b825550505050565b600090565b61258761257a565b612592818484612555565b505050565b5b818110156125b6576125ab60008261257f565b600181019050612598565b5050565b601f8211156125fb576125cc8161249b565b6125d5846124b0565b810160208510156125e4578190505b6125f86125f0856124b0565b830182612597565b50505b505050565b600082821c905092915050565b600061261e60001984600802612600565b1980831691505092915050565b6000612637838361260d565b9150826002028217905092915050565b61265082611eae565b67ffffffffffffffff8111156126695761266861246c565b5b612673825461216c565b61267e8282856125ba565b600060209050601f8311600181146126b1576000841561269f578287015190505b6126a9858261262b565b865550612711565b601f1984166126bf8661249b565b60005b828110156126e7578489015182556001820191506020850194506020810190506126c2565b868310156127045784890151612700601f89168261260d565b8355505b6001600288020188555050505b505050505050565b82818337600083830152505050565b60006127348385611eb9565b9350612741838584612719565b61274a83611ef4565b840190509392505050565b600060c08201905061276a600083018a611de6565b6127776020830189611f3e565b6127846040830188611de6565b6127916060830187611de6565b61279e6080830186611de6565b81810360a08301526127b1818486612728565b905098975050505050505050565b60006127ca82611c2f565b91507fffffffffffffffffffffffffffffffffffffffffffffffffffffffffffffffff82036127fc576127fb612209565b5b600182019050919050565b7f4e487b7100000000000000000000000000000000000000000000000000000000600052603260045260246000fd5b600081905092915050565b6000815461284e8161216c565b6128588186612836565b945060018216600081146128735760018114612888576128bb565b60ff19831686528115158202860193506128bb565b6128918561249b565b60005b838110156128b357815481890152600182019150602081019050612894565b838801955050505b50505092915050565b7f2d00000000000000000000000000000000000000000000000000000000000000600082015250565b60006128fa600183612836565b9150612905826128c4565b600182019050919050565b600061291b82611eae565b6129258185612836565b9350612935818560208601611eca565b80840191505092915050565b600061294d8287612841565b9150612958826128ed565b91506129648286612841565b915061296f826128ed565b915061297b8285612910565b9150612986826128ed565b91506129928284612910565b915081905095945050505050565b600060ff82169050919050565b60006129b8826129a0565b915060ff82036129cb576129ca612209565b5b600182019050919050565b600081519050919050565b600082825260208201905092915050565b6000819050602082019050919050565b600082825260208201905092915050565b6000612a1e82611eae565b612a288185612a02565b9350612a38818560208601611eca565b612a4181611ef4565b840191505092915050565b6000612a588383612a13565b905092915050565b6000602082019050919050565b6000612a78826129d6565b612a8281856129e1565b935083602082028501612a94856129f2565b8060005b85811015612ad05784840389528151612ab18582612a4c565b9450612abc83612a60565b925060208a01995050600181019050612a98565b50829750879550505050505092915050565b60006020820190508181036000830152612afc8184612a6d565b905092915050565b7f4e4f205253565020544f20434f4e4649524d0000000000000000000000000000600082015250565b6000612b3a601283611eb9565b9150612b4582612b04565b602082019050919050565b60006020820190508181036000830152612b6981612b2d565b9050919050565b7f4e487b7100000000000000000000000000000000000000000000000000000000600052603160045260246000fd5b6000604082019050612bb46000830185611de6565b612bc16020830184611f3e565b9392505050565b7f4e4f5420454e4f55474800000000000000000000000000000000000000000000600082015250565b6000612bfe600a83611eb9565b9150612c0982612bc8565b602082019050919050565b60006020820190508181036000830152612c2d81612bf1565b9050919050565b7f414c52454144592048415050454e454400000000000000000000000000000000600082015250565b6000612c6a601083611eb9565b9150612c7582612c34565b602082019050919050565b60006020820190508181036000830152612c9981612c5d565b9050919050565b7f54686973206576656e7420686173207265616368656420636170616369747900600082015250565b6000612cd6601f83611eb9565b9150612ce182612ca0565b602082019050919050565b60006020820190508181036000830152612d0581612cc9565b9050919050565b7f414c524541445920434f4e4649524d4544000000000000000000000000000000600082015250565b6000612d42601183611eb9565b9150612d4d82612d0c565b602082019050919050565b60006020820190508181036000830152612d7181612d35565b9050919050565b7f4e487b7100000000000000000000000000000000000000000000000000000000600052601260045260246000fd5b6000612db282611c2f565b9150612dbd83611c2f565b925082612dcd57612dcc612d78565b5b828206905092915050565b6000612de382611c2f565b9150612dee83611c2f565b925082612dfe57612dfd612d78565b5b82820490509291505056fea2646970667358221220edeb530b3a1365fb815022bcd2e09accc9d81c2d9f5002854d03be748272702d64736f6c63430008130033","opcodes":"PUSH1 0x80 PUSH1 0x40 MSTORE CALLVALUE DUP1 ISZERO PUSH2 0x10 JUMPI PUSH1 0x0 DUP1 REVERT JUMPDEST POP PUSH2 0x2E3F DUP1 PUSH2 0x20 PUSH1 0x0 CODECOPY PUSH1 0x0 RETURN INVALID PUSH1 0x80 PUSH1 0x40 MSTORE PUSH1 0x4 CALLDATASIZE LT PUSH2 0x9C JUMPI PUSH1 0x0 CALLDATALOAD PUSH1 0xE0 SHR DUP1 PUSH4 0x6D1884E0 GT PUSH2 0x64 JUMPI DUP1 PUSH4 0x6D1884E0 EQ PUSH2 0x165 JUMPI DUP1 PUSH4 0x6F9FB98A EQ PUSH2 0x1A8 JUMPI DUP1 PUSH4 0xADA06A3B EQ PUSH2 0x1D3 JUMPI DUP1 PUSH4 0xBA870686 EQ PUSH2 0x1EF JUMPI DUP1 PUSH4 0xC3BE559B EQ PUSH2 0x21A JUMPI DUP1 PUSH4 0xD46BAE4B EQ PUSH2 0x257 JUMPI PUSH2 0x9C JUMP JUMPDEST DUP1 PUSH4 0x127D17AB EQ PUSH2 0xA1 JUMPI DUP1 PUSH4 0x289B9B8B EQ PUSH2 0xCA JUMPI DUP1 PUSH4 0x4BBBEB49 EQ PUSH2 0xFA JUMPI DUP1 PUSH4 0x5C98DFA1 EQ PUSH2 0x111 JUMPI DUP1 PUSH4 0x6ACB5DD3 EQ PUSH2 0x13C JUMPI JUMPDEST PUSH1 0x0 DUP1 REVERT JUMPDEST CALLVALUE DUP1 ISZERO PUSH2 0xAD JUMPI PUSH1 0x0 DUP1 REVERT JUMPDEST POP PUSH2 0xC8 PUSH1 0x4 DUP1 CALLDATASIZE SUB DUP2 ADD SWAP1 PUSH2 0xC3 SWAP2 SWAP1 PUSH2 0x1C65 JUMP JUMPDEST PUSH2 0x29B JUMP JUMPDEST STOP JUMPDEST PUSH2 0xE4 PUSH1 0x4 DUP1 CALLDATASIZE SUB DUP2 ADD SWAP1 PUSH2 0xDF SWAP2 SWAP1 PUSH2 0x1CF7 JUMP JUMPDEST PUSH2 0x86C JUMP JUMPDEST PUSH1 0x40 MLOAD PUSH2 0xF1 SWAP2 SWAP1 PUSH2 0x1DF5 JUMP JUMPDEST PUSH1 0x40 MLOAD DUP1 SWAP2 SUB SWAP1 RETURN JUMPDEST CALLVALUE DUP1 ISZERO PUSH2 0x106 JUMPI PUSH1 0x0 DUP1 REVERT JUMPDEST POP PUSH2 0x10F PUSH2 0xB51 JUMP JUMPDEST STOP JUMPDEST CALLVALUE DUP1 ISZERO PUSH2 0x11D JUMPI PUSH1 0x0 DUP1 REVERT JUMPDEST POP PUSH2 0x126 PUSH2 0xDA0 JUMP JUMPDEST PUSH1 0x40 MLOAD PUSH2 0x133 SWAP2 SWAP1 PUSH2 0x1DF5 JUMP JUMPDEST PUSH1 0x40 MLOAD DUP1 SWAP2 SUB SWAP1 RETURN JUMPDEST CALLVALUE DUP1 ISZERO PUSH2 0x148 JUMPI PUSH1 0x0 DUP1 REVERT JUMPDEST POP PUSH2 0x163 PUSH1 0x4 DUP1 CALLDATASIZE SUB DUP2 ADD SWAP1 PUSH2 0x15E SWAP2 SWAP1 PUSH2 0x1E6E JUMP JUMPDEST PUSH2 0xDAD JUMP JUMPDEST STOP JUMPDEST CALLVALUE DUP1 ISZERO PUSH2 0x171 JUMPI PUSH1 0x0 DUP1 REVERT JUMPDEST POP PUSH2 0x18C PUSH1 0x4 DUP1 CALLDATASIZE SUB DUP2 ADD SWAP1 PUSH2 0x187 SWAP2 SWAP1 PUSH2 0x1C65 JUMP JUMPDEST PUSH2 0x10DE JUMP JUMPDEST PUSH1 0x40 MLOAD PUSH2 0x19F SWAP8 SWAP7 SWAP6 SWAP5 SWAP4 SWAP3 SWAP2 SWAP1 PUSH2 0x200B JUMP JUMPDEST PUSH1 0x40 MLOAD DUP1 SWAP2 SUB SWAP1 RETURN JUMPDEST CALLVALUE DUP1 ISZERO PUSH2 0x1B4 JUMPI PUSH1 0x0 DUP1 REVERT JUMPDEST POP PUSH2 0x1BD PUSH2 0x1360 JUMP JUMPDEST PUSH1 0x40 MLOAD PUSH2 0x1CA SWAP2 SWAP1 PUSH2 0x1DF5 JUMP JUMPDEST PUSH1 0x40 MLOAD DUP1 SWAP2 SUB SWAP1 RETURN JUMPDEST PUSH2 0x1ED PUSH1 0x4 DUP1 CALLDATASIZE SUB DUP2 ADD SWAP1 PUSH2 0x1E8 SWAP2 SWAP1 PUSH2 0x1C65 JUMP JUMPDEST PUSH2 0x1368 JUMP JUMPDEST STOP JUMPDEST CALLVALUE DUP1 ISZERO PUSH2 0x1FB JUMPI PUSH1 0x0 DUP1 REVERT JUMPDEST POP PUSH2 0x204 PUSH2 0x15D5 JUMP JUMPDEST PUSH1 0x40 MLOAD PUSH2 0x211 SWAP2 SWAP1 PUSH2 0x1DF5 JUMP JUMPDEST PUSH1 0x40 MLOAD DUP1 SWAP2 SUB SWAP1 RETURN JUMPDEST CALLVALUE DUP1 ISZERO PUSH2 0x226 JUMPI PUSH1 0x0 DUP1 REVERT JUMPDEST POP PUSH2 0x241 PUSH1 0x4 DUP1 CALLDATASIZE SUB DUP2 ADD SWAP1 PUSH2 0x23C SWAP2 SWAP1 PUSH2 0x1C65 JUMP JUMPDEST PUSH2 0x15DB JUMP JUMPDEST PUSH1 0x40 MLOAD PUSH2 0x24E SWAP2 SWAP1 PUSH2 0x1DF5 JUMP JUMPDEST PUSH1 0x40 MLOAD DUP1 SWAP2 SUB SWAP1 RETURN JUMPDEST CALLVALUE DUP1 ISZERO PUSH2 0x263 JUMPI PUSH1 0x0 DUP1 REVERT JUMPDEST POP PUSH2 0x27E PUSH1 0x4 DUP1 CALLDATASIZE SUB DUP2 ADD SWAP1 PUSH2 0x279 SWAP2 SWAP1 PUSH2 0x1C65 JUMP JUMPDEST PUSH2 0x1603 JUMP JUMPDEST PUSH1 0x40 MLOAD PUSH2 0x292 SWAP9 SWAP8 SWAP7 SWAP6 SWAP5 SWAP4 SWAP3 SWAP2 SWAP1 PUSH2 0x20AA JUMP JUMPDEST PUSH1 0x40 MLOAD DUP1 SWAP2 SUB SWAP1 RETURN JUMPDEST PUSH1 0x0 PUSH1 0x2 PUSH1 0x0 DUP4 DUP2 MSTORE PUSH1 0x20 ADD SWAP1 DUP2 MSTORE PUSH1 0x20 ADD PUSH1 0x0 KECCAK256 PUSH1 0x40 MLOAD DUP1 PUSH2 0x140 ADD PUSH1 0x40 MSTORE SWAP1 DUP2 PUSH1 0x0 DUP3 ADD DUP1 SLOAD PUSH2 0x2CC SWAP1 PUSH2 0x216C JUMP JUMPDEST DUP1 PUSH1 0x1F ADD PUSH1 0x20 DUP1 SWAP2 DIV MUL PUSH1 0x20 ADD PUSH1 0x40 MLOAD SWAP1 DUP2 ADD PUSH1 0x40 MSTORE DUP1 SWAP3 SWAP2 SWAP1 DUP2 DUP2 MSTORE PUSH1 0x20 ADD DUP3 DUP1 SLOAD PUSH2 0x2F8 SWAP1 PUSH2 0x216C JUMP JUMPDEST DUP1 ISZERO PUSH2 0x345 JUMPI DUP1 PUSH1 0x1F LT PUSH2 0x31A JUMPI PUSH2 0x100 DUP1 DUP4 SLOAD DIV MUL DUP4 MSTORE SWAP2 PUSH1 0x20 ADD SWAP2 PUSH2 0x345 JUMP JUMPDEST DUP3 ADD SWAP2 SWAP1 PUSH1 0x0 MSTORE PUSH1 0x20 PUSH1 0x0 KECCAK256 SWAP1 JUMPDEST DUP2 SLOAD DUP2 MSTORE SWAP1 PUSH1 0x1 ADD SWAP1 PUSH1 0x20 ADD DUP1 DUP4 GT PUSH2 0x328 JUMPI DUP3 SWAP1 SUB PUSH1 0x1F AND DUP3 ADD SWAP2 JUMPDEST POP POP POP POP POP DUP2 MSTORE PUSH1 0x20 ADD PUSH1 0x1 DUP3 ADD DUP1 SLOAD PUSH2 0x35E SWAP1 PUSH2 0x216C JUMP JUMPDEST DUP1 PUSH1 0x1F ADD PUSH1 0x20 DUP1 SWAP2 DIV MUL PUSH1 0x20 ADD PUSH1 0x40 MLOAD SWAP1 DUP2 ADD PUSH1 0x40 MSTORE DUP1 SWAP3 SWAP2 SWAP1 DUP2 DUP2 MSTORE PUSH1 0x20 ADD DUP3 DUP1 SLOAD PUSH2 0x38A SWAP1 PUSH2 0x216C JUMP JUMPDEST DUP1 ISZERO PUSH2 0x3D7 JUMPI DUP1 PUSH1 0x1F LT PUSH2 0x3AC JUMPI PUSH2 0x100 DUP1 DUP4 SLOAD DIV MUL DUP4 MSTORE SWAP2 PUSH1 0x20 ADD SWAP2 PUSH2 0x3D7 JUMP JUMPDEST DUP3 ADD SWAP2 SWAP1 PUSH1 0x0 MSTORE PUSH1 0x20 PUSH1 0x0 KECCAK256 SWAP1 JUMPDEST DUP2 SLOAD DUP2 MSTORE SWAP1 PUSH1 0x1 ADD SWAP1 PUSH1 0x20 ADD DUP1 DUP4 GT PUSH2 0x3BA JUMPI DUP3 SWAP1 SUB PUSH1 0x1F AND DUP3 ADD SWAP2 JUMPDEST POP POP POP POP POP DUP2 MSTORE PUSH1 0x20 ADD PUSH1 0x2 DUP3 ADD PUSH1 0x0 SWAP1 SLOAD SWAP1 PUSH2 0x100 EXP SWAP1 DIV PUSH20 0xFFFFFFFFFFFFFFFFFFFFFFFFFFFFFFFFFFFFFFFF AND PUSH20 0xFFFFFFFFFFFFFFFFFFFFFFFFFFFFFFFFFFFFFFFF AND PUSH20 0xFFFFFFFFFFFFFFFFFFFFFFFFFFFFFFFFFFFFFFFF AND DUP2 MSTORE PUSH1 0x20 ADD PUSH1 0x3 DUP3 ADD SLOAD DUP2 MSTORE PUSH1 0x20 ADD PUSH1 0x4 DUP3 ADD SLOAD DUP2 MSTORE PUSH1 0x20 ADD PUSH1 0x5 DUP3 ADD SLOAD DUP2 MSTORE PUSH1 0x20 ADD PUSH1 0x6 DUP3 ADD DUP1 SLOAD DUP1 PUSH1 0x20 MUL PUSH1 0x20 ADD PUSH1 0x40 MLOAD SWAP1 DUP2 ADD PUSH1 0x40 MSTORE DUP1 SWAP3 SWAP2 SWAP1 DUP2 DUP2 MSTORE PUSH1 0x20 ADD DUP3 DUP1 SLOAD DUP1 ISZERO PUSH2 0x4D9 JUMPI PUSH1 0x20 MUL DUP3 ADD SWAP2 SWAP1 PUSH1 0x0 MSTORE PUSH1 0x20 PUSH1 0x0 KECCAK256 SWAP1 JUMPDEST DUP2 PUSH1 0x0 SWAP1 SLOAD SWAP1 PUSH2 0x100 EXP SWAP1 DIV PUSH20 0xFFFFFFFFFFFFFFFFFFFFFFFFFFFFFFFFFFFFFFFF AND PUSH20 0xFFFFFFFFFFFFFFFFFFFFFFFFFFFFFFFFFFFFFFFF AND DUP2 MSTORE PUSH1 0x20 ADD SWAP1 PUSH1 0x1 ADD SWAP1 DUP1 DUP4 GT PUSH2 0x48F JUMPI JUMPDEST POP POP POP POP POP DUP2 MSTORE PUSH1 0x20 ADD PUSH1 0x7 DUP3 ADD DUP1 SLOAD DUP1 PUSH1 0x20 MUL PUSH1 0x20 ADD PUSH1 0x40 MLOAD SWAP1 DUP2 ADD PUSH1 0x40 MSTORE DUP1 SWAP3 SWAP2 SWAP1 DUP2 DUP2 MSTORE PUSH1 0x20 ADD DUP3 DUP1 SLOAD DUP1 ISZERO PUSH2 0x567 JUMPI PUSH1 0x20 MUL DUP3 ADD SWAP2 SWAP1 PUSH1 0x0 MSTORE PUSH1 0x20 PUSH1 0x0 KECCAK256 SWAP1 JUMPDEST DUP2 PUSH1 0x0 SWAP1 SLOAD SWAP1 PUSH2 0x100 EXP SWAP1 DIV PUSH20 0xFFFFFFFFFFFFFFFFFFFFFFFFFFFFFFFFFFFFFFFF AND PUSH20 0xFFFFFFFFFFFFFFFFFFFFFFFFFFFFFFFFFFFFFFFF AND DUP2 MSTORE PUSH1 0x20 ADD SWAP1 PUSH1 0x1 ADD SWAP1 DUP1 DUP4 GT PUSH2 0x51D JUMPI JUMPDEST POP POP POP POP POP DUP2 MSTORE PUSH1 0x20 ADD PUSH1 0x8 DUP3 ADD PUSH1 0x0 SWAP1 SLOAD SWAP1 PUSH2 0x100 EXP SWAP1 DIV PUSH1 0xFF AND ISZERO ISZERO ISZERO ISZERO DUP2 MSTORE PUSH1 0x20 ADD PUSH1 0x9 DUP3 ADD DUP1 SLOAD PUSH2 0x59B SWAP1 PUSH2 0x216C JUMP JUMPDEST DUP1 PUSH1 0x1F ADD PUSH1 0x20 DUP1 SWAP2 DIV MUL PUSH1 0x20 ADD PUSH1 0x40 MLOAD SWAP1 DUP2 ADD PUSH1 0x40 MSTORE DUP1 SWAP3 SWAP2 SWAP1 DUP2 DUP2 MSTORE PUSH1 0x20 ADD DUP3 DUP1 SLOAD PUSH2 0x5C7 SWAP1 PUSH2 0x216C JUMP JUMPDEST DUP1 ISZERO PUSH2 0x614 JUMPI DUP1 PUSH1 0x1F LT PUSH2 0x5E9 JUMPI PUSH2 0x100 DUP1 DUP4 SLOAD DIV MUL DUP4 MSTORE SWAP2 PUSH1 0x20 ADD SWAP2 PUSH2 0x614 JUMP JUMPDEST DUP3 ADD SWAP2 SWAP1 PUSH1 0x0 MSTORE PUSH1 0x20 PUSH1 0x0 KECCAK256 SWAP1 JUMPDEST DUP2 SLOAD DUP2 MSTORE SWAP1 PUSH1 0x1 ADD SWAP1 PUSH1 0x20 ADD DUP1 DUP4 GT PUSH2 0x5F7 JUMPI DUP3 SWAP1 SUB PUSH1 0x1F AND DUP3 ADD SWAP2 JUMPDEST POP POP POP POP POP DUP2 MSTORE POP POP SWAP1 POP DUP1 PUSH2 0x100 ADD MLOAD ISZERO PUSH2 0x665 JUMPI PUSH1 0x40 MLOAD PUSH32 0x8C379A000000000000000000000000000000000000000000000000000000000 DUP2 MSTORE PUSH1 0x4 ADD PUSH2 0x65C SWAP1 PUSH2 0x21E9 JUMP JUMPDEST PUSH1 0x40 MLOAD DUP1 SWAP2 SUB SWAP1 REVERT JUMPDEST PUSH1 0x78 DUP2 PUSH1 0x60 ADD MLOAD PUSH2 0x676 SWAP2 SWAP1 PUSH2 0x2238 JUMP JUMPDEST TIMESTAMP LT ISZERO PUSH2 0x6B8 JUMPI PUSH1 0x40 MLOAD PUSH32 0x8C379A000000000000000000000000000000000000000000000000000000000 DUP2 MSTORE PUSH1 0x4 ADD PUSH2 0x6AF SWAP1 PUSH2 0x22B8 JUMP JUMPDEST PUSH1 0x40 MLOAD DUP1 SWAP2 SUB SWAP1 REVERT JUMPDEST DUP1 PUSH1 0x40 ADD MLOAD PUSH20 0xFFFFFFFFFFFFFFFFFFFFFFFFFFFFFFFFFFFFFFFF AND CALLER PUSH20 0xFFFFFFFFFFFFFFFFFFFFFFFFFFFFFFFFFFFFFFFF AND EQ PUSH2 0x72A JUMPI PUSH1 0x40 MLOAD PUSH32 0x8C379A000000000000000000000000000000000000000000000000000000000 DUP2 MSTORE PUSH1 0x4 ADD PUSH2 0x721 SWAP1 PUSH2 0x2324 JUMP JUMPDEST PUSH1 0x40 MLOAD DUP1 SWAP2 SUB SWAP1 REVERT JUMPDEST PUSH1 0x0 DUP2 PUSH1 0xE0 ADD MLOAD MLOAD DUP3 PUSH1 0xC0 ADD MLOAD MLOAD PUSH2 0x742 SWAP2 SWAP1 PUSH2 0x2344 JUMP JUMPDEST SWAP1 POP PUSH1 0x0 DUP3 PUSH1 0x80 ADD MLOAD DUP3 PUSH2 0x756 SWAP2 SWAP1 PUSH2 0x2378 JUMP JUMPDEST SWAP1 POP PUSH1 0x1 DUP4 PUSH2 0x100 ADD SWAP1 ISZERO ISZERO SWAP1 DUP2 ISZERO ISZERO DUP2 MSTORE POP POP PUSH1 0x0 CALLER PUSH20 0xFFFFFFFFFFFFFFFFFFFFFFFFFFFFFFFFFFFFFFFF AND DUP3 PUSH1 0x40 MLOAD PUSH2 0x790 SWAP1 PUSH2 0x23EB JUMP JUMPDEST PUSH1 0x0 PUSH1 0x40 MLOAD DUP1 DUP4 SUB DUP2 DUP6 DUP8 GAS CALL SWAP3 POP POP POP RETURNDATASIZE DUP1 PUSH1 0x0 DUP2 EQ PUSH2 0x7CD JUMPI PUSH1 0x40 MLOAD SWAP2 POP PUSH1 0x1F NOT PUSH1 0x3F RETURNDATASIZE ADD AND DUP3 ADD PUSH1 0x40 MSTORE RETURNDATASIZE DUP3 MSTORE RETURNDATASIZE PUSH1 0x0 PUSH1 0x20 DUP5 ADD RETURNDATACOPY PUSH2 0x7D2 JUMP JUMPDEST PUSH1 0x60 SWAP2 POP JUMPDEST POP POP SWAP1 POP DUP1 PUSH2 0x7EE JUMPI PUSH1 0x0 DUP5 PUSH2 0x100 ADD SWAP1 ISZERO ISZERO SWAP1 DUP2 ISZERO ISZERO DUP2 MSTORE POP POP JUMPDEST DUP1 PUSH2 0x82E JUMPI PUSH1 0x40 MLOAD PUSH32 0x8C379A000000000000000000000000000000000000000000000000000000000 DUP2 MSTORE PUSH1 0x4 ADD PUSH2 0x825 SWAP1 PUSH2 0x244C JUMP JUMPDEST PUSH1 0x40 MLOAD DUP1 SWAP2 SUB SWAP1 REVERT JUMPDEST PUSH32 0x308E7EF5FF7AE64ED45C37A04775B24BE0BFBC4CB5F5C3E6B0AA505D006EAFC DUP6 PUSH1 0x40 MLOAD PUSH2 0x85D SWAP2 SWAP1 PUSH2 0x1DF5 JUMP JUMPDEST PUSH1 0x40 MLOAD DUP1 SWAP2 SUB SWAP1 LOG1 POP POP POP POP POP JUMP JUMPDEST PUSH1 0x0 DUP1 PUSH1 0x0 SLOAD SWAP1 POP PUSH1 0x60 DUP1 PUSH1 0x40 MLOAD DUP1 PUSH2 0x140 ADD PUSH1 0x40 MSTORE DUP1 DUP15 DUP15 DUP1 DUP1 PUSH1 0x1F ADD PUSH1 0x20 DUP1 SWAP2 DIV MUL PUSH1 0x20 ADD PUSH1 0x40 MLOAD SWAP1 DUP2 ADD PUSH1 0x40 MSTORE DUP1 SWAP4 SWAP3 SWAP2 SWAP1 DUP2 DUP2 MSTORE PUSH1 0x20 ADD DUP4 DUP4 DUP1 DUP3 DUP5 CALLDATACOPY PUSH1 0x0 DUP2 DUP5 ADD MSTORE PUSH1 0x1F NOT PUSH1 0x1F DUP3 ADD AND SWAP1 POP DUP1 DUP4 ADD SWAP3 POP POP POP POP POP POP POP DUP2 MSTORE PUSH1 0x20 ADD DUP10 DUP10 DUP1 DUP1 PUSH1 0x1F ADD PUSH1 0x20 DUP1 SWAP2 DIV MUL PUSH1 0x20 ADD PUSH1 0x40 MLOAD SWAP1 DUP2 ADD PUSH1 0x40 MSTORE DUP1 SWAP4 SWAP3 SWAP2 SWAP1 DUP2 DUP2 MSTORE PUSH1 0x20 ADD DUP4 DUP4 DUP1 DUP3 DUP5 CALLDATACOPY PUSH1 0x0 DUP2 DUP5 ADD MSTORE PUSH1 0x1F NOT PUSH1 0x1F DUP3 ADD AND SWAP1 POP DUP1 DUP4 ADD SWAP3 POP POP POP POP POP POP POP DUP2 MSTORE PUSH1 0x20 ADD CALLER PUSH20 0xFFFFFFFFFFFFFFFFFFFFFFFFFFFFFFFFFFFFFFFF AND DUP2 MSTORE PUSH1 0x20 ADD DUP13 DUP2 MSTORE PUSH1 0x20 ADD DUP12 DUP2 MSTORE PUSH1 0x20 ADD DUP11 DUP2 MSTORE PUSH1 0x20 ADD DUP4 DUP2 MSTORE PUSH1 0x20 ADD DUP3 DUP2 MSTORE PUSH1 0x20 ADD PUSH1 0x0 ISZERO ISZERO DUP2 MSTORE PUSH1 0x20 ADD DUP8 DUP8 DUP1 DUP1 PUSH1 0x1F ADD PUSH1 0x20 DUP1 SWAP2 DIV MUL PUSH1 0x20 ADD PUSH1 0x40 MLOAD SWAP1 DUP2 ADD PUSH1 0x40 MSTORE DUP1 SWAP4 SWAP3 SWAP2 SWAP1 DUP2 DUP2 MSTORE PUSH1 0x20 ADD DUP4 DUP4 DUP1 DUP3 DUP5 CALLDATACOPY PUSH1 0x0 DUP2 DUP5 ADD MSTORE PUSH1 0x1F NOT PUSH1 0x1F DUP3 ADD AND SWAP1 POP DUP1 DUP4 ADD SWAP3 POP POP POP POP POP POP POP DUP2 MSTORE POP PUSH1 0x2 PUSH1 0x0 DUP6 DUP2 MSTORE PUSH1 0x20 ADD SWAP1 DUP2 MSTORE PUSH1 0x20 ADD PUSH1 0x0 KECCAK256 PUSH1 0x0 DUP3 ADD MLOAD DUP2 PUSH1 0x0 ADD SWAP1 DUP2 PUSH2 0x9CA SWAP2 SWAP1 PUSH2 0x2647 JUMP JUMPDEST POP PUSH1 0x20 DUP3 ADD MLOAD DUP2 PUSH1 0x1 ADD SWAP1 DUP2 PUSH2 0x9E0 SWAP2 SWAP1 PUSH2 0x2647 JUMP JUMPDEST POP PUSH1 0x40 DUP3 ADD MLOAD DUP2 PUSH1 0x2 ADD PUSH1 0x0 PUSH2 0x100 EXP DUP2 SLOAD DUP2 PUSH20 0xFFFFFFFFFFFFFFFFFFFFFFFFFFFFFFFFFFFFFFFF MUL NOT AND SWAP1 DUP4 PUSH20 0xFFFFFFFFFFFFFFFFFFFFFFFFFFFFFFFFFFFFFFFF AND MUL OR SWAP1 SSTORE POP PUSH1 0x60 DUP3 ADD MLOAD DUP2 PUSH1 0x3 ADD SSTORE PUSH1 0x80 DUP3 ADD MLOAD DUP2 PUSH1 0x4 ADD SSTORE PUSH1 0xA0 DUP3 ADD MLOAD DUP2 PUSH1 0x5 ADD SSTORE PUSH1 0xC0 DUP3 ADD MLOAD DUP2 PUSH1 0x6 ADD SWAP1 DUP1 MLOAD SWAP1 PUSH1 0x20 ADD SWAP1 PUSH2 0xA62 SWAP3 SWAP2 SWAP1 PUSH2 0x1B7E JUMP JUMPDEST POP PUSH1 0xE0 DUP3 ADD MLOAD DUP2 PUSH1 0x7 ADD SWAP1 DUP1 MLOAD SWAP1 PUSH1 0x20 ADD SWAP1 PUSH2 0xA7F SWAP3 SWAP2 SWAP1 PUSH2 0x1B7E JUMP JUMPDEST POP PUSH2 0x100 DUP3 ADD MLOAD DUP2 PUSH1 0x8 ADD PUSH1 0x0 PUSH2 0x100 EXP DUP2 SLOAD DUP2 PUSH1 0xFF MUL NOT AND SWAP1 DUP4 ISZERO ISZERO MUL OR SWAP1 SSTORE POP PUSH2 0x120 DUP3 ADD MLOAD DUP2 PUSH1 0x9 ADD SWAP1 DUP2 PUSH2 0xAB7 SWAP2 SWAP1 PUSH2 0x2647 JUMP JUMPDEST POP SWAP1 POP POP PUSH32 0x96BEEFE7C0C1B00E25286E8B55A743EC392F25EA7C8CB445359DF75411682660 DUP4 CALLER DUP14 DUP13 DUP15 DUP14 DUP14 PUSH1 0x40 MLOAD PUSH2 0xAF6 SWAP8 SWAP7 SWAP6 SWAP5 SWAP4 SWAP3 SWAP2 SWAP1 PUSH2 0x2755 JUMP JUMPDEST PUSH1 0x40 MLOAD DUP1 SWAP2 SUB SWAP1 LOG1 PUSH1 0x0 DUP1 DUP2 SLOAD DUP1 SWAP3 SWAP2 SWAP1 PUSH2 0xB10 SWAP1 PUSH2 0x27BF JUMP JUMPDEST SWAP2 SWAP1 POP SSTORE POP PUSH1 0x1 DUP4 SWAP1 DUP1 PUSH1 0x1 DUP2 SLOAD ADD DUP1 DUP3 SSTORE DUP1 SWAP2 POP POP PUSH1 0x1 SWAP1 SUB SWAP1 PUSH1 0x0 MSTORE PUSH1 0x20 PUSH1 0x0 KECCAK256 ADD PUSH1 0x0 SWAP1 SWAP2 SWAP1 SWAP2 SWAP1 SWAP2 POP SSTORE DUP3 SWAP4 POP POP POP POP SWAP10 SWAP9 POP POP POP POP POP POP POP POP POP JUMP JUMPDEST PUSH1 0x60 PUSH1 0x0 JUMPDEST PUSH1 0x0 SLOAD DUP2 LT ISZERO PUSH2 0xD65 JUMPI PUSH1 0x0 PUSH1 0x2 PUSH1 0x0 PUSH1 0x1 DUP5 DUP2 SLOAD DUP2 LT PUSH2 0xB7A JUMPI PUSH2 0xB79 PUSH2 0x2807 JUMP JUMPDEST JUMPDEST SWAP1 PUSH1 0x0 MSTORE PUSH1 0x20 PUSH1 0x0 KECCAK256 ADD SLOAD DUP2 MSTORE PUSH1 0x20 ADD SWAP1 DUP2 MSTORE PUSH1 0x20 ADD PUSH1 0x0 KECCAK256 SWAP1 POP PUSH1 0x78 DUP2 PUSH1 0x3 ADD SLOAD PUSH2 0xBA6 SWAP2 SWAP1 PUSH2 0x2238 JUMP JUMPDEST TIMESTAMP LT PUSH2 0xD51 JUMPI DUP1 PUSH1 0x8 ADD PUSH1 0x0 SWAP1 SLOAD SWAP1 PUSH2 0x100 EXP SWAP1 DIV PUSH1 0xFF AND PUSH2 0xD50 JUMPI PUSH1 0x0 JUMPDEST DUP2 PUSH1 0x6 ADD DUP1 SLOAD SWAP1 POP DUP2 PUSH1 0xFF AND LT ISZERO PUSH2 0xD4E JUMPI PUSH2 0xC42 PUSH1 0x1 DUP5 DUP2 SLOAD DUP2 LT PUSH2 0xBEE JUMPI PUSH2 0xBED PUSH2 0x2807 JUMP JUMPDEST JUMPDEST SWAP1 PUSH1 0x0 MSTORE PUSH1 0x20 PUSH1 0x0 KECCAK256 ADD SLOAD DUP4 PUSH1 0x6 ADD DUP4 PUSH1 0xFF AND DUP2 SLOAD DUP2 LT PUSH2 0xC12 JUMPI PUSH2 0xC11 PUSH2 0x2807 JUMP JUMPDEST JUMPDEST SWAP1 PUSH1 0x0 MSTORE PUSH1 0x20 PUSH1 0x0 KECCAK256 ADD PUSH1 0x0 SWAP1 SLOAD SWAP1 PUSH2 0x100 EXP SWAP1 DIV PUSH20 0xFFFFFFFFFFFFFFFFFFFFFFFFFFFFFFFFFFFFFFFF AND PUSH2 0xDAD JUMP JUMPDEST PUSH2 0xCD8 DUP5 DUP4 PUSH1 0x9 ADD DUP1 SLOAD PUSH2 0xC55 SWAP1 PUSH2 0x216C JUMP JUMPDEST DUP1 PUSH1 0x1F ADD PUSH1 0x20 DUP1 SWAP2 DIV MUL PUSH1 0x20 ADD PUSH1 0x40 MLOAD SWAP1 DUP2 ADD PUSH1 0x40 MSTORE DUP1 SWAP3 SWAP2 SWAP1 DUP2 DUP2 MSTORE PUSH1 0x20 ADD DUP3 DUP1 SLOAD PUSH2 0xC81 SWAP1 PUSH2 0x216C JUMP JUMPDEST DUP1 ISZERO PUSH2 0xCCE JUMPI DUP1 PUSH1 0x1F LT PUSH2 0xCA3 JUMPI PUSH2 0x100 DUP1 DUP4 SLOAD DIV MUL DUP4 MSTORE SWAP2 PUSH1 0x20 ADD SWAP2 PUSH2 0xCCE JUMP JUMPDEST DUP3 ADD SWAP2 SWAP1 PUSH1 0x0 MSTORE PUSH1 0x20 PUSH1 0x0 KECCAK256 SWAP1 JUMPDEST DUP2 SLOAD DUP2 MSTORE SWAP1 PUSH1 0x1 ADD SWAP1 PUSH1 0x20 ADD DUP1 DUP4 GT PUSH2 0xCB1 JUMPI DUP3 SWAP1 SUB PUSH1 0x1F AND DUP3 ADD SWAP2 JUMPDEST POP POP POP POP POP PUSH2 0x1810 JUMP JUMPDEST PUSH2 0xD3B JUMPI PUSH1 0x0 DUP3 PUSH1 0x6 ADD DUP1 SLOAD SWAP1 POP SWAP1 POP PUSH1 0x0 DUP4 PUSH1 0x0 ADD DUP5 PUSH1 0x9 ADD PUSH2 0xCFB DUP5 PUSH2 0x1879 JUMP JUMPDEST PUSH2 0xD08 DUP8 PUSH1 0x5 ADD SLOAD PUSH2 0x1879 JUMP JUMPDEST PUSH1 0x40 MLOAD PUSH1 0x20 ADD PUSH2 0xD1B SWAP5 SWAP4 SWAP3 SWAP2 SWAP1 PUSH2 0x2941 JUMP JUMPDEST PUSH1 0x40 MLOAD PUSH1 0x20 DUP2 DUP4 SUB SUB DUP2 MSTORE SWAP1 PUSH1 0x40 MSTORE SWAP1 POP PUSH2 0xD36 DUP7 DUP3 PUSH2 0x1A9A JUMP JUMPDEST SWAP6 POP POP POP JUMPDEST DUP1 DUP1 PUSH2 0xD46 SWAP1 PUSH2 0x29AD JUMP JUMPDEST SWAP2 POP POP PUSH2 0xBC5 JUMP JUMPDEST POP JUMPDEST JUMPDEST POP DUP1 DUP1 PUSH2 0xD5D SWAP1 PUSH2 0x27BF JUMP JUMPDEST SWAP2 POP POP PUSH2 0xB56 JUMP JUMPDEST POP PUSH32 0xFC36D7CC461F11F4F552BDA21B5F2E9A7551DB8011F5DF2DFDCB1675B930B8DA DUP2 PUSH1 0x40 MLOAD PUSH2 0xD95 SWAP2 SWAP1 PUSH2 0x2AE2 JUMP JUMPDEST PUSH1 0x40 MLOAD DUP1 SWAP2 SUB SWAP1 LOG1 POP JUMP JUMPDEST PUSH1 0x0 PUSH1 0x1 DUP1 SLOAD SWAP1 POP SWAP1 POP SWAP1 JUMP JUMPDEST PUSH1 0x0 PUSH1 0x2 PUSH1 0x0 DUP5 DUP2 MSTORE PUSH1 0x20 ADD SWAP1 DUP2 MSTORE PUSH1 0x20 ADD PUSH1 0x0 KECCAK256 SWAP1 POP PUSH1 0x0 DUP1 PUSH1 0x0 SWAP1 POP JUMPDEST DUP3 PUSH1 0x6 ADD DUP1 SLOAD SWAP1 POP DUP2 PUSH1 0xFF AND LT ISZERO PUSH2 0xEAE JUMPI DUP4 PUSH20 0xFFFFFFFFFFFFFFFFFFFFFFFFFFFFFFFFFFFFFFFF AND DUP4 PUSH1 0x6 ADD DUP3 PUSH1 0xFF AND DUP2 SLOAD DUP2 LT PUSH2 0xE0E JUMPI PUSH2 0xE0D PUSH2 0x2807 JUMP JUMPDEST JUMPDEST SWAP1 PUSH1 0x0 MSTORE PUSH1 0x20 PUSH1 0x0 KECCAK256 ADD PUSH1 0x0 SWAP1 SLOAD SWAP1 PUSH2 0x100 EXP SWAP1 DIV PUSH20 0xFFFFFFFFFFFFFFFFFFFFFFFFFFFFFFFFFFFFFFFF AND PUSH20 0xFFFFFFFFFFFFFFFFFFFFFFFFFFFFFFFFFFFFFFFF AND SUB PUSH2 0xE9B JUMPI DUP3 PUSH1 0x6 ADD DUP2 PUSH1 0xFF AND DUP2 SLOAD DUP2 LT PUSH2 0xE6D JUMPI PUSH2 0xE6C PUSH2 0x2807 JUMP JUMPDEST JUMPDEST SWAP1 PUSH1 0x0 MSTORE PUSH1 0x20 PUSH1 0x0 KECCAK256 ADD PUSH1 0x0 SWAP1 SLOAD SWAP1 PUSH2 0x100 EXP SWAP1 DIV PUSH20 0xFFFFFFFFFFFFFFFFFFFFFFFFFFFFFFFFFFFFFFFF AND SWAP2 POP JUMPDEST DUP1 DUP1 PUSH2 0xEA6 SWAP1 PUSH2 0x29AD JUMP JUMPDEST SWAP2 POP POP PUSH2 0xDCC JUMP JUMPDEST POP DUP3 PUSH20 0xFFFFFFFFFFFFFFFFFFFFFFFFFFFFFFFFFFFFFFFF AND DUP2 PUSH20 0xFFFFFFFFFFFFFFFFFFFFFFFFFFFFFFFFFFFFFFFF AND EQ PUSH2 0xF1D JUMPI PUSH1 0x40 MLOAD PUSH32 0x8C379A000000000000000000000000000000000000000000000000000000000 DUP2 MSTORE PUSH1 0x4 ADD PUSH2 0xF14 SWAP1 PUSH2 0x2B50 JUMP JUMPDEST PUSH1 0x40 MLOAD DUP1 SWAP2 SUB SWAP1 REVERT JUMPDEST DUP2 PUSH1 0x7 ADD DUP4 SWAP1 DUP1 PUSH1 0x1 DUP2 SLOAD ADD DUP1 DUP3 SSTORE DUP1 SWAP2 POP POP PUSH1 0x1 SWAP1 SUB SWAP1 PUSH1 0x0 MSTORE PUSH1 0x20 PUSH1 0x0 KECCAK256 ADD PUSH1 0x0 SWAP1 SWAP2 SWAP1 SWAP2 SWAP1 SWAP2 PUSH2 0x100 EXP DUP2 SLOAD DUP2 PUSH20 0xFFFFFFFFFFFFFFFFFFFFFFFFFFFFFFFFFFFFFFFF MUL NOT AND SWAP1 DUP4 PUSH20 0xFFFFFFFFFFFFFFFFFFFFFFFFFFFFFFFFFFFFFFFF AND MUL OR SWAP1 SSTORE POP PUSH1 0x0 DUP4 PUSH20 0xFFFFFFFFFFFFFFFFFFFFFFFFFFFFFFFFFFFFFFFF AND DUP4 PUSH1 0x4 ADD SLOAD PUSH1 0x40 MLOAD PUSH2 0xFAC SWAP1 PUSH2 0x23EB JUMP JUMPDEST PUSH1 0x0 PUSH1 0x40 MLOAD DUP1 DUP4 SUB DUP2 DUP6 DUP8 GAS CALL SWAP3 POP POP POP RETURNDATASIZE DUP1 PUSH1 0x0 DUP2 EQ PUSH2 0xFE9 JUMPI PUSH1 0x40 MLOAD SWAP2 POP PUSH1 0x1F NOT PUSH1 0x3F RETURNDATASIZE ADD AND DUP3 ADD PUSH1 0x40 MSTORE RETURNDATASIZE DUP3 MSTORE RETURNDATASIZE PUSH1 0x0 PUSH1 0x20 DUP5 ADD RETURNDATACOPY PUSH2 0xFEE JUMP JUMPDEST PUSH1 0x60 SWAP2 POP JUMPDEST POP POP SWAP1 POP DUP1 PUSH2 0x1041 JUMPI DUP3 PUSH1 0x7 ADD DUP1 SLOAD DUP1 PUSH2 0x100B JUMPI PUSH2 0x100A PUSH2 0x2B70 JUMP JUMPDEST JUMPDEST PUSH1 0x1 SWAP1 SUB DUP2 DUP2 SWAP1 PUSH1 0x0 MSTORE PUSH1 0x20 PUSH1 0x0 KECCAK256 ADD PUSH1 0x0 PUSH2 0x100 EXP DUP2 SLOAD SWAP1 PUSH20 0xFFFFFFFFFFFFFFFFFFFFFFFFFFFFFFFFFFFFFFFF MUL NOT AND SWAP1 SSTORE SWAP1 SSTORE JUMPDEST DUP1 PUSH2 0x1081 JUMPI PUSH1 0x40 MLOAD PUSH32 0x8C379A000000000000000000000000000000000000000000000000000000000 DUP2 MSTORE PUSH1 0x4 ADD PUSH2 0x1078 SWAP1 PUSH2 0x244C JUMP JUMPDEST PUSH1 0x40 MLOAD DUP1 SWAP2 SUB SWAP1 REVERT JUMPDEST PUSH1 0x1 DUP4 PUSH1 0x8 ADD PUSH1 0x0 PUSH2 0x100 EXP DUP2 SLOAD DUP2 PUSH1 0xFF MUL NOT AND SWAP1 DUP4 ISZERO ISZERO MUL OR SWAP1 SSTORE POP PUSH32 0xF51B42FDA5553F12ACA9BF0984B446BF9883824E148EE9E467EB21F180A05FF3 DUP6 DUP6 PUSH1 0x40 MLOAD PUSH2 0x10CF SWAP3 SWAP2 SWAP1 PUSH2 0x2B9F JUMP JUMPDEST PUSH1 0x40 MLOAD DUP1 SWAP2 SUB SWAP1 LOG1 POP POP POP POP POP JUMP JUMPDEST PUSH1 0x60 DUP1 PUSH1 0x0 DUP1 PUSH1 0x0 DUP1 PUSH1 0x60 PUSH1 0x2 PUSH1 0x0 DUP10 DUP2 MSTORE PUSH1 0x20 ADD SWAP1 DUP2 MSTORE PUSH1 0x20 ADD PUSH1 0x0 KECCAK256 PUSH1 0x0 ADD PUSH1 0x2 PUSH1 0x0 DUP11 DUP2 MSTORE PUSH1 0x20 ADD SWAP1 DUP2 MSTORE PUSH1 0x20 ADD PUSH1 0x0 KECCAK256 PUSH1 0x1 ADD PUSH1 0x2 PUSH1 0x0 DUP12 DUP2 MSTORE PUSH1 0x20 ADD SWAP1 DUP2 MSTORE PUSH1 0x20 ADD PUSH1 0x0 KECCAK256 PUSH1 0x2 ADD PUSH1 0x0 SWAP1 SLOAD SWAP1 PUSH2 0x100 EXP SWAP1 DIV PUSH20 0xFFFFFFFFFFFFFFFFFFFFFFFFFFFFFFFFFFFFFFFF AND PUSH1 0x2 PUSH1 0x0 DUP13 DUP2 MSTORE PUSH1 0x20 ADD SWAP1 DUP2 MSTORE PUSH1 0x20 ADD PUSH1 0x0 KECCAK256 PUSH1 0x3 ADD SLOAD PUSH1 0x2 PUSH1 0x0 DUP14 DUP2 MSTORE PUSH1 0x20 ADD SWAP1 DUP2 MSTORE PUSH1 0x20 ADD PUSH1 0x0 KECCAK256 PUSH1 0x5 ADD SLOAD PUSH1 0x2 PUSH1 0x0 DUP15 DUP2 MSTORE PUSH1 0x20 ADD SWAP1 DUP2 MSTORE PUSH1 0x20 ADD PUSH1 0x0 KECCAK256 PUSH1 0x4 ADD SLOAD PUSH1 0x2 PUSH1 0x0 DUP16 DUP2 MSTORE PUSH1 0x20 ADD SWAP1 DUP2 MSTORE PUSH1 0x20 ADD PUSH1 0x0 KECCAK256 PUSH1 0x6 ADD DUP7 DUP1 SLOAD PUSH2 0x11B3 SWAP1 PUSH2 0x216C JUMP JUMPDEST DUP1 PUSH1 0x1F ADD PUSH1 0x20 DUP1 SWAP2 DIV MUL PUSH1 0x20 ADD PUSH1 0x40 MLOAD SWAP1 DUP2 ADD PUSH1 0x40 MSTORE DUP1 SWAP3 SWAP2 SWAP1 DUP2 DUP2 MSTORE PUSH1 0x20 ADD DUP3 DUP1 SLOAD PUSH2 0x11DF SWAP1 PUSH2 0x216C JUMP JUMPDEST DUP1 ISZERO PUSH2 0x122C JUMPI DUP1 PUSH1 0x1F LT PUSH2 0x1201 JUMPI PUSH2 0x100 DUP1 DUP4 SLOAD DIV MUL DUP4 MSTORE SWAP2 PUSH1 0x20 ADD SWAP2 PUSH2 0x122C JUMP JUMPDEST DUP3 ADD SWAP2 SWAP1 PUSH1 0x0 MSTORE PUSH1 0x20 PUSH1 0x0 KECCAK256 SWAP1 JUMPDEST DUP2 SLOAD DUP2 MSTORE SWAP1 PUSH1 0x1 ADD SWAP1 PUSH1 0x20 ADD DUP1 DUP4 GT PUSH2 0x120F JUMPI DUP3 SWAP1 SUB PUSH1 0x1F AND DUP3 ADD SWAP2 JUMPDEST POP POP POP POP POP SWAP7 POP DUP6 DUP1 SLOAD PUSH2 0x123F SWAP1 PUSH2 0x216C JUMP JUMPDEST DUP1 PUSH1 0x1F ADD PUSH1 0x20 DUP1 SWAP2 DIV MUL PUSH1 0x20 ADD PUSH1 0x40 MLOAD SWAP1 DUP2 ADD PUSH1 0x40 MSTORE DUP1 SWAP3 SWAP2 SWAP1 DUP2 DUP2 MSTORE PUSH1 0x20 ADD DUP3 DUP1 SLOAD PUSH2 0x126B SWAP1 PUSH2 0x216C JUMP JUMPDEST DUP1 ISZERO PUSH2 0x12B8 JUMPI DUP1 PUSH1 0x1F LT PUSH2 0x128D JUMPI PUSH2 0x100 DUP1 DUP4 SLOAD DIV MUL DUP4 MSTORE SWAP2 PUSH1 0x20 ADD SWAP2 PUSH2 0x12B8 JUMP JUMPDEST DUP3 ADD SWAP2 SWAP1 PUSH1 0x0 MSTORE PUSH1 0x20 PUSH1 0x0 KECCAK256 SWAP1 JUMPDEST DUP2 SLOAD DUP2 MSTORE SWAP1 PUSH1 0x1 ADD SWAP1 PUSH1 0x20 ADD DUP1 DUP4 GT PUSH2 0x129B JUMPI DUP3 SWAP1 SUB PUSH1 0x1F AND DUP3 ADD SWAP2 JUMPDEST POP POP POP POP POP SWAP6 POP DUP1 DUP1 SLOAD DUP1 PUSH1 0x20 MUL PUSH1 0x20 ADD PUSH1 0x40 MLOAD SWAP1 DUP2 ADD PUSH1 0x40 MSTORE DUP1 SWAP3 SWAP2 SWAP1 DUP2 DUP2 MSTORE PUSH1 0x20 ADD DUP3 DUP1 SLOAD DUP1 ISZERO PUSH2 0x1340 JUMPI PUSH1 0x20 MUL DUP3 ADD SWAP2 SWAP1 PUSH1 0x0 MSTORE PUSH1 0x20 PUSH1 0x0 KECCAK256 SWAP1 JUMPDEST DUP2 PUSH1 0x0 SWAP1 SLOAD SWAP1 PUSH2 0x100 EXP SWAP1 DIV PUSH20 0xFFFFFFFFFFFFFFFFFFFFFFFFFFFFFFFFFFFFFFFF AND PUSH20 0xFFFFFFFFFFFFFFFFFFFFFFFFFFFFFFFFFFFFFFFF AND DUP2 MSTORE PUSH1 0x20 ADD SWAP1 PUSH1 0x1 ADD SWAP1 DUP1 DUP4 GT PUSH2 0x12F6 JUMPI JUMPDEST POP POP POP POP POP SWAP1 POP SWAP7 POP SWAP7 POP SWAP7 POP SWAP7 POP SWAP7 POP SWAP7 POP SWAP7 POP SWAP2 SWAP4 SWAP6 SWAP8 SWAP1 SWAP3 SWAP5 SWAP7 POP JUMP JUMPDEST PUSH1 0x0 SELFBALANCE SWAP1 POP SWAP1 JUMP JUMPDEST PUSH1 0x0 PUSH1 0x2 PUSH1 0x0 DUP4 DUP2 MSTORE PUSH1 0x20 ADD SWAP1 DUP2 MSTORE PUSH1 0x20 ADD PUSH1 0x0 KECCAK256 SWAP1 POP DUP1 PUSH1 0x4 ADD SLOAD CALLVALUE EQ PUSH2 0x13C5 JUMPI PUSH1 0x40 MLOAD PUSH32 0x8C379A000000000000000000000000000000000000000000000000000000000 DUP2 MSTORE PUSH1 0x4 ADD PUSH2 0x13BC SWAP1 PUSH2 0x2C14 JUMP JUMPDEST PUSH1 0x40 MLOAD DUP1 SWAP2 SUB SWAP1 REVERT JUMPDEST DUP1 PUSH1 0x3 ADD SLOAD TIMESTAMP GT ISZERO PUSH2 0x140C JUMPI PUSH1 0x40 MLOAD PUSH32 0x8C379A000000000000000000000000000000000000000000000000000000000 DUP2 MSTORE PUSH1 0x4 ADD PUSH2 0x1403 SWAP1 PUSH2 0x2C80 JUMP JUMPDEST PUSH1 0x40 MLOAD DUP1 SWAP2 SUB SWAP1 REVERT JUMPDEST DUP1 PUSH1 0x5 ADD SLOAD DUP2 PUSH1 0x6 ADD DUP1 SLOAD SWAP1 POP LT PUSH2 0x1459 JUMPI PUSH1 0x40 MLOAD PUSH32 0x8C379A000000000000000000000000000000000000000000000000000000000 DUP2 MSTORE PUSH1 0x4 ADD PUSH2 0x1450 SWAP1 PUSH2 0x2CEC JUMP JUMPDEST PUSH1 0x40 MLOAD DUP1 SWAP2 SUB SWAP1 REVERT JUMPDEST PUSH1 0x0 JUMPDEST DUP2 PUSH1 0x6 ADD DUP1 SLOAD SWAP1 POP DUP2 PUSH1 0xFF AND LT ISZERO PUSH2 0x1532 JUMPI CALLER PUSH20 0xFFFFFFFFFFFFFFFFFFFFFFFFFFFFFFFFFFFFFFFF AND DUP3 PUSH1 0x6 ADD DUP3 PUSH1 0xFF AND DUP2 SLOAD DUP2 LT PUSH2 0x149E JUMPI PUSH2 0x149D PUSH2 0x2807 JUMP JUMPDEST JUMPDEST SWAP1 PUSH1 0x0 MSTORE PUSH1 0x20 PUSH1 0x0 KECCAK256 ADD PUSH1 0x0 SWAP1 SLOAD SWAP1 PUSH2 0x100 EXP SWAP1 DIV PUSH20 0xFFFFFFFFFFFFFFFFFFFFFFFFFFFFFFFFFFFFFFFF AND PUSH20 0xFFFFFFFFFFFFFFFFFFFFFFFFFFFFFFFFFFFFFFFF AND SUB PUSH2 0x151F JUMPI PUSH1 0x40 MLOAD PUSH32 0x8C379A000000000000000000000000000000000000000000000000000000000 DUP2 MSTORE PUSH1 0x4 ADD PUSH2 0x1516 SWAP1 PUSH2 0x2D58 JUMP JUMPDEST PUSH1 0x40 MLOAD DUP1 SWAP2 SUB SWAP1 REVERT JUMPDEST DUP1 DUP1 PUSH2 0x152A SWAP1 PUSH2 0x29AD JUMP JUMPDEST SWAP2 POP POP PUSH2 0x145C JUMP JUMPDEST POP DUP1 PUSH1 0x6 ADD CALLER SWAP1 DUP1 PUSH1 0x1 DUP2 SLOAD ADD DUP1 DUP3 SSTORE DUP1 SWAP2 POP POP PUSH1 0x1 SWAP1 SUB SWAP1 PUSH1 0x0 MSTORE PUSH1 0x20 PUSH1 0x0 KECCAK256 ADD PUSH1 0x0 SWAP1 SWAP2 SWAP1 SWAP2 SWAP1 SWAP2 PUSH2 0x100 EXP DUP2 SLOAD DUP2 PUSH20 0xFFFFFFFFFFFFFFFFFFFFFFFFFFFFFFFFFFFFFFFF MUL NOT AND SWAP1 DUP4 PUSH20 0xFFFFFFFFFFFFFFFFFFFFFFFFFFFFFFFFFFFFFFFF AND MUL OR SWAP1 SSTORE POP PUSH32 0x305579FDA99551F5107B32B7465875A3984F12521B5DF905EE46FE6EFB873F92 DUP3 CALLER PUSH1 0x40 MLOAD PUSH2 0x15C9 SWAP3 SWAP2 SWAP1 PUSH2 0x2B9F JUMP JUMPDEST PUSH1 0x40 MLOAD DUP1 SWAP2 SUB SWAP1 LOG1 POP POP JUMP JUMPDEST PUSH1 0x0 SLOAD DUP2 JUMP JUMPDEST PUSH1 0x0 PUSH1 0x1 DUP3 DUP2 SLOAD DUP2 LT PUSH2 0x15F1 JUMPI PUSH2 0x15F0 PUSH2 0x2807 JUMP JUMPDEST JUMPDEST SWAP1 PUSH1 0x0 MSTORE PUSH1 0x20 PUSH1 0x0 KECCAK256 ADD SLOAD SWAP1 POP SWAP2 SWAP1 POP JUMP JUMPDEST PUSH1 0x2 PUSH1 0x20 MSTORE DUP1 PUSH1 0x0 MSTORE PUSH1 0x40 PUSH1 0x0 KECCAK256 PUSH1 0x0 SWAP2 POP SWAP1 POP DUP1 PUSH1 0x0 ADD DUP1 SLOAD PUSH2 0x1626 SWAP1 PUSH2 0x216C JUMP JUMPDEST DUP1 PUSH1 0x1F ADD PUSH1 0x20 DUP1 SWAP2 DIV MUL PUSH1 0x20 ADD PUSH1 0x40 MLOAD SWAP1 DUP2 ADD PUSH1 0x40 MSTORE DUP1 SWAP3 SWAP2 SWAP1 DUP2 DUP2 MSTORE PUSH1 0x20 ADD DUP3 DUP1 SLOAD PUSH2 0x1652 SWAP1 PUSH2 0x216C JUMP JUMPDEST DUP1 ISZERO PUSH2 0x169F JUMPI DUP1 PUSH1 0x1F LT PUSH2 0x1674 JUMPI PUSH2 0x100 DUP1 DUP4 SLOAD DIV MUL DUP4 MSTORE SWAP2 PUSH1 0x20 ADD SWAP2 PUSH2 0x169F JUMP JUMPDEST DUP3 ADD SWAP2 SWAP1 PUSH1 0x0 MSTORE PUSH1 0x20 PUSH1 0x0 KECCAK256 SWAP1 JUMPDEST DUP2 SLOAD DUP2 MSTORE SWAP1 PUSH1 0x1 ADD SWAP1 PUSH1 0x20 ADD DUP1 DUP4 GT PUSH2 0x1682 JUMPI DUP3 SWAP1 SUB PUSH1 0x1F AND DUP3 ADD SWAP2 JUMPDEST POP POP POP POP POP SWAP1 DUP1 PUSH1 0x1 ADD DUP1 SLOAD PUSH2 0x16B4 SWAP1 PUSH2 0x216C JUMP JUMPDEST DUP1 PUSH1 0x1F ADD PUSH1 0x20 DUP1 SWAP2 DIV MUL PUSH1 0x20 ADD PUSH1 0x40 MLOAD SWAP1 DUP2 ADD PUSH1 0x40 MSTORE DUP1 SWAP3 SWAP2 SWAP1 DUP2 DUP2 MSTORE PUSH1 0x20 ADD DUP3 DUP1 SLOAD PUSH2 0x16E0 SWAP1 PUSH2 0x216C JUMP JUMPDEST DUP1 ISZERO PUSH2 0x172D JUMPI DUP1 PUSH1 0x1F LT PUSH2 0x1702 JUMPI PUSH2 0x100 DUP1 DUP4 SLOAD DIV MUL DUP4 MSTORE SWAP2 PUSH1 0x20 ADD SWAP2 PUSH2 0x172D JUMP JUMPDEST DUP3 ADD SWAP2 SWAP1 PUSH1 0x0 MSTORE PUSH1 0x20 PUSH1 0x0 KECCAK256 SWAP1 JUMPDEST DUP2 SLOAD DUP2 MSTORE SWAP1 PUSH1 0x1 ADD SWAP1 PUSH1 0x20 ADD DUP1 DUP4 GT PUSH2 0x1710 JUMPI DUP3 SWAP1 SUB PUSH1 0x1F AND DUP3 ADD SWAP2 JUMPDEST POP POP POP POP POP SWAP1 DUP1 PUSH1 0x2 ADD PUSH1 0x0 SWAP1 SLOAD SWAP1 PUSH2 0x100 EXP SWAP1 DIV PUSH20 0xFFFFFFFFFFFFFFFFFFFFFFFFFFFFFFFFFFFFFFFF AND SWAP1 DUP1 PUSH1 0x3 ADD SLOAD SWAP1 DUP1 PUSH1 0x4 ADD SLOAD SWAP1 DUP1 PUSH1 0x5 ADD SLOAD SWAP1 DUP1 PUSH1 0x8 ADD PUSH1 0x0 SWAP1 SLOAD SWAP1 PUSH2 0x100 EXP SWAP1 DIV PUSH1 0xFF AND SWAP1 DUP1 PUSH1 0x9 ADD DUP1 SLOAD PUSH2 0x178D SWAP1 PUSH2 0x216C JUMP JUMPDEST DUP1 PUSH1 0x1F ADD PUSH1 0x20 DUP1 SWAP2 DIV MUL PUSH1 0x20 ADD PUSH1 0x40 MLOAD SWAP1 DUP2 ADD PUSH1 0x40 MSTORE DUP1 SWAP3 SWAP2 SWAP1 DUP2 DUP2 MSTORE PUSH1 0x20 ADD DUP3 DUP1 SLOAD PUSH2 0x17B9 SWAP1 PUSH2 0x216C JUMP JUMPDEST DUP1 ISZERO PUSH2 0x1806 JUMPI DUP1 PUSH1 0x1F LT PUSH2 0x17DB JUMPI PUSH2 0x100 DUP1 DUP4 SLOAD DIV MUL DUP4 MSTORE SWAP2 PUSH1 0x20 ADD SWAP2 PUSH2 0x1806 JUMP JUMPDEST DUP3 ADD SWAP2 SWAP1 PUSH1 0x0 MSTORE PUSH1 0x20 PUSH1 0x0 KECCAK256 SWAP1 JUMPDEST DUP2 SLOAD DUP2 MSTORE SWAP1 PUSH1 0x1 ADD SWAP1 PUSH1 0x20 ADD DUP1 DUP4 GT PUSH2 0x17E9 JUMPI DUP3 SWAP1 SUB PUSH1 0x1F AND DUP3 ADD SWAP2 JUMPDEST POP POP POP POP POP SWAP1 POP DUP9 JUMP JUMPDEST PUSH1 0x0 DUP1 PUSH1 0x0 SWAP1 POP JUMPDEST DUP4 MLOAD DUP2 LT ISZERO PUSH2 0x186D JUMPI DUP3 DUP1 MLOAD SWAP1 PUSH1 0x20 ADD KECCAK256 DUP5 DUP3 DUP2 MLOAD DUP2 LT PUSH2 0x183C JUMPI PUSH2 0x183B PUSH2 0x2807 JUMP JUMPDEST JUMPDEST PUSH1 0x20 MUL PUSH1 0x20 ADD ADD MLOAD DUP1 MLOAD SWAP1 PUSH1 0x20 ADD KECCAK256 SUB PUSH2 0x185A JUMPI PUSH1 0x1 SWAP2 POP POP PUSH2 0x1873 JUMP JUMPDEST DUP1 DUP1 PUSH2 0x1865 SWAP1 PUSH2 0x27BF JUMP JUMPDEST SWAP2 POP POP PUSH2 0x1818 JUMP JUMPDEST POP PUSH1 0x0 SWAP1 POP JUMPDEST SWAP3 SWAP2 POP POP JUMP JUMPDEST PUSH1 0x60 PUSH1 0x0 DUP3 SUB PUSH2 0x18C0 JUMPI PUSH1 0x40 MLOAD DUP1 PUSH1 0x40 ADD PUSH1 0x40 MSTORE DUP1 PUSH1 0x1 DUP2 MSTORE PUSH1 0x20 ADD PUSH32 0x3000000000000000000000000000000000000000000000000000000000000000 DUP2 MSTORE POP SWAP1 POP PUSH2 0x1A95 JUMP JUMPDEST PUSH1 0x0 PUSH1 0x64 SWAP1 POP PUSH1 0x0 DUP2 PUSH8 0xFFFFFFFFFFFFFFFF DUP2 GT ISZERO PUSH2 0x18E2 JUMPI PUSH2 0x18E1 PUSH2 0x246C JUMP JUMPDEST JUMPDEST PUSH1 0x40 MLOAD SWAP1 DUP1 DUP3 MSTORE DUP1 PUSH1 0x1F ADD PUSH1 0x1F NOT AND PUSH1 0x20 ADD DUP3 ADD PUSH1 0x40 MSTORE DUP1 ISZERO PUSH2 0x1914 JUMPI DUP2 PUSH1 0x20 ADD PUSH1 0x1 DUP3 MUL DUP1 CALLDATASIZE DUP4 CALLDATACOPY DUP1 DUP3 ADD SWAP2 POP POP SWAP1 POP JUMPDEST POP SWAP1 POP PUSH1 0x0 JUMPDEST PUSH1 0x0 DUP6 EQ PUSH2 0x19A6 JUMPI PUSH1 0x0 PUSH1 0xA DUP7 PUSH2 0x1931 SWAP2 SWAP1 PUSH2 0x2DA7 JUMP JUMPDEST SWAP1 POP PUSH1 0xA DUP7 PUSH2 0x1940 SWAP2 SWAP1 PUSH2 0x2DD8 JUMP JUMPDEST SWAP6 POP DUP1 PUSH1 0x30 PUSH2 0x194F SWAP2 SWAP1 PUSH2 0x2238 JUMP JUMPDEST PUSH1 0xF8 SHL DUP4 DUP4 DUP1 PUSH2 0x195E SWAP1 PUSH2 0x27BF JUMP JUMPDEST SWAP5 POP DUP2 MLOAD DUP2 LT PUSH2 0x1971 JUMPI PUSH2 0x1970 PUSH2 0x2807 JUMP JUMPDEST JUMPDEST PUSH1 0x20 ADD ADD SWAP1 PUSH31 0xFFFFFFFFFFFFFFFFFFFFFFFFFFFFFFFFFFFFFFFFFFFFFFFFFFFFFFFFFFFFFF NOT AND SWAP1 DUP2 PUSH1 0x0 BYTE SWAP1 MSTORE8 POP POP PUSH2 0x191A JUMP JUMPDEST PUSH1 0x0 DUP2 PUSH8 0xFFFFFFFFFFFFFFFF DUP2 GT ISZERO PUSH2 0x19C2 JUMPI PUSH2 0x19C1 PUSH2 0x246C JUMP JUMPDEST JUMPDEST PUSH1 0x40 MLOAD SWAP1 DUP1 DUP3 MSTORE DUP1 PUSH1 0x1F ADD PUSH1 0x1F NOT AND PUSH1 0x20 ADD DUP3 ADD PUSH1 0x40 MSTORE DUP1 ISZERO PUSH2 0x19F4 JUMPI DUP2 PUSH1 0x20 ADD PUSH1 0x1 DUP3 MUL DUP1 CALLDATASIZE DUP4 CALLDATACOPY DUP1 DUP3 ADD SWAP2 POP POP SWAP1 POP JUMPDEST POP SWAP1 POP PUSH1 0x0 JUMPDEST DUP3 DUP2 LT ISZERO PUSH2 0x1A8C JUMPI DUP4 PUSH1 0x1 DUP3 DUP6 PUSH2 0x1A11 SWAP2 SWAP1 PUSH2 0x2344 JUMP JUMPDEST PUSH2 0x1A1B SWAP2 SWAP1 PUSH2 0x2344 JUMP JUMPDEST DUP2 MLOAD DUP2 LT PUSH2 0x1A2C JUMPI PUSH2 0x1A2B PUSH2 0x2807 JUMP JUMPDEST JUMPDEST PUSH1 0x20 ADD ADD MLOAD PUSH1 0xF8 SHR PUSH1 0xF8 SHL DUP3 DUP3 DUP2 MLOAD DUP2 LT PUSH2 0x1A4A JUMPI PUSH2 0x1A49 PUSH2 0x2807 JUMP JUMPDEST JUMPDEST PUSH1 0x20 ADD ADD SWAP1 PUSH31 0xFFFFFFFFFFFFFFFFFFFFFFFFFFFFFFFFFFFFFFFFFFFFFFFFFFFFFFFFFFFFFF NOT AND SWAP1 DUP2 PUSH1 0x0 BYTE SWAP1 MSTORE8 POP DUP1 DUP1 PUSH2 0x1A84 SWAP1 PUSH2 0x27BF JUMP JUMPDEST SWAP2 POP POP PUSH2 0x19FA JUMP JUMPDEST POP DUP1 SWAP5 POP POP POP POP POP JUMPDEST SWAP2 SWAP1 POP JUMP JUMPDEST PUSH1 0x60 PUSH1 0x0 PUSH1 0x1 DUP5 MLOAD PUSH2 0x1AAC SWAP2 SWAP1 PUSH2 0x2238 JUMP JUMPDEST PUSH8 0xFFFFFFFFFFFFFFFF DUP2 GT ISZERO PUSH2 0x1AC5 JUMPI PUSH2 0x1AC4 PUSH2 0x246C JUMP JUMPDEST JUMPDEST PUSH1 0x40 MLOAD SWAP1 DUP1 DUP3 MSTORE DUP1 PUSH1 0x20 MUL PUSH1 0x20 ADD DUP3 ADD PUSH1 0x40 MSTORE DUP1 ISZERO PUSH2 0x1AF8 JUMPI DUP2 PUSH1 0x20 ADD JUMPDEST PUSH1 0x60 DUP2 MSTORE PUSH1 0x20 ADD SWAP1 PUSH1 0x1 SWAP1 SUB SWAP1 DUP2 PUSH2 0x1AE3 JUMPI SWAP1 POP JUMPDEST POP SWAP1 POP PUSH1 0x0 JUMPDEST DUP5 MLOAD DUP2 LT ISZERO PUSH2 0x1B53 JUMPI DUP5 DUP2 DUP2 MLOAD DUP2 LT PUSH2 0x1B1A JUMPI PUSH2 0x1B19 PUSH2 0x2807 JUMP JUMPDEST JUMPDEST PUSH1 0x20 MUL PUSH1 0x20 ADD ADD MLOAD DUP3 DUP3 DUP2 MLOAD DUP2 LT PUSH2 0x1B35 JUMPI PUSH2 0x1B34 PUSH2 0x2807 JUMP JUMPDEST JUMPDEST PUSH1 0x20 MUL PUSH1 0x20 ADD ADD DUP2 SWAP1 MSTORE POP DUP1 DUP1 PUSH2 0x1B4B SWAP1 PUSH2 0x27BF JUMP JUMPDEST SWAP2 POP POP PUSH2 0x1AFE JUMP JUMPDEST POP DUP3 DUP2 DUP6 MLOAD DUP2 MLOAD DUP2 LT PUSH2 0x1B69 JUMPI PUSH2 0x1B68 PUSH2 0x2807 JUMP JUMPDEST JUMPDEST PUSH1 0x20 MUL PUSH1 0x20 ADD ADD DUP2 SWAP1 MSTORE POP DUP1 SWAP2 POP POP SWAP3 SWAP2 POP POP JUMP JUMPDEST DUP3 DUP1 SLOAD DUP3 DUP3 SSTORE SWAP1 PUSH1 0x0 MSTORE PUSH1 0x20 PUSH1 0x0 KECCAK256 SWAP1 DUP2 ADD SWAP3 DUP3 ISZERO PUSH2 0x1BF7 JUMPI SWAP2 PUSH1 0x20 MUL DUP3 ADD JUMPDEST DUP3 DUP2 GT ISZERO PUSH2 0x1BF6 JUMPI DUP3 MLOAD DUP3 PUSH1 0x0 PUSH2 0x100 EXP DUP2 SLOAD DUP2 PUSH20 0xFFFFFFFFFFFFFFFFFFFFFFFFFFFFFFFFFFFFFFFF MUL NOT AND SWAP1 DUP4 PUSH20 0xFFFFFFFFFFFFFFFFFFFFFFFFFFFFFFFFFFFFFFFF AND MUL OR SWAP1 SSTORE POP SWAP2 PUSH1 0x20 ADD SWAP2 SWAP1 PUSH1 0x1 ADD SWAP1 PUSH2 0x1B9E JUMP JUMPDEST JUMPDEST POP SWAP1 POP PUSH2 0x1C04 SWAP2 SWAP1 PUSH2 0x1C08 JUMP JUMPDEST POP SWAP1 JUMP JUMPDEST JUMPDEST DUP1 DUP3 GT ISZERO PUSH2 0x1C21 JUMPI PUSH1 0x0 DUP2 PUSH1 0x0 SWAP1 SSTORE POP PUSH1 0x1 ADD PUSH2 0x1C09 JUMP JUMPDEST POP SWAP1 JUMP JUMPDEST PUSH1 0x0 DUP1 REVERT JUMPDEST PUSH1 0x0 DUP1 REVERT JUMPDEST PUSH1 0x0 DUP2 SWAP1 POP SWAP2 SWAP1 POP JUMP JUMPDEST PUSH2 0x1C42 DUP2 PUSH2 0x1C2F JUMP JUMPDEST DUP2 EQ PUSH2 0x1C4D JUMPI PUSH1 0x0 DUP1 REVERT JUMPDEST POP JUMP JUMPDEST PUSH1 0x0 DUP2 CALLDATALOAD SWAP1 POP PUSH2 0x1C5F DUP2 PUSH2 0x1C39 JUMP JUMPDEST SWAP3 SWAP2 POP POP JUMP JUMPDEST PUSH1 0x0 PUSH1 0x20 DUP3 DUP5 SUB SLT ISZERO PUSH2 0x1C7B JUMPI PUSH2 0x1C7A PUSH2 0x1C25 JUMP JUMPDEST JUMPDEST PUSH1 0x0 PUSH2 0x1C89 DUP5 DUP3 DUP6 ADD PUSH2 0x1C50 JUMP JUMPDEST SWAP2 POP POP SWAP3 SWAP2 POP POP JUMP JUMPDEST PUSH1 0x0 DUP1 REVERT JUMPDEST PUSH1 0x0 DUP1 REVERT JUMPDEST PUSH1 0x0 DUP1 REVERT JUMPDEST PUSH1 0x0 DUP1 DUP4 PUSH1 0x1F DUP5 ADD SLT PUSH2 0x1CB7 JUMPI PUSH2 0x1CB6 PUSH2 0x1C92 JUMP JUMPDEST JUMPDEST DUP3 CALLDATALOAD SWAP1 POP PUSH8 0xFFFFFFFFFFFFFFFF DUP2 GT ISZERO PUSH2 0x1CD4 JUMPI PUSH2 0x1CD3 PUSH2 0x1C97 JUMP JUMPDEST JUMPDEST PUSH1 0x20 DUP4 ADD SWAP2 POP DUP4 PUSH1 0x1 DUP3 MUL DUP4 ADD GT ISZERO PUSH2 0x1CF0 JUMPI PUSH2 0x1CEF PUSH2 0x1C9C JUMP JUMPDEST JUMPDEST SWAP3 POP SWAP3 SWAP1 POP JUMP JUMPDEST PUSH1 0x0 DUP1 PUSH1 0x0 DUP1 PUSH1 0x0 DUP1 PUSH1 0x0 DUP1 PUSH1 0x0 PUSH1 0xC0 DUP11 DUP13 SUB SLT ISZERO PUSH2 0x1D19 JUMPI PUSH2 0x1D18 PUSH2 0x1C25 JUMP JUMPDEST JUMPDEST PUSH1 0x0 DUP11 ADD CALLDATALOAD PUSH8 0xFFFFFFFFFFFFFFFF DUP2 GT ISZERO PUSH2 0x1D37 JUMPI PUSH2 0x1D36 PUSH2 0x1C2A JUMP JUMPDEST JUMPDEST PUSH2 0x1D43 DUP13 DUP3 DUP14 ADD PUSH2 0x1CA1 JUMP JUMPDEST SWAP10 POP SWAP10 POP POP PUSH1 0x20 PUSH2 0x1D56 DUP13 DUP3 DUP14 ADD PUSH2 0x1C50 JUMP JUMPDEST SWAP8 POP POP PUSH1 0x40 PUSH2 0x1D67 DUP13 DUP3 DUP14 ADD PUSH2 0x1C50 JUMP JUMPDEST SWAP7 POP POP PUSH1 0x60 PUSH2 0x1D78 DUP13 DUP3 DUP14 ADD PUSH2 0x1C50 JUMP JUMPDEST SWAP6 POP POP PUSH1 0x80 DUP11 ADD CALLDATALOAD PUSH8 0xFFFFFFFFFFFFFFFF DUP2 GT ISZERO PUSH2 0x1D99 JUMPI PUSH2 0x1D98 PUSH2 0x1C2A JUMP JUMPDEST JUMPDEST PUSH2 0x1DA5 DUP13 DUP3 DUP14 ADD PUSH2 0x1CA1 JUMP JUMPDEST SWAP5 POP SWAP5 POP POP PUSH1 0xA0 DUP11 ADD CALLDATALOAD PUSH8 0xFFFFFFFFFFFFFFFF DUP2 GT ISZERO PUSH2 0x1DC8 JUMPI PUSH2 0x1DC7 PUSH2 0x1C2A JUMP JUMPDEST JUMPDEST PUSH2 0x1DD4 DUP13 DUP3 DUP14 ADD PUSH2 0x1CA1 JUMP JUMPDEST SWAP3 POP SWAP3 POP POP SWAP3 SWAP6 SWAP9 POP SWAP3 SWAP6 SWAP9 POP SWAP3 SWAP6 SWAP9 JUMP JUMPDEST PUSH2 0x1DEF DUP2 PUSH2 0x1C2F JUMP JUMPDEST DUP3 MSTORE POP POP JUMP JUMPDEST PUSH1 0x0 PUSH1 0x20 DUP3 ADD SWAP1 POP PUSH2 0x1E0A PUSH1 0x0 DUP4 ADD DUP5 PUSH2 0x1DE6 JUMP JUMPDEST SWAP3 SWAP2 POP POP JUMP JUMPDEST PUSH1 0x0 PUSH20 0xFFFFFFFFFFFFFFFFFFFFFFFFFFFFFFFFFFFFFFFF DUP3 AND SWAP1 POP SWAP2 SWAP1 POP JUMP JUMPDEST PUSH1 0x0 PUSH2 0x1E3B DUP3 PUSH2 0x1E10 JUMP JUMPDEST SWAP1 POP SWAP2 SWAP1 POP JUMP JUMPDEST PUSH2 0x1E4B DUP2 PUSH2 0x1E30 JUMP JUMPDEST DUP2 EQ PUSH2 0x1E56 JUMPI PUSH1 0x0 DUP1 REVERT JUMPDEST POP JUMP JUMPDEST PUSH1 0x0 DUP2 CALLDATALOAD SWAP1 POP PUSH2 0x1E68 DUP2 PUSH2 0x1E42 JUMP JUMPDEST SWAP3 SWAP2 POP POP JUMP JUMPDEST PUSH1 0x0 DUP1 PUSH1 0x40 DUP4 DUP6 SUB SLT ISZERO PUSH2 0x1E85 JUMPI PUSH2 0x1E84 PUSH2 0x1C25 JUMP JUMPDEST JUMPDEST PUSH1 0x0 PUSH2 0x1E93 DUP6 DUP3 DUP7 ADD PUSH2 0x1C50 JUMP JUMPDEST SWAP3 POP POP PUSH1 0x20 PUSH2 0x1EA4 DUP6 DUP3 DUP7 ADD PUSH2 0x1E59 JUMP JUMPDEST SWAP2 POP POP SWAP3 POP SWAP3 SWAP1 POP JUMP JUMPDEST PUSH1 0x0 DUP2 MLOAD SWAP1 POP SWAP2 SWAP1 POP JUMP JUMPDEST PUSH1 0x0 DUP3 DUP3 MSTORE PUSH1 0x20 DUP3 ADD SWAP1 POP SWAP3 SWAP2 POP POP JUMP JUMPDEST PUSH1 0x0 JUMPDEST DUP4 DUP2 LT ISZERO PUSH2 0x1EE8 JUMPI DUP1 DUP3 ADD MLOAD DUP2 DUP5 ADD MSTORE PUSH1 0x20 DUP2 ADD SWAP1 POP PUSH2 0x1ECD JUMP JUMPDEST PUSH1 0x0 DUP5 DUP5 ADD MSTORE POP POP POP POP JUMP JUMPDEST PUSH1 0x0 PUSH1 0x1F NOT PUSH1 0x1F DUP4 ADD AND SWAP1 POP SWAP2 SWAP1 POP JUMP JUMPDEST PUSH1 0x0 PUSH2 0x1F10 DUP3 PUSH2 0x1EAE JUMP JUMPDEST PUSH2 0x1F1A DUP2 DUP6 PUSH2 0x1EB9 JUMP JUMPDEST SWAP4 POP PUSH2 0x1F2A DUP2 DUP6 PUSH1 0x20 DUP7 ADD PUSH2 0x1ECA JUMP JUMPDEST PUSH2 0x1F33 DUP2 PUSH2 0x1EF4 JUMP JUMPDEST DUP5 ADD SWAP2 POP POP SWAP3 SWAP2 POP POP JUMP JUMPDEST PUSH2 0x1F47 DUP2 PUSH2 0x1E30 JUMP JUMPDEST DUP3 MSTORE POP POP JUMP JUMPDEST PUSH1 0x0 DUP2 MLOAD SWAP1 POP SWAP2 SWAP1 POP JUMP JUMPDEST PUSH1 0x0 DUP3 DUP3 MSTORE PUSH1 0x20 DUP3 ADD SWAP1 POP SWAP3 SWAP2 POP POP JUMP JUMPDEST PUSH1 0x0 DUP2 SWAP1 POP PUSH1 0x20 DUP3 ADD SWAP1 POP SWAP2 SWAP1 POP JUMP JUMPDEST PUSH2 0x1F82 DUP2 PUSH2 0x1E30 JUMP JUMPDEST DUP3 MSTORE POP POP JUMP JUMPDEST PUSH1 0x0 PUSH2 0x1F94 DUP4 DUP4 PUSH2 0x1F79 JUMP JUMPDEST PUSH1 0x20 DUP4 ADD SWAP1 POP SWAP3 SWAP2 POP POP JUMP JUMPDEST PUSH1 0x0 PUSH1 0x20 DUP3 ADD SWAP1 POP SWAP2 SWAP1 POP JUMP JUMPDEST PUSH1 0x0 PUSH2 0x1FB8 DUP3 PUSH2 0x1F4D JUMP JUMPDEST PUSH2 0x1FC2 DUP2 DUP6 PUSH2 0x1F58 JUMP JUMPDEST SWAP4 POP PUSH2 0x1FCD DUP4 PUSH2 0x1F69 JUMP JUMPDEST DUP1 PUSH1 0x0 JUMPDEST DUP4 DUP2 LT ISZERO PUSH2 0x1FFE JUMPI DUP2 MLOAD PUSH2 0x1FE5 DUP9 DUP3 PUSH2 0x1F88 JUMP JUMPDEST SWAP8 POP PUSH2 0x1FF0 DUP4 PUSH2 0x1FA0 JUMP JUMPDEST SWAP3 POP POP PUSH1 0x1 DUP2 ADD SWAP1 POP PUSH2 0x1FD1 JUMP JUMPDEST POP DUP6 SWAP4 POP POP POP POP SWAP3 SWAP2 POP POP JUMP JUMPDEST PUSH1 0x0 PUSH1 0xE0 DUP3 ADD SWAP1 POP DUP2 DUP2 SUB PUSH1 0x0 DUP4 ADD MSTORE PUSH2 0x2025 DUP2 DUP11 PUSH2 0x1F05 JUMP JUMPDEST SWAP1 POP DUP2 DUP2 SUB PUSH1 0x20 DUP4 ADD MSTORE PUSH2 0x2039 DUP2 DUP10 PUSH2 0x1F05 JUMP JUMPDEST SWAP1 POP PUSH2 0x2048 PUSH1 0x40 DUP4 ADD DUP9 PUSH2 0x1F3E JUMP JUMPDEST PUSH2 0x2055 PUSH1 0x60 DUP4 ADD DUP8 PUSH2 0x1DE6 JUMP JUMPDEST PUSH2 0x2062 PUSH1 0x80 DUP4 ADD DUP7 PUSH2 0x1DE6 JUMP JUMPDEST PUSH2 0x206F PUSH1 0xA0 DUP4 ADD DUP6 PUSH2 0x1DE6 JUMP JUMPDEST DUP2 DUP2 SUB PUSH1 0xC0 DUP4 ADD MSTORE PUSH2 0x2081 DUP2 DUP5 PUSH2 0x1FAD JUMP JUMPDEST SWAP1 POP SWAP9 SWAP8 POP POP POP POP POP POP POP POP JUMP JUMPDEST PUSH1 0x0 DUP2 ISZERO ISZERO SWAP1 POP SWAP2 SWAP1 POP JUMP JUMPDEST PUSH2 0x20A4 DUP2 PUSH2 0x208F JUMP JUMPDEST DUP3 MSTORE POP POP JUMP JUMPDEST PUSH1 0x0 PUSH2 0x100 DUP3 ADD SWAP1 POP DUP2 DUP2 SUB PUSH1 0x0 DUP4 ADD MSTORE PUSH2 0x20C5 DUP2 DUP12 PUSH2 0x1F05 JUMP JUMPDEST SWAP1 POP DUP2 DUP2 SUB PUSH1 0x20 DUP4 ADD MSTORE PUSH2 0x20D9 DUP2 DUP11 PUSH2 0x1F05 JUMP JUMPDEST SWAP1 POP PUSH2 0x20E8 PUSH1 0x40 DUP4 ADD DUP10 PUSH2 0x1F3E JUMP JUMPDEST PUSH2 0x20F5 PUSH1 0x60 DUP4 ADD DUP9 PUSH2 0x1DE6 JUMP JUMPDEST PUSH2 0x2102 PUSH1 0x80 DUP4 ADD DUP8 PUSH2 0x1DE6 JUMP JUMPDEST PUSH2 0x210F PUSH1 0xA0 DUP4 ADD DUP7 PUSH2 0x1DE6 JUMP JUMPDEST PUSH2 0x211C PUSH1 0xC0 DUP4 ADD DUP6 PUSH2 0x209B JUMP JUMPDEST DUP2 DUP2 SUB PUSH1 0xE0 DUP4 ADD MSTORE PUSH2 0x212E DUP2 DUP5 PUSH2 0x1F05 JUMP JUMPDEST SWAP1 POP SWAP10 SWAP9 POP POP POP POP POP POP POP POP POP JUMP JUMPDEST PUSH32 0x4E487B7100000000000000000000000000000000000000000000000000000000 PUSH1 0x0 MSTORE PUSH1 0x22 PUSH1 0x4 MSTORE PUSH1 0x24 PUSH1 0x0 REVERT JUMPDEST PUSH1 0x0 PUSH1 0x2 DUP3 DIV SWAP1 POP PUSH1 0x1 DUP3 AND DUP1 PUSH2 0x2184 JUMPI PUSH1 0x7F DUP3 AND SWAP2 POP JUMPDEST PUSH1 0x20 DUP3 LT DUP2 SUB PUSH2 0x2197 JUMPI PUSH2 0x2196 PUSH2 0x213D JUMP JUMPDEST JUMPDEST POP SWAP2 SWAP1 POP JUMP JUMPDEST PUSH32 0x414C524541445920504149440000000000000000000000000000000000000000 PUSH1 0x0 DUP3 ADD MSTORE POP JUMP JUMPDEST PUSH1 0x0 PUSH2 0x21D3 PUSH1 0xC DUP4 PUSH2 0x1EB9 JUMP JUMPDEST SWAP2 POP PUSH2 0x21DE DUP3 PUSH2 0x219D JUMP JUMPDEST PUSH1 0x20 DUP3 ADD SWAP1 POP SWAP2 SWAP1 POP JUMP JUMPDEST PUSH1 0x0 PUSH1 0x20 DUP3 ADD SWAP1 POP DUP2 DUP2 SUB PUSH1 0x0 DUP4 ADD MSTORE PUSH2 0x2202 DUP2 PUSH2 0x21C6 JUMP JUMPDEST SWAP1 POP SWAP2 SWAP1 POP JUMP JUMPDEST PUSH32 0x4E487B7100000000000000000000000000000000000000000000000000000000 PUSH1 0x0 MSTORE PUSH1 0x11 PUSH1 0x4 MSTORE PUSH1 0x24 PUSH1 0x0 REVERT JUMPDEST PUSH1 0x0 PUSH2 0x2243 DUP3 PUSH2 0x1C2F JUMP JUMPDEST SWAP2 POP PUSH2 0x224E DUP4 PUSH2 0x1C2F JUMP JUMPDEST SWAP3 POP DUP3 DUP3 ADD SWAP1 POP DUP1 DUP3 GT ISZERO PUSH2 0x2266 JUMPI PUSH2 0x2265 PUSH2 0x2209 JUMP JUMPDEST JUMPDEST SWAP3 SWAP2 POP POP JUMP JUMPDEST PUSH32 0x544F4F204541524C590000000000000000000000000000000000000000000000 PUSH1 0x0 DUP3 ADD MSTORE POP JUMP JUMPDEST PUSH1 0x0 PUSH2 0x22A2 PUSH1 0x9 DUP4 PUSH2 0x1EB9 JUMP JUMPDEST SWAP2 POP PUSH2 0x22AD DUP3 PUSH2 0x226C JUMP JUMPDEST PUSH1 0x20 DUP3 ADD SWAP1 POP SWAP2 SWAP1 POP JUMP JUMPDEST PUSH1 0x0 PUSH1 0x20 DUP3 ADD SWAP1 POP DUP2 DUP2 SUB PUSH1 0x0 DUP4 ADD MSTORE PUSH2 0x22D1 DUP2 PUSH2 0x2295 JUMP JUMPDEST SWAP1 POP SWAP2 SWAP1 POP JUMP JUMPDEST PUSH32 0x4D555354204245204556454E54204F574E455200000000000000000000000000 PUSH1 0x0 DUP3 ADD MSTORE POP JUMP JUMPDEST PUSH1 0x0 PUSH2 0x230E PUSH1 0x13 DUP4 PUSH2 0x1EB9 JUMP JUMPDEST SWAP2 POP PUSH2 0x2319 DUP3 PUSH2 0x22D8 JUMP JUMPDEST PUSH1 0x20 DUP3 ADD SWAP1 POP SWAP2 SWAP1 POP JUMP JUMPDEST PUSH1 0x0 PUSH1 0x20 DUP3 ADD SWAP1 POP DUP2 DUP2 SUB PUSH1 0x0 DUP4 ADD MSTORE PUSH2 0x233D DUP2 PUSH2 0x2301 JUMP JUMPDEST SWAP1 POP SWAP2 SWAP1 POP JUMP JUMPDEST PUSH1 0x0 PUSH2 0x234F DUP3 PUSH2 0x1C2F JUMP JUMPDEST SWAP2 POP PUSH2 0x235A DUP4 PUSH2 0x1C2F JUMP JUMPDEST SWAP3 POP DUP3 DUP3 SUB SWAP1 POP DUP2 DUP2 GT ISZERO PUSH2 0x2372 JUMPI PUSH2 0x2371 PUSH2 0x2209 JUMP JUMPDEST JUMPDEST SWAP3 SWAP2 POP POP JUMP JUMPDEST PUSH1 0x0 PUSH2 0x2383 DUP3 PUSH2 0x1C2F JUMP JUMPDEST SWAP2 POP PUSH2 0x238E DUP4 PUSH2 0x1C2F JUMP JUMPDEST SWAP3 POP DUP3 DUP3 MUL PUSH2 0x239C DUP2 PUSH2 0x1C2F JUMP JUMPDEST SWAP2 POP DUP3 DUP3 DIV DUP5 EQ DUP4 ISZERO OR PUSH2 0x23B3 JUMPI PUSH2 0x23B2 PUSH2 0x2209 JUMP JUMPDEST JUMPDEST POP SWAP3 SWAP2 POP POP JUMP JUMPDEST PUSH1 0x0 DUP2 SWAP1 POP SWAP3 SWAP2 POP POP JUMP JUMPDEST POP JUMP JUMPDEST PUSH1 0x0 PUSH2 0x23D5 PUSH1 0x0 DUP4 PUSH2 0x23BA JUMP JUMPDEST SWAP2 POP PUSH2 0x23E0 DUP3 PUSH2 0x23C5 JUMP JUMPDEST PUSH1 0x0 DUP3 ADD SWAP1 POP SWAP2 SWAP1 POP JUMP JUMPDEST PUSH1 0x0 PUSH2 0x23F6 DUP3 PUSH2 0x23C8 JUMP JUMPDEST SWAP2 POP DUP2 SWAP1 POP SWAP2 SWAP1 POP JUMP JUMPDEST PUSH32 0x4661696C656420746F2073656E64204574686572000000000000000000000000 PUSH1 0x0 DUP3 ADD MSTORE POP JUMP JUMPDEST PUSH1 0x0 PUSH2 0x2436 PUSH1 0x14 DUP4 PUSH2 0x1EB9 JUMP JUMPDEST SWAP2 POP PUSH2 0x2441 DUP3 PUSH2 0x2400 JUMP JUMPDEST PUSH1 0x20 DUP3 ADD SWAP1 POP SWAP2 SWAP1 POP JUMP JUMPDEST PUSH1 0x0 PUSH1 0x20 DUP3 ADD SWAP1 POP DUP2 DUP2 SUB PUSH1 0x0 DUP4 ADD MSTORE PUSH2 0x2465 DUP2 PUSH2 0x2429 JUMP JUMPDEST SWAP1 POP SWAP2 SWAP1 POP JUMP JUMPDEST PUSH32 0x4E487B7100000000000000000000000000000000000000000000000000000000 PUSH1 0x0 MSTORE PUSH1 0x41 PUSH1 0x4 MSTORE PUSH1 0x24 PUSH1 0x0 REVERT JUMPDEST PUSH1 0x0 DUP2 SWAP1 POP DUP2 PUSH1 0x0 MSTORE PUSH1 0x20 PUSH1 0x0 KECCAK256 SWAP1 POP SWAP2 SWAP1 POP JUMP JUMPDEST PUSH1 0x0 PUSH1 0x20 PUSH1 0x1F DUP4 ADD DIV SWAP1 POP SWAP2 SWAP1 POP JUMP JUMPDEST PUSH1 0x0 DUP3 DUP3 SHL SWAP1 POP SWAP3 SWAP2 POP POP JUMP JUMPDEST PUSH1 0x0 PUSH1 0x8 DUP4 MUL PUSH2 0x24FD PUSH32 0xFFFFFFFFFFFFFFFFFFFFFFFFFFFFFFFFFFFFFFFFFFFFFFFFFFFFFFFFFFFFFFFF DUP3 PUSH2 0x24C0 JUMP JUMPDEST PUSH2 0x2507 DUP7 DUP4 PUSH2 0x24C0 JUMP JUMPDEST SWAP6 POP DUP1 NOT DUP5 AND SWAP4 POP DUP1 DUP7 AND DUP5 OR SWAP3 POP POP POP SWAP4 SWAP3 POP POP POP JUMP JUMPDEST PUSH1 0x0 DUP2 SWAP1 POP SWAP2 SWAP1 POP JUMP JUMPDEST PUSH1 0x0 PUSH2 0x2544 PUSH2 0x253F PUSH2 0x253A DUP5 PUSH2 0x1C2F JUMP JUMPDEST PUSH2 0x251F JUMP JUMPDEST PUSH2 0x1C2F JUMP JUMPDEST SWAP1 POP SWAP2 SWAP1 POP JUMP JUMPDEST PUSH1 0x0 DUP2 SWAP1 POP SWAP2 SWAP1 POP JUMP JUMPDEST PUSH2 0x255E DUP4 PUSH2 0x2529 JUMP JUMPDEST PUSH2 0x2572 PUSH2 0x256A DUP3 PUSH2 0x254B JUMP JUMPDEST DUP5 DUP5 SLOAD PUSH2 0x24CD JUMP JUMPDEST DUP3 SSTORE POP POP POP POP JUMP JUMPDEST PUSH1 0x0 SWAP1 JUMP JUMPDEST PUSH2 0x2587 PUSH2 0x257A JUMP JUMPDEST PUSH2 0x2592 DUP2 DUP5 DUP5 PUSH2 0x2555 JUMP JUMPDEST POP POP POP JUMP JUMPDEST JUMPDEST DUP2 DUP2 LT ISZERO PUSH2 0x25B6 JUMPI PUSH2 0x25AB PUSH1 0x0 DUP3 PUSH2 0x257F JUMP JUMPDEST PUSH1 0x1 DUP2 ADD SWAP1 POP PUSH2 0x2598 JUMP JUMPDEST POP POP JUMP JUMPDEST PUSH1 0x1F DUP3 GT ISZERO PUSH2 0x25FB JUMPI PUSH2 0x25CC DUP2 PUSH2 0x249B JUMP JUMPDEST PUSH2 0x25D5 DUP5 PUSH2 0x24B0 JUMP JUMPDEST DUP2 ADD PUSH1 0x20 DUP6 LT ISZERO PUSH2 0x25E4 JUMPI DUP2 SWAP1 POP JUMPDEST PUSH2 0x25F8 PUSH2 0x25F0 DUP6 PUSH2 0x24B0 JUMP JUMPDEST DUP4 ADD DUP3 PUSH2 0x2597 JUMP JUMPDEST POP POP JUMPDEST POP POP POP JUMP JUMPDEST PUSH1 0x0 DUP3 DUP3 SHR SWAP1 POP SWAP3 SWAP2 POP POP JUMP JUMPDEST PUSH1 0x0 PUSH2 0x261E PUSH1 0x0 NOT DUP5 PUSH1 0x8 MUL PUSH2 0x2600 JUMP JUMPDEST NOT DUP1 DUP4 AND SWAP2 POP POP SWAP3 SWAP2 POP POP JUMP JUMPDEST PUSH1 0x0 PUSH2 0x2637 DUP4 DUP4 PUSH2 0x260D JUMP JUMPDEST SWAP2 POP DUP3 PUSH1 0x2 MUL DUP3 OR SWAP1 POP SWAP3 SWAP2 POP POP JUMP JUMPDEST PUSH2 0x2650 DUP3 PUSH2 0x1EAE JUMP JUMPDEST PUSH8 0xFFFFFFFFFFFFFFFF DUP2 GT ISZERO PUSH2 0x2669 JUMPI PUSH2 0x2668 PUSH2 0x246C JUMP JUMPDEST JUMPDEST PUSH2 0x2673 DUP3 SLOAD PUSH2 0x216C JUMP JUMPDEST PUSH2 0x267E DUP3 DUP3 DUP6 PUSH2 0x25BA JUMP JUMPDEST PUSH1 0x0 PUSH1 0x20 SWAP1 POP PUSH1 0x1F DUP4 GT PUSH1 0x1 DUP2 EQ PUSH2 0x26B1 JUMPI PUSH1 0x0 DUP5 ISZERO PUSH2 0x269F JUMPI DUP3 DUP8 ADD MLOAD SWAP1 POP JUMPDEST PUSH2 0x26A9 DUP6 DUP3 PUSH2 0x262B JUMP JUMPDEST DUP7 SSTORE POP PUSH2 0x2711 JUMP JUMPDEST PUSH1 0x1F NOT DUP5 AND PUSH2 0x26BF DUP7 PUSH2 0x249B JUMP JUMPDEST PUSH1 0x0 JUMPDEST DUP3 DUP2 LT ISZERO PUSH2 0x26E7 JUMPI DUP5 DUP10 ADD MLOAD DUP3 SSTORE PUSH1 0x1 DUP3 ADD SWAP2 POP PUSH1 0x20 DUP6 ADD SWAP5 POP PUSH1 0x20 DUP2 ADD SWAP1 POP PUSH2 0x26C2 JUMP JUMPDEST DUP7 DUP4 LT ISZERO PUSH2 0x2704 JUMPI DUP5 DUP10 ADD MLOAD PUSH2 0x2700 PUSH1 0x1F DUP10 AND DUP3 PUSH2 0x260D JUMP JUMPDEST DUP4 SSTORE POP JUMPDEST PUSH1 0x1 PUSH1 0x2 DUP9 MUL ADD DUP9 SSTORE POP POP POP JUMPDEST POP POP POP POP POP POP JUMP JUMPDEST DUP3 DUP2 DUP4 CALLDATACOPY PUSH1 0x0 DUP4 DUP4 ADD MSTORE POP POP POP JUMP JUMPDEST PUSH1 0x0 PUSH2 0x2734 DUP4 DUP6 PUSH2 0x1EB9 JUMP JUMPDEST SWAP4 POP PUSH2 0x2741 DUP4 DUP6 DUP5 PUSH2 0x2719 JUMP JUMPDEST PUSH2 0x274A DUP4 PUSH2 0x1EF4 JUMP JUMPDEST DUP5 ADD SWAP1 POP SWAP4 SWAP3 POP POP POP JUMP JUMPDEST PUSH1 0x0 PUSH1 0xC0 DUP3 ADD SWAP1 POP PUSH2 0x276A PUSH1 0x0 DUP4 ADD DUP11 PUSH2 0x1DE6 JUMP JUMPDEST PUSH2 0x2777 PUSH1 0x20 DUP4 ADD DUP10 PUSH2 0x1F3E JUMP JUMPDEST PUSH2 0x2784 PUSH1 0x40 DUP4 ADD DUP9 PUSH2 0x1DE6 JUMP JUMPDEST PUSH2 0x2791 PUSH1 0x60 DUP4 ADD DUP8 PUSH2 0x1DE6 JUMP JUMPDEST PUSH2 0x279E PUSH1 0x80 DUP4 ADD DUP7 PUSH2 0x1DE6 JUMP JUMPDEST DUP2 DUP2 SUB PUSH1 0xA0 DUP4 ADD MSTORE PUSH2 0x27B1 DUP2 DUP5 DUP7 PUSH2 0x2728 JUMP JUMPDEST SWAP1 POP SWAP9 SWAP8 POP POP POP POP POP POP POP POP JUMP JUMPDEST PUSH1 0x0 PUSH2 0x27CA DUP3 PUSH2 0x1C2F JUMP JUMPDEST SWAP2 POP PUSH32 0xFFFFFFFFFFFFFFFFFFFFFFFFFFFFFFFFFFFFFFFFFFFFFFFFFFFFFFFFFFFFFFFF DUP3 SUB PUSH2 0x27FC JUMPI PUSH2 0x27FB PUSH2 0x2209 JUMP JUMPDEST JUMPDEST PUSH1 0x1 DUP3 ADD SWAP1 POP SWAP2 SWAP1 POP JUMP JUMPDEST PUSH32 0x4E487B7100000000000000000000000000000000000000000000000000000000 PUSH1 0x0 MSTORE PUSH1 0x32 PUSH1 0x4 MSTORE PUSH1 0x24 PUSH1 0x0 REVERT JUMPDEST PUSH1 0x0 DUP2 SWAP1 POP SWAP3 SWAP2 POP POP JUMP JUMPDEST PUSH1 0x0 DUP2 SLOAD PUSH2 0x284E DUP2 PUSH2 0x216C JUMP JUMPDEST PUSH2 0x2858 DUP2 DUP7 PUSH2 0x2836 JUMP JUMPDEST SWAP5 POP PUSH1 0x1 DUP3 AND PUSH1 0x0 DUP2 EQ PUSH2 0x2873 JUMPI PUSH1 0x1 DUP2 EQ PUSH2 0x2888 JUMPI PUSH2 0x28BB JUMP JUMPDEST PUSH1 0xFF NOT DUP4 AND DUP7 MSTORE DUP2 ISZERO ISZERO DUP3 MUL DUP7 ADD SWAP4 POP PUSH2 0x28BB JUMP JUMPDEST PUSH2 0x2891 DUP6 PUSH2 0x249B JUMP JUMPDEST PUSH1 0x0 JUMPDEST DUP4 DUP2 LT ISZERO PUSH2 0x28B3 JUMPI DUP2 SLOAD DUP2 DUP10 ADD MSTORE PUSH1 0x1 DUP3 ADD SWAP2 POP PUSH1 0x20 DUP2 ADD SWAP1 POP PUSH2 0x2894 JUMP JUMPDEST DUP4 DUP9 ADD SWAP6 POP POP POP JUMPDEST POP POP POP SWAP3 SWAP2 POP POP JUMP JUMPDEST PUSH32 0x2D00000000000000000000000000000000000000000000000000000000000000 PUSH1 0x0 DUP3 ADD MSTORE POP JUMP JUMPDEST PUSH1 0x0 PUSH2 0x28FA PUSH1 0x1 DUP4 PUSH2 0x2836 JUMP JUMPDEST SWAP2 POP PUSH2 0x2905 DUP3 PUSH2 0x28C4 JUMP JUMPDEST PUSH1 0x1 DUP3 ADD SWAP1 POP SWAP2 SWAP1 POP JUMP JUMPDEST PUSH1 0x0 PUSH2 0x291B DUP3 PUSH2 0x1EAE JUMP JUMPDEST PUSH2 0x2925 DUP2 DUP6 PUSH2 0x2836 JUMP JUMPDEST SWAP4 POP PUSH2 0x2935 DUP2 DUP6 PUSH1 0x20 DUP7 ADD PUSH2 0x1ECA JUMP JUMPDEST DUP1 DUP5 ADD SWAP2 POP POP SWAP3 SWAP2 POP POP JUMP JUMPDEST PUSH1 0x0 PUSH2 0x294D DUP3 DUP8 PUSH2 0x2841 JUMP JUMPDEST SWAP2 POP PUSH2 0x2958 DUP3 PUSH2 0x28ED JUMP JUMPDEST SWAP2 POP PUSH2 0x2964 DUP3 DUP7 PUSH2 0x2841 JUMP JUMPDEST SWAP2 POP PUSH2 0x296F DUP3 PUSH2 0x28ED JUMP JUMPDEST SWAP2 POP PUSH2 0x297B DUP3 DUP6 PUSH2 0x2910 JUMP JUMPDEST SWAP2 POP PUSH2 0x2986 DUP3 PUSH2 0x28ED JUMP JUMPDEST SWAP2 POP PUSH2 0x2992 DUP3 DUP5 PUSH2 0x2910 JUMP JUMPDEST SWAP2 POP DUP2 SWAP1 POP SWAP6 SWAP5 POP POP POP POP POP JUMP JUMPDEST PUSH1 0x0 PUSH1 0xFF DUP3 AND SWAP1 POP SWAP2 SWAP1 POP JUMP JUMPDEST PUSH1 0x0 PUSH2 0x29B8 DUP3 PUSH2 0x29A0 JUMP JUMPDEST SWAP2 POP PUSH1 0xFF DUP3 SUB PUSH2 0x29CB JUMPI PUSH2 0x29CA PUSH2 0x2209 JUMP JUMPDEST JUMPDEST PUSH1 0x1 DUP3 ADD SWAP1 POP SWAP2 SWAP1 POP JUMP JUMPDEST PUSH1 0x0 DUP2 MLOAD SWAP1 POP SWAP2 SWAP1 POP JUMP JUMPDEST PUSH1 0x0 DUP3 DUP3 MSTORE PUSH1 0x20 DUP3 ADD SWAP1 POP SWAP3 SWAP2 POP POP JUMP JUMPDEST PUSH1 0x0 DUP2 SWAP1 POP PUSH1 0x20 DUP3 ADD SWAP1 POP SWAP2 SWAP1 POP JUMP JUMPDEST PUSH1 0x0 DUP3 DUP3 MSTORE PUSH1 0x20 DUP3 ADD SWAP1 POP SWAP3 SWAP2 POP POP JUMP JUMPDEST PUSH1 0x0 PUSH2 0x2A1E DUP3 PUSH2 0x1EAE JUMP JUMPDEST PUSH2 0x2A28 DUP2 DUP6 PUSH2 0x2A02 JUMP JUMPDEST SWAP4 POP PUSH2 0x2A38 DUP2 DUP6 PUSH1 0x20 DUP7 ADD PUSH2 0x1ECA JUMP JUMPDEST PUSH2 0x2A41 DUP2 PUSH2 0x1EF4 JUMP JUMPDEST DUP5 ADD SWAP2 POP POP SWAP3 SWAP2 POP POP JUMP JUMPDEST PUSH1 0x0 PUSH2 0x2A58 DUP4 DUP4 PUSH2 0x2A13 JUMP JUMPDEST SWAP1 POP SWAP3 SWAP2 POP POP JUMP JUMPDEST PUSH1 0x0 PUSH1 0x20 DUP3 ADD SWAP1 POP SWAP2 SWAP1 POP JUMP JUMPDEST PUSH1 0x0 PUSH2 0x2A78 DUP3 PUSH2 0x29D6 JUMP JUMPDEST PUSH2 0x2A82 DUP2 DUP6 PUSH2 0x29E1 JUMP JUMPDEST SWAP4 POP DUP4 PUSH1 0x20 DUP3 MUL DUP6 ADD PUSH2 0x2A94 DUP6 PUSH2 0x29F2 JUMP JUMPDEST DUP1 PUSH1 0x0 JUMPDEST DUP6 DUP2 LT ISZERO PUSH2 0x2AD0 JUMPI DUP5 DUP5 SUB DUP10 MSTORE DUP2 MLOAD PUSH2 0x2AB1 DUP6 DUP3 PUSH2 0x2A4C JUMP JUMPDEST SWAP5 POP PUSH2 0x2ABC DUP4 PUSH2 0x2A60 JUMP JUMPDEST SWAP3 POP PUSH1 0x20 DUP11 ADD SWAP10 POP POP PUSH1 0x1 DUP2 ADD SWAP1 POP PUSH2 0x2A98 JUMP JUMPDEST POP DUP3 SWAP8 POP DUP8 SWAP6 POP POP POP POP POP POP SWAP3 SWAP2 POP POP JUMP JUMPDEST PUSH1 0x0 PUSH1 0x20 DUP3 ADD SWAP1 POP DUP2 DUP2 SUB PUSH1 0x0 DUP4 ADD MSTORE PUSH2 0x2AFC DUP2 DUP5 PUSH2 0x2A6D JUMP JUMPDEST SWAP1 POP SWAP3 SWAP2 POP POP JUMP JUMPDEST PUSH32 0x4E4F205253565020544F20434F4E4649524D0000000000000000000000000000 PUSH1 0x0 DUP3 ADD MSTORE POP JUMP JUMPDEST PUSH1 0x0 PUSH2 0x2B3A PUSH1 0x12 DUP4 PUSH2 0x1EB9 JUMP JUMPDEST SWAP2 POP PUSH2 0x2B45 DUP3 PUSH2 0x2B04 JUMP JUMPDEST PUSH1 0x20 DUP3 ADD SWAP1 POP SWAP2 SWAP1 POP JUMP JUMPDEST PUSH1 0x0 PUSH1 0x20 DUP3 ADD SWAP1 POP DUP2 DUP2 SUB PUSH1 0x0 DUP4 ADD MSTORE PUSH2 0x2B69 DUP2 PUSH2 0x2B2D JUMP JUMPDEST SWAP1 POP SWAP2 SWAP1 POP JUMP JUMPDEST PUSH32 0x4E487B7100000000000000000000000000000000000000000000000000000000 PUSH1 0x0 MSTORE PUSH1 0x31 PUSH1 0x4 MSTORE PUSH1 0x24 PUSH1 0x0 REVERT JUMPDEST PUSH1 0x0 PUSH1 0x40 DUP3 ADD SWAP1 POP PUSH2 0x2BB4 PUSH1 0x0 DUP4 ADD DUP6 PUSH2 0x1DE6 JUMP JUMPDEST PUSH2 0x2BC1 PUSH1 0x20 DUP4 ADD DUP5 PUSH2 0x1F3E JUMP JUMPDEST SWAP4 SWAP3 POP POP POP JUMP JUMPDEST PUSH32 0x4E4F5420454E4F55474800000000000000000000000000000000000000000000 PUSH1 0x0 DUP3 ADD MSTORE POP JUMP JUMPDEST PUSH1 0x0 PUSH2 0x2BFE PUSH1 0xA DUP4 PUSH2 0x1EB9 JUMP JUMPDEST SWAP2 POP PUSH2 0x2C09 DUP3 PUSH2 0x2BC8 JUMP JUMPDEST PUSH1 0x20 DUP3 ADD SWAP1 POP SWAP2 SWAP1 POP JUMP JUMPDEST PUSH1 0x0 PUSH1 0x20 DUP3 ADD SWAP1 POP DUP2 DUP2 SUB PUSH1 0x0 DUP4 ADD MSTORE PUSH2 0x2C2D DUP2 PUSH2 0x2BF1 JUMP JUMPDEST SWAP1 POP SWAP2 SWAP1 POP JUMP JUMPDEST PUSH32 0x414C52454144592048415050454E454400000000000000000000000000000000 PUSH1 0x0 DUP3 ADD MSTORE POP JUMP JUMPDEST PUSH1 0x0 PUSH2 0x2C6A PUSH1 0x10 DUP4 PUSH2 0x1EB9 JUMP JUMPDEST SWAP2 POP PUSH2 0x2C75 DUP3 PUSH2 0x2C34 JUMP JUMPDEST PUSH1 0x20 DUP3 ADD SWAP1 POP SWAP2 SWAP1 POP JUMP JUMPDEST PUSH1 0x0 PUSH1 0x20 DUP3 ADD SWAP1 POP DUP2 DUP2 SUB PUSH1 0x0 DUP4 ADD MSTORE PUSH2 0x2C99 DUP2 PUSH2 0x2C5D JUMP JUMPDEST SWAP1 POP SWAP2 SWAP1 POP JUMP JUMPDEST PUSH32 0x54686973206576656E7420686173207265616368656420636170616369747900 PUSH1 0x0 DUP3 ADD MSTORE POP JUMP JUMPDEST PUSH1 0x0 PUSH2 0x2CD6 PUSH1 0x1F DUP4 PUSH2 0x1EB9 JUMP JUMPDEST SWAP2 POP PUSH2 0x2CE1 DUP3 PUSH2 0x2CA0 JUMP JUMPDEST PUSH1 0x20 DUP3 ADD SWAP1 POP SWAP2 SWAP1 POP JUMP JUMPDEST PUSH1 0x0 PUSH1 0x20 DUP3 ADD SWAP1 POP DUP2 DUP2 SUB PUSH1 0x0 DUP4 ADD MSTORE PUSH2 0x2D05 DUP2 PUSH2 0x2CC9 JUMP JUMPDEST SWAP1 POP SWAP2 SWAP1 POP JUMP JUMPDEST PUSH32 0x414C524541445920434F4E4649524D4544000000000000000000000000000000 PUSH1 0x0 DUP3 ADD MSTORE POP JUMP JUMPDEST PUSH1 0x0 PUSH2 0x2D42 PUSH1 0x11 DUP4 PUSH2 0x1EB9 JUMP JUMPDEST SWAP2 POP PUSH2 0x2D4D DUP3 PUSH2 0x2D0C JUMP JUMPDEST PUSH1 0x20 DUP3 ADD SWAP1 POP SWAP2 SWAP1 POP JUMP JUMPDEST PUSH1 0x0 PUSH1 0x20 DUP3 ADD SWAP1 POP DUP2 DUP2 SUB PUSH1 0x0 DUP4 ADD MSTORE PUSH2 0x2D71 DUP2 PUSH2 0x2D35 JUMP JUMPDEST SWAP1 POP SWAP2 SWAP1 POP JUMP JUMPDEST PUSH32 0x4E487B7100000000000000000000000000000000000000000000000000000000 PUSH1 0x0 MSTORE PUSH1 0x12 PUSH1 0x4 MSTORE PUSH1 0x24 PUSH1 0x0 REVERT JUMPDEST PUSH1 0x0 PUSH2 0x2DB2 DUP3 PUSH2 0x1C2F JUMP JUMPDEST SWAP2 POP PUSH2 0x2DBD DUP4 PUSH2 0x1C2F JUMP JUMPDEST SWAP3 POP DUP3 PUSH2 0x2DCD JUMPI PUSH2 0x2DCC PUSH2 0x2D78 JUMP JUMPDEST JUMPDEST DUP3 DUP3 MOD SWAP1 POP SWAP3 SWAP2 POP POP JUMP JUMPDEST PUSH1 0x0 PUSH2 0x2DE3 DUP3 PUSH2 0x1C2F JUMP JUMPDEST SWAP2 POP PUSH2 0x2DEE DUP4 PUSH2 0x1C2F JUMP JUMPDEST SWAP3 POP DUP3 PUSH2 0x2DFE JUMPI PUSH2 0x2DFD PUSH2 0x2D78 JUMP JUMPDEST JUMPDEST DUP3 DUP3 DIV SWAP1 POP SWAP3 SWAP2 POP POP JUMP INVALID LOG2 PUSH5 0x6970667358 0x22 SLT KECCAK256 0xED 0xEB MSTORE8 SIGNEXTEND GASPRICE SGT PUSH6 0xFB815022BCD2 0xE0 SWAP11 0xCC 0xC9 0xD8 SHR 0x2D SWAP16 POP MUL DUP6 0x4D SUB 0xBE PUSH21 0x8272702D64736F6C63430008130033000000000000 "},"methodIdentifiers":{"confirmAllAttendees()":"4bbbeb49","confirmAttendee(uint256,address)":"6acb5dd3","createNewEvent(string,uint256,uint256,uint256,string,string)":"289b9b8b","createNewRSVP(uint256)":"ada06a3b","getContractBalance()":"6f9fb98a","getEvent(uint256)":"6d1884e0","getEventId(uint256)":"c3be559b","getEventLength()":"5c98dfa1","idToEvent(uint256)":"d46bae4b","totalEvents()":"ba870686","withdrawUnclaimedDeposits(uint256)":"127d17ab"}}}}}