{
  "_format": "hh-sol-artifact-1",
  "contractName": "EventHub",
  "sourceName": "contracts/EventHub.sol",
  "abi": [
    {
      "anonymous": false,
      "inputs": [
        {
          "indexed": false,
          "internalType": "uint256",
          "name": "eventID",
          "type": "uint256"
        },
        {
          "indexed": false,
          "internalType": "address",
          "name": "attendeeAddress",
          "type": "address"
        }
      ],
      "name": "ConfirmedAttendee",
      "type": "event"
    },
    {
      "anonymous": false,
      "inputs": [
        {
          "indexed": false,
          "internalType": "uint256",
          "name": "eventID",
          "type": "uint256"
        }
      ],
      "name": "DepositsPaidOut",
      "type": "event"
    },
    {
      "anonymous": false,
      "inputs": [
        {
          "indexed": false,
          "internalType": "uint256",
          "name": "eventID",
          "type": "uint256"
        },
        {
          "indexed": false,
          "internalType": "address",
          "name": "creatorAddress",
          "type": "address"
        },
        {
          "indexed": false,
          "internalType": "uint256",
          "name": "eventTimestamp",
          "type": "uint256"
        },
        {
          "indexed": false,
          "internalType": "uint256",
          "name": "maxCapacity",
          "type": "uint256"
        },
        {
          "indexed": false,
          "internalType": "uint256",
          "name": "deposit",
          "type": "uint256"
        },
        {
          "indexed": false,
          "internalType": "string",
          "name": "imagePath",
          "type": "string"
        }
      ],
      "name": "NewEventCreated",
      "type": "event"
    },
    {
      "anonymous": false,
      "inputs": [
        {
          "indexed": false,
          "internalType": "uint256",
          "name": "eventID",
          "type": "uint256"
        },
        {
          "indexed": false,
          "internalType": "address",
          "name": "attendeeAddress",
          "type": "address"
        }
      ],
      "name": "NewRSVP",
      "type": "event"
    },
    {
      "inputs": [
        {
          "internalType": "uint256",
          "name": "eventId",
          "type": "uint256"
        }
      ],
      "name": "confirmAllAttendees",
      "outputs": [],
      "stateMutability": "nonpayable",
      "type": "function"
    },
    {
      "inputs": [
        {
          "internalType": "uint256",
          "name": "eventId",
          "type": "uint256"
        },
        {
          "internalType": "address",
          "name": "attendee",
          "type": "address"
        }
      ],
      "name": "confirmAttendee",
      "outputs": [],
      "stateMutability": "nonpayable",
      "type": "function"
    },
    {
      "inputs": [
        {
          "internalType": "string",
          "name": "title",
          "type": "string"
        },
        {
          "internalType": "string",
          "name": "description",
          "type": "string"
        },
        {
          "internalType": "uint256",
          "name": "eventTimestamp",
          "type": "uint256"
        },
        {
          "internalType": "uint256",
          "name": "deposit",
          "type": "uint256"
        },
        {
          "internalType": "uint256",
          "name": "maxCapacity",
          "type": "uint256"
        },
        {
          "internalType": "string",
          "name": "imagePath",
          "type": "string"
        }
      ],
      "name": "createNewEvent",
      "outputs": [
        {
          "internalType": "uint256",
          "name": "",
          "type": "uint256"
        }
      ],
      "stateMutability": "nonpayable",
      "type": "function"
    },
    {
      "inputs": [
        {
          "internalType": "uint256",
          "name": "eventId",
          "type": "uint256"
        }
      ],
      "name": "createNewRSVP",
      "outputs": [],
      "stateMutability": "payable",
      "type": "function"
    },
    {
      "inputs": [
        {
          "internalType": "uint256",
          "name": "eventId",
          "type": "uint256"
        }
      ],
      "name": "getConfirmedRSVPs",
      "outputs": [
        {
          "internalType": "address[]",
          "name": "",
          "type": "address[]"
        }
      ],
      "stateMutability": "view",
      "type": "function"
    },
    {
      "inputs": [
        {
          "internalType": "uint256",
          "name": "eventID",
          "type": "uint256"
        }
      ],
      "name": "getEvent",
      "outputs": [
        {
          "internalType": "string",
          "name": "title",
          "type": "string"
        },
        {
          "internalType": "string",
          "name": "imagePath",
          "type": "string"
        },
        {
          "internalType": "address",
          "name": "eventOwner",
          "type": "address"
        },
        {
          "internalType": "uint256",
          "name": "eventTimestamp",
          "type": "uint256"
        },
        {
          "internalType": "uint256",
          "name": "maxCapacity",
          "type": "uint256"
        },
        {
          "internalType": "uint256",
          "name": "deposit",
          "type": "uint256"
        },
        {
          "internalType": "address[]",
          "name": "confirmedRSVPs",
          "type": "address[]"
        }
      ],
      "stateMutability": "view",
      "type": "function"
    },
    {
      "inputs": [
        {
          "internalType": "uint256",
          "name": "i",
          "type": "uint256"
        }
      ],
      "name": "getEventId",
      "outputs": [
        {
          "internalType": "uint256",
          "name": "",
          "type": "uint256"
        }
      ],
      "stateMutability": "view",
      "type": "function"
    },
    {
      "inputs": [],
      "name": "getEventLength",
      "outputs": [
        {
          "internalType": "uint256",
          "name": "",
          "type": "uint256"
        }
      ],
      "stateMutability": "view",
      "type": "function"
    },
    {
      "inputs": [
        {
          "internalType": "uint256",
          "name": "",
          "type": "uint256"
        }
      ],
      "name": "idToEvent",
      "outputs": [
        {
          "internalType": "string",
          "name": "title",
          "type": "string"
        },
        {
          "internalType": "string",
          "name": "description",
          "type": "string"
        },
        {
          "internalType": "string",
          "name": "imagePath",
          "type": "string"
        },
        {
          "internalType": "address",
          "name": "eventOwner",
          "type": "address"
        },
        {
          "internalType": "uint256",
          "name": "eventTimestamp",
          "type": "uint256"
        },
        {
          "internalType": "uint256",
          "name": "deposit",
          "type": "uint256"
        },
        {
          "internalType": "uint256",
          "name": "maxCapacity",
          "type": "uint256"
        },
        {
          "internalType": "bool",
          "name": "paidOut",
          "type": "bool"
        }
      ],
      "stateMutability": "view",
      "type": "function"
    },
    {
      "inputs": [],
      "name": "totalEvents",
      "outputs": [
        {
          "internalType": "uint256",
          "name": "",
          "type": "uint256"
        }
      ],
      "stateMutability": "view",
      "type": "function"
    },
    {
      "inputs": [
        {
          "internalType": "uint256",
          "name": "eventId",
          "type": "uint256"
        }
      ],
      "name": "withdrawUnclaimedDeposits",
      "outputs": [],
      "stateMutability": "nonpayable",
      "type": "function"
    }
  ],
  "bytecode": "0x608060405234801561001057600080fd5b50612e3b806100206000396000f3fe60806040526004361061009c5760003560e01c80636d1884e0116100645780636d1884e014610198578063ada06a3b146101db578063ba870686146101f7578063c3be559b14610222578063d46bae4b1461025f578063df8ef00e146102a35761009c565b80630f8e16dc146100a1578063127d17ab146100de57806328aaabcc146101075780635c98dfa1146101445780636acb5dd31461016f575b600080fd5b3480156100ad57600080fd5b506100c860048036038101906100c39190611e1d565b6102cc565b6040516100d59190611f1b565b60405180910390f35b3480156100ea57600080fd5b5061010560048036038101906101009190611f36565b6105b1565b005b34801561011357600080fd5b5061012e60048036038101906101299190611f36565b610b85565b60405161013b9190612053565b60405180910390f35b34801561015057600080fd5b50610159610c2f565b6040516101669190611f1b565b60405180910390f35b34801561017b57600080fd5b50610196600480360381019061019191906120a1565b610c3c565b005b3480156101a457600080fd5b506101bf60048036038101906101ba9190611f36565b61115b565b6040516101d29796959493929190612180565b60405180910390f35b6101f560048036038101906101f09190611f36565b6113dd565b005b34801561020357600080fd5b5061020c61164a565b6040516102199190611f1b565b60405180910390f35b34801561022e57600080fd5b5061024960048036038101906102449190611f36565b611650565b6040516102569190611f1b565b60405180910390f35b34801561026b57600080fd5b5061028660048036038101906102819190611f36565b611678565b60405161029a98979695949392919061221f565b60405180910390f35b3480156102af57600080fd5b506102ca60048036038101906102c59190611f36565b611885565b005b60008060005490506060806040518061014001604052808e8e8080601f016020809104026020016040519081016040528093929190818152602001838380828437600081840152601f19601f8201169050808301925050505050505081526020018c8c8080601f016020809104026020016040519081016040528093929190818152602001838380828437600081840152601f19601f82011690508083019250505050505050815260200187878080601f016020809104026020016040519081016040528093929190818152602001838380828437600081840152601f19601f8201169050808301925050505050505081526020013373ffffffffffffffffffffffffffffffffffffffff1681526020018a81526020018981526020018881526020018381526020018281526020016000151581525060026000858152602001908152602001600020600082015181600001908161042a91906124ed565b50602082015181600101908161044091906124ed565b50604082015181600201908161045691906124ed565b5060608201518160030160006101000a81548173ffffffffffffffffffffffffffffffffffffffff021916908373ffffffffffffffffffffffffffffffffffffffff1602179055506080820151816004015560a0820151816005015560c0820151816006015560e08201518160070190805190602001906104d8929190611cd1565b506101008201518160080190805190602001906104f6929190611cd1565b506101208201518160090160006101000a81548160ff0219169083151502179055509050507f96beefe7c0c1b00e25286e8b55a743ec392f25ea7c8cb445359df7541168266083338b8a8c8b8b60405161055697969594939291906125fb565b60405180910390a160008081548092919061057090612694565b919050555060018390806001815401808255809150506001900390600052602060002001600090919091909150558293505050509998505050505050505050565b600060026000838152602001908152602001600020604051806101400160405290816000820180546105e290612310565b80601f016020809104026020016040519081016040528092919081815260200182805461060e90612310565b801561065b5780601f106106305761010080835404028352916020019161065b565b820191906000526020600020905b81548152906001019060200180831161063e57829003601f168201915b5050505050815260200160018201805461067490612310565b80601f01602080910402602001604051908101604052809291908181526020018280546106a090612310565b80156106ed5780601f106106c2576101008083540402835291602001916106ed565b820191906000526020600020905b8154815290600101906020018083116106d057829003601f168201915b5050505050815260200160028201805461070690612310565b80601f016020809104026020016040519081016040528092919081815260200182805461073290612310565b801561077f5780601f106107545761010080835404028352916020019161077f565b820191906000526020600020905b81548152906001019060200180831161076257829003601f168201915b505050505081526020016003820160009054906101000a900473ffffffffffffffffffffffffffffffffffffffff1673ffffffffffffffffffffffffffffffffffffffff1673ffffffffffffffffffffffffffffffffffffffff1681526020016004820154815260200160058201548152602001600682015481526020016007820180548060200260200160405190810160405280929190818152602001828054801561088157602002820191906000526020600020905b8160009054906101000a900473ffffffffffffffffffffffffffffffffffffffff1673ffffffffffffffffffffffffffffffffffffffff1681526020019060010190808311610837575b505050505081526020016008820180548060200260200160405190810160405280929190818152602001828054801561090f57602002820191906000526020600020905b8160009054906101000a900473ffffffffffffffffffffffffffffffffffffffff1673ffffffffffffffffffffffffffffffffffffffff16815260200190600101908083116108c5575b505050505081526020016009820160009054906101000a900460ff16151515158152505090508061012001511561097b576040517f08c379a000000000000000000000000000000000000000000000000000000000815260040161097290612728565b60405180910390fd5b62093a80816080015161098e9190612748565b4210156109d0576040517f08c379a00000000000000000000000000000000000000000000000000000000081526004016109c7906127c8565b60405180910390fd5b806060015173ffffffffffffffffffffffffffffffffffffffff163373ffffffffffffffffffffffffffffffffffffffff1614610a42576040517f08c379a0000000000000000000000000000000000000000000000000000000008152600401610a3990612834565b60405180910390fd5b6000816101000151518260e0015151610a5b9190612854565b905060008260a0015182610a6f9190612888565b905060018361012001901515908115158152505060003373ffffffffffffffffffffffffffffffffffffffff1682604051610aa9906128fb565b60006040518083038185875af1925050503d8060008114610ae6576040519150601f19603f3d011682016040523d82523d6000602084013e610aeb565b606091505b5050905080610b07576000846101200190151590811515815250505b80610b47576040517f08c379a0000000000000000000000000000000000000000000000000000000008152600401610b3e9061295c565b60405180910390fd5b7f0308e7ef5ff7ae64ed45c37a04775b24be0bfbc4cb5f5c3e6b0aa505d006eafc85604051610b769190611f1b565b60405180910390a15050505050565b6060600060026000848152602001908152602001600020905080600701805480602002602001604051908101604052809291908181526020018280548015610c2257602002820191906000526020600020905b8160009054906101000a900473ffffffffffffffffffffffffffffffffffffffff1673ffffffffffffffffffffffffffffffffffffffff1681526020019060010190808311610bd8575b5050505050915050919050565b6000600180549050905090565b60006002600084815260200190815260200160002090508060040154421015610c9a576040517f08c379a0000000000000000000000000000000000000000000000000000000008152600401610c91906129c8565b60405180910390fd5b8060030160009054906101000a900473ffffffffffffffffffffffffffffffffffffffff1673ffffffffffffffffffffffffffffffffffffffff163373ffffffffffffffffffffffffffffffffffffffff1614610d2c576040517f08c379a0000000000000000000000000000000000000000000000000000000008152600401610d2390612a34565b60405180910390fd5b600080600090505b82600701805490508160ff161015610e16578373ffffffffffffffffffffffffffffffffffffffff16836007018260ff1681548110610d7657610d75612a54565b5b9060005260206000200160009054906101000a900473ffffffffffffffffffffffffffffffffffffffff1673ffffffffffffffffffffffffffffffffffffffff1603610e0357826007018160ff1681548110610dd557610dd4612a54565b5b9060005260206000200160009054906101000a900473ffffffffffffffffffffffffffffffffffffffff1691505b8080610e0e90612a90565b915050610d34565b508273ffffffffffffffffffffffffffffffffffffffff168173ffffffffffffffffffffffffffffffffffffffff1614610e85576040517f08c379a0000000000000000000000000000000000000000000000000000000008152600401610e7c90612b05565b60405180910390fd5b60005b82600801805490508160ff161015610f5e578373ffffffffffffffffffffffffffffffffffffffff16836008018260ff1681548110610eca57610ec9612a54565b5b9060005260206000200160009054906101000a900473ffffffffffffffffffffffffffffffffffffffff1673ffffffffffffffffffffffffffffffffffffffff1603610f4b576040517f08c379a0000000000000000000000000000000000000000000000000000000008152600401610f4290612b71565b60405180910390fd5b8080610f5690612a90565b915050610e88565b50600015158260090160009054906101000a900460ff16151514610fb7576040517f08c379a0000000000000000000000000000000000000000000000000000000008152600401610fae90612bdd565b60405180910390fd5b81600801839080600181540180825580915050600190039060005260206000200160009091909190916101000a81548173ffffffffffffffffffffffffffffffffffffffff021916908373ffffffffffffffffffffffffffffffffffffffff16021790555060008373ffffffffffffffffffffffffffffffffffffffff168360050154604051611046906128fb565b60006040518083038185875af1925050503d8060008114611083576040519150601f19603f3d011682016040523d82523d6000602084013e611088565b606091505b50509050806110db57826008018054806110a5576110a4612bfd565b5b6001900381819060005260206000200160006101000a81549073ffffffffffffffffffffffffffffffffffffffff021916905590555b8061111b576040517f08c379a00000000000000000000000000000000000000000000000000000000081526004016111129061295c565b60405180910390fd5b7ff51b42fda5553f12aca9bf0984b446bf9883824e148ee9e467eb21f180a05ff3858560405161114c929190612c2c565b60405180910390a15050505050565b606080600080600080606060026000898152602001908152602001600020600001600260008a8152602001908152602001600020600201600260008b815260200190815260200160002060030160009054906101000a900473ffffffffffffffffffffffffffffffffffffffff16600260008c815260200190815260200160002060040154600260008d815260200190815260200160002060060154600260008e815260200190815260200160002060050154600260008f815260200190815260200160002060070186805461123090612310565b80601f016020809104026020016040519081016040528092919081815260200182805461125c90612310565b80156112a95780601f1061127e576101008083540402835291602001916112a9565b820191906000526020600020905b81548152906001019060200180831161128c57829003601f168201915b505050505096508580546112bc90612310565b80601f01602080910402602001604051908101604052809291908181526020018280546112e890612310565b80156113355780601f1061130a57610100808354040283529160200191611335565b820191906000526020600020905b81548152906001019060200180831161131857829003601f168201915b50505050509550808054806020026020016040519081016040528092919081815260200182805480156113bd57602002820191906000526020600020905b8160009054906101000a900473ffffffffffffffffffffffffffffffffffffffff1673ffffffffffffffffffffffffffffffffffffffff1681526020019060010190808311611373575b505050505090509650965096509650965096509650919395979092949650565b60006002600083815260200190815260200160002090508060050154341461143a576040517f08c379a000000000000000000000000000000000000000000000000000000000815260040161143190612ca1565b60405180910390fd5b8060040154421115611481576040517f08c379a000000000000000000000000000000000000000000000000000000000815260040161147890612d0d565b60405180910390fd5b80600601548160070180549050106114ce576040517f08c379a00000000000000000000000000000000000000000000000000000000081526004016114c590612d79565b60405180910390fd5b60005b81600701805490508160ff1610156115a7573373ffffffffffffffffffffffffffffffffffffffff16826007018260ff168154811061151357611512612a54565b5b9060005260206000200160009054906101000a900473ffffffffffffffffffffffffffffffffffffffff1673ffffffffffffffffffffffffffffffffffffffff1603611594576040517f08c379a000000000000000000000000000000000000000000000000000000000815260040161158b90612de5565b60405180910390fd5b808061159f90612a90565b9150506114d1565b5080600701339080600181540180825580915050600190039060005260206000200160009091909190916101000a81548173ffffffffffffffffffffffffffffffffffffffff021916908373ffffffffffffffffffffffffffffffffffffffff1602179055507f305579fda99551f5107b32b7465875a3984f12521b5df905ee46fe6efb873f92823360405161163e929190612c2c565b60405180910390a15050565b60005481565b60006001828154811061166657611665612a54565b5b90600052602060002001549050919050565b600260205280600052604060002060009150905080600001805461169b90612310565b80601f01602080910402602001604051908101604052809291908181526020018280546116c790612310565b80156117145780601f106116e957610100808354040283529160200191611714565b820191906000526020600020905b8154815290600101906020018083116116f757829003601f168201915b50505050509080600101805461172990612310565b80601f016020809104026020016040519081016040528092919081815260200182805461175590612310565b80156117a25780601f10611777576101008083540402835291602001916117a2565b820191906000526020600020905b81548152906001019060200180831161178557829003601f168201915b5050505050908060020180546117b790612310565b80601f01602080910402602001604051908101604052809291908181526020018280546117e390612310565b80156118305780601f1061180557610100808354040283529160200191611830565b820191906000526020600020905b81548152906001019060200180831161181357829003601f168201915b5050505050908060030160009054906101000a900473ffffffffffffffffffffffffffffffffffffffff16908060040154908060050154908060060154908060090160009054906101000a900460ff16905088565b600060026000838152602001908152602001600020604051806101400160405290816000820180546118b690612310565b80601f01602080910402602001604051908101604052809291908181526020018280546118e290612310565b801561192f5780601f106119045761010080835404028352916020019161192f565b820191906000526020600020905b81548152906001019060200180831161191257829003601f168201915b5050505050815260200160018201805461194890612310565b80601f016020809104026020016040519081016040528092919081815260200182805461197490612310565b80156119c15780601f10611996576101008083540402835291602001916119c1565b820191906000526020600020905b8154815290600101906020018083116119a457829003601f168201915b505050505081526020016002820180546119da90612310565b80601f0160208091040260200160405190810160405280929190818152602001828054611a0690612310565b8015611a535780601f10611a2857610100808354040283529160200191611a53565b820191906000526020600020905b815481529060010190602001808311611a3657829003601f168201915b505050505081526020016003820160009054906101000a900473ffffffffffffffffffffffffffffffffffffffff1673ffffffffffffffffffffffffffffffffffffffff1673ffffffffffffffffffffffffffffffffffffffff16815260200160048201548152602001600582015481526020016006820154815260200160078201805480602002602001604051908101604052809291908181526020018280548015611b5557602002820191906000526020600020905b8160009054906101000a900473ffffffffffffffffffffffffffffffffffffffff1673ffffffffffffffffffffffffffffffffffffffff1681526020019060010190808311611b0b575b5050505050815260200160088201805480602002602001604051908101604052809291908181526020018280548015611be357602002820191906000526020600020905b8160009054906101000a900473ffffffffffffffffffffffffffffffffffffffff1673ffffffffffffffffffffffffffffffffffffffff1681526020019060010190808311611b99575b505050505081526020016009820160009054906101000a900460ff1615151515815250509050806060015173ffffffffffffffffffffffffffffffffffffffff163373ffffffffffffffffffffffffffffffffffffffff1614611c7b576040517f08c379a0000000000000000000000000000000000000000000000000000000008152600401611c7290612a34565b60405180910390fd5b60005b8160e00151518160ff161015611ccc57611cb9838360e001518360ff1681518110611cac57611cab612a54565b5b6020026020010151610c3c565b8080611cc490612a90565b915050611c7e565b505050565b828054828255906000526020600020908101928215611d4a579160200282015b82811115611d495782518260006101000a81548173ffffffffffffffffffffffffffffffffffffffff021916908373ffffffffffffffffffffffffffffffffffffffff16021790555091602001919060010190611cf1565b5b509050611d579190611d5b565b5090565b5b80821115611d74576000816000905550600101611d5c565b5090565b600080fd5b600080fd5b600080fd5b600080fd5b600080fd5b60008083601f840112611da757611da6611d82565b5b8235905067ffffffffffffffff811115611dc457611dc3611d87565b5b602083019150836001820283011115611de057611ddf611d8c565b5b9250929050565b6000819050919050565b611dfa81611de7565b8114611e0557600080fd5b50565b600081359050611e1781611df1565b92915050565b600080600080600080600080600060c08a8c031215611e3f57611e3e611d78565b5b60008a013567ffffffffffffffff811115611e5d57611e5c611d7d565b5b611e698c828d01611d91565b995099505060208a013567ffffffffffffffff811115611e8c57611e8b611d7d565b5b611e988c828d01611d91565b97509750506040611eab8c828d01611e08565b9550506060611ebc8c828d01611e08565b9450506080611ecd8c828d01611e08565b93505060a08a013567ffffffffffffffff811115611eee57611eed611d7d565b5b611efa8c828d01611d91565b92509250509295985092959850929598565b611f1581611de7565b82525050565b6000602082019050611f306000830184611f0c565b92915050565b600060208284031215611f4c57611f4b611d78565b5b6000611f5a84828501611e08565b91505092915050565b600081519050919050565b600082825260208201905092915050565b6000819050602082019050919050565b600073ffffffffffffffffffffffffffffffffffffffff82169050919050565b6000611fba82611f8f565b9050919050565b611fca81611faf565b82525050565b6000611fdc8383611fc1565b60208301905092915050565b6000602082019050919050565b600061200082611f63565b61200a8185611f6e565b935061201583611f7f565b8060005b8381101561204657815161202d8882611fd0565b975061203883611fe8565b925050600181019050612019565b5085935050505092915050565b6000602082019050818103600083015261206d8184611ff5565b905092915050565b61207e81611faf565b811461208957600080fd5b50565b60008135905061209b81612075565b92915050565b600080604083850312156120b8576120b7611d78565b5b60006120c685828601611e08565b92505060206120d78582860161208c565b9150509250929050565b600081519050919050565b600082825260208201905092915050565b60005b8381101561211b578082015181840152602081019050612100565b60008484015250505050565b6000601f19601f8301169050919050565b6000612143826120e1565b61214d81856120ec565b935061215d8185602086016120fd565b61216681612127565b840191505092915050565b61217a81611faf565b82525050565b600060e082019050818103600083015261219a818a612138565b905081810360208301526121ae8189612138565b90506121bd6040830188612171565b6121ca6060830187611f0c565b6121d76080830186611f0c565b6121e460a0830185611f0c565b81810360c08301526121f68184611ff5565b905098975050505050505050565b60008115159050919050565b61221981612204565b82525050565b600061010082019050818103600083015261223a818b612138565b9050818103602083015261224e818a612138565b905081810360408301526122628189612138565b90506122716060830188612171565b61227e6080830187611f0c565b61228b60a0830186611f0c565b61229860c0830185611f0c565b6122a560e0830184612210565b9998505050505050505050565b7f4e487b7100000000000000000000000000000000000000000000000000000000600052604160045260246000fd5b7f4e487b7100000000000000000000000000000000000000000000000000000000600052602260045260246000fd5b6000600282049050600182168061232857607f821691505b60208210810361233b5761233a6122e1565b5b50919050565b60008190508160005260206000209050919050565b60006020601f8301049050919050565b600082821b905092915050565b6000600883026123a37fffffffffffffffffffffffffffffffffffffffffffffffffffffffffffffffff82612366565b6123ad8683612366565b95508019841693508086168417925050509392505050565b6000819050919050565b60006123ea6123e56123e084611de7565b6123c5565b611de7565b9050919050565b6000819050919050565b612404836123cf565b612418612410826123f1565b848454612373565b825550505050565b600090565b61242d612420565b6124388184846123fb565b505050565b5b8181101561245c57612451600082612425565b60018101905061243e565b5050565b601f8211156124a15761247281612341565b61247b84612356565b8101602085101561248a578190505b61249e61249685612356565b83018261243d565b50505b505050565b600082821c905092915050565b60006124c4600019846008026124a6565b1980831691505092915050565b60006124dd83836124b3565b9150826002028217905092915050565b6124f6826120e1565b67ffffffffffffffff81111561250f5761250e6122b2565b5b6125198254612310565b612524828285612460565b600060209050601f8311600181146125575760008415612545578287015190505b61254f85826124d1565b8655506125b7565b601f19841661256586612341565b60005b8281101561258d57848901518255600182019150602085019450602081019050612568565b868310156125aa57848901516125a6601f8916826124b3565b8355505b6001600288020188555050505b505050505050565b82818337600083830152505050565b60006125da83856120ec565b93506125e78385846125bf565b6125f083612127565b840190509392505050565b600060c082019050612610600083018a611f0c565b61261d6020830189612171565b61262a6040830188611f0c565b6126376060830187611f0c565b6126446080830186611f0c565b81810360a08301526126578184866125ce565b905098975050505050505050565b7f4e487b7100000000000000000000000000000000000000000000000000000000600052601160045260246000fd5b600061269f82611de7565b91507fffffffffffffffffffffffffffffffffffffffffffffffffffffffffffffffff82036126d1576126d0612665565b5b600182019050919050565b7f414c524541445920504149440000000000000000000000000000000000000000600082015250565b6000612712600c836120ec565b915061271d826126dc565b602082019050919050565b6000602082019050818103600083015261274181612705565b9050919050565b600061275382611de7565b915061275e83611de7565b925082820190508082111561277657612775612665565b5b92915050565b7f544f4f204541524c590000000000000000000000000000000000000000000000600082015250565b60006127b26009836120ec565b91506127bd8261277c565b602082019050919050565b600060208201905081810360008301526127e1816127a5565b9050919050565b7f4d555354204245204556454e54204f574e455200000000000000000000000000600082015250565b600061281e6013836120ec565b9150612829826127e8565b602082019050919050565b6000602082019050818103600083015261284d81612811565b9050919050565b600061285f82611de7565b915061286a83611de7565b925082820390508181111561288257612881612665565b5b92915050565b600061289382611de7565b915061289e83611de7565b92508282026128ac81611de7565b915082820484148315176128c3576128c2612665565b5b5092915050565b600081905092915050565b50565b60006128e56000836128ca565b91506128f0826128d5565b600082019050919050565b6000612906826128d8565b9150819050919050565b7f4661696c656420746f2073656e64204574686572000000000000000000000000600082015250565b60006129466014836120ec565b915061295182612910565b602082019050919050565b6000602082019050818103600083015261297581612939565b9050919050565b7f4556454e54204e4f542053544152544544000000000000000000000000000000600082015250565b60006129b26011836120ec565b91506129bd8261297c565b602082019050919050565b600060208201905081810360008301526129e1816129a5565b9050919050565b7f4e4f5420415554484f52495a4544000000000000000000000000000000000000600082015250565b6000612a1e600e836120ec565b9150612a29826129e8565b602082019050919050565b60006020820190508181036000830152612a4d81612a11565b9050919050565b7f4e487b7100000000000000000000000000000000000000000000000000000000600052603260045260246000fd5b600060ff82169050919050565b6000612a9b82612a83565b915060ff8203612aae57612aad612665565b5b600182019050919050565b7f4e4f205253565020544f20434f4e4649524d0000000000000000000000000000600082015250565b6000612aef6012836120ec565b9150612afa82612ab9565b602082019050919050565b60006020820190508181036000830152612b1e81612ae2565b9050919050565b7f414c524541445920434c41494d45440000000000000000000000000000000000600082015250565b6000612b5b600f836120ec565b9150612b6682612b25565b602082019050919050565b60006020820190508181036000830152612b8a81612b4e565b9050919050565b7f414c52454144592050414944204f555400000000000000000000000000000000600082015250565b6000612bc76010836120ec565b9150612bd282612b91565b602082019050919050565b60006020820190508181036000830152612bf681612bba565b9050919050565b7f4e487b7100000000000000000000000000000000000000000000000000000000600052603160045260246000fd5b6000604082019050612c416000830185611f0c565b612c4e6020830184612171565b9392505050565b7f4e4f5420454e4f55474800000000000000000000000000000000000000000000600082015250565b6000612c8b600a836120ec565b9150612c9682612c55565b602082019050919050565b60006020820190508181036000830152612cba81612c7e565b9050919050565b7f414c52454144592048415050454e454400000000000000000000000000000000600082015250565b6000612cf76010836120ec565b9150612d0282612cc1565b602082019050919050565b60006020820190508181036000830152612d2681612cea565b9050919050565b7f54686973206576656e7420686173207265616368656420636170616369747900600082015250565b6000612d63601f836120ec565b9150612d6e82612d2d565b602082019050919050565b60006020820190508181036000830152612d9281612d56565b9050919050565b7f414c524541445920434f4e4649524d4544000000000000000000000000000000600082015250565b6000612dcf6011836120ec565b9150612dda82612d99565b602082019050919050565b60006020820190508181036000830152612dfe81612dc2565b905091905056fea2646970667358221220629bde6d3401b588f492987bfaa7cc27e5c053ce900835a300061ebf3916ba3c64736f6c63430008130033",
  "linkReferences": {},
  "deployedLinkReferences": {}
}