{
  "_format": "hh-sol-artifact-1",
  "contractName": "EventHub",
  "sourceName": "contracts/EventHub.sol",
  "abi": [
    {
      "anonymous": false,
      "inputs": [
        {
          "indexed": false,
          "internalType": "uint256",
          "name": "eventID",
          "type": "uint256"
        },
        {
          "indexed": false,
          "internalType": "address",
          "name": "attendeeAddress",
          "type": "address"
        }
      ],
      "name": "ConfirmedAttendee",
      "type": "event"
    },
    {
      "anonymous": false,
      "inputs": [
        {
          "indexed": false,
          "internalType": "uint256",
          "name": "eventID",
          "type": "uint256"
        }
      ],
      "name": "DepositsPaidOut",
      "type": "event"
    },
    {
      "anonymous": false,
      "inputs": [
        {
          "indexed": false,
          "internalType": "uint256",
          "name": "eventID",
          "type": "uint256"
        },
        {
          "indexed": false,
          "internalType": "address",
          "name": "creatorAddress",
          "type": "address"
        },
        {
          "indexed": false,
          "internalType": "uint256",
          "name": "eventTimestamp",
          "type": "uint256"
        },
        {
          "indexed": false,
          "internalType": "uint256",
          "name": "maxCapacity",
          "type": "uint256"
        },
        {
          "indexed": false,
          "internalType": "uint256",
          "name": "deposit",
          "type": "uint256"
        },
        {
          "indexed": false,
          "internalType": "string",
          "name": "imagePath",
          "type": "string"
        }
      ],
      "name": "NewEventCreated",
      "type": "event"
    },
    {
      "anonymous": false,
      "inputs": [
        {
          "indexed": false,
          "internalType": "uint256",
          "name": "eventID",
          "type": "uint256"
        },
        {
          "indexed": false,
          "internalType": "address",
          "name": "attendeeAddress",
          "type": "address"
        }
      ],
      "name": "NewRSVP",
      "type": "event"
    },
    {
      "anonymous": false,
      "inputs": [
        {
          "indexed": false,
          "internalType": "string[]",
          "name": "phones",
          "type": "string[]"
        }
      ],
      "name": "Phones",
      "type": "event"
    },
    {
      "inputs": [],
      "name": "confirmAllAttendees",
      "outputs": [],
      "stateMutability": "nonpayable",
      "type": "function"
    },
    {
      "inputs": [
        {
          "internalType": "uint256",
          "name": "eventId",
          "type": "uint256"
        },
        {
          "internalType": "address",
          "name": "attendee",
          "type": "address"
        }
      ],
      "name": "confirmAttendee",
      "outputs": [],
      "stateMutability": "nonpayable",
      "type": "function"
    },
    {
      "inputs": [
        {
          "internalType": "string",
          "name": "title",
          "type": "string"
        },
        {
          "internalType": "uint256",
          "name": "eventTimestamp",
          "type": "uint256"
        },
        {
          "internalType": "uint256",
          "name": "deposit",
          "type": "uint256"
        },
        {
          "internalType": "uint256",
          "name": "maxCapacity",
          "type": "uint256"
        },
        {
          "internalType": "string",
          "name": "imagePath",
          "type": "string"
        },
        {
          "internalType": "string",
          "name": "phone",
          "type": "string"
        }
      ],
      "name": "createNewEvent",
      "outputs": [
        {
          "internalType": "uint256",
          "name": "",
          "type": "uint256"
        }
      ],
      "stateMutability": "payable",
      "type": "function"
    },
    {
      "inputs": [
        {
          "internalType": "uint256",
          "name": "eventId",
          "type": "uint256"
        }
      ],
      "name": "createNewRSVP",
      "outputs": [],
      "stateMutability": "payable",
      "type": "function"
    },
    {
      "inputs": [],
      "name": "getContractBalance",
      "outputs": [
        {
          "internalType": "uint256",
          "name": "",
          "type": "uint256"
        }
      ],
      "stateMutability": "view",
      "type": "function"
    },
    {
      "inputs": [
        {
          "internalType": "uint256",
          "name": "eventID",
          "type": "uint256"
        }
      ],
      "name": "getEvent",
      "outputs": [
        {
          "internalType": "string",
          "name": "title",
          "type": "string"
        },
        {
          "internalType": "string",
          "name": "imagePath",
          "type": "string"
        },
        {
          "internalType": "address",
          "name": "eventOwner",
          "type": "address"
        },
        {
          "internalType": "uint256",
          "name": "eventTimestamp",
          "type": "uint256"
        },
        {
          "internalType": "uint256",
          "name": "maxCapacity",
          "type": "uint256"
        },
        {
          "internalType": "uint256",
          "name": "deposit",
          "type": "uint256"
        },
        {
          "internalType": "address[]",
          "name": "confirmedRSVPs",
          "type": "address[]"
        }
      ],
      "stateMutability": "view",
      "type": "function"
    },
    {
      "inputs": [
        {
          "internalType": "uint256",
          "name": "i",
          "type": "uint256"
        }
      ],
      "name": "getEventId",
      "outputs": [
        {
          "internalType": "uint256",
          "name": "",
          "type": "uint256"
        }
      ],
      "stateMutability": "view",
      "type": "function"
    },
    {
      "inputs": [],
      "name": "getEventLength",
      "outputs": [
        {
          "internalType": "uint256",
          "name": "",
          "type": "uint256"
        }
      ],
      "stateMutability": "view",
      "type": "function"
    },
    {
      "inputs": [
        {
          "internalType": "uint256",
          "name": "",
          "type": "uint256"
        }
      ],
      "name": "idToEvent",
      "outputs": [
        {
          "internalType": "string",
          "name": "title",
          "type": "string"
        },
        {
          "internalType": "string",
          "name": "imagePath",
          "type": "string"
        },
        {
          "internalType": "address",
          "name": "eventOwner",
          "type": "address"
        },
        {
          "internalType": "uint256",
          "name": "eventTimestamp",
          "type": "uint256"
        },
        {
          "internalType": "uint256",
          "name": "deposit",
          "type": "uint256"
        },
        {
          "internalType": "uint256",
          "name": "maxCapacity",
          "type": "uint256"
        },
        {
          "internalType": "bool",
          "name": "paidOut",
          "type": "bool"
        },
        {
          "internalType": "string",
          "name": "phone",
          "type": "string"
        }
      ],
      "stateMutability": "view",
      "type": "function"
    },
    {
      "inputs": [],
      "name": "totalEvents",
      "outputs": [
        {
          "internalType": "uint256",
          "name": "",
          "type": "uint256"
        }
      ],
      "stateMutability": "view",
      "type": "function"
    },
    {
      "inputs": [
        {
          "internalType": "uint256",
          "name": "eventId",
          "type": "uint256"
        }
      ],
      "name": "withdrawUnclaimedDeposits",
      "outputs": [],
      "stateMutability": "nonpayable",
      "type": "function"
    }
  ],
  "bytecode": "0x608060405234801561001057600080fd5b50612e3f806100206000396000f3fe60806040526004361061009c5760003560e01c80636d1884e0116100645780636d1884e0146101655780636f9fb98a146101a8578063ada06a3b146101d3578063ba870686146101ef578063c3be559b1461021a578063d46bae4b146102575761009c565b8063127d17ab146100a1578063289b9b8b146100ca5780634bbbeb49146100fa5780635c98dfa1146101115780636acb5dd31461013c575b600080fd5b3480156100ad57600080fd5b506100c860048036038101906100c39190611c65565b61029b565b005b6100e460048036038101906100df9190611cf7565b61086c565b6040516100f19190611df5565b60405180910390f35b34801561010657600080fd5b5061010f610b51565b005b34801561011d57600080fd5b50610126610da0565b6040516101339190611df5565b60405180910390f35b34801561014857600080fd5b50610163600480360381019061015e9190611e6e565b610dad565b005b34801561017157600080fd5b5061018c60048036038101906101879190611c65565b6110de565b60405161019f979695949392919061200b565b60405180910390f35b3480156101b457600080fd5b506101bd611360565b6040516101ca9190611df5565b60405180910390f35b6101ed60048036038101906101e89190611c65565b611368565b005b3480156101fb57600080fd5b506102046115d5565b6040516102119190611df5565b60405180910390f35b34801561022657600080fd5b50610241600480360381019061023c9190611c65565b6115db565b60405161024e9190611df5565b60405180910390f35b34801561026357600080fd5b5061027e60048036038101906102799190611c65565b611603565b6040516102929897969594939291906120aa565b60405180910390f35b600060026000838152602001908152602001600020604051806101400160405290816000820180546102cc9061216c565b80601f01602080910402602001604051908101604052809291908181526020018280546102f89061216c565b80156103455780601f1061031a57610100808354040283529160200191610345565b820191906000526020600020905b81548152906001019060200180831161032857829003601f168201915b5050505050815260200160018201805461035e9061216c565b80601f016020809104026020016040519081016040528092919081815260200182805461038a9061216c565b80156103d75780601f106103ac576101008083540402835291602001916103d7565b820191906000526020600020905b8154815290600101906020018083116103ba57829003601f168201915b505050505081526020016002820160009054906101000a900473ffffffffffffffffffffffffffffffffffffffff1673ffffffffffffffffffffffffffffffffffffffff1673ffffffffffffffffffffffffffffffffffffffff168152602001600382015481526020016004820154815260200160058201548152602001600682018054806020026020016040519081016040528092919081815260200182805480156104d957602002820191906000526020600020905b8160009054906101000a900473ffffffffffffffffffffffffffffffffffffffff1673ffffffffffffffffffffffffffffffffffffffff168152602001906001019080831161048f575b505050505081526020016007820180548060200260200160405190810160405280929190818152602001828054801561056757602002820191906000526020600020905b8160009054906101000a900473ffffffffffffffffffffffffffffffffffffffff1673ffffffffffffffffffffffffffffffffffffffff168152602001906001019080831161051d575b505050505081526020016008820160009054906101000a900460ff1615151515815260200160098201805461059b9061216c565b80601f01602080910402602001604051908101604052809291908181526020018280546105c79061216c565b80156106145780601f106105e957610100808354040283529160200191610614565b820191906000526020600020905b8154815290600101906020018083116105f757829003601f168201915b505050505081525050905080610100015115610665576040517f08c379a000000000000000000000000000000000000000000000000000000000815260040161065c906121e9565b60405180910390fd5b607881606001516106769190612238565b4210156106b8576040517f08c379a00000000000000000000000000000000000000000000000000000000081526004016106af906122b8565b60405180910390fd5b806040015173ffffffffffffffffffffffffffffffffffffffff163373ffffffffffffffffffffffffffffffffffffffff161461072a576040517f08c379a000000000000000000000000000000000000000000000000000000000815260040161072190612324565b60405180910390fd5b60008160e00151518260c00151516107429190612344565b905060008260800151826107569190612378565b905060018361010001901515908115158152505060003373ffffffffffffffffffffffffffffffffffffffff1682604051610790906123eb565b60006040518083038185875af1925050503d80600081146107cd576040519150601f19603f3d011682016040523d82523d6000602084013e6107d2565b606091505b50509050806107ee576000846101000190151590811515815250505b8061082e576040517f08c379a00000000000000000000000000000000000000000000000000000000081526004016108259061244c565b60405180910390fd5b7f0308e7ef5ff7ae64ed45c37a04775b24be0bfbc4cb5f5c3e6b0aa505d006eafc8560405161085d9190611df5565b60405180910390a15050505050565b60008060005490506060806040518061014001604052808e8e8080601f016020809104026020016040519081016040528093929190818152602001838380828437600081840152601f19601f82011690508083019250505050505050815260200189898080601f016020809104026020016040519081016040528093929190818152602001838380828437600081840152601f19601f8201169050808301925050505050505081526020013373ffffffffffffffffffffffffffffffffffffffff1681526020018c81526020018b81526020018a815260200183815260200182815260200160001515815260200187878080601f016020809104026020016040519081016040528093929190818152602001838380828437600081840152601f19601f820116905080830192505050505050508152506002600085815260200190815260200160002060008201518160000190816109ca9190612647565b5060208201518160010190816109e09190612647565b5060408201518160020160006101000a81548173ffffffffffffffffffffffffffffffffffffffff021916908373ffffffffffffffffffffffffffffffffffffffff160217905550606082015181600301556080820151816004015560a0820151816005015560c0820151816006019080519060200190610a62929190611b7e565b5060e0820151816007019080519060200190610a7f929190611b7e565b506101008201518160080160006101000a81548160ff021916908315150217905550610120820151816009019081610ab79190612647565b509050507f96beefe7c0c1b00e25286e8b55a743ec392f25ea7c8cb445359df7541168266083338d8c8e8d8d604051610af69796959493929190612755565b60405180910390a1600080815480929190610b10906127bf565b919050555060018390806001815401808255809150506001900390600052602060002001600090919091909150558293505050509998505050505050505050565b606060005b600054811015610d655760006002600060018481548110610b7a57610b79612807565b5b90600052602060002001548152602001908152602001600020905060788160030154610ba69190612238565b4210610d51578060080160009054906101000a900460ff16610d505760005b81600601805490508160ff161015610d4e57610c4260018481548110610bee57610bed612807565b5b9060005260206000200154836006018360ff1681548110610c1257610c11612807565b5b9060005260206000200160009054906101000a900473ffffffffffffffffffffffffffffffffffffffff16610dad565b610cd884836009018054610c559061216c565b80601f0160208091040260200160405190810160405280929190818152602001828054610c819061216c565b8015610cce5780601f10610ca357610100808354040283529160200191610cce565b820191906000526020600020905b815481529060010190602001808311610cb157829003601f168201915b5050505050611810565b610d3b5760008260060180549050905060008360000184600901610cfb84611879565b610d088760050154611879565b604051602001610d1b9493929190612941565b6040516020818303038152906040529050610d368682611a9a565b955050505b8080610d46906129ad565b915050610bc5565b505b5b508080610d5d906127bf565b915050610b56565b507ffc36d7cc461f11f4f552bda21b5f2e9a7551db8011f5df2dfdcb1675b930b8da81604051610d959190612ae2565b60405180910390a150565b6000600180549050905090565b6000600260008481526020019081526020016000209050600080600090505b82600601805490508160ff161015610eae578373ffffffffffffffffffffffffffffffffffffffff16836006018260ff1681548110610e0e57610e0d612807565b5b9060005260206000200160009054906101000a900473ffffffffffffffffffffffffffffffffffffffff1673ffffffffffffffffffffffffffffffffffffffff1603610e9b57826006018160ff1681548110610e6d57610e6c612807565b5b9060005260206000200160009054906101000a900473ffffffffffffffffffffffffffffffffffffffff1691505b8080610ea6906129ad565b915050610dcc565b508273ffffffffffffffffffffffffffffffffffffffff168173ffffffffffffffffffffffffffffffffffffffff1614610f1d576040517f08c379a0000000000000000000000000000000000000000000000000000000008152600401610f1490612b50565b60405180910390fd5b81600701839080600181540180825580915050600190039060005260206000200160009091909190916101000a81548173ffffffffffffffffffffffffffffffffffffffff021916908373ffffffffffffffffffffffffffffffffffffffff16021790555060008373ffffffffffffffffffffffffffffffffffffffff168360040154604051610fac906123eb565b60006040518083038185875af1925050503d8060008114610fe9576040519150601f19603f3d011682016040523d82523d6000602084013e610fee565b606091505b5050905080611041578260070180548061100b5761100a612b70565b5b6001900381819060005260206000200160006101000a81549073ffffffffffffffffffffffffffffffffffffffff021916905590555b80611081576040517f08c379a00000000000000000000000000000000000000000000000000000000081526004016110789061244c565b60405180910390fd5b60018360080160006101000a81548160ff0219169083151502179055507ff51b42fda5553f12aca9bf0984b446bf9883824e148ee9e467eb21f180a05ff385856040516110cf929190612b9f565b60405180910390a15050505050565b606080600080600080606060026000898152602001908152602001600020600001600260008a8152602001908152602001600020600101600260008b815260200190815260200160002060020160009054906101000a900473ffffffffffffffffffffffffffffffffffffffff16600260008c815260200190815260200160002060030154600260008d815260200190815260200160002060050154600260008e815260200190815260200160002060040154600260008f81526020019081526020016000206006018680546111b39061216c565b80601f01602080910402602001604051908101604052809291908181526020018280546111df9061216c565b801561122c5780601f106112015761010080835404028352916020019161122c565b820191906000526020600020905b81548152906001019060200180831161120f57829003601f168201915b5050505050965085805461123f9061216c565b80601f016020809104026020016040519081016040528092919081815260200182805461126b9061216c565b80156112b85780601f1061128d576101008083540402835291602001916112b8565b820191906000526020600020905b81548152906001019060200180831161129b57829003601f168201915b505050505095508080548060200260200160405190810160405280929190818152602001828054801561134057602002820191906000526020600020905b8160009054906101000a900473ffffffffffffffffffffffffffffffffffffffff1673ffffffffffffffffffffffffffffffffffffffff16815260200190600101908083116112f6575b505050505090509650965096509650965096509650919395979092949650565b600047905090565b6000600260008381526020019081526020016000209050806004015434146113c5576040517f08c379a00000000000000000000000000000000000000000000000000000000081526004016113bc90612c14565b60405180910390fd5b806003015442111561140c576040517f08c379a000000000000000000000000000000000000000000000000000000000815260040161140390612c80565b60405180910390fd5b8060050154816006018054905010611459576040517f08c379a000000000000000000000000000000000000000000000000000000000815260040161145090612cec565b60405180910390fd5b60005b81600601805490508160ff161015611532573373ffffffffffffffffffffffffffffffffffffffff16826006018260ff168154811061149e5761149d612807565b5b9060005260206000200160009054906101000a900473ffffffffffffffffffffffffffffffffffffffff1673ffffffffffffffffffffffffffffffffffffffff160361151f576040517f08c379a000000000000000000000000000000000000000000000000000000000815260040161151690612d58565b60405180910390fd5b808061152a906129ad565b91505061145c565b5080600601339080600181540180825580915050600190039060005260206000200160009091909190916101000a81548173ffffffffffffffffffffffffffffffffffffffff021916908373ffffffffffffffffffffffffffffffffffffffff1602179055507f305579fda99551f5107b32b7465875a3984f12521b5df905ee46fe6efb873f9282336040516115c9929190612b9f565b60405180910390a15050565b60005481565b6000600182815481106115f1576115f0612807565b5b90600052602060002001549050919050565b60026020528060005260406000206000915090508060000180546116269061216c565b80601f01602080910402602001604051908101604052809291908181526020018280546116529061216c565b801561169f5780601f106116745761010080835404028352916020019161169f565b820191906000526020600020905b81548152906001019060200180831161168257829003601f168201915b5050505050908060010180546116b49061216c565b80601f01602080910402602001604051908101604052809291908181526020018280546116e09061216c565b801561172d5780601f106117025761010080835404028352916020019161172d565b820191906000526020600020905b81548152906001019060200180831161171057829003601f168201915b5050505050908060020160009054906101000a900473ffffffffffffffffffffffffffffffffffffffff16908060030154908060040154908060050154908060080160009054906101000a900460ff169080600901805461178d9061216c565b80601f01602080910402602001604051908101604052809291908181526020018280546117b99061216c565b80156118065780601f106117db57610100808354040283529160200191611806565b820191906000526020600020905b8154815290600101906020018083116117e957829003601f168201915b5050505050905088565b600080600090505b835181101561186d57828051906020012084828151811061183c5761183b612807565b5b6020026020010151805190602001200361185a576001915050611873565b8080611865906127bf565b915050611818565b50600090505b92915050565b6060600082036118c0576040518060400160405280600181526020017f30000000000000000000000000000000000000000000000000000000000000008152509050611a95565b60006064905060008167ffffffffffffffff8111156118e2576118e161246c565b5b6040519080825280601f01601f1916602001820160405280156119145781602001600182028036833780820191505090505b50905060005b600085146119a6576000600a866119319190612da7565b9050600a866119409190612dd8565b955080603061194f9190612238565b60f81b83838061195e906127bf565b94508151811061197157611970612807565b5b60200101907effffffffffffffffffffffffffffffffffffffffffffffffffffffffffffff1916908160001a9053505061191a565b60008167ffffffffffffffff8111156119c2576119c161246c565b5b6040519080825280601f01601f1916602001820160405280156119f45781602001600182028036833780820191505090505b50905060005b82811015611a8c578360018285611a119190612344565b611a1b9190612344565b81518110611a2c57611a2b612807565b5b602001015160f81c60f81b828281518110611a4a57611a49612807565b5b60200101907effffffffffffffffffffffffffffffffffffffffffffffffffffffffffffff1916908160001a9053508080611a84906127bf565b9150506119fa565b50809450505050505b919050565b6060600060018451611aac9190612238565b67ffffffffffffffff811115611ac557611ac461246c565b5b604051908082528060200260200182016040528015611af857816020015b6060815260200190600190039081611ae35790505b50905060005b8451811015611b5357848181518110611b1a57611b19612807565b5b6020026020010151828281518110611b3557611b34612807565b5b60200260200101819052508080611b4b906127bf565b915050611afe565b508281855181518110611b6957611b68612807565b5b60200260200101819052508091505092915050565b828054828255906000526020600020908101928215611bf7579160200282015b82811115611bf65782518260006101000a81548173ffffffffffffffffffffffffffffffffffffffff021916908373ffffffffffffffffffffffffffffffffffffffff16021790555091602001919060010190611b9e565b5b509050611c049190611c08565b5090565b5b80821115611c21576000816000905550600101611c09565b5090565b600080fd5b600080fd5b6000819050919050565b611c4281611c2f565b8114611c4d57600080fd5b50565b600081359050611c5f81611c39565b92915050565b600060208284031215611c7b57611c7a611c25565b5b6000611c8984828501611c50565b91505092915050565b600080fd5b600080fd5b600080fd5b60008083601f840112611cb757611cb6611c92565b5b8235905067ffffffffffffffff811115611cd457611cd3611c97565b5b602083019150836001820283011115611cf057611cef611c9c565b5b9250929050565b600080600080600080600080600060c08a8c031215611d1957611d18611c25565b5b60008a013567ffffffffffffffff811115611d3757611d36611c2a565b5b611d438c828d01611ca1565b99509950506020611d568c828d01611c50565b9750506040611d678c828d01611c50565b9650506060611d788c828d01611c50565b95505060808a013567ffffffffffffffff811115611d9957611d98611c2a565b5b611da58c828d01611ca1565b945094505060a08a013567ffffffffffffffff811115611dc857611dc7611c2a565b5b611dd48c828d01611ca1565b92509250509295985092959850929598565b611def81611c2f565b82525050565b6000602082019050611e0a6000830184611de6565b92915050565b600073ffffffffffffffffffffffffffffffffffffffff82169050919050565b6000611e3b82611e10565b9050919050565b611e4b81611e30565b8114611e5657600080fd5b50565b600081359050611e6881611e42565b92915050565b60008060408385031215611e8557611e84611c25565b5b6000611e9385828601611c50565b9250506020611ea485828601611e59565b9150509250929050565b600081519050919050565b600082825260208201905092915050565b60005b83811015611ee8578082015181840152602081019050611ecd565b60008484015250505050565b6000601f19601f8301169050919050565b6000611f1082611eae565b611f1a8185611eb9565b9350611f2a818560208601611eca565b611f3381611ef4565b840191505092915050565b611f4781611e30565b82525050565b600081519050919050565b600082825260208201905092915050565b6000819050602082019050919050565b611f8281611e30565b82525050565b6000611f948383611f79565b60208301905092915050565b6000602082019050919050565b6000611fb882611f4d565b611fc28185611f58565b9350611fcd83611f69565b8060005b83811015611ffe578151611fe58882611f88565b9750611ff083611fa0565b925050600181019050611fd1565b5085935050505092915050565b600060e0820190508181036000830152612025818a611f05565b905081810360208301526120398189611f05565b90506120486040830188611f3e565b6120556060830187611de6565b6120626080830186611de6565b61206f60a0830185611de6565b81810360c08301526120818184611fad565b905098975050505050505050565b60008115159050919050565b6120a48161208f565b82525050565b60006101008201905081810360008301526120c5818b611f05565b905081810360208301526120d9818a611f05565b90506120e86040830189611f3e565b6120f56060830188611de6565b6121026080830187611de6565b61210f60a0830186611de6565b61211c60c083018561209b565b81810360e083015261212e8184611f05565b90509998505050505050505050565b7f4e487b7100000000000000000000000000000000000000000000000000000000600052602260045260246000fd5b6000600282049050600182168061218457607f821691505b6020821081036121975761219661213d565b5b50919050565b7f414c524541445920504149440000000000000000000000000000000000000000600082015250565b60006121d3600c83611eb9565b91506121de8261219d565b602082019050919050565b60006020820190508181036000830152612202816121c6565b9050919050565b7f4e487b7100000000000000000000000000000000000000000000000000000000600052601160045260246000fd5b600061224382611c2f565b915061224e83611c2f565b925082820190508082111561226657612265612209565b5b92915050565b7f544f4f204541524c590000000000000000000000000000000000000000000000600082015250565b60006122a2600983611eb9565b91506122ad8261226c565b602082019050919050565b600060208201905081810360008301526122d181612295565b9050919050565b7f4d555354204245204556454e54204f574e455200000000000000000000000000600082015250565b600061230e601383611eb9565b9150612319826122d8565b602082019050919050565b6000602082019050818103600083015261233d81612301565b9050919050565b600061234f82611c2f565b915061235a83611c2f565b925082820390508181111561237257612371612209565b5b92915050565b600061238382611c2f565b915061238e83611c2f565b925082820261239c81611c2f565b915082820484148315176123b3576123b2612209565b5b5092915050565b600081905092915050565b50565b60006123d56000836123ba565b91506123e0826123c5565b600082019050919050565b60006123f6826123c8565b9150819050919050565b7f4661696c656420746f2073656e64204574686572000000000000000000000000600082015250565b6000612436601483611eb9565b915061244182612400565b602082019050919050565b6000602082019050818103600083015261246581612429565b9050919050565b7f4e487b7100000000000000000000000000000000000000000000000000000000600052604160045260246000fd5b60008190508160005260206000209050919050565b60006020601f8301049050919050565b600082821b905092915050565b6000600883026124fd7fffffffffffffffffffffffffffffffffffffffffffffffffffffffffffffffff826124c0565b61250786836124c0565b95508019841693508086168417925050509392505050565b6000819050919050565b600061254461253f61253a84611c2f565b61251f565b611c2f565b9050919050565b6000819050919050565b61255e83612529565b61257261256a8261254b565b8484546124cd565b825550505050565b600090565b61258761257a565b612592818484612555565b505050565b5b818110156125b6576125ab60008261257f565b600181019050612598565b5050565b601f8211156125fb576125cc8161249b565b6125d5846124b0565b810160208510156125e4578190505b6125f86125f0856124b0565b830182612597565b50505b505050565b600082821c905092915050565b600061261e60001984600802612600565b1980831691505092915050565b6000612637838361260d565b9150826002028217905092915050565b61265082611eae565b67ffffffffffffffff8111156126695761266861246c565b5b612673825461216c565b61267e8282856125ba565b600060209050601f8311600181146126b1576000841561269f578287015190505b6126a9858261262b565b865550612711565b601f1984166126bf8661249b565b60005b828110156126e7578489015182556001820191506020850194506020810190506126c2565b868310156127045784890151612700601f89168261260d565b8355505b6001600288020188555050505b505050505050565b82818337600083830152505050565b60006127348385611eb9565b9350612741838584612719565b61274a83611ef4565b840190509392505050565b600060c08201905061276a600083018a611de6565b6127776020830189611f3e565b6127846040830188611de6565b6127916060830187611de6565b61279e6080830186611de6565b81810360a08301526127b1818486612728565b905098975050505050505050565b60006127ca82611c2f565b91507fffffffffffffffffffffffffffffffffffffffffffffffffffffffffffffffff82036127fc576127fb612209565b5b600182019050919050565b7f4e487b7100000000000000000000000000000000000000000000000000000000600052603260045260246000fd5b600081905092915050565b6000815461284e8161216c565b6128588186612836565b945060018216600081146128735760018114612888576128bb565b60ff19831686528115158202860193506128bb565b6128918561249b565b60005b838110156128b357815481890152600182019150602081019050612894565b838801955050505b50505092915050565b7f2d00000000000000000000000000000000000000000000000000000000000000600082015250565b60006128fa600183612836565b9150612905826128c4565b600182019050919050565b600061291b82611eae565b6129258185612836565b9350612935818560208601611eca565b80840191505092915050565b600061294d8287612841565b9150612958826128ed565b91506129648286612841565b915061296f826128ed565b915061297b8285612910565b9150612986826128ed565b91506129928284612910565b915081905095945050505050565b600060ff82169050919050565b60006129b8826129a0565b915060ff82036129cb576129ca612209565b5b600182019050919050565b600081519050919050565b600082825260208201905092915050565b6000819050602082019050919050565b600082825260208201905092915050565b6000612a1e82611eae565b612a288185612a02565b9350612a38818560208601611eca565b612a4181611ef4565b840191505092915050565b6000612a588383612a13565b905092915050565b6000602082019050919050565b6000612a78826129d6565b612a8281856129e1565b935083602082028501612a94856129f2565b8060005b85811015612ad05784840389528151612ab18582612a4c565b9450612abc83612a60565b925060208a01995050600181019050612a98565b50829750879550505050505092915050565b60006020820190508181036000830152612afc8184612a6d565b905092915050565b7f4e4f205253565020544f20434f4e4649524d0000000000000000000000000000600082015250565b6000612b3a601283611eb9565b9150612b4582612b04565b602082019050919050565b60006020820190508181036000830152612b6981612b2d565b9050919050565b7f4e487b7100000000000000000000000000000000000000000000000000000000600052603160045260246000fd5b6000604082019050612bb46000830185611de6565b612bc16020830184611f3e565b9392505050565b7f4e4f5420454e4f55474800000000000000000000000000000000000000000000600082015250565b6000612bfe600a83611eb9565b9150612c0982612bc8565b602082019050919050565b60006020820190508181036000830152612c2d81612bf1565b9050919050565b7f414c52454144592048415050454e454400000000000000000000000000000000600082015250565b6000612c6a601083611eb9565b9150612c7582612c34565b602082019050919050565b60006020820190508181036000830152612c9981612c5d565b9050919050565b7f54686973206576656e7420686173207265616368656420636170616369747900600082015250565b6000612cd6601f83611eb9565b9150612ce182612ca0565b602082019050919050565b60006020820190508181036000830152612d0581612cc9565b9050919050565b7f414c524541445920434f4e4649524d4544000000000000000000000000000000600082015250565b6000612d42601183611eb9565b9150612d4d82612d0c565b602082019050919050565b60006020820190508181036000830152612d7181612d35565b9050919050565b7f4e487b7100000000000000000000000000000000000000000000000000000000600052601260045260246000fd5b6000612db282611c2f565b9150612dbd83611c2f565b925082612dcd57612dcc612d78565b5b828206905092915050565b6000612de382611c2f565b9150612dee83611c2f565b925082612dfe57612dfd612d78565b5b82820490509291505056fea2646970667358221220edeb530b3a1365fb815022bcd2e09accc9d81c2d9f5002854d03be748272702d64736f6c63430008130033",
  "linkReferences": {},
  "deployedLinkReferences": {}
}