{
  "_format": "hh-sol-artifact-1",
  "contractName": "EventHub",
  "sourceName": "contracts/EventHub.sol",
  "abi": [
    {
      "anonymous": false,
      "inputs": [
        {
          "indexed": false,
          "internalType": "uint256",
          "name": "eventID",
          "type": "uint256"
        },
        {
          "indexed": false,
          "internalType": "address",
          "name": "attendeeAddress",
          "type": "address"
        }
      ],
      "name": "ConfirmedAttendee",
      "type": "event"
    },
    {
      "anonymous": false,
      "inputs": [
        {
          "indexed": false,
          "internalType": "uint256",
          "name": "eventID",
          "type": "uint256"
        }
      ],
      "name": "DepositsPaidOut",
      "type": "event"
    },
    {
      "anonymous": false,
      "inputs": [
        {
          "indexed": false,
          "internalType": "uint256",
          "name": "eventID",
          "type": "uint256"
        },
        {
          "indexed": false,
          "internalType": "address",
          "name": "creatorAddress",
          "type": "address"
        },
        {
          "indexed": false,
          "internalType": "uint256",
          "name": "eventTimestamp",
          "type": "uint256"
        },
        {
          "indexed": false,
          "internalType": "uint256",
          "name": "maxCapacity",
          "type": "uint256"
        },
        {
          "indexed": false,
          "internalType": "uint256",
          "name": "deposit",
          "type": "uint256"
        },
        {
          "indexed": false,
          "internalType": "string",
          "name": "eventDataCID",
          "type": "string"
        }
      ],
      "name": "NewEventCreated",
      "type": "event"
    },
    {
      "anonymous": false,
      "inputs": [
        {
          "indexed": false,
          "internalType": "uint256",
          "name": "eventID",
          "type": "uint256"
        },
        {
          "indexed": false,
          "internalType": "address",
          "name": "attendeeAddress",
          "type": "address"
        }
      ],
      "name": "NewRSVP",
      "type": "event"
    },
    {
      "inputs": [
        {
          "internalType": "uint256",
          "name": "eventId",
          "type": "uint256"
        }
      ],
      "name": "confirmAllAttendees",
      "outputs": [],
      "stateMutability": "nonpayable",
      "type": "function"
    },
    {
      "inputs": [
        {
          "internalType": "uint256",
          "name": "eventId",
          "type": "uint256"
        },
        {
          "internalType": "address",
          "name": "attendee",
          "type": "address"
        }
      ],
      "name": "confirmAttendee",
      "outputs": [],
      "stateMutability": "nonpayable",
      "type": "function"
    },
    {
      "inputs": [
        {
          "internalType": "uint256",
          "name": "eventTimestamp",
          "type": "uint256"
        },
        {
          "internalType": "uint256",
          "name": "deposit",
          "type": "uint256"
        },
        {
          "internalType": "uint256",
          "name": "maxCapacity",
          "type": "uint256"
        },
        {
          "internalType": "string",
          "name": "eventDataCID",
          "type": "string"
        }
      ],
      "name": "createNewEvent",
      "outputs": [
        {
          "internalType": "uint256",
          "name": "",
          "type": "uint256"
        }
      ],
      "stateMutability": "nonpayable",
      "type": "function"
    },
    {
      "inputs": [
        {
          "internalType": "uint256",
          "name": "eventId",
          "type": "uint256"
        }
      ],
      "name": "createNewRSVP",
      "outputs": [],
      "stateMutability": "payable",
      "type": "function"
    },
    {
      "inputs": [
        {
          "internalType": "uint256",
          "name": "eventId",
          "type": "uint256"
        }
      ],
      "name": "getConfirmedRSVPs",
      "outputs": [
        {
          "internalType": "address[]",
          "name": "",
          "type": "address[]"
        }
      ],
      "stateMutability": "view",
      "type": "function"
    },
    {
      "inputs": [
        {
          "internalType": "uint256",
          "name": "eventID",
          "type": "uint256"
        }
      ],
      "name": "getEvent",
      "outputs": [
        {
          "internalType": "string",
          "name": "eventDataCID",
          "type": "string"
        },
        {
          "internalType": "address",
          "name": "eventOwner",
          "type": "address"
        },
        {
          "internalType": "uint256",
          "name": "eventTimestamp",
          "type": "uint256"
        },
        {
          "internalType": "uint256",
          "name": "maxCapacity",
          "type": "uint256"
        },
        {
          "internalType": "uint256",
          "name": "deposit",
          "type": "uint256"
        }
      ],
      "stateMutability": "view",
      "type": "function"
    },
    {
      "inputs": [
        {
          "internalType": "uint256",
          "name": "i",
          "type": "uint256"
        }
      ],
      "name": "getEventId",
      "outputs": [
        {
          "internalType": "uint256",
          "name": "",
          "type": "uint256"
        }
      ],
      "stateMutability": "view",
      "type": "function"
    },
    {
      "inputs": [],
      "name": "getEventLength",
      "outputs": [
        {
          "internalType": "uint256",
          "name": "",
          "type": "uint256"
        }
      ],
      "stateMutability": "view",
      "type": "function"
    },
    {
      "inputs": [
        {
          "internalType": "uint256",
          "name": "",
          "type": "uint256"
        }
      ],
      "name": "idToEvent",
      "outputs": [
        {
          "internalType": "string",
          "name": "eventDataCID",
          "type": "string"
        },
        {
          "internalType": "address",
          "name": "eventOwner",
          "type": "address"
        },
        {
          "internalType": "uint256",
          "name": "eventTimestamp",
          "type": "uint256"
        },
        {
          "internalType": "uint256",
          "name": "deposit",
          "type": "uint256"
        },
        {
          "internalType": "uint256",
          "name": "maxCapacity",
          "type": "uint256"
        },
        {
          "internalType": "bool",
          "name": "paidOut",
          "type": "bool"
        }
      ],
      "stateMutability": "view",
      "type": "function"
    },
    {
      "inputs": [],
      "name": "totalEvents",
      "outputs": [
        {
          "internalType": "uint256",
          "name": "",
          "type": "uint256"
        }
      ],
      "stateMutability": "view",
      "type": "function"
    },
    {
      "inputs": [
        {
          "internalType": "uint256",
          "name": "eventId",
          "type": "uint256"
        }
      ],
      "name": "withdrawUnclaimedDeposits",
      "outputs": [],
      "stateMutability": "nonpayable",
      "type": "function"
    }
  ],
  "bytecode": "0x608060405234801561001057600080fd5b506125eb806100206000396000f3fe60806040526004361061009b5760003560e01c80636d1884e0116100645780636d1884e014610197578063ada06a3b146101d8578063ba870686146101f4578063c3be559b1461021f578063d46bae4b1461025c578063df8ef00e1461029e5761009b565b806292098c146100a0578063127d17ab146100dd57806328aaabcc146101065780635c98dfa1146101435780636acb5dd31461016e575b600080fd5b3480156100ac57600080fd5b506100c760048036038101906100c291906117cd565b6102c7565b6040516100d49190611864565b60405180910390f35b3480156100e957600080fd5b5061010460048036038101906100ff919061187f565b6104e6565b005b34801561011257600080fd5b5061012d6004803603810190610128919061187f565b610992565b60405161013a919061199c565b60405180910390f35b34801561014f57600080fd5b50610158610a3c565b6040516101659190611864565b60405180910390f35b34801561017a57600080fd5b50610195600480360381019061019091906119ea565b610a49565b005b3480156101a357600080fd5b506101be60048036038101906101b9919061187f565b610f21565b6040516101cf959493929190611ac9565b60405180910390f35b6101f260048036038101906101ed919061187f565b61105a565b005b34801561020057600080fd5b5061020961123a565b6040516102169190611864565b60405180910390f35b34801561022b57600080fd5b506102466004803603810190610241919061187f565b611240565b6040516102539190611864565b60405180910390f35b34801561026857600080fd5b50610283600480360381019061027e919061187f565b611268565b60405161029596959493929190611b3e565b60405180910390f35b3480156102aa57600080fd5b506102c560048036038101906102c0919061187f565b611359565b005b600080600054905060608060405180610100016040528087878080601f016020809104026020016040519081016040528093929190818152602001838380828437600081840152601f19601f8201169050808301925050505050505081526020013373ffffffffffffffffffffffffffffffffffffffff1681526020018a8152602001898152602001888152602001838152602001828152602001600015158152506002600085815260200190815260200160002060008201518160000190816103919190611de1565b5060208201518160010160006101000a81548173ffffffffffffffffffffffffffffffffffffffff021916908373ffffffffffffffffffffffffffffffffffffffff16021790555060408201518160020155606082015181600301556080820151816004015560a0820151816005019080519060200190610413929190611681565b5060c0820151816006019080519060200190610430929190611681565b5060e08201518160070160006101000a81548160ff0219169083151502179055509050507f96beefe7c0c1b00e25286e8b55a743ec392f25ea7c8cb445359df7541168266083338b8a8c8b8b60405161048f9796959493929190611eef565b60405180910390a16000808154809291906104a990611f88565b9190505550600183908060018154018082558091505060019003906000526020600020016000909190919091505582935050505095945050505050565b6000600260008381526020019081526020016000206040518061010001604052908160008201805461051790611c04565b80601f016020809104026020016040519081016040528092919081815260200182805461054390611c04565b80156105905780601f1061056557610100808354040283529160200191610590565b820191906000526020600020905b81548152906001019060200180831161057357829003601f168201915b505050505081526020016001820160009054906101000a900473ffffffffffffffffffffffffffffffffffffffff1673ffffffffffffffffffffffffffffffffffffffff1673ffffffffffffffffffffffffffffffffffffffff1681526020016002820154815260200160038201548152602001600482015481526020016005820180548060200260200160405190810160405280929190818152602001828054801561069257602002820191906000526020600020905b8160009054906101000a900473ffffffffffffffffffffffffffffffffffffffff1673ffffffffffffffffffffffffffffffffffffffff1681526020019060010190808311610648575b505050505081526020016006820180548060200260200160405190810160405280929190818152602001828054801561072057602002820191906000526020600020905b8160009054906101000a900473ffffffffffffffffffffffffffffffffffffffff1673ffffffffffffffffffffffffffffffffffffffff16815260200190600101908083116106d6575b505050505081526020016007820160009054906101000a900460ff16151515158152505090508060e001511561078b576040517f08c379a00000000000000000000000000000000000000000000000000000000081526004016107829061201c565b60405180910390fd5b62093a80816040015161079e919061203c565b4210156107e0576040517f08c379a00000000000000000000000000000000000000000000000000000000081526004016107d7906120bc565b60405180910390fd5b806020015173ffffffffffffffffffffffffffffffffffffffff163373ffffffffffffffffffffffffffffffffffffffff1614610852576040517f08c379a000000000000000000000000000000000000000000000000000000000815260040161084990612128565b60405180910390fd5b60008160c00151518260a001515161086a9190612148565b9050600082606001518261087e919061217c565b905060018360e001901515908115158152505060003373ffffffffffffffffffffffffffffffffffffffff16826040516108b7906121ef565b60006040518083038185875af1925050503d80600081146108f4576040519150601f19603f3d011682016040523d82523d6000602084013e6108f9565b606091505b50509050806109145760008460e00190151590811515815250505b80610954576040517f08c379a000000000000000000000000000000000000000000000000000000000815260040161094b90612250565b60405180910390fd5b7f0308e7ef5ff7ae64ed45c37a04775b24be0bfbc4cb5f5c3e6b0aa505d006eafc856040516109839190611864565b60405180910390a15050505050565b6060600060026000848152602001908152602001600020905080600501805480602002602001604051908101604052809291908181526020018280548015610a2f57602002820191906000526020600020905b8160009054906101000a900473ffffffffffffffffffffffffffffffffffffffff1673ffffffffffffffffffffffffffffffffffffffff16815260200190600101908083116109e5575b5050505050915050919050565b6000600180549050905090565b60006002600084815260200190815260200160002090508060010160009054906101000a900473ffffffffffffffffffffffffffffffffffffffff1673ffffffffffffffffffffffffffffffffffffffff163373ffffffffffffffffffffffffffffffffffffffff1614610af2576040517f08c379a0000000000000000000000000000000000000000000000000000000008152600401610ae9906122bc565b60405180910390fd5b600080600090505b82600501805490508160ff161015610bdc578373ffffffffffffffffffffffffffffffffffffffff16836005018260ff1681548110610b3c57610b3b6122dc565b5b9060005260206000200160009054906101000a900473ffffffffffffffffffffffffffffffffffffffff1673ffffffffffffffffffffffffffffffffffffffff1603610bc957826005018160ff1681548110610b9b57610b9a6122dc565b5b9060005260206000200160009054906101000a900473ffffffffffffffffffffffffffffffffffffffff1691505b8080610bd490612318565b915050610afa565b508273ffffffffffffffffffffffffffffffffffffffff168173ffffffffffffffffffffffffffffffffffffffff1614610c4b576040517f08c379a0000000000000000000000000000000000000000000000000000000008152600401610c429061238d565b60405180910390fd5b60005b82600601805490508160ff161015610d24578373ffffffffffffffffffffffffffffffffffffffff16836006018260ff1681548110610c9057610c8f6122dc565b5b9060005260206000200160009054906101000a900473ffffffffffffffffffffffffffffffffffffffff1673ffffffffffffffffffffffffffffffffffffffff1603610d11576040517f08c379a0000000000000000000000000000000000000000000000000000000008152600401610d08906123f9565b60405180910390fd5b8080610d1c90612318565b915050610c4e565b50600015158260070160009054906101000a900460ff16151514610d7d576040517f08c379a0000000000000000000000000000000000000000000000000000000008152600401610d7490612465565b60405180910390fd5b81600601839080600181540180825580915050600190039060005260206000200160009091909190916101000a81548173ffffffffffffffffffffffffffffffffffffffff021916908373ffffffffffffffffffffffffffffffffffffffff16021790555060008373ffffffffffffffffffffffffffffffffffffffff168360030154604051610e0c906121ef565b60006040518083038185875af1925050503d8060008114610e49576040519150601f19603f3d011682016040523d82523d6000602084013e610e4e565b606091505b5050905080610ea15782600601805480610e6b57610e6a612485565b5b6001900381819060005260206000200160006101000a81549073ffffffffffffffffffffffffffffffffffffffff021916905590555b80610ee1576040517f08c379a0000000000000000000000000000000000000000000000000000000008152600401610ed890612250565b60405180910390fd5b7ff51b42fda5553f12aca9bf0984b446bf9883824e148ee9e467eb21f180a05ff38585604051610f129291906124b4565b60405180910390a15050505050565b6060600080600080600260008781526020019081526020016000206000016002600088815260200190815260200160002060010160009054906101000a900473ffffffffffffffffffffffffffffffffffffffff166002600089815260200190815260200160002060020154600260008a815260200190815260200160002060040154600260008b815260200190815260200160002060030154848054610fc790611c04565b80601f0160208091040260200160405190810160405280929190818152602001828054610ff390611c04565b80156110405780601f1061101557610100808354040283529160200191611040565b820191906000526020600020905b81548152906001019060200180831161102357829003601f168201915b505050505094509450945094509450945091939590929450565b600060026000838152602001908152602001600020905080600401548160050180549050106110be576040517f08c379a00000000000000000000000000000000000000000000000000000000081526004016110b590612529565b60405180910390fd5b60005b81600501805490508160ff161015611197573373ffffffffffffffffffffffffffffffffffffffff16826005018260ff1681548110611103576111026122dc565b5b9060005260206000200160009054906101000a900473ffffffffffffffffffffffffffffffffffffffff1673ffffffffffffffffffffffffffffffffffffffff1603611184576040517f08c379a000000000000000000000000000000000000000000000000000000000815260040161117b90612595565b60405180910390fd5b808061118f90612318565b9150506110c1565b5080600501339080600181540180825580915050600190039060005260206000200160009091909190916101000a81548173ffffffffffffffffffffffffffffffffffffffff021916908373ffffffffffffffffffffffffffffffffffffffff1602179055507f305579fda99551f5107b32b7465875a3984f12521b5df905ee46fe6efb873f92823360405161122e9291906124b4565b60405180910390a15050565b60005481565b600060018281548110611256576112556122dc565b5b90600052602060002001549050919050565b600260205280600052604060002060009150905080600001805461128b90611c04565b80601f01602080910402602001604051908101604052809291908181526020018280546112b790611c04565b80156113045780601f106112d957610100808354040283529160200191611304565b820191906000526020600020905b8154815290600101906020018083116112e757829003601f168201915b5050505050908060010160009054906101000a900473ffffffffffffffffffffffffffffffffffffffff16908060020154908060030154908060040154908060070160009054906101000a900460ff16905086565b6000600260008381526020019081526020016000206040518061010001604052908160008201805461138a90611c04565b80601f01602080910402602001604051908101604052809291908181526020018280546113b690611c04565b80156114035780601f106113d857610100808354040283529160200191611403565b820191906000526020600020905b8154815290600101906020018083116113e657829003601f168201915b505050505081526020016001820160009054906101000a900473ffffffffffffffffffffffffffffffffffffffff1673ffffffffffffffffffffffffffffffffffffffff1673ffffffffffffffffffffffffffffffffffffffff1681526020016002820154815260200160038201548152602001600482015481526020016005820180548060200260200160405190810160405280929190818152602001828054801561150557602002820191906000526020600020905b8160009054906101000a900473ffffffffffffffffffffffffffffffffffffffff1673ffffffffffffffffffffffffffffffffffffffff16815260200190600101908083116114bb575b505050505081526020016006820180548060200260200160405190810160405280929190818152602001828054801561159357602002820191906000526020600020905b8160009054906101000a900473ffffffffffffffffffffffffffffffffffffffff1673ffffffffffffffffffffffffffffffffffffffff1681526020019060010190808311611549575b505050505081526020016007820160009054906101000a900460ff1615151515815250509050806020015173ffffffffffffffffffffffffffffffffffffffff163373ffffffffffffffffffffffffffffffffffffffff161461162b576040517f08c379a0000000000000000000000000000000000000000000000000000000008152600401611622906122bc565b60405180910390fd5b60005b8160a00151518160ff16101561167c57611669838360a001518360ff168151811061165c5761165b6122dc565b5b6020026020010151610a49565b808061167490612318565b91505061162e565b505050565b8280548282559060005260206000209081019282156116fa579160200282015b828111156116f95782518260006101000a81548173ffffffffffffffffffffffffffffffffffffffff021916908373ffffffffffffffffffffffffffffffffffffffff160217905550916020019190600101906116a1565b5b509050611707919061170b565b5090565b5b8082111561172457600081600090555060010161170c565b5090565b600080fd5b600080fd5b6000819050919050565b61174581611732565b811461175057600080fd5b50565b6000813590506117628161173c565b92915050565b600080fd5b600080fd5b600080fd5b60008083601f84011261178d5761178c611768565b5b8235905067ffffffffffffffff8111156117aa576117a961176d565b5b6020830191508360018202830111156117c6576117c5611772565b5b9250929050565b6000806000806000608086880312156117e9576117e8611728565b5b60006117f788828901611753565b955050602061180888828901611753565b945050604061181988828901611753565b935050606086013567ffffffffffffffff81111561183a5761183961172d565b5b61184688828901611777565b92509250509295509295909350565b61185e81611732565b82525050565b60006020820190506118796000830184611855565b92915050565b60006020828403121561189557611894611728565b5b60006118a384828501611753565b91505092915050565b600081519050919050565b600082825260208201905092915050565b6000819050602082019050919050565b600073ffffffffffffffffffffffffffffffffffffffff82169050919050565b6000611903826118d8565b9050919050565b611913816118f8565b82525050565b6000611925838361190a565b60208301905092915050565b6000602082019050919050565b6000611949826118ac565b61195381856118b7565b935061195e836118c8565b8060005b8381101561198f5781516119768882611919565b975061198183611931565b925050600181019050611962565b5085935050505092915050565b600060208201905081810360008301526119b6818461193e565b905092915050565b6119c7816118f8565b81146119d257600080fd5b50565b6000813590506119e4816119be565b92915050565b60008060408385031215611a0157611a00611728565b5b6000611a0f85828601611753565b9250506020611a20858286016119d5565b9150509250929050565b600081519050919050565b600082825260208201905092915050565b60005b83811015611a64578082015181840152602081019050611a49565b60008484015250505050565b6000601f19601f8301169050919050565b6000611a8c82611a2a565b611a968185611a35565b9350611aa6818560208601611a46565b611aaf81611a70565b840191505092915050565b611ac3816118f8565b82525050565b600060a0820190508181036000830152611ae38188611a81565b9050611af26020830187611aba565b611aff6040830186611855565b611b0c6060830185611855565b611b196080830184611855565b9695505050505050565b60008115159050919050565b611b3881611b23565b82525050565b600060c0820190508181036000830152611b588189611a81565b9050611b676020830188611aba565b611b746040830187611855565b611b816060830186611855565b611b8e6080830185611855565b611b9b60a0830184611b2f565b979650505050505050565b7f4e487b7100000000000000000000000000000000000000000000000000000000600052604160045260246000fd5b7f4e487b7100000000000000000000000000000000000000000000000000000000600052602260045260246000fd5b60006002820490506001821680611c1c57607f821691505b602082108103611c2f57611c2e611bd5565b5b50919050565b60008190508160005260206000209050919050565b60006020601f8301049050919050565b600082821b905092915050565b600060088302611c977fffffffffffffffffffffffffffffffffffffffffffffffffffffffffffffffff82611c5a565b611ca18683611c5a565b95508019841693508086168417925050509392505050565b6000819050919050565b6000611cde611cd9611cd484611732565b611cb9565b611732565b9050919050565b6000819050919050565b611cf883611cc3565b611d0c611d0482611ce5565b848454611c67565b825550505050565b600090565b611d21611d14565b611d2c818484611cef565b505050565b5b81811015611d5057611d45600082611d19565b600181019050611d32565b5050565b601f821115611d9557611d6681611c35565b611d6f84611c4a565b81016020851015611d7e578190505b611d92611d8a85611c4a565b830182611d31565b50505b505050565b600082821c905092915050565b6000611db860001984600802611d9a565b1980831691505092915050565b6000611dd18383611da7565b9150826002028217905092915050565b611dea82611a2a565b67ffffffffffffffff811115611e0357611e02611ba6565b5b611e0d8254611c04565b611e18828285611d54565b600060209050601f831160018114611e4b5760008415611e39578287015190505b611e438582611dc5565b865550611eab565b601f198416611e5986611c35565b60005b82811015611e8157848901518255600182019150602085019450602081019050611e5c565b86831015611e9e5784890151611e9a601f891682611da7565b8355505b6001600288020188555050505b505050505050565b82818337600083830152505050565b6000611ece8385611a35565b9350611edb838584611eb3565b611ee483611a70565b840190509392505050565b600060c082019050611f04600083018a611855565b611f116020830189611aba565b611f1e6040830188611855565b611f2b6060830187611855565b611f386080830186611855565b81810360a0830152611f4b818486611ec2565b905098975050505050505050565b7f4e487b7100000000000000000000000000000000000000000000000000000000600052601160045260246000fd5b6000611f9382611732565b91507fffffffffffffffffffffffffffffffffffffffffffffffffffffffffffffffff8203611fc557611fc4611f59565b5b600182019050919050565b7f414c524541445920504149440000000000000000000000000000000000000000600082015250565b6000612006600c83611a35565b915061201182611fd0565b602082019050919050565b6000602082019050818103600083015261203581611ff9565b9050919050565b600061204782611732565b915061205283611732565b925082820190508082111561206a57612069611f59565b5b92915050565b7f544f4f204541524c590000000000000000000000000000000000000000000000600082015250565b60006120a6600983611a35565b91506120b182612070565b602082019050919050565b600060208201905081810360008301526120d581612099565b9050919050565b7f4d555354204245204556454e54204f574e455200000000000000000000000000600082015250565b6000612112601383611a35565b915061211d826120dc565b602082019050919050565b6000602082019050818103600083015261214181612105565b9050919050565b600061215382611732565b915061215e83611732565b925082820390508181111561217657612175611f59565b5b92915050565b600061218782611732565b915061219283611732565b92508282026121a081611732565b915082820484148315176121b7576121b6611f59565b5b5092915050565b600081905092915050565b50565b60006121d96000836121be565b91506121e4826121c9565b600082019050919050565b60006121fa826121cc565b9150819050919050565b7f4661696c656420746f2073656e64204574686572000000000000000000000000600082015250565b600061223a601483611a35565b915061224582612204565b602082019050919050565b600060208201905081810360008301526122698161222d565b9050919050565b7f4e4f5420415554484f52495a4544000000000000000000000000000000000000600082015250565b60006122a6600e83611a35565b91506122b182612270565b602082019050919050565b600060208201905081810360008301526122d581612299565b9050919050565b7f4e487b7100000000000000000000000000000000000000000000000000000000600052603260045260246000fd5b600060ff82169050919050565b60006123238261230b565b915060ff820361233657612335611f59565b5b600182019050919050565b7f4e4f205253565020544f20434f4e4649524d0000000000000000000000000000600082015250565b6000612377601283611a35565b915061238282612341565b602082019050919050565b600060208201905081810360008301526123a68161236a565b9050919050565b7f414c524541445920434c41494d45440000000000000000000000000000000000600082015250565b60006123e3600f83611a35565b91506123ee826123ad565b602082019050919050565b60006020820190508181036000830152612412816123d6565b9050919050565b7f414c52454144592050414944204f555400000000000000000000000000000000600082015250565b600061244f601083611a35565b915061245a82612419565b602082019050919050565b6000602082019050818103600083015261247e81612442565b9050919050565b7f4e487b7100000000000000000000000000000000000000000000000000000000600052603160045260246000fd5b60006040820190506124c96000830185611855565b6124d66020830184611aba565b9392505050565b7f54686973206576656e7420686173207265616368656420636170616369747900600082015250565b6000612513601f83611a35565b915061251e826124dd565b602082019050919050565b6000602082019050818103600083015261254281612506565b9050919050565b7f414c524541445920434f4e4649524d4544000000000000000000000000000000600082015250565b600061257f601183611a35565b915061258a82612549565b602082019050919050565b600060208201905081810360008301526125ae81612572565b905091905056fea26469706673582212202e94303771b4a83dafaaec9c88e946a59c258a8f5f162754d586c4b5e1b5a10964736f6c63430008130033",
  "linkReferences": {},
  "deployedLinkReferences": {}
}