{
  "_format": "hh-sol-artifact-1",
  "contractName": "EventHub",
  "sourceName": "contracts/EventHub.sol",
  "abi": [
    {
      "anonymous": false,
      "inputs": [
        {
          "indexed": false,
          "internalType": "uint256",
          "name": "eventID",
          "type": "uint256"
        },
        {
          "indexed": false,
          "internalType": "address",
          "name": "attendeeAddress",
          "type": "address"
        }
      ],
      "name": "ConfirmedAttendee",
      "type": "event"
    },
    {
      "anonymous": false,
      "inputs": [
        {
          "indexed": false,
          "internalType": "uint256",
          "name": "eventID",
          "type": "uint256"
        }
      ],
      "name": "DepositsPaidOut",
      "type": "event"
    },
    {
      "anonymous": false,
      "inputs": [
        {
          "indexed": false,
          "internalType": "uint256",
          "name": "eventID",
          "type": "uint256"
        },
        {
          "indexed": false,
          "internalType": "address",
          "name": "creatorAddress",
          "type": "address"
        },
        {
          "indexed": false,
          "internalType": "uint256",
          "name": "eventTimestamp",
          "type": "uint256"
        },
        {
          "indexed": false,
          "internalType": "uint256",
          "name": "maxCapacity",
          "type": "uint256"
        },
        {
          "indexed": false,
          "internalType": "uint256",
          "name": "deposit",
          "type": "uint256"
        },
        {
          "indexed": false,
          "internalType": "string",
          "name": "imagePath",
          "type": "string"
        }
      ],
      "name": "NewEventCreated",
      "type": "event"
    },
    {
      "anonymous": false,
      "inputs": [
        {
          "indexed": false,
          "internalType": "uint256",
          "name": "eventID",
          "type": "uint256"
        },
        {
          "indexed": false,
          "internalType": "address",
          "name": "attendeeAddress",
          "type": "address"
        }
      ],
      "name": "NewRSVP",
      "type": "event"
    },
    {
      "inputs": [
        {
          "internalType": "uint256",
          "name": "eventId",
          "type": "uint256"
        }
      ],
      "name": "confirmAllAttendees",
      "outputs": [],
      "stateMutability": "nonpayable",
      "type": "function"
    },
    {
      "inputs": [
        {
          "internalType": "uint256",
          "name": "eventId",
          "type": "uint256"
        },
        {
          "internalType": "address",
          "name": "attendee",
          "type": "address"
        }
      ],
      "name": "confirmAttendee",
      "outputs": [],
      "stateMutability": "nonpayable",
      "type": "function"
    },
    {
      "inputs": [
        {
          "internalType": "string",
          "name": "title",
          "type": "string"
        },
        {
          "internalType": "string",
          "name": "description",
          "type": "string"
        },
        {
          "internalType": "uint256",
          "name": "eventTimestamp",
          "type": "uint256"
        },
        {
          "internalType": "uint256",
          "name": "deposit",
          "type": "uint256"
        },
        {
          "internalType": "uint256",
          "name": "maxCapacity",
          "type": "uint256"
        },
        {
          "internalType": "string",
          "name": "imagePath",
          "type": "string"
        }
      ],
      "name": "createNewEvent",
      "outputs": [
        {
          "internalType": "uint256",
          "name": "",
          "type": "uint256"
        }
      ],
      "stateMutability": "nonpayable",
      "type": "function"
    },
    {
      "inputs": [
        {
          "internalType": "uint256",
          "name": "eventId",
          "type": "uint256"
        }
      ],
      "name": "createNewRSVP",
      "outputs": [],
      "stateMutability": "payable",
      "type": "function"
    },
    {
      "inputs": [
        {
          "internalType": "uint256",
          "name": "eventId",
          "type": "uint256"
        }
      ],
      "name": "getConfirmedRSVPs",
      "outputs": [
        {
          "internalType": "address[]",
          "name": "",
          "type": "address[]"
        }
      ],
      "stateMutability": "view",
      "type": "function"
    },
    {
      "inputs": [
        {
          "internalType": "uint256",
          "name": "eventID",
          "type": "uint256"
        }
      ],
      "name": "getEvent",
      "outputs": [
        {
          "internalType": "string",
          "name": "title",
          "type": "string"
        },
        {
          "internalType": "string",
          "name": "description",
          "type": "string"
        },
        {
          "internalType": "string",
          "name": "imagePath",
          "type": "string"
        },
        {
          "internalType": "address",
          "name": "eventOwner",
          "type": "address"
        },
        {
          "internalType": "uint256",
          "name": "eventTimestamp",
          "type": "uint256"
        },
        {
          "internalType": "uint256",
          "name": "maxCapacity",
          "type": "uint256"
        },
        {
          "internalType": "uint256",
          "name": "deposit",
          "type": "uint256"
        }
      ],
      "stateMutability": "view",
      "type": "function"
    },
    {
      "inputs": [
        {
          "internalType": "uint256",
          "name": "i",
          "type": "uint256"
        }
      ],
      "name": "getEventId",
      "outputs": [
        {
          "internalType": "uint256",
          "name": "",
          "type": "uint256"
        }
      ],
      "stateMutability": "view",
      "type": "function"
    },
    {
      "inputs": [],
      "name": "getEventLength",
      "outputs": [
        {
          "internalType": "uint256",
          "name": "",
          "type": "uint256"
        }
      ],
      "stateMutability": "view",
      "type": "function"
    },
    {
      "inputs": [
        {
          "internalType": "uint256",
          "name": "",
          "type": "uint256"
        }
      ],
      "name": "idToEvent",
      "outputs": [
        {
          "internalType": "string",
          "name": "title",
          "type": "string"
        },
        {
          "internalType": "string",
          "name": "description",
          "type": "string"
        },
        {
          "internalType": "string",
          "name": "imagePath",
          "type": "string"
        },
        {
          "internalType": "address",
          "name": "eventOwner",
          "type": "address"
        },
        {
          "internalType": "uint256",
          "name": "eventTimestamp",
          "type": "uint256"
        },
        {
          "internalType": "uint256",
          "name": "deposit",
          "type": "uint256"
        },
        {
          "internalType": "uint256",
          "name": "maxCapacity",
          "type": "uint256"
        },
        {
          "internalType": "bool",
          "name": "paidOut",
          "type": "bool"
        }
      ],
      "stateMutability": "view",
      "type": "function"
    },
    {
      "inputs": [],
      "name": "totalEvents",
      "outputs": [
        {
          "internalType": "uint256",
          "name": "",
          "type": "uint256"
        }
      ],
      "stateMutability": "view",
      "type": "function"
    },
    {
      "inputs": [
        {
          "internalType": "uint256",
          "name": "eventId",
          "type": "uint256"
        }
      ],
      "name": "withdrawUnclaimedDeposits",
      "outputs": [],
      "stateMutability": "nonpayable",
      "type": "function"
    }
  ],
  "bytecode": "0x608060405234801561001057600080fd5b50612c27806100206000396000f3fe60806040526004361061009c5760003560e01c80636d1884e0116100645780636d1884e014610198578063ada06a3b146101db578063ba870686146101f7578063c3be559b14610222578063d46bae4b1461025f578063df8ef00e146102a35761009c565b80630f8e16dc146100a1578063127d17ab146100de57806328aaabcc146101075780635c98dfa1146101445780636acb5dd31461016f575b600080fd5b3480156100ad57600080fd5b506100c860048036038101906100c39190611d4d565b6102cc565b6040516100d59190611e4b565b60405180910390f35b3480156100ea57600080fd5b5061010560048036038101906101009190611e66565b6105b1565b005b34801561011357600080fd5b5061012e60048036038101906101299190611e66565b610b85565b60405161013b9190611f83565b60405180910390f35b34801561015057600080fd5b50610159610c2f565b6040516101669190611e4b565b60405180910390f35b34801561017b57600080fd5b5061019660048036038101906101919190611fd1565b610c3c565b005b3480156101a457600080fd5b506101bf60048036038101906101ba9190611e66565b611114565b6040516101d297969594939291906120b0565b60405180910390f35b6101f560048036038101906101f09190611e66565b61139a565b005b34801561020357600080fd5b5061020c61157a565b6040516102199190611e4b565b60405180910390f35b34801561022e57600080fd5b5061024960048036038101906102449190611e66565b611580565b6040516102569190611e4b565b60405180910390f35b34801561026b57600080fd5b5061028660048036038101906102819190611e66565b6115a8565b60405161029a98979695949392919061214f565b60405180910390f35b3480156102af57600080fd5b506102ca60048036038101906102c59190611e66565b6117b5565b005b60008060005490506060806040518061014001604052808e8e8080601f016020809104026020016040519081016040528093929190818152602001838380828437600081840152601f19601f8201169050808301925050505050505081526020018c8c8080601f016020809104026020016040519081016040528093929190818152602001838380828437600081840152601f19601f82011690508083019250505050505050815260200187878080601f016020809104026020016040519081016040528093929190818152602001838380828437600081840152601f19601f8201169050808301925050505050505081526020013373ffffffffffffffffffffffffffffffffffffffff1681526020018a81526020018981526020018881526020018381526020018281526020016000151581525060026000858152602001908152602001600020600082015181600001908161042a919061241d565b506020820151816001019081610440919061241d565b506040820151816002019081610456919061241d565b5060608201518160030160006101000a81548173ffffffffffffffffffffffffffffffffffffffff021916908373ffffffffffffffffffffffffffffffffffffffff1602179055506080820151816004015560a0820151816005015560c0820151816006015560e08201518160070190805190602001906104d8929190611c01565b506101008201518160080190805190602001906104f6929190611c01565b506101208201518160090160006101000a81548160ff0219169083151502179055509050507f96beefe7c0c1b00e25286e8b55a743ec392f25ea7c8cb445359df7541168266083338b8a8c8b8b604051610556979695949392919061252b565b60405180910390a1600080815480929190610570906125c4565b919050555060018390806001815401808255809150506001900390600052602060002001600090919091909150558293505050509998505050505050505050565b600060026000838152602001908152602001600020604051806101400160405290816000820180546105e290612240565b80601f016020809104026020016040519081016040528092919081815260200182805461060e90612240565b801561065b5780601f106106305761010080835404028352916020019161065b565b820191906000526020600020905b81548152906001019060200180831161063e57829003601f168201915b5050505050815260200160018201805461067490612240565b80601f01602080910402602001604051908101604052809291908181526020018280546106a090612240565b80156106ed5780601f106106c2576101008083540402835291602001916106ed565b820191906000526020600020905b8154815290600101906020018083116106d057829003601f168201915b5050505050815260200160028201805461070690612240565b80601f016020809104026020016040519081016040528092919081815260200182805461073290612240565b801561077f5780601f106107545761010080835404028352916020019161077f565b820191906000526020600020905b81548152906001019060200180831161076257829003601f168201915b505050505081526020016003820160009054906101000a900473ffffffffffffffffffffffffffffffffffffffff1673ffffffffffffffffffffffffffffffffffffffff1673ffffffffffffffffffffffffffffffffffffffff1681526020016004820154815260200160058201548152602001600682015481526020016007820180548060200260200160405190810160405280929190818152602001828054801561088157602002820191906000526020600020905b8160009054906101000a900473ffffffffffffffffffffffffffffffffffffffff1673ffffffffffffffffffffffffffffffffffffffff1681526020019060010190808311610837575b505050505081526020016008820180548060200260200160405190810160405280929190818152602001828054801561090f57602002820191906000526020600020905b8160009054906101000a900473ffffffffffffffffffffffffffffffffffffffff1673ffffffffffffffffffffffffffffffffffffffff16815260200190600101908083116108c5575b505050505081526020016009820160009054906101000a900460ff16151515158152505090508061012001511561097b576040517f08c379a000000000000000000000000000000000000000000000000000000000815260040161097290612658565b60405180910390fd5b62093a80816080015161098e9190612678565b4210156109d0576040517f08c379a00000000000000000000000000000000000000000000000000000000081526004016109c7906126f8565b60405180910390fd5b806060015173ffffffffffffffffffffffffffffffffffffffff163373ffffffffffffffffffffffffffffffffffffffff1614610a42576040517f08c379a0000000000000000000000000000000000000000000000000000000008152600401610a3990612764565b60405180910390fd5b6000816101000151518260e0015151610a5b9190612784565b905060008260a0015182610a6f91906127b8565b905060018361012001901515908115158152505060003373ffffffffffffffffffffffffffffffffffffffff1682604051610aa99061282b565b60006040518083038185875af1925050503d8060008114610ae6576040519150601f19603f3d011682016040523d82523d6000602084013e610aeb565b606091505b5050905080610b07576000846101200190151590811515815250505b80610b47576040517f08c379a0000000000000000000000000000000000000000000000000000000008152600401610b3e9061288c565b60405180910390fd5b7f0308e7ef5ff7ae64ed45c37a04775b24be0bfbc4cb5f5c3e6b0aa505d006eafc85604051610b769190611e4b565b60405180910390a15050505050565b6060600060026000848152602001908152602001600020905080600701805480602002602001604051908101604052809291908181526020018280548015610c2257602002820191906000526020600020905b8160009054906101000a900473ffffffffffffffffffffffffffffffffffffffff1673ffffffffffffffffffffffffffffffffffffffff1681526020019060010190808311610bd8575b5050505050915050919050565b6000600180549050905090565b60006002600084815260200190815260200160002090508060030160009054906101000a900473ffffffffffffffffffffffffffffffffffffffff1673ffffffffffffffffffffffffffffffffffffffff163373ffffffffffffffffffffffffffffffffffffffff1614610ce5576040517f08c379a0000000000000000000000000000000000000000000000000000000008152600401610cdc906128f8565b60405180910390fd5b600080600090505b82600701805490508160ff161015610dcf578373ffffffffffffffffffffffffffffffffffffffff16836007018260ff1681548110610d2f57610d2e612918565b5b9060005260206000200160009054906101000a900473ffffffffffffffffffffffffffffffffffffffff1673ffffffffffffffffffffffffffffffffffffffff1603610dbc57826007018160ff1681548110610d8e57610d8d612918565b5b9060005260206000200160009054906101000a900473ffffffffffffffffffffffffffffffffffffffff1691505b8080610dc790612954565b915050610ced565b508273ffffffffffffffffffffffffffffffffffffffff168173ffffffffffffffffffffffffffffffffffffffff1614610e3e576040517f08c379a0000000000000000000000000000000000000000000000000000000008152600401610e35906129c9565b60405180910390fd5b60005b82600801805490508160ff161015610f17578373ffffffffffffffffffffffffffffffffffffffff16836008018260ff1681548110610e8357610e82612918565b5b9060005260206000200160009054906101000a900473ffffffffffffffffffffffffffffffffffffffff1673ffffffffffffffffffffffffffffffffffffffff1603610f04576040517f08c379a0000000000000000000000000000000000000000000000000000000008152600401610efb90612a35565b60405180910390fd5b8080610f0f90612954565b915050610e41565b50600015158260090160009054906101000a900460ff16151514610f70576040517f08c379a0000000000000000000000000000000000000000000000000000000008152600401610f6790612aa1565b60405180910390fd5b81600801839080600181540180825580915050600190039060005260206000200160009091909190916101000a81548173ffffffffffffffffffffffffffffffffffffffff021916908373ffffffffffffffffffffffffffffffffffffffff16021790555060008373ffffffffffffffffffffffffffffffffffffffff168360050154604051610fff9061282b565b60006040518083038185875af1925050503d806000811461103c576040519150601f19603f3d011682016040523d82523d6000602084013e611041565b606091505b5050905080611094578260080180548061105e5761105d612ac1565b5b6001900381819060005260206000200160006101000a81549073ffffffffffffffffffffffffffffffffffffffff021916905590555b806110d4576040517f08c379a00000000000000000000000000000000000000000000000000000000081526004016110cb9061288c565b60405180910390fd5b7ff51b42fda5553f12aca9bf0984b446bf9883824e148ee9e467eb21f180a05ff38585604051611105929190612af0565b60405180910390a15050505050565b606080606060008060008060026000898152602001908152602001600020600001600260008a8152602001908152602001600020600101600260008b8152602001908152602001600020600201600260008c815260200190815260200160002060030160009054906101000a900473ffffffffffffffffffffffffffffffffffffffff16600260008d815260200190815260200160002060040154600260008e815260200190815260200160002060060154600260008f8152602001908152602001600020600501548680546111e990612240565b80601f016020809104026020016040519081016040528092919081815260200182805461121590612240565b80156112625780601f1061123757610100808354040283529160200191611262565b820191906000526020600020905b81548152906001019060200180831161124557829003601f168201915b5050505050965085805461127590612240565b80601f01602080910402602001604051908101604052809291908181526020018280546112a190612240565b80156112ee5780601f106112c3576101008083540402835291602001916112ee565b820191906000526020600020905b8154815290600101906020018083116112d157829003601f168201915b5050505050955084805461130190612240565b80601f016020809104026020016040519081016040528092919081815260200182805461132d90612240565b801561137a5780601f1061134f5761010080835404028352916020019161137a565b820191906000526020600020905b81548152906001019060200180831161135d57829003601f168201915b505050505094509650965096509650965096509650919395979092949650565b600060026000838152602001908152602001600020905080600601548160070180549050106113fe576040517f08c379a00000000000000000000000000000000000000000000000000000000081526004016113f590612b65565b60405180910390fd5b60005b81600701805490508160ff1610156114d7573373ffffffffffffffffffffffffffffffffffffffff16826007018260ff168154811061144357611442612918565b5b9060005260206000200160009054906101000a900473ffffffffffffffffffffffffffffffffffffffff1673ffffffffffffffffffffffffffffffffffffffff16036114c4576040517f08c379a00000000000000000000000000000000000000000000000000000000081526004016114bb90612bd1565b60405180910390fd5b80806114cf90612954565b915050611401565b5080600701339080600181540180825580915050600190039060005260206000200160009091909190916101000a81548173ffffffffffffffffffffffffffffffffffffffff021916908373ffffffffffffffffffffffffffffffffffffffff1602179055507f305579fda99551f5107b32b7465875a3984f12521b5df905ee46fe6efb873f92823360405161156e929190612af0565b60405180910390a15050565b60005481565b60006001828154811061159657611595612918565b5b90600052602060002001549050919050565b60026020528060005260406000206000915090508060000180546115cb90612240565b80601f01602080910402602001604051908101604052809291908181526020018280546115f790612240565b80156116445780601f1061161957610100808354040283529160200191611644565b820191906000526020600020905b81548152906001019060200180831161162757829003601f168201915b50505050509080600101805461165990612240565b80601f016020809104026020016040519081016040528092919081815260200182805461168590612240565b80156116d25780601f106116a7576101008083540402835291602001916116d2565b820191906000526020600020905b8154815290600101906020018083116116b557829003601f168201915b5050505050908060020180546116e790612240565b80601f016020809104026020016040519081016040528092919081815260200182805461171390612240565b80156117605780601f1061173557610100808354040283529160200191611760565b820191906000526020600020905b81548152906001019060200180831161174357829003601f168201915b5050505050908060030160009054906101000a900473ffffffffffffffffffffffffffffffffffffffff16908060040154908060050154908060060154908060090160009054906101000a900460ff16905088565b600060026000838152602001908152602001600020604051806101400160405290816000820180546117e690612240565b80601f016020809104026020016040519081016040528092919081815260200182805461181290612240565b801561185f5780601f106118345761010080835404028352916020019161185f565b820191906000526020600020905b81548152906001019060200180831161184257829003601f168201915b5050505050815260200160018201805461187890612240565b80601f01602080910402602001604051908101604052809291908181526020018280546118a490612240565b80156118f15780601f106118c6576101008083540402835291602001916118f1565b820191906000526020600020905b8154815290600101906020018083116118d457829003601f168201915b5050505050815260200160028201805461190a90612240565b80601f016020809104026020016040519081016040528092919081815260200182805461193690612240565b80156119835780601f1061195857610100808354040283529160200191611983565b820191906000526020600020905b81548152906001019060200180831161196657829003601f168201915b505050505081526020016003820160009054906101000a900473ffffffffffffffffffffffffffffffffffffffff1673ffffffffffffffffffffffffffffffffffffffff1673ffffffffffffffffffffffffffffffffffffffff16815260200160048201548152602001600582015481526020016006820154815260200160078201805480602002602001604051908101604052809291908181526020018280548015611a8557602002820191906000526020600020905b8160009054906101000a900473ffffffffffffffffffffffffffffffffffffffff1673ffffffffffffffffffffffffffffffffffffffff1681526020019060010190808311611a3b575b5050505050815260200160088201805480602002602001604051908101604052809291908181526020018280548015611b1357602002820191906000526020600020905b8160009054906101000a900473ffffffffffffffffffffffffffffffffffffffff1673ffffffffffffffffffffffffffffffffffffffff1681526020019060010190808311611ac9575b505050505081526020016009820160009054906101000a900460ff1615151515815250509050806060015173ffffffffffffffffffffffffffffffffffffffff163373ffffffffffffffffffffffffffffffffffffffff1614611bab576040517f08c379a0000000000000000000000000000000000000000000000000000000008152600401611ba2906128f8565b60405180910390fd5b60005b8160e00151518160ff161015611bfc57611be9838360e001518360ff1681518110611bdc57611bdb612918565b5b6020026020010151610c3c565b8080611bf490612954565b915050611bae565b505050565b828054828255906000526020600020908101928215611c7a579160200282015b82811115611c795782518260006101000a81548173ffffffffffffffffffffffffffffffffffffffff021916908373ffffffffffffffffffffffffffffffffffffffff16021790555091602001919060010190611c21565b5b509050611c879190611c8b565b5090565b5b80821115611ca4576000816000905550600101611c8c565b5090565b600080fd5b600080fd5b600080fd5b600080fd5b600080fd5b60008083601f840112611cd757611cd6611cb2565b5b8235905067ffffffffffffffff811115611cf457611cf3611cb7565b5b602083019150836001820283011115611d1057611d0f611cbc565b5b9250929050565b6000819050919050565b611d2a81611d17565b8114611d3557600080fd5b50565b600081359050611d4781611d21565b92915050565b600080600080600080600080600060c08a8c031215611d6f57611d6e611ca8565b5b60008a013567ffffffffffffffff811115611d8d57611d8c611cad565b5b611d998c828d01611cc1565b995099505060208a013567ffffffffffffffff811115611dbc57611dbb611cad565b5b611dc88c828d01611cc1565b97509750506040611ddb8c828d01611d38565b9550506060611dec8c828d01611d38565b9450506080611dfd8c828d01611d38565b93505060a08a013567ffffffffffffffff811115611e1e57611e1d611cad565b5b611e2a8c828d01611cc1565b92509250509295985092959850929598565b611e4581611d17565b82525050565b6000602082019050611e606000830184611e3c565b92915050565b600060208284031215611e7c57611e7b611ca8565b5b6000611e8a84828501611d38565b91505092915050565b600081519050919050565b600082825260208201905092915050565b6000819050602082019050919050565b600073ffffffffffffffffffffffffffffffffffffffff82169050919050565b6000611eea82611ebf565b9050919050565b611efa81611edf565b82525050565b6000611f0c8383611ef1565b60208301905092915050565b6000602082019050919050565b6000611f3082611e93565b611f3a8185611e9e565b9350611f4583611eaf565b8060005b83811015611f76578151611f5d8882611f00565b9750611f6883611f18565b925050600181019050611f49565b5085935050505092915050565b60006020820190508181036000830152611f9d8184611f25565b905092915050565b611fae81611edf565b8114611fb957600080fd5b50565b600081359050611fcb81611fa5565b92915050565b60008060408385031215611fe857611fe7611ca8565b5b6000611ff685828601611d38565b925050602061200785828601611fbc565b9150509250929050565b600081519050919050565b600082825260208201905092915050565b60005b8381101561204b578082015181840152602081019050612030565b60008484015250505050565b6000601f19601f8301169050919050565b600061207382612011565b61207d818561201c565b935061208d81856020860161202d565b61209681612057565b840191505092915050565b6120aa81611edf565b82525050565b600060e08201905081810360008301526120ca818a612068565b905081810360208301526120de8189612068565b905081810360408301526120f28188612068565b905061210160608301876120a1565b61210e6080830186611e3c565b61211b60a0830185611e3c565b61212860c0830184611e3c565b98975050505050505050565b60008115159050919050565b61214981612134565b82525050565b600061010082019050818103600083015261216a818b612068565b9050818103602083015261217e818a612068565b905081810360408301526121928189612068565b90506121a160608301886120a1565b6121ae6080830187611e3c565b6121bb60a0830186611e3c565b6121c860c0830185611e3c565b6121d560e0830184612140565b9998505050505050505050565b7f4e487b7100000000000000000000000000000000000000000000000000000000600052604160045260246000fd5b7f4e487b7100000000000000000000000000000000000000000000000000000000600052602260045260246000fd5b6000600282049050600182168061225857607f821691505b60208210810361226b5761226a612211565b5b50919050565b60008190508160005260206000209050919050565b60006020601f8301049050919050565b600082821b905092915050565b6000600883026122d37fffffffffffffffffffffffffffffffffffffffffffffffffffffffffffffffff82612296565b6122dd8683612296565b95508019841693508086168417925050509392505050565b6000819050919050565b600061231a61231561231084611d17565b6122f5565b611d17565b9050919050565b6000819050919050565b612334836122ff565b61234861234082612321565b8484546122a3565b825550505050565b600090565b61235d612350565b61236881848461232b565b505050565b5b8181101561238c57612381600082612355565b60018101905061236e565b5050565b601f8211156123d1576123a281612271565b6123ab84612286565b810160208510156123ba578190505b6123ce6123c685612286565b83018261236d565b50505b505050565b600082821c905092915050565b60006123f4600019846008026123d6565b1980831691505092915050565b600061240d83836123e3565b9150826002028217905092915050565b61242682612011565b67ffffffffffffffff81111561243f5761243e6121e2565b5b6124498254612240565b612454828285612390565b600060209050601f8311600181146124875760008415612475578287015190505b61247f8582612401565b8655506124e7565b601f19841661249586612271565b60005b828110156124bd57848901518255600182019150602085019450602081019050612498565b868310156124da57848901516124d6601f8916826123e3565b8355505b6001600288020188555050505b505050505050565b82818337600083830152505050565b600061250a838561201c565b93506125178385846124ef565b61252083612057565b840190509392505050565b600060c082019050612540600083018a611e3c565b61254d60208301896120a1565b61255a6040830188611e3c565b6125676060830187611e3c565b6125746080830186611e3c565b81810360a08301526125878184866124fe565b905098975050505050505050565b7f4e487b7100000000000000000000000000000000000000000000000000000000600052601160045260246000fd5b60006125cf82611d17565b91507fffffffffffffffffffffffffffffffffffffffffffffffffffffffffffffffff820361260157612600612595565b5b600182019050919050565b7f414c524541445920504149440000000000000000000000000000000000000000600082015250565b6000612642600c8361201c565b915061264d8261260c565b602082019050919050565b6000602082019050818103600083015261267181612635565b9050919050565b600061268382611d17565b915061268e83611d17565b92508282019050808211156126a6576126a5612595565b5b92915050565b7f544f4f204541524c590000000000000000000000000000000000000000000000600082015250565b60006126e260098361201c565b91506126ed826126ac565b602082019050919050565b60006020820190508181036000830152612711816126d5565b9050919050565b7f4d555354204245204556454e54204f574e455200000000000000000000000000600082015250565b600061274e60138361201c565b915061275982612718565b602082019050919050565b6000602082019050818103600083015261277d81612741565b9050919050565b600061278f82611d17565b915061279a83611d17565b92508282039050818111156127b2576127b1612595565b5b92915050565b60006127c382611d17565b91506127ce83611d17565b92508282026127dc81611d17565b915082820484148315176127f3576127f2612595565b5b5092915050565b600081905092915050565b50565b60006128156000836127fa565b915061282082612805565b600082019050919050565b600061283682612808565b9150819050919050565b7f4661696c656420746f2073656e64204574686572000000000000000000000000600082015250565b600061287660148361201c565b915061288182612840565b602082019050919050565b600060208201905081810360008301526128a581612869565b9050919050565b7f4e4f5420415554484f52495a4544000000000000000000000000000000000000600082015250565b60006128e2600e8361201c565b91506128ed826128ac565b602082019050919050565b60006020820190508181036000830152612911816128d5565b9050919050565b7f4e487b7100000000000000000000000000000000000000000000000000000000600052603260045260246000fd5b600060ff82169050919050565b600061295f82612947565b915060ff820361297257612971612595565b5b600182019050919050565b7f4e4f205253565020544f20434f4e4649524d0000000000000000000000000000600082015250565b60006129b360128361201c565b91506129be8261297d565b602082019050919050565b600060208201905081810360008301526129e2816129a6565b9050919050565b7f414c524541445920434c41494d45440000000000000000000000000000000000600082015250565b6000612a1f600f8361201c565b9150612a2a826129e9565b602082019050919050565b60006020820190508181036000830152612a4e81612a12565b9050919050565b7f414c52454144592050414944204f555400000000000000000000000000000000600082015250565b6000612a8b60108361201c565b9150612a9682612a55565b602082019050919050565b60006020820190508181036000830152612aba81612a7e565b9050919050565b7f4e487b7100000000000000000000000000000000000000000000000000000000600052603160045260246000fd5b6000604082019050612b056000830185611e3c565b612b1260208301846120a1565b9392505050565b7f54686973206576656e7420686173207265616368656420636170616369747900600082015250565b6000612b4f601f8361201c565b9150612b5a82612b19565b602082019050919050565b60006020820190508181036000830152612b7e81612b42565b9050919050565b7f414c524541445920434f4e4649524d4544000000000000000000000000000000600082015250565b6000612bbb60118361201c565b9150612bc682612b85565b602082019050919050565b60006020820190508181036000830152612bea81612bae565b905091905056fea26469706673582212209f7b7d05990744e3f3bacee2a5be464d38aaff20668d75aa120c810b1c76f4d764736f6c63430008130033",
  "linkReferences": {},
  "deployedLinkReferences": {}
}